HEADER ENDERECOS    20250731                                                                                                                                                                            
005009390200100003700009008     CAIO MENDES MOREIRA                RUA PROFESSOR NAPOLEAO DOREA, 02   JARDIM JAPAO             SAO PAULO                SP04917160000000000000000                       
005009390200100004850005092     ALINE MENEGUIM DIAS                MIGUEL DIB JORGE                   JARDIM DO CASTELO        FERRAZ DE VASCONCELOS    SP08503000000000000000000                       
005009390200100005070005096     BIANCA BARRETO DINIZ               CAMPO FRIO                         JARDIM MARISA            SAO PAULO                SP05108090000000000000000                       
005009390200100005660005099     GABRIEL PREGIGUEIRO DUNHAM         RUA AFONSO VIDAL, 25               JARDIM SANTO ANTONIO     SAO PAULO                SP05723330000000000000000                       
005009390200100006040005103     ISABELLY DUTRA MEDEIROS            RUA PAPIRO-DO-EGITO, 1308          JARDIM NAIR              SAO PAULO                SP08071050000000000000000                       
005009390200100007360004748     BRENDA GOMES RODRIGUES FIGUEIREDO  RUA ARVORE DE UMBELA, 157          JARDIM HELOISA           SAO PAULO                SP08161450000000000000000                       
005009390200100009140009028     FABIO LUIS DE MELO FOGLIA          RUA SEBASTIAO MIGUEL DA SILVA, 107 CIDADE LIDER             SAO PAULO                SP08280350000000000000000                       
005009390200100009220009029     JAMYLLE LUIZA FIALHO               AVENIDA RIO BRANCO, 744 APTO 1002  CAMPOS ELISEOS           SAO PAULO                SP01206000000000000000000                       
005009390200100009570049533     LUIZ HENRIQUE NERI MESQUITA        SANTA CRUZ                         CANHEMA                  DIADEMA                  SP09941230000000000000000                       
005009390200100009730009032     FILIPE DE SOUSA BRITO              RUA VISCONDE DE PARNAIBA, 305      BRAS                     SAO PAULO                SP03045000000000000000000                       
005009390200100009810009033     LUCAS VIANA DE LIMA                RUA URUGUAI, 161                   JARDIM BELA VISTA        FERRAZ DE VASCONCELOS    SP08532410000000000000000                       
005009390200100009900009034     LUCAS GABRIEL DE OLIVEIRA FRAZAO   RUA CAMPEADOR DE MINAS, 30         PARQUE SAO RAFAEL        SAO PAULO                SP08320000000000000000000                       
005009390200100010070005015     VANESSA DOS SANTOS LOPES           DOZE DE JUNHO 138                  JARDIM DO TRIUNFO        GUARULHOS                SP07175330000000000000000                       
005009390200100010150005018     NATACHA DE OLIVEIRA RODRIGUES LIMA SANTA ROSA 67                      SANTA PAULA              SAO CAETANO DO SUL       SP09521360000000000000000                       
005009390200100012280004932     VANESSA VIANA DO VALE              RUA BRAGA, 202                     VILA LUSITANIA           SAO BERNARDO DO CAMPO    SP09725160000000000000000                       
005009390200100012360004931     JULIANA LINS DOS SANTOS BATISTA    RUA DONA SEBASTIANA                VILA NOVA PARADA         SAO PAULO                SP02883150000000000000000                       
005009390200100012790004958     LILIAN SOARES FELICIANO            BARRA DO RIO ABAIXO 10             JARDIM DAS ROSAS ZONA LE SAO PAULO                SP03909190000000000000000                       
005009390200100012870004827     JESSICA DOURADO LINS RODRIGUES     AV FABIO EDUARDO RAMOS ESQUIVEL, 29CANHEMA                  DIADEMA                  SP09941202000000000000000                       
005009390200100012950004968     MARLI CARVALHO DE ALMEIDA          GUIRA 75                           JARDIM SANTO ONOFRE      SAO PAULO                SP03719000000000000000000                       
005009390200100013090004964     ISABELA DE SOUZA FREITAS DE AMORIM WILMA DE OLIVEIRA VIEIRA           CASA VERDE MEDIA         SAO PAULO                SP02530041000000000000000                       
005009390200100013760009053     SARA FERREIRA ARCOS                RUA SENADOR JURACI MAGALHAES, 645  JARDIM VASSOURAS II      FRANCISCO MORATO         SP07953261000000000000000                       
005009390200100013920004470     ELZA DURINO DOS SANTOS RUIZ        RUA JORGE RODRIGUES, 400 CS 134    JARDIM MELIUNAS          SAO PAULO                SP08111320000000000000000                       
005009390200100014060004471     MARIA APARECIDA TIBURTINO QUEIROZ  RUA PROFETA JEREMIAS, 347 APTO 44 CCIDADE TIRADENTES        SAO PAULO                SP08471710000000000000000                       
005009390200100014220004475     FELIPE JIMENEZ ALEGRE              AV HENRIQUE MORIZE, 145            VILA FORMOSA             SAO PAULO                SP03367000000000000000000                       
005009390200100014300004482     THIAGO DE ANDRADE LEDA             AV BEL TAVARES, 1264               ERMELINO MATARAZZO       SAO PAULO                SP03810110000000000000000                       
005009390200100014570004503     GIOVANNI ENRICO SANTORO            RUA CEL CINTRA, 246                MOOCA                    SAO PAULO                SP03105050000000000000000                       
005009390200100014730004515     DAYANA CRISTINA DILALO QUESSADA    AVENIDA DR ODILON DE SOUZA, 2      JARDIM IMPERADOR         SUZANO                   SP08673250000000000000000                       
005009390200100015110004545     KESIA PRISCILA DE LIMA SOUZA       RUA CACHOEIRA DAS GARCAS, 109 CS 1 GUAIANASES               SAO PAULO                SP08473010000000000000000                       
005009390200100015200004547     JULIANA DIAS RODRIGUES             RUA PONTA GROSSA, 301              BATISTINI                SAO BERNARDO DO CAMPO    SP09843685000000000000000                       
005009390200100015380004560     AROLDO FERREIRA                    RUA JULIO MINOZZI, 18              SANTANA                  SAO PAULO                SP02019090000000000000000                       
005009390200100015460004572     CELSO KOLLER                       RUA DOS FRANCESES, 498 APTO 22 BL BBELA VISTA               SAO PAULO                SP01329010000000000000000                       
005009390200100015890004641     PAULA DE SOUZA SANTOS              RUA SANTA BARBARA DO SUL, 13 CS 3  JARDIM SENICE            SAO PAULO                SP01001000000000000000000                       
005009390200100016000004644     LUCIANE CRISTINA SILVA DE ALMEIDA  AVENIDA MARIA RIBEIRO DE JESUS, 382VILA SANTOS              SAO PAULO                SP02637000000000000000000                       
005009390200100016600004152     DOUGLAS DOS SANTOS CESAR           ALAMEDAS DAS PITANGU, 73           JARAGUA                  SAO PAULO                SP05187631000000000000000                       
005009390200100016940004315     VANESSA DOS SANTOS MACEDO DA SILVA RUA CECILIA MARIA, 354             FREGUESIA DO O           SAO PAULO                SP02979020000000000000000                       
005009390200100017400004427     VITORIA SILVA CAVALCANTE           RUA TANQUE VELHO, 2655             VILA CONSTANCIA          SAO PAULO                SP02251000000000000000000                       
005009390200100017830004838     DANIELE DA SILVA SOUSA             SAO JORGE                          JARDIM VALO VERDE        EMBU                     SP06815320000000000000000                       
005009390200100018050004852     DEIVID ALMEIDA SILVA               VLA NOVA SAI VICENTE               ENGENHEIRO GOULART       SAO PAULO                SP03726080000000000000000                       
005009390200100018800004868     ALINE MARIANO SANTOS FARIAS        RUA AGRIMENSOR SUGAY               COLONIA (ZONA LESTE)     SAO PAULO                SP08260030000000000000000                       
005009390200100019100004889     MARIA ROSANGELA DA SILVA           RUA GINO AMADEI                    PAULICEIA                SAO BERNARDO DO CAMPO    SP09690030000000000000000                       
005009390200100019370004909     THAINA MAUTONO DA SILVA            RUA MANUEL PINHEIRO                JARDIM BRASILIA (ZON     SAO PAULO                SP03582080000000000000000                       
005009390200100020110004682     CARINE ROMAO DE LIMA               RUA SANTA DAVINA, 537              PARQUE PAULISTANO        SAO PAULO                SP08080030000000000000000                       
005009390200100020700004707     KEILLA VIVIAN SOUZA SANTOS         RUA DO SACRAMENTO, 230 BOX 10      RUDGE RAMOS              SAO BERNARDO DO CAMPO    SP09640000000000000000000                       
005009390200100020890004721     WALLACE CARVALHO GOIS              RUA DA MOOCA, 1074                 MOOCA                    SAO PAULO                SP03104000000000000000000                       
005009390200100021000004760     ERIKA MARIAN MARQUES MAHFUZ        RUA SUGAO SUZUKI, 100 BL 6 B 52    COLONIA (ZONA LESTE)     SAO PAULO                SP08260110000000000000000                       
005009390200100021190004767     LEONARDO FONSECA DE CAMPOS         RUA JACQUES DANON, 150             CIDADE LADER             SAO PAULO                SP01001000000000000000000                       
005009390200100021270004777     ERICA DIAS DE OLIVEIRA CORREIA     RUA AVE DO PARAASO, 25 3           ALVARENGA                SAO BERNARDO DO CAMPO    SP01001000000000000000000                       
005009390200100021350004786     LILIAN DA SILVA RIBEIRO            RUA CACHOEIRA ALEGRE, 75           JARDIM SANTA CRUZ (Z     SAO PAULO                SP02672030000000000000000                       
005009390200100021430004789     BEATRIZ DE SANTANA OLIVEIRA        RUA PANAMA, 125                    JARDIM OBELISCO          POA                      SP08565120000000000000000                       
005009390200100021780004820     KEILA FABIANA RUIZ DIAS            RUA BELA VISTA, 794                BATISTINI                SAO BERNARDO DO CAMPO    SP09843120000000000000000                       
005009390200100024530000092     LUCIANA FERNANDES CORDEIRO         AVENIDA CORONEL ALVES E ROCHA FILHOPARQUE GUARANI           SAO PAULO                SP08235770000000000000000                       
005009390200100024700004655     ELAINE CRISTINA DOS SANTOS CURCINO RUA OSCARLINO ROMANO, 175          EDUCANDARIO              SAO PAULO                SP01001000000000000000000                       
005009390200100024960004913     SORAYA PAGANATO RODRIGUES          RUA RAUL POMPEIA                   VILA POMPEIA             SAO PAULO                SP05025011000000000000000                       
005009390200100025000004472     FRANCISCA JOSEFA DA SILVA          RUA BALTAZAR BARROSO, 11 B         JARDIM ETELVINA          SAO PAULO                SP08430660000000000000000                       
005009390200100030855191        MILENA SANTOS CIRCELLI             R GUAIPA                           VL LEOPOLDINA            SAO PAULO                SP05089001000000000000000                       
005009390200100038754654        VIVIANE LACERDA DE MELO MAIA       RUA BELGICA 733                    PARQUE DAS NAES          SANTO ANDRE              SP09210030000000000000000                       
005009390200100039645255        PRISCILA MIRANDA DE OLIVEIRA       R BRAGA                            VL LUSITANIA             SAO BERNARDO DO CAMPO    SP09725160000000000000000                       
005009390200100039805259        JULIANA BARBETA SOARES             R LOURENCO DA VEIGA                VL SIMONE                SAO PAULO                SP08110060000000000000000                       
005009390200100040494739        ROBSON CHAGAS DE LIMA              AVENIDA CUPECE 1808                JARDIM PRUDENCIA         SAO PAULO                SP04366000000000000000000                       
005009390200100041465274        DANIELA NAKAMA                     R RIZIERI NEGRINI                  PRQ FONGARO              SAO PAULO                SP04257143000000000000000                       
005009390200100041705278        MICARLY DE PAIVA TRESSINO          AV GIOVANNI BATTISTIN              TABOAO                   SAO BERNARDO DO CAMPO    SP09660007000000000000000                       
0050093902001000425188          SOLANGE PATRICIO DOS SANTOS        R BENEDITO A DA SILVA              VL INACIO                SAO PAULO                SP05206290000000000000000                       
005009390200100043245289        RAFAELA ALVES DE SOUZA             R DOZE DE OUTUBRO                  PRQ STA TERESA           CARAPICUIBA              SP06341190000000000000000                       
005009390200100043325290        LORRAYNE ANDRADE SILVA             R ENG LUIS A R MOUTINHO            JD POPULAR               SAO PAULO                SP03672010000000000000000                       
005009390200100043595297        THAMYRES ALANA NEVES DA SILVA      R CAM DA EDUCACAO                  A DIAS                   SAO BERNARDO DO CAMPO    SP09851135000000000000000                       
005009390200100052315376        FABIANA PEREIRA LOPES              PC ANTONIO P COSTA 54 AP 53 TORRE 2VL GONCALVES             SAO BERNARDO DO CAMPO    SP09725120000000000000000                       
005009390200100053395385        AMANDA CARVALHO DE OLIVEIRA        R JOSE LONGO                       JD S CORACAO             JANDIRA                  SP06608340000000000000000                       
005009390200100055175409        TALITA ALVES RODRIGUES             R ALFREDO RICCI                    CJ RES J BONIFACIO       SAO PAULO                SP08253010000000000000000                       
005009390200100055415413        TALITA DE SANTANA FERREIRA DE PAULAR VITO FRAZZI                      JD ORLY                  SAO PAULO                SP04434260000000000000000                       
005009390200100056065423        BRUNA SOUZA GONCALVES              AV GUAPIRA                         TUCURUVI                 SAO PAULO                SP02265002000000000000000                       
005009390200100057465442        JOAO THIAGO DA SILVA               R TALES DE MILETO                  SUISSA                   RIBEIRAO PIRES           SP09422470000000000000000                       
005009390200100058865453        HARLEI DIAS                        R MARTIM A DE SOUZA                VL PIRES                 SANTO ANDRE              SP09195230000000000000000                       
005009390200100059755457        KAMILA DOS SANTOS BANDEIRA         R MESSIAS DE PINA                  MOOCA                    SAO PAULO                SP03162090000000000000000                       
005009390200100061815477        ALDENIZIA ANGELO A SILVA           R VL DO CONDE                      B RETIRO                 SAO PAULO                SP01134060000000000000000                       
005009390200100061905480        RENATA YURI SANTANA                R DR DJALMA P FRANCO               VL STA CATARINA          SAO PAULO                SP04368003000000000000000                       
005009390200100062035481        GABRIELLY PEREIRA DA SILVA         R TOM JOBIM                        ALVARENGA                SAO BERNARDO DO CAMPO    SP09854370000000000000000                       
005009390200100062705484        ADILSON FERNANDES SANTANA          R ERNESTO V DYCK                   AMERICANOPOLIS           SAO PAULO                SP04412010000000000000000                       
00500939020010006300005485      RENATA BATISTA DE GUSMAO           R MINNA WALENDY                    JD ARACY                 MAUA                     SP09350220000000000000000                       
005009390200100065995496        RAFAEL HENRIQUE FERREIRA DOS SANTOSR JOSE LUNA 40                     JD CABORE                SAO PAULO                SP05710070000000000000000                       
005009390200100066374866        TAMIRES CORREIA DOS SANTOS         R ALFREDO LUCIO 164 CASA 1         VL TERESINHA             SAO PAULO                SP02853000000000000000000                       
005009390200100066615502        ALLAN SOUZA SANTOS                 R ARTUR FRANCO SN                  GUAIANAZES               SAO PAULO                SP08473300000000000000000                       
005009390200100067425507        DIEGO MATOS DE HOLANDA             AV ZUMBI DOS PALMARES              BANDEIRAS                OSASCO                   SP06160201000000000000000                       
005009390200100067695510        ELIZAMA DEBORA DOS SANTOS          AV PAPA JOAO PAULO I               VL AEROPORTO             GUARULHOS                SP07170350000000000000000                       
005009390200100068075504        FABRICIO DE SOUSA PRETTI           R BAIA GRANDE                      VL BELA                  SAO PAULO                SP03202000000000000000000                       
005009390200100068155506        GABRIELA RIBEIRO DOS SANTOS        R ALESSIO PRATI                    VL IOLANDA (LAJEADO)     SAO PAULO                SP08451550000000000000000                       
005009390200100069985521        BEATRIZ XAVIER DOS SANTOS          R MIGUEL RIBAS                     JD IPANEMA (ZONA OESTE)  SAO PAULO                SP05187270000000000000000                       
005009390200100070725526        BEATRIZ GARCIA MEDINA              R DR MAURICIO DE LACERDA           S JUDAS                  SAO PAULO                SP04303192000000000000000                       
005009390200100077655461        ALESSANDRA AVELINO FERREIRA GOMES  R DA LGA FEIA                      VL CARMOSINA             SAO PAULO                SP08290410000000000000000                       
005009390200100078705566        CAROLINE AUGUSTO DE CARVALHO       R ALTINOPOLIS                      AGUA FRIA                SAO PAULO                SP02334000000000000000000                       
005009390200100079355567        KAWAN RIBEIRO DA SILVA             GONCALVES CASTELAO 107 CASA 02     JARDIM LOURDES           SAO PAULO                SP08452510000000000000000                       
005009390200100079865569        GABRIELLY SIQUEIRA DE ARAUJO       RUA LUIS ANTONIO VERNEY 311        JARDIM CASABLANCA        SAO PAULO                SP05846380000000000000000                       
005009390200100080365574        KEDMA XAVIER TEIXEIRA DUARTE       RUA ESCORPIAO 550 BL 38 AP 11      SATELITE SANTA BARBARA   SAO PAULO                SP08330900000000000000000                       
005009390200100081095570        VITORIA MARIA QUEIROZ PEREIRA      RUA PROFETA JEREMIAS 347           CIDADE TIRADENTES        SAO PAULO                SP08471710000000000000000                       
005009390200100082495580        DENISE MEDEIROS ROMAO              JOSE COSTA JUNIOR                  JARDIM SANTA ADELIA      SAO PAULO                SP03974070000000000000000                       
005009390200100084355584        JESSICA ALVES DO NASCIMENTO        RUA JORDAO CAMARGO DE OLIVEIRA     VILA PAULISTANA          SAO PAULO                SP02319150000000000000000                       
005009390200100084435585        CHRISTIAN DE SOUZA SALLES          RUA EUTERPE                        VILA DO ENCONTRO         SAO PAULO                SP04324180000000000000000                       
005009390200100087105544        THOMAS MORAES COUTINHO             EST DE ITAPECERICA 2880 AP 53 BL A VL PREL                  SAO PAULO                SP05835004000000000000000                       
00500939020010008745578         GUILHERME XAVIER                   R CAP BUSSE 1042                   PRQ EDU CHAVES           SAO PAULO                SP02232050000000000000000                       
005009390200100087705594        YHANNARA LANNA DA SILVA ALMEIDA    GILBERTO FREIRE 001                JARDIM PRIMEIRO DE MAIO COSASCO                   SP06147055000000000000000                       
005009390200100087885592        ELISABETH D COSTA RODRIGUES UCHOA  PLANALTO DOS ACANTILADOS 229       PARQUE SANTA MADALENA    SAO PAULO                SP03981110000000000000000                       
005009390200100087965593        ELIDA LUANA DE SOUSA               CHAIA ZINGEREVITZ 001              JARDIM GUARUJA           SAO PAULO                SP05876030000000000000000                       
00500939020010008877869         AMANDA DE SOUZA CARVALHO LOPES     PONTE DA AMIZADE 501               JARDIM MARILU            SAO PAULO                SP08371420000000000000000                       
005009390200100089075598        RODRIGO DOS SANTOS LOPES DE JESUS  QUATORZE DE MAIO 95                COMDUSA                  VITORIA                  ES29032004000000000000000                       
005009390200100089825606        VIVIAN REIS DE OLIVEIRA            R SIT DOS MOREIRAS 16              JD S JOAO (JARAGUA)      SAO PAULO                SP02995050000000000000000                       
005009390200100089905604        NIKE APARECIDO ALENCAR DE QUEIROZ  R ESGUEIRA 02                      JD TURQUESA              SAO PAULO                SP04943030000000000000000                       
005009390200100090404651        JEAN CLAUDIO PASCHOALINO           R STA IZABEL 571 APTO 1702         VL AUGUSTA               GUARULHOS                SP07023022000000000000000                       
00500939020010009075871         RENATTO GOMES LEITE                R JERONIMO MORAVIA 151             JD N SRA APARECIDA       SAO PAULO                SP03939075000000000000000                       
005009390200100090835614        JANAINA DE SOUZA PAES              JOAQUIM GUIMARAES 384 BL 03 AP 15  BUTANTA                  SAO PAULO                SP05574010000000000000000                       
005009390200100091215610        TIAGO BARRETO DA SILVA             SAO MIGUEL 6531                    VILA NORMA               SAO PAULO                SP08070002000000000000000                       
005009390200100091305616        MICARLA BENTO DA ROCHA RODRIGUES   CAYOWAA 1520                       SUMARE                   SAO PAULO                SP01258010000000000000000                       
005009390200100091645611        SOPHIA CARMINATO FERNANDES         R MERC DE FERRO 6O                 VL AUREA                 SAO PAULO                SP08411210000000000000000                       
005009390200100092615625        MARINA LOPES PEREIRA PIMENTEL      PEDRO TALARICO 540                 VILA TALARICO            SAO PAULO                SP03534000000000000000000                       
005009390200100093185620        MATHEUS FERREIRA CARNEIRO          MANGUARI 61 BL 4                   JARDIM ANDARAI           SAO PAULO                SP02167080000000000000000                       
005009390200100093345628        SAMUEL DE LIMA REIS                AV DR JOSE MANIERO 135 TORRE 15 AP JARAGUA                  SAO PAULO                SP02997200000000000000000                       
005009390200100093505630        FABIOLA AGUIAR COSTA               AGENOR SERGIO DE OLIVEIRA  90      MONTANHAO                SAO BERNARDO DO CAMPO    SP09791570000000000000000                       
005009390200100093695631        MARIA ROSA ROSSI                   DO SABAO 1403                      JARDIM MARISTELA         SAO PAULO                SP02806000000000000000000                       
005009390200100094235633        DAYANE DANTAS DE OLIVEIRA          R PAULINIA                         VL STA ISABEL            SAO PAULO                SP03432030000000000000000                       
005009390200100094745637        BIANCA APARECIDA FERREIRA DA SILVA PAULO TAPAJOS 76 BL 9B AP 01B      ITAIM PAULISTA           SAO PAULO                SP08131360000000000000000                       
005009390200100094820005635     BIANCA SUELI RAMOS PINHO           JOSE TIMOTHEO DA SILVA 394         SAO PEDRO                OSASCO                   SP06172220000000000000000                       
005009390200100094905641        DIEGO DA SILVA FAGUNDES GOMES      DEZ 663                            JARDIM NOVO RECORD       TABOAO DA SERRA          SP06784530000000000000000                       
005009390200100095045639        MARIA LUANA PASSOS RIOS            DOS OURIVES  1103 BL 2 AP 38       JARDIM SAO SAVERIO       SAO PAULO                SP04194260000000000000000                       
005009390200100095125638        NYCOLE ESTEVES PERUZZI             MAESTRO FURIO FRANCESCHINI 199     CIDADE CONTINENTAL       SAO PAULO                SP03242030000000000000000                       
00500939020010009520005449      ANTHONY ROQUE DE FREITAS           R MAJ BASILIO                      VL BERTIOGA              SAO PAULO                SP03181010000000000000000                       
005009390200100095475601        CAMILA DOS SANTOS CRUZ             R VILAR DA VEIGA 207               VL S DOMINGOS            SAO PAULO                SP05368140000000000000000                       
005009390200100095635643        GRAZIELA PEREIRA CAETANO           JANUARIO DA CUNHA BARBOSA 119      JARDIM ELIZABETH         SAO PAULO                SP05793280000000000000000                       
005009390200100095715642        JAQUELINE SIEBRA DE SOUZA          MACHADO NUNES 98                   JARDIM NOSSA SENHORA DO CSAO PAULO                SP08275310000000000000000                       
005009390200100095805645        EDNILSON SERAPILHA PEREIRA         LOUIS GARNERAY 11                  VILA BUENOS AIRES        SAO PAULO                SP03624080000000000000000                       
005009390200100096365653        SANDRA REGINA DOS SANTOS           RUA NAIM 46                        JARDIM NAUFAL            SAO PAULO                SP08230300000000000000000                       
00500939020010009644183         PEDRO HENRIQUE PENA DE CARVALHO    RUA SOCRATES ABRAAO 100            PARQUE MUNHOZ            SAO PAULO                SP05782470000000000000000                       
005009390200100096525650        BRENDA PEREIRA DOS SANTOS          RUA GENERAL PORFIRIO DA PAZ 1915   VILA BANCARIA            SAO PAULO                SP03918000000000000000000                       
005009390200100096605649        PATRICIA F SILVA ROCHA XAVIER      RUA ABEL TAVARES 1607 APARTAMENTO 6JARDIM BELEM             SAO PAULO                SP03810110000000000000000                       
005009390200100096955654        LEONARDO NASCIMENTO SANTOS         DA CAPITACAO 195                   LAJEADO                  SAO PAULO                SP08450330000000000000000                       
005009390200100097845658        LUCAS DAMASCENO DANIEL             CLOVIS MONTEIRO CARVALHO JUNIOR 001JARDIM TIETE             SAO PAULO                SP03946060000000000000000                       
005009390200100097925659        LUIS FELIPE ALVES FERNANDES        BANHARAO 0001                      VILA FORMOSA             SAO PAULO                SP03366070000000000000000                       
005009390200100098575661        AGATA NIAGLI DE SOUZA OLIVEIRA     R MANUEL O BUENO 231               VL BEATRIZ               SAO PAULO                SP03643010000000000000000                       
005009390200100098655660        BRUNO SANTIAGO OLIVEIRA COSTA      DAS PAPOULAS 10                    CIDADE UNIVERSITARIA     RIO DE JANEIRO           RJ21941804000000000000000                       
005009390200100098815662        JESSICA BAPTISTA VEITA             LEONARDO VILAS BOAS 63 AP 11       PARQUE SAO LUCAS         SAO PAULO                SP03240000000000000000000                       
005009390200100099625668        RENAN MORAES MEDEIROS              DOS CARIRIS 96                     PIRAPORINHA              DIADEMA                  SP09951420000000000000000                       
005009390200100099705670        IZABELLE WANY LIBERATO BARBOSA     FRANCISCO DA SILVA CASEIRO 153 APARJARDIM DA MAMAE          GUARULHOS                SP07131200000000000000000                       
005009390200100099895675        ROBERTO FERREIRA DE JESUS          PARANATINGA 18 BLOCO ROMA APTO 31  VILA CONDE DO PINHAL     SAO PAULO                SP04254020000000000000000                       
005009390200100100065673        KELLI CRISTINA DA SILVA DE PAULA   BENEDITO DANIEL DE SOUZA FILHO 13  LARANJEIRAS              CAIEIRAS                 SP07743020000000000000000                       
005009390200100100145672        TAMIRES BALANSUELO DOS SANTOS      LUTECIA  140 APTO 4                VILA CARRAO              SAO PAULO                SP03423000000000000000000                       
005009390200100100305674        ISABELA MARIA DE JESUS CARVALHO    FABIO EDUARDO RAMOS ESQUIVEL 2900  CANHEMA                  DIADEMA                  SP09941202000000000000000                       
005009390200100100495664        ERIKA GUIMARAES DA SILVA           TAPES 634                          JARDIM AEROPORTO         SAO PAULO                SP04631011000000000000000                       
00500939020010010057189         KAROLINA RODRIGUES VIEIRA          JOAO DE PAULA FRANCO 347           JARDIM MARABAZONA SUL    SAO PAULO                SP04775165000000000000000                       
0050093902001001008113          JOAO BOSCO SOARES JUNIOR           DOUTOR PAULO CARVALHO FERREIRA 160 JARDIM SARAH             SAO PAULO                SP05382040000000000000000                       
005009390200100101030005676     LILIANE BARBOSA DO NASCIMENTO      CARNEIRO LEAO 395 AP 32 BL 02      BRAS                     SAO PAULO                SP03040000000000000000000                       
005009390200100101110005683     HANNA SALES BARBOSA DA SILVA       ORIENTE 71                         VILA SUZUKI              RIO GRANDE DA SERRA      SP09450000000000000000000                       
005009390200100101625689        ALESSANDRA CRISTINA HENRIQUE       BARAO DE LIMEIRA 1                 CAMPOS ELISEOS           SAO PAULO                SP01202001000000000000000                       
005009390200100101705691        ALFREDO WILSON DO CARMO            SANTO AMARO 1                      BELA VISTA               SAO PAULO                SP01315000000000000000000                       
005009390200100101895686        NATHAN CAVALCANTE FERREIRA         SANTA IFIGENIA 1                   RESIDENCIAL SAO LUIS     FRANCISCO MORATO         SP07996000000000000000000                       
005009390200100101975685        DANILO DA SILVA SOUSA              NORMANDIA 1                        JARDIM PIONEIRA          COTIA                    SP06705360000000000000000                       
005009390200100102005688        BRENDA CAROLINA DA SILVA           DOUTOR BENEDITO TOLOSA 1           PARQUE BRISTOL           SAO PAULO                SP04193020000000000000000                       
005009390200100102605690        MATHEUS SANTOS PEDROSO             MACEDO 1                           CHACARA MACEDO           ITAPECERICA DA SERRA     SP06867681000000000000000                       
00500939020010010316005695      MARIA L FIGUEREDO LEANDRO SANTOS   ARVORE DE SAO TOMAS 670            JARDIM RUSSO             SAO PAULO                SP05205370000000000000000                       
00500939020010010324005696      ARIANE CRISTINA DE OLIVEIRA ALMEIDARITA THOMAZ DOS SANTOS 03          JARDIM MARIA BEATRIZ     CARAPICUIBA              SP06365300000000000000000                       
00500939020010010332005706      MARCOS AURELIO OLIVEIRA SANTOS     FRANCISCO SANTOS 56                ALVARENGA                SAO BERNARDO DO CAMPO    SP09856360000000000000000                       
00500939020010010340005693      MARIA FERNANDA RANGEL SILVA CRUZ   CHIYO YAMAMOTO 620                 VILA NOVA BONSUCESSO     GUARULHOS                SP07176040000000000000000                       
00500939020010010359005698      SOPHIA PAULA DE ALMEIDA LIMA       EUSEBIO DA COSTA DOURADO 8         JARDIM SANTA EFIGENIA    SAO PAULO                SP05763350000000000000000                       
00500939020010010367005700      AVA TARSILA RODRIGUES              SALVADOR PEDROSO 001               SACOMA                   SAO PAULO                SP04249100000000000000000                       
00500939020010010383005704      GABRIELLY JENNIFER FERNANDES ITO   RISOLETA NEVES 21                  VILA DO SOL              SAO PAULO                SP04962040000000000000000                       
00500939020010010405002200      MARCIA VANIA DE MORAES THOMAZ      ALUISIO AZEVEDO 345 123            SANTANA                  SAO PAULO                SP02021030000000000000000                       
00500939020010010448005710      GABRIELLY DUARTE SANTOS            ASSUMPRETO 216                     VILA NOVA JAGUARE        SAO PAULO                SP05333050000000000000000                       
00500939020010010499005712      CRISTINA C KAPAMADJIAN RODOLPHO    PALMEIRA DE LEQUE 640 AP 43 BL D   JARDIM PEDRO JOSE NUNES  SAO PAULO                SP08061430000000000000000                       
005009390200100105025713        NOEMI SOARES DOS SANTOS            PAULO SERGIO MILLIET 344           JARDIM IVA               SAO PAULO                SP03921040000000000000000                       
00500939020010010537302320      DEREK HENRIQUE LINO DA SILVA       R IGARAPE DAS ROSAS                VL S NICOLAU             SAO PAULO                SP03254340000000000000000                       
005009390200100105880876        CAMILA DA SILVA IRIAS              VEREADOR JOSE GOMES DE MORAES NETO PARQUE RESIDENCIAL COCAIASAO PAULO                SP04849030000000000000000                       
0050093902001001066905818       LUCAS PEREIRA DOS SANTOS           CLAUDIO CHIRELLI 363               PARQUE SAO LUIS          SAO PAULO                SP02841140000000000000000                       
0050093902001001067705717       ROMULO RIBEIRO SANTOS              PROFESSOR ARTUR PRIMAVESI 154 APTO PARQUE BRISTOL           SAO PAULO                SP04177070000000000000000                       
0050093902001001072305716       MICHELLE MARTINS BARBOSA           JOAO ALFREDO 431 AP 207 TORRE 1    SANTO AMARO              SAO PAULO                SP04747001000000000000000                       
0050093902001001073105615       PATRICIA MARQUES NUNES DA SILVA    IRENE LOPES HEREDIA 266  CS 9      JARDIM SAPOPEMBA         SAO PAULO                SP03929050000000000000000                       
0050093902001001076600005019    ALINE LOPES FERNANDES              ACHILES FONTANA 505                JARDIM TIETE             SAO PAULO                SP03945090000000000000000                       
00500939020010010804000005723   NICOLLY COSTA SANTOS DO VALE       TUPINAMBAS 01                      CENTRO                   FRANCISCO MORATO         SP07909070000000000000000                       
005009390200300008250009023     MARIO HENRIQUE CARLI               ESTRADA DO COPIUVA, 1390           VILA DA OPORTUNIDADE     CARAPICUIBA              SP06330000000000000000000                       
005009390200300024610009027     VANIA PEREIRA MUZEL                RUA MARIA FIGUEIREDO, 278 APT 83   PARAISO                  SAO PAULO                SP04002001000000000000000                       
005009390200300027809012        RAFAEL SILVA LOBO                  R DOS BURITIS54                    VL PRQ JABAQUARA         SAO PAULO                SP04321000000000000000000                       
005009390200300029099040        PAULO CESAR KOSTEFF BENITH         R TOKUCHIKA MIKI555                SIT FIGUEIRA             SAO PAULO                SP03211010000000000000000                       
005009390200300029179004        RENATA FREGUGLIA DARE              AL DOS ARAPANES419                 MOEMA                    SAO PAULO                SP04524000000000000000000                       
005009390200300029419011        RUY LUIZ DE PAULA                  R STO EGIDIO951                    STA TERESINHA            SAO PAULO                SP02461011000000000000000                       
0050093902003000464295          MONISE MENDONCA                    R CAJATI                           JD ESTADIO               SANTO ANDRE              SP09175190000000000000000                       
0050093902003000506198          TIAGO FERREIRA DOS SANTOS ALMANI   R CLAUDIO A OLIVEIRA               JD ROBERTO               OSASCO                   SP06124130000000000000000                       
00500939020030007145106         KELLY MENDES RODRIGUES DE CASTRO   R ANTONIETA DE MORAIS              VL MATILDE               SAO PAULO                SP03517000000000000000000                       
0050093902003000992022          ANDREY CAMPOS MELO                 RUA EDMUNDO DANTAS 54              LIMAO                    SAO PAULO                SP02721020000000000000000                       
005009390200400023050005089     ANTONIO ROBERTO ZINIDARCIS         RUA OLIVEIRA 375                   PARQUE DOS MUNICIPIOS    GUAXUPE                  MG37800000000000000000000                       
005009390200400023210000027     TANIA PIRES DA SILVA               RUA HERMANTINO PRADO, 548          JARDIM CARLOS LOURENCO   CAMPINAS                 SP13101107000000000000000                       
0050093902004000313139          ILLYARIADNY SILVEIRA RUBI          R AUGUSTA D AYALA                  JD B RETIRO (N VENEZA)   SUMARE                   SP13181670000000000000000                       
00500939020040003450050         FABIANA CRISTINA ALVES SILVA       AV DAS AMOREIRAS                   PRQ ITALIA               CAMPINAS                 SP13036225000000000000000                       
00500939020040003689057         JULIANA RUBIA DEMENCIANO           AV DRA ZILDA A NEUMANN             C S IRIS                 CAMPINAS                 SP13059592000000000000000                       
005009390200400042780069        NATHALIA FOLLI MARTINS DE SOUZA    R JURANDIR F DE CAMPOS             JD APARECIDA             CAMPINAS                 SP13068602000000000000000                       
0050093902004000457074          GISLAINE VIEIRA DA SILVA           R ANTONIA R DE LIMA                PRQ S JORGE              CAMPINAS                 SP13064832000000000000000                       
005009390200400048120080        ANDRESSA RIBEIRO SILVA ZAMBONI     R MARIA E MENUZZO                  PRQ V VIEL               SUMARE                   SP13175615000000000000000                       
00500939020040004898083         CARLOS ROBERTO DOS SANTOS          R MAURICIO DE OLIVEIRA             VL AUGUSTA               GUARULHOS                SP07040110000000000000000                       
00500939020040004987086         MARCELA DE OLIVEIRA MARACCINI      R DR RAFAEL SALES                  BONFIM                   CAMPINAS                 SP13070720000000000000000                       
00500939020040004995087         OSMAR PEREIRA DE SOUZA JUNIOR      R VIVIANE C C TELLES               PRQ B RETIRO             PAULINIA                 SP13142180000000000000000                       
00500939020040005495096         EVELYN DARLENE DE SOUSA            R PAINEIRA                         PRQ RES FIGUEIRA         MONTE MOR                SP13193150000000000000000                       
00500939020040005576099         CAROLINE AZEVEDO GRATIVAL          AV ARY RODRIGUES                   PRQ CAMELIAS             CAMPINAS                 SP13052550000000000000000                       
005009390200400061490105        GRACIELLE BAETA CAMARGO            R JOAO A DE OLIVEIRA               PRQ B RETIRO             PAULINIA                 SP13142220000000000000000                       
00500939020040006408067         ANDREIA ROSA DA SILVA BARROS       R ANTONIO DA SILVA                 METALURGICOS             OSASCO                   SP06150220000000000000000                       
005009390200400069390000060     KEROLYN DOS SANTOS ALVES           R VERACI FER BERALDO               SALTINHO                 PAULINIA                 SP13145554000000000000000                       
0050093902004000713700067       FABIANA VIEIRA DOS REIS MATOS      R FRANCISCO P DO AMARAL            JD STA ROSA              CAMPINAS                 SP13058714000000000000000                       
00500939020040007757750         ANGELICA BRACAIOLI DE SOUZA PINTO  R HERMANTINO COELHO 255 APTO 62 BLOMANSOES STO ANTONIO      CAMPINAS                 SP13087500000000000000000                       
00500939020040008044722         DOUGLAS FERNANDO FERREIRA DA SILVA URBANO JOSE BRATIFISCHI            PLANALTO DE VIRACOPOS    CAMPINAS                 SP13056006000000000000000                       
00500939020040008060855         LUIZ HENRIQUE PEREIRA              RUA SANTA MARIA MADALENA 89        JARDIM SANTA OLIVIA      SUMARE                   SP13180472000000000000000                       
00500939020040008290899         BIANCA ALVES FEITOSA DA SILVA      BENEDITA MARIA RAMOS               SAO PEDRO                SAO PAULO                SP13350000000000000000000                       
00500939020040008320901         CAMILA BERTOLDI                    RUA ALAMEDA DAS FLORES N 80        IPRANGA                  ELIAS FAUSTO             SP13350000000000000000000                       
00500939020040008494960         THAMIRIS SOUZA DE OLIVEIRA         R VALDIR S DE OLIVEIRA 133         PRQ RES SHALON           CAMPINAS                 SP13067108000000000000000                       
00500939020040008621098         LILIAN DO CARMO FOGACA             ULTRAMARINO 817 APT 24             LAUZANE PAULISTA         SAO PAULO                SP02441000000000000000000                       
0050093902004000863099000       KALYANNE ROCHA DA SILVA COSTA      ISABELA LUNA TAVARES 0001          JARDIM MARIA ANTONIA NOVASUMARE                   SP13178373000000000000000                       
005009390200400086561010000     THAIS DOS SANTOS MORAO             MANOEL SYLVESTRE DE FREITAS FILHO 1JARDIM NOVA EUROPA       CAMPINAS                 SP13040089000000000000000                       
00500939020040008664000100      MYLENA CARVALHO OLIVEIRA           DOUTOR DANIEL SARTORI 100          JARDIM DO LAGO CONTINUACACAMPINAS                 SP13051065000000000000000                       
0050093902004000876101020       LOUSEANE RESENDE DA SILVA          PADRE GUILHERME ARY 81             VILA SATURNIA            CAMPINAS                 SP13031090000000000000000                       
00500939020040008869287         BRYAN SANTIAGO VILLANTOY           DOS CAETES 142                     VILA COSTA E SILVA       CAMPINAS                 SP13081210000000000000000                       
00500939020040009008880         THIAGO DE SOUZA MORAE              BRAZ CUBAS 460                     ACLIMACAO                SAO PAULO                SP04109040000000000000000                       
005009390200400094155816        VANESSA DOS SANTOS ALVES QUEIROZ   IRACEMA SANTOS DE OLIVEIRA 001     JARDIM SAO DOMINGOS      CAMPINAS                 SP13053310000000000000000                       
0050093902004000953900122       ADRIANA DIOGO DA SILVA             MARIO SPROESSER 181  AP 122 BL O   JARDIM SAO BOM JESUS     MONTE MOR                SP13193032000000000000000                       
005009390200400097170866        DANIELE SACCO GOMIERO              JOAQUIM MARCELINO LEITE 425 COND 4 JARDIM INTERLAGOS        HORTOLANDIA              SP13186642000000000000000                       
005009390200400097250827        MIRELLA MARQUES ROCHA              ANTONIO CARLOS BUENO 154           LARANJA AZEDA            BOM JESUS DOS PERDOES    SP12955000000000000000000                       
005009390200400098069874        ANA CLAUDIA AURELIANO NISTA        LINA BOBARDI 40                    JARDIM SAO CRISTOVAO     CAMPINAS                 SP13056280000000000000000                       
005009390200400099540133        PEDRO LUIZ RODRIGUES               PEDRO TAQUES DE ALMEIDA ALVIM 62   JARDIM SAO VICENTE       CAMPINAS                 SP13045170000000000000000                       
0050093902004001013800000134    ANA CAROLINE ALVES DA CRUZ         EDUARDO BENTO DELTREGGIA 170       RESIDENCIAL TORNATORE    ELIAS FAUSTO             SP13352234000000000000000                       
0050093902004001014600000135    OLIVIA RODRIGUES PORFIRIO          DOS PAPIROS 371                    LOTEAMENTO RESERVA DA MATJUNDIAI                  SP13214798000000000000000                       
005009390200400102860000136     ANA CAROLINA PAULA PASSOS HILARIO  LUCAS PEREIRA DE CASTRO 98         VILA AUROCAN             CAMPINAS                 SP13034145000000000000000                       
0050093902004001029400000137    BARBARA CRISTINA DA SILVA CONTRERA ANTONIA RIBEIRO DE LIMA 81         PARQUE SAO JORGE         CAMPINAS                 SP13064832000000000000000                       
0050093902004001030800000138    SONIA RAMOS CABRAL DE SA           MARIA FERNANDES ALVES 723          RESIDENCIAL JARDIM DOS IPNOVA ODESSA              SP13386206000000000000000                       
005009390200400103915881        EVELYN DE SOUSA OLIVEIRA           JOAO POLEZEL 425                   JARDIM DAS PALMEIRAS     SUMARE                   SP13172390000000000000000                       
005009390200400104138860        TALITA SILVA DAMASCENO             CAPITAO JORGE PINTO POCAS 01       PARQUE VIRGILIO VIEL     SUMARE                   SP13175602000000000000000                       
00500939020040010421048330      TATIANE MAIA FERREIRA GALLIARDO    DOUTOR JOSE ALMEIDA CARVALHO 27    LOTEAMENTO COUNTRY VILLE CAMPINAS                 SP13050180000000000000000                       
0050093902004001046400144       LUIZ FERNANDO SILVA BUENO MARTINS  OROZIMBO MAIA 747 B 904            VILA SONIA               VALINHOS                 SP13274000000000000000000                       
0050093902004001047207969       JULIANA APARECIDA DE SOUZA         VERA LUCIA TOGNOLO AGGIO 64        RESIDENCIAL SIRIUS       CAMPINAS                 SP13059192000000000000000                       
005009390200400105700014700     ANA BEATRIZ YURI                   AZIL MARTINS 344                   JARDIM SANTA ROSA        NOVA ODESSA              SP13385062000000000000000                       
005009390200400107900149        ANDRESSA MACHADO DE MATTOS         SOROCABA 112                       CIDADE NOVA II           SANTA BARBARA D OESTE    SP13454058000000000000000                       
005009390200500024100000038     REGIANE SANTOS DA CRUZ             RUA DOM JOSE DE BARROS             REPUBLICA                SAO PAULO                SP01038100000000000000000                       
005009390200500027639049        JOSUE TRINDADE DA SILVA JUNIOR     AV DO CURSINO6601                  VL MORAES                SAO PAULO                SP04169000000000000000000                       
005009390200500027719005        POLIANA OLIVEIRA HESPANHOL ANDRADE R SACADURA CABRAL160               LAPA                     SAO PAULO                SP05076020000000000000000                       
005009390200500028019013        DENISON SANTOS VIEIRA              R HELIO J G SCHIEFLER145           JD SOUZA                 SAO PAULO                SP04918110000000000000000                       
005009390200500029339006        RODRIGO MASAO COSTA                R ANTONIO M TEIXEIRA               VL C ALMAS               SAO PAULO                SP02804150000000000000000                       
005009390200500030777808        REYNALDO HOLLAND PEREIRA JUNIOR    AV MONTEIRO LOBATO                 VL VALENCA               SAO VICENTE              SP11380500000000000000000                       
0050093902005000319059          BRUNO ALEISON ALVES MORAIS         R CAMUTANGA                        COLONIA (Z LESTE)        SAO PAULO                SP08260340000000000000000                       
0050093902005000320458          VICTOR CAVALCANTE PEREIRA          R NICOLAU CAMPANELLA               VL VERDE                 SAO PAULO                SP08230600000000000000000                       
005009390200500052740083        HELBERT CARVALHO DOS SANTOS        R RUBENS PAIVA 108                 JD E MARIA               SAO PAULO                SP02875060000000000000000                       
00500939020050007943412         DANIELE DOS REIS ANDRADE           RUA LEOVALDO TEMPORIM 91           JARDIM TEMPORIM          FERRAZ DE VASCONCELOS    SP08544200000000000000000                       
005009390200500079510412        ELTON HENRIQUE DUARTE              RUA SIDNEI 536 APARTAMENTO 03      VILA METALURGICA         SANTO ANDRE              SP09230000000000000000000                       
005009390200600002640000033     ALICE MORET                        RUA FRANCISCO MOSTO, 36            PERUS                    SAO PAULO                SP05220050000000000000000                       
005009390200600003020009006     LUCILENE ANDRADE DOS SANTOS        RUA PROFESSOR NOBIL MARCACINI, 39 AJARAGUA                  SAO PAULO                SP02998030000000000000000                       
005009390200600003100000045     VINICIUS HENRIQUE SANTOS CORREA    GIOVANNI NASCO                     CONJUNTO HABITACIONAL TE SAO PAULO                SP03928090000000000000000                       
0050093902006000265843          DANIELA MEDINA                     R MANOEL NICOLAU43                 JD C CRISTINA            CARAPICUIBA              SP06329710000000000000000                       
0050093902006000267415          THAYS DA SILVA SANTOS              R GIOVANNI NASCO188 APTO 23C       CJ HAB T VILELA          SAO PAULO                SP03928090000000000000000                       
0050093902006000268260          JEANE PEREIRA SANTOS               AV RODRIGUES MONTEMOR780           C DOMITILA               SAO PAULO                SP04387004000000000000000                       
00500939020060004588059         JACKSON DA SILVA SANTOS            R NOBREZA                          CJ RES J BONIFACIO       SAO PAULO                SP08257120000000000000000                       
00500939020060005789073         JULIA MORAES SILVA                 R CENT DO SUL                      VL ZAT                   SAO PAULO                SP02977050000000000000000                       
00500939020060005797070         ERIKA ALESSANDRA KONDOR CLORADO    R ARROIO DA PALMA                  JD RINCAO                SAO PAULO                SP02991050000000000000000                       
005009390200600059400075        PAULO R PEREIRA CAIXEIRO MONTEIRO  R TIRADENTES                       MONTANHAO                SAO BERNARDO DO CAMPO    SP09781500000000000000000                       
00500939020060006068076         LARISSA DOS SANTOS DO NASCIMENTO   R PE BALTAZAR DUARTE               PRQ N LAR                SAO PAULO                SP03925030000000000000000                       
0050093902006000836274000       EMILIA PIRES DOS ANJOS             R DO CADMIO 51 CS 4                CID LIDER                SAO PAULO                SP08280110000000000000000                       
00500939020060009890000095      GABRIELLA LIMA SILVA               DO ORATORIO 305                    VILA INDEPENDENCIA       SAO PAULO                SP03221000000000000000000                       
0050093902006000993833061       JULIANA CORREA                     DAS MARAVILHAS 55                  JARDIM DAS MARAVILHAS    SANTO ANDRE              SP09250000000000000000000                       
0050093902006001006538795       DEBORA DE SOUZA SANTOS             SANTA CRUZ 30                      VILA SANTA CRUZ          SAO PAULO                SP05220040000000000000000                       
0050093902006001048052722       GEOVANA APARECIDA DE ARAUJO        SANTA CRUZ 40                      VILA SANTA CRUZ          SAO PAULO                SP05220040000000000000000                       
0050093902006001062658362       IZA C FRANCISCA AMORIM FERNANDES   MARIA LUIZA AMERICANO 2653 CS 5    CIDADE LIDER             SAO PAULO                SP08280190000000000000000                       
0050093902006001064258539       LETICIA PATRICIA MELO FONTELES     GERVASIO LEITE REBELO 373          JARDIM PERI              SAO PAULO                SP02675050000000000000000                       
0050093902006001065058547       NOEMI AVELINO DUARTE               ROSAS DE MAIO 186 CS 02            ALTOS DE VILA PRUDENTE   SAO PAULO                SP03978760000000000000000                       
00500939020060010740059006      ALINE SANTOS MERGULHAO SILVA       AZURITA 48                         CANINDE                  SAO PAULO                SP03034050000000000000000                       
0050093902006001078259207       ALANA CAROLINE FIGUEIRA DE SOUZA   CLEVELAND 251                      CAMPOS ELISEOS           SAO PAULO                SP01218000000000000000000                       
005009390201000000860000001     AGNALDO MEDAS DE CARVALHO          RUA IRAPUA, 140 CASA 1 FUNDOS      PENHA CIRCULAR           RIO DE JANEIRO           RJ21215060000000000000000                       
005009390201000000940004637     AMANDA GUIOMAR FELGEIRAS MORAIS    RUA EUTIQUIO SOLEDADE, 578         TAUA                     RIO DE JANEIRO           RJ21920055000000000000000                       
005009390201000001160009001     LARISSA AFONSO DE MOURA            RUA PAULA RAMOS, 375               RIO COMPRIDO             RIO DE JANEIRO           RJ20261210000000000000000                       
005009390201000001240009002     RODRIGO CESAR CARDOSO LOPES        RUA MARQUES DE CAXIAS, 21          CENTRO                   NITEROI                  RJ24030050000000000000000                       
005009390201000001400004653     THIAGO E GURGEL PEREIRA COELHO     RUA PADRE MANUEL DA NOBREGA, 911 CSQUINTINO BOCAIUVA        RIO DE JANEIRO           RJ21381009000000000000000                       
005009390201000001830004667     GRAZIELLE SCHIMIDT BERNARDINO      RUA RICARDO DOS SANTOS, 46         MUTUA                    SAO GONCALO              RJ24461150000000000000000                       
0050093902010000243746471       JORGE ROBERTO DE SOUSA OLIVEIRA    RUA RIBEIRAO, 333 CASA 04          JARDIM PERNAMBUCO        NOVA IGUACU              RJ26275490000000000000000                       
0050093902010000309332          SAMIRA FERNANDA DE MOURA COSTA     R DA GRACA                         CPO GRANDE               RIO DE JANEIRO           RJ23097688000000000000000                       
0050093902010000311533          VANESSA SANTOS PEDRO               R DR ARRUDA NEGREIROS              AUSTIN                   NOVA IGUACU              RJ26087335000000000000000                       
0050093902010000328035          JOSE CARLOS FREITAS DA SILVA       R TEIXEIRA DE FREITAS              FONSECA                  NITEROI                  RJ24130616000000000000000                       
00500939020100003557041         LUA VINICIUS DE OLIVEIRA DA SILVA  CAM DA CACHOEIRA                   JACAREPAGUA              RIO DE JANEIRO           RJ22713590000000000000000                       
00500939020100003565044         GISELLE OTONI DE OLIVEIRA ASSIS    R SANTIAGO                         JD PERNAMBUCO            NOVA IGUACU              RJ26275420000000000000000                       
00500939020100003662048         LEONARDO ARAUJO DA SILVA           TV JOAO MENDES                     EDEN                     SAO JOAO DE MERITI       RJ25525590000000000000000                       
005009390201000043910052        LUCAS AMORIM DE MAGALHAES          R MARIA JOSE                       MADUREIRA                RIO DE JANEIRO           RJ21341140000000000000000                       
005009390201000044560053        JANAINA GONCALVES MARTEL           R SRG ANTONIO ERNESTO              PAVUNA                   RIO DE JANEIRO           RJ21520460000000000000000                       
005009390201000049280057        GISELLE DIAS DE ALBUQUERQUE DANIEL R RIACHUELO                        CENTRO                   RIO DE JANEIRO           RJ20230014000000000000000                       
005009390201000054440059        GABRIELLA CASTELO BRANCO FIGUEIREDOR BR DE ITAPAGIPE                  TIJUCA                   RIO DE JANEIRO           RJ20261106000000000000000                       
005009390201000057030060        RENAN DA SILVA AZEREDO MENDONCA    TV GRACA                           PARAISO                  SAO GONCALO              RJ24431470000000000000000                       
005009390201000059080356        TABATHA EVANGELISTA GOMES          R CAMPINA GRANDE                   CPO GRANDE               RIO DE JANEIRO           RJ23092060000000000000000                       
0050093902010000641600040       ELISANGELA COSTA DA SILVA          R ARTIDOR NASCIMENTO               VL VISTA ALEGRE          CACHOEIRINHA             RS94945070000000000000000                       
005009390201000064240043        SHEILA PEREIRA DE SOUZA            V TRANSV SUL                       NOVO OSASCO              OSASCO                   SP06045420000000000000000                       
005009390201000064320044        SUZANA AUGUSTO MARIA               R MARIA L DE CAMPOS                PRQ JANDAIA              CARAPICUIBA              SP06330100000000000000000                       
00500939020100006440045         MARILIA RODRIGUES MARQUES          AV A                               KM 32                    NOVA IGUACU              RJ26298557000000000000000                       
00500939020100006556530         ANDRE AMORIM DOS SANTOS            R FLORANIA 381                     VISTA ALEGRE             RIO DE JANEIRO           RJ21230700000000000000000                       
00500939020100006572550         CAMILA GRANADEIRO DA ROSA TCHIAN   RUA MARIA MATOS PIMENTA 58         STO ANTONIO              BARRA DO PIRAI           RJ27115100000000000000000                       
00500939020100006670640         CINTIA PATRICIA CAMPOS CANDIDO     R INDEPENDENCIA 233                PRQ SR BONFIM            DUQUE DE CAXIAS          RJ25025315000000000000000                       
0050093902010000672600057       JANAINA GUIOMAR DAS CHAGAS         R BONITA                           N SRA GRACAS             RIO DE JANEIRO           RJ21932060000000000000000                       
00500939020100006734000056      ADRIELLE ABRAHAO CAETANO           R MARCORAMA                        COSMOS                   RIO DE JANEIRO           RJ23068000000000000000000                       
0050093902010000678500051       TATIANE DA CRUZ REYMAO             R BARATA RIBEIRO                   COPACABANA               RIO DE JANEIRO           RJ22011002000000000000000                       
00500939020100006831000060      FERNANDA GOMES AMANCIO             R CEL NICOLAU DA SILVA             PRQ SR BONFIM            DUQUE DE CAXIAS          RJ25025490000000000000000                       
00500939020100006840000061      FABIO MATHIAS DA SILVA JUNIOR      R FERDINANDO LABORIAU              TIJUCA                   RIO DE JANEIRO           RJ20530550000000000000000                       
0050093902010000689000071       WILLIANE VITORIA DE BRITO BASTOS   R D JAIME CAMARA                   JACARE                   RIO DE JANEIRO           RJ20970210000000000000000                       
0050093902010000692000068       LAIS COSTA DE OLIVEIRA             R ESC                              JD PERNAMBUCO            NOVA IGUACU              RJ26275450000000000000000                       
0050093902010000696300047       MARIA C P PIRES FERREIRA MAIA      R DAS LARANJEIRAS                  LARANJEIRAS              RIO DE JANEIRO           RJ22240000000000000000000                       
0050093902010000742000104       AMANDA SALOMAO SANTOS PEREIRA      LOT REC DE ITAPUA                  ITAPUA                   SALVADOR                 BA41635020000000000000000                       
0050093902010000743900105       ALESSANDRA ROSA DE OLIVEIRA        R VILMA DO C B DO ROSARIO          JOAO ARANHA              PAULINIA                 SP13145814000000000000000                       
00500939020100007447000088      EDILAINE REGIS TORRES              R CLAUDINO BARATA                  REALENGO                 RIO DE JANEIRO           RJ21770200000000000000000                       
005009390201000074630000075     ANDREZZA DE FREITAS BRAGA DE ABREU R QUIRIRIM                         VL VALQUEIRE             RIO DE JANEIRO           RJ21330650000000000000000                       
005009390201000074710000098     MARCELO CANDIDO BRASILIENSE        R MAL FALCAO DA FROTA              REALENGO                 RIO DE JANEIRO           RJ21721021000000000000000                       
005009390201000074800730        TAINA CONCEICAO REBOUCAS           AV S LUIS                          PARIPE                   SALVADOR                 BA40810630000000000000000                       
00500939020100007501085         THAYNARA DA SILVA DE MATTOS        R TEN BRAULIO                      N CIDADE                 SAO GONCALO              RJ24450240000000000000000                       
00500939020100007510000102      TIAGO TRINDADE LIMA                R PEDRO MALHADO                    ENG VO BROTAS            SALVADOR                 BA40240850000000000000000                       
005009390201000075280087        YASMIN DAS CHAGAS GUIOMAR          PR DAS PITANGUEIRAS                PITANGUEIRAS             RIO DE JANEIRO           RJ21930360000000000000000                       
005009390201000075360094        BRUNO HOLANDA PEREIRA              R XINGU                            FREGUESIA (JACAREPAGUA)  RIO DE JANEIRO           RJ22760070000000000000000                       
0050093902010000755200000082    JHESSICA C ANTUNES MENDONCA AGUIAR R JOAO L DA SILVA                  PRQ BOM RETIRO           PAULINIA                 SP13142192000000000000000                       
005009390201000077730119        GABRIELLA ALVARENGA PAIS           AV DR RUBENS FARRULA               AGOSTINHO PORTO          SAO JOAO DE MERITI       RJ25555362000000000000000                       
005009390201000078030117        IVANILDA DE ARAUJO VIRGINIO        EST PAU-FERRO                      FREGUESIA (JACAREPAGUA)  RIO DE JANEIRO           RJ22743052000000000000000                       
00500939020100007854112         JULIO CESAR FALCAO LIMA            MONSENHOR MANUEL GOMES 143         SAO CRISTOVAO            RIO DE JANEIRO           RJ20931670000000000000000                       
005009390201000078971110        NICOLE ARANHA VON PROSCHINGER BELLORUA MAURO 473                      PARADA DE LUCAS          RIO DE JANEIRO           RJ21241110000000000000000                       
00500939020100007900118         ANDREZA ESTEVO GOMES               RUA AROLDO PEREIRA REZENDE 54      SANTA CRUZ               RIO DE JANEIRO           RJ23595115000000000000000                       
005009390201000079601111        VALDOMIRO PROPICIO DA SILVA JUNIOR RUA BERNARDO DE MATOS 30           JARDIM ANA MARIA         SAO PAULO                SP05757060000000000000000                       
00500939020100008052121         VICTOR AFONSO GOMES DE MORAIS      AVENIDA GONCALVES GATTO            CENTRO                   BELFORD ROXO             RJ26130230000000000000000                       
005009390201000082061129        ISABELLE CASTRO SILVEIRA PINHEIRO  RUA ROQUE BARBOSA                  BANGU                    RIO DE JANEIRO           RJ21863425000000000000000                       
005009390201000082141135        VIVIAN MARIA DOS SANTOS PIRES      HELIO DO AMARAL                    PADRE MIGUEL             RIO DE JANEIRO           RJ21725180000000000000000                       
005009390201000082221123        LIVIA TAVARES DA SILVA             RUA LISBOA                         PENHA CIRCULAR           RIO DE JANEIRO           RJ21011540000000000000000                       
005009390201000082571128        LUCAS ALBUQUERQUE CUNHA            MASTRUCO                           BANCO DE AREIA           MESQUITA                 RJ26570100000000000000000                       
00500939020100008265132         ROSANA C SALGUEIRO SOUSA RIBEIRO   RUA TERESOPOLIS                    TRINDADE                 SAO GONCALO              RJ24456240000000000000000                       
005009390201000083031344        HULDA PEREIRA DE SOUZA             TROPICAL                           PARAISO                  NOVA IGUACU              RJ26297321000000000000000                       
00500939020100008311136         NATALIE MATOS DE SOUSA ROFFE       AVENIDA PARANAPUAN                 FREGUESIA                RIO DE JANEIRO           RJ21910003000000000000000                       
005009390201000083381370        LORENA LUIZA LEITE DOS SANTOS      R JOAO ALBERTO 500                 GRANDE RIO               SAO JOAO DE MERITI       RJ25540060000000000000000                       
005009390201000083541388        PAULA GUIMARAES                    BORGES DE MEDEIROS                 LEBLON                   RIO DE JANEIRO           RJ22430041000000000000000                       
005009390201000083701422        RODRIGO DUARTE LOPES               SALES                              VILA SAO LUIS            NOVA IGUACU              RJ26012560000000000000000                       
005009390201000084511142        CAROLINE SILVEIRA BARBOSA          RUA DUQUE DE CAXIAS                SANTA CRUZ               RIO DE JANEIRO           RJ23570391000000000000000                       
005009390201000085081430        GABRIELLE DE ARAUJO PRINGI         AV DOIS 2                          IPIRANGA (GUIA PACOBAIBA)MAGE                     RJ25927176000000000000000                       
005009390201000085321480        ANDRESSA SILVA DE OLIVEIRA         JOSE DE ALENCAR 149                CHATUBA                  MESQUITA                 RJ26587370000000000000000                       
005009390201000085401510        GEANNE CASTRO DE JESUS             DO PIAI 3910 F N 11                SEPETIBA                 RIO DE JANEIRO           RJ23530610000000000000000                       
005009390201000085591490        EDUARDO FREIRE PAIVA               PASTOR DANIEL RIBEIRO 23 308       RIO COMPRIDO             RIO DE JANEIRO           RJ20260020000000000000000                       
005009390201000085671500        FERNANDO DA FONSECA COSTA E SILVA  BARATA RIBEIRO 254 1002            COPACABANA               RIO DE JANEIRO           RJ22040002000000000000000                       
005009390201000085831530        JULIANA FERREIRA BRAGA             LUCIO JOSE FILHO 706               PARQUE ANCHIETA          RIO DE JANEIRO           RJ21630250000000000000000                       
005009390201000085911550        GABRIELLE BRITO GARCIA             CAPITAO JOSE LOPES 001             SACRAMENTO               SAO GONCALO              RJ24734680000000000000000                       
00500939020100008648155         ALEXANDER INACIO MELLO             JACARANDA BRANCO 79                BOA ESPERANCA            NOVA IGUACU              RJ26070105000000000000000                       
005009390201000086721002        GIOVANI CARLOS FERREIRA            R VITAL BRASIL 566 A               S SEBASTIAO              PETROPOLIS               RJ25645705000000000000000                       
005009390201000086801010        MARCOS PEIXOTO DO NASCIMENT        PC DR DEL VECCHIO 27 AP 102        RIO COMPRIDO             RIO DE JANEIRO           RJ20261150000000000000000                       
0050093902010000881800161       BIANCA CRISTINE RODRIGUES ASSUNCAO DE CAMORIM 926  C 30               JACAREPAGUA              RIO DE JANEIRO           RJ22780070000000000000000                       
005009390201000088260016000     ALBERTO MACIEL DE SOUZA JUNIOR     DEPUTADO SA REGO 15  QD 66         VILA SAO LUIS            DUQUE DE CAXIAS          RJ25065030000000000000000                       
0050093902010000883400162       GISELE RIBEIRO DE SOUZA            V C-8 35                           MARE                     RIO DE JANEIRO           RJ21046050000000000000000                       
00500939020100008931737         DERICK DE ALMEIDA OLIVEIRA         R DA CLAUDINA 470 CASA 7           MEIER                    RIO DE JANEIRO           RJ20725060000000000000000                       
00500939020100008974857         RENATA DE JESUS GOMES              R CB DAS TORMENTAS 254 APTO 43 BL 0JD LOURDES               SAO PAULO                SP08452540000000000000000                       
005009390201000090598741        MARIA G ALVES TRINDADE MOREIRA     LIMA BARROS 25 BL 1 AP 206         SAO CRISTOVAO            RIO DE JANEIRO           RJ20921280000000000000000                       
005009390201000092106648        LARA OLIVEIRA LIMA                 R DOMINGOS FERREIRA 180            COPACABANA               RIO DE JANEIRO           RJ22050012000000000000000                       
005009390201000092290711        GUSTAVO DE ALMEIDA MIRANDA         R QUITO 250 BL 4 AP 35             PENHA                    RIO DE JANEIRO           RJ21020330000000000000000                       
005009390201000092378706        THAYANE MICHELE FRANCISCO CORDEIRO R ALVARO RAMOS 56                  JACAREPAGUA              RIO DE JANEIRO           RJ22713584000000000000000                       
005009390201000094401761        THAIS NASCIMENTO DOS SANTOS        PIRACAIA 1084                      MARECHAL HERMES          RIO DE JANEIRO           RJ21555260000000000000000                       
005009390201000094584779        ELISABETH SABRINA PEREIRA MOREIRA  ALBERTO DE OLIVEIRA 400 BL 3 AP 101MOSELA                   PETROPOLIS               RJ25675170000000000000000                       
005009390201000094662710        RAYANE BARBOSA LIMA                DOUTOR THOUZET 1811                QUITANDINHA              PETROPOLIS               RJ25650061000000000000000                       
00500939020100009555000177      ADRIANO SILVA CANDIDO              AUTOMOVEL CLUBE 340 AP 204         GLAUCIA                  BELFORD ROXO             RJ26196030000000000000000                       
0050093902010000973300182       MARCELA DE SOUZA PAULA             PREFEITO IAGO JOSE DE CASTRO VALERIOFICINAS VELHAS          BARRA DO PIRAI           RJ27110470000000000000000                       
0050093902010000975000183       TASSIA CLARISSE BRANDAO COELHO     SA FERREIRA 159                    COPACABANA               RIO DE JANEIRO           RJ22071100000000000000000                       
00500939020100009814000000184   FERNANDA BARROSO MAFORT            PRESIDENTE MANOEL DUARTE 175       OLARIA                   NOVA FRIBURGO            RJ28623500000000000000000                       
005009390201000098220000186     JUAN DA SILVA ALMEIDA              BARAO DO TRIUNFO 1328              MOSELA                   PETROPOLIS               RJ25675310000000000000000                       
005009390201000098300000185     WESSELEY MOURA DE PAULA FREITAS JR BINGEN 878 CS 12                   BINGEN                   PETROPOLIS               RJ25660004000000000000000                       
0050093902010000984900000187    CHRISTIAN KAMAL DE AVELLAR         GETULIO VARGAS 38                  QUITANDINHA              PETROPOLIS               RJ25651076000000000000000                       
005009390201000099460188        BRENDA MACHADO FIALHO              TEREZA JESUS DE VASCONCELOS 279    METALURGICA              BARRA DO PIRAI           RJ27110380000000000000000                       
005009390201000100730190        KHRYSTINE EVELYN SIMOES GONCALVES  MARLENE CUNHA 400 BLOCO 11B AP 406 BRAS DE PINA             RIO DE JANEIRO           RJ21215395000000000000000                       
00500939020100010243196         JULIA SAMPAIO BAPTISTA             PREFEITO ARTUR DA COSTA 1          MUQUECA                  BARRA DO PIRAI           RJ27140054000000000000000                       
0050093902010001025100000195    NATASHA DA ROCHA CORREA BARROS     ANDALUZIA 512 FUNDOS               BENTO RIBEIRO            RIO DE JANEIRO           RJ21555100000000000000000                       
00500939020100010278197         LARISSA LAINO DE BARCELOS          ROCHA 1                            JARDIM JOSE BONIFACIO    SAO JOAO DE MERITI       RJ25565161000000000000000                       
0050093902010001043000199       ANNE DA SLVA DE JESUS              RIO DA PRATA 1285 AP 201           BANGU                    RIO DE JANEIRO           RJ21820092000000000000000                       
00500939020100010553000203      ALINE FRADE FERNANDES              OLIVEIRA ALVARES 166               IRAJA                    RIO DE JANEIRO           RJ21235160000000000000000                       
0050093902010001060002050       JULIANA BARBOSA CHAGAS VAZ DA SILVATIETE 125 AP 306                   BANGU                    RIO DE JANEIRO           RJ21820120000000000000000                       
0050093902010001061802060       ANA PAULA GOMES DIAS               GENERAL ARGOLO 213 AP 304          SAO CRISTOVAO            RIO DE JANEIRO           RJ20921394000000000000000                       
0050093902010001063402070       IZABELLY ARAUJO SILVA DE SOUZA     MARIANA LIMA LOTE 7 QD C           OUTEIRO                  BELFORD ROXO             RJ26185350000000000000000                       
0050093902010001075800000210    CAROLLINE DE PAULA RIBEIRO         MACEMBU 1512 CS 14                 TAQUARA                  RIO DE JANEIRO           RJ22710245000000000000000                       
005009390201000107740000212     FELIPE NOVO RODRIGUES              PROFESSOR ALVARO RODRIGUES 277 AP 1BOTAFOGO                 RIO DE JANEIRO           RJ22280040000000000000000                       
0050093902010001083900000214    ESTEPHANY MARTINS RODRIGUES SILVA  B 502                              VILA NOVA SURUI          MAGE                     RJ25922320000000000000000                       
005009390201300006120005120     ALINE CAMPOS OLIVEIRA DIONATO      RUA PASQUALE GALLUPI, 1119 CASA 2  PARAISOPOLIS             SAO PAULO                SP05660000000000000000000                       
005009390201300010740009040     FELIPE CYPRIANO DE ALMEIDA ARRUDA  RUA MAJOR QUEDINHO, 224            CENTRO                   SAO PAULO                SP01050030000000000000000                       
005009390201300015030004529     LEANDRO MARTINS DOS SANTOS         RUA DAS MARGARIDAS, 628            VILA ESPANHOLA           SAO PAULO                SP07990090000000000000000                       
0050093902013000341781          KETLYN D ARAUJO TEODORO MENESES    R MANUEL DA COSTA                  VL DARLI                 SAO PAULO                SP03262000000000000000000                       
005009390201300055095408        NATASHA PINTO VIEIRA               R MONFORTE DE LEMOS                JD UMUARAMA              SAO PAULO                SP05783170000000000000000                       
00500939020130010510000023      KARINE DE OLIVEIRA ANDRADE         ELIZEU GUILHERME 23                VILA SANTA TEREZINHA     CARAPICUIBA              SP06315015000000000000000                       
005009390201300108120000024     MARIA G RODRIGUES SANTOS SILVA     RIO ALONSO 39                      UNIAO DE VILA NOVA       SAO PAULO                SP08071076000000000000000                       
005009390201600003960009009     RENATHO CESARIO DE FRANCA          AVENIDA POETA FRANCISCO DAS CHAGAS SERRARIA                 DIADEMA                  SP09980240000000000000000                       
005009390201600004000009010     AMANDA VITAL RAMOS DA COSTA SOUZA  RUA JOAO VIEIRA DA SILVA, 26       VILA SABRINA             SAO PAULO                SP02141020000000000000000                       
005009390201600004260009012     MARCIO JUSTO                       TRAVESSA GOIANIA                   SAO VENANCIO             SAO PAULO                SP13295000000000000000000                       
005009390201600004500009015     BEATRIZ RIBEIRO DOS SANTOS         RUA ALESSIO PRATI, 45              VILA IOLANDALAJEADO      SAO PAULO                SP08451550000000000000000                       
005009390201600005400009019     THAINA GLUSKOSKI DOS SANTOS        RUA PARATI, 171                    JARDIM MOREIRA           GUARULHOS                SP07082230000000000000000                       
005009390201600007520005142     LILIAN ROSANGELA ROMANO            RUA PROFESSOR NOBIL MARCACINI, 219 JARAGUA                  SAO PAULO                SP02998030000000000000000                       
005009390201600010400009037     RAFAEL HENRIQUE DE ABREU           RUA SAO MANOEL, 67                 PINHEIROS                SAO PAULO                SP05424040000000000000000                       
005009390201600011710009050     NATALIA SILVA FRANCO DO BOMFIM     RUA BARTOLOMEU BUENO DA SILVA, 833 JARDIM DOS REIS          FRANCO DA ROCHA          SP07845140000000000000000                       
005009390201600011980004924     LARISSA DA SILVA PIRES             RUA OLIMPIO RODRIGUE               JARDIM MACEDONIA         SAO PAULO                SP05894390000000000000000                       
005009390201600014650004514     ALAN GONCALVES DE OLIVEIRA         RUA COND BRAS D DE AGUIAR, 99      VILA BOM JARDIM          SAO PAULO                SP04937100000000000000000                       
005009390201600016190004647     FATIMA CRISTINA PAIVA              AVENIDA GUAPIRA, TUCURUVI          TUCURUVI                 SAO PAULO                SP02265002000000000000000                       
005009390201600018130004855     JULIANA TUMENAS FARIAS             AVENIDA PONTE DA AMIZADE           JARDIM MARILU            SAO PAULO                SP08371420000000000000000                       
005009390201600018720004884     MEIRE CORREIA OLIVEIRA             RUA LUSON, N. 37                   PQ NOVO MUNDO            SAO PAULO                SP01001000000000000000000                       
005009390201600019020004886     SILVANO SOUZA SANTOS               AVENIDA CONEGO JOSE                VILA PORTUGAL            SAO PAULO                SP02918170000000000000000                       
005009390201600020030004680     DIOGO MANOEL FERREIRA              RUA IGARAPE AGUA AZUL, 1135 43A    ONJUNTO HABITACIONA     SSAO PAULO                SP01001000000000000000000                       
005009390201600021510004794     GLEICKA KARINA SANTOS DA SILVA     RUA MIGUEL DE QUADROS MARINHO, 321 JARDIM MARGARIDA         SAO PAULO                SP08191080000000000000000                       
005009390201600030185184        MARCOS CESAR THOMAZ                R ALUISIO AZEVEDO                  SANTANA                  SAO PAULO                SP02021030000000000000000                       
005009390201600031235194        GESSICA ROBERTA DA SILVA ARMINIO   R MANDAGUARI                       JD B CLIMA               GUARULHOS                SP07122110000000000000000                       
005009390201600031585197        JESSICA DE ALBUQUERQUE FINAMOR     R FRIEDRICH V VOITH                JD S JOAO (JARAGUA)      SAO PAULO                SP02995000000000000000000                       
005009390201600033875207        WILLIAM CORREIA RODRIGUES          R FRANCISCA M DE SOUZA             PDA INGLESA              SAO PAULO                SP02248050000000000000000                       
005009390201600036975235        ELEN SOUZA SANTOS                  R AIRTON SENA                      JD N HARMONIA            SAO PAULO                SP08342000000000000000000                       
005009390201600037435243        GUSTAVO ALENCAR LORA               R TORIBA                           VL CANERO                SAO PAULO                SP03191130000000000000000                       
005009390201600040575264        CAMILA VIEIRA MARTINS              R S FRANCISCO                      VL B FLOR                MOGI DAS CRUZES          SP08745250000000000000000                       
005009390201600041115270        URBANO CALVO NETO                  R CRUZ DE MALTA                    PDA INGLESA              SAO PAULO                SP02248001000000000000000                       
005009390201600041205271        REINALDO DO ROSARIO SOARES         AV DOZE DE OUTUBRO                 VL ASSUNCAO              SANTO ANDRE              SP09030640000000000000000                       
005009390201600042865284        LETICIA CUSTODIO FONSECA           EST DO ELENCO                      JD S DOMINGOS            GUARULHOS                SP07142000000000000000000                       
005009390201600042945285        LAIZ DA LUZ SANTOS                 AV VARGINHA                        C SERODIO                GUARULHOS                SP07150040000000000000000                       
005009390201600043085286        DOUGLAS SOARES PENEDO              R DAS VITACEAS                     AMERICANOPOLIS           SAO PAULO                SP04340090000000000000000                       
005009390201600043835301        MARIA L FERNANDES SUBIRES GIMENEZ  R GLICERIO C LEITE                 JD LISBOA                SAO PAULO                SP03675040000000000000000                       
005009390201600044135305        GABRIELA NOVELLI RIBEIRO           R CAUCASO                          PRQ N ORATORIO           SANTO ANDRE              SP09260010000000000000000                       
005009390201600046935321        DOUGLAS CARDOSO                    R JOSE F DE CASTRO 173 AP 62 BL E  VL AMELIA                SAO PAULO                SP02615010000000000000000                       
005009390201600047075323        VICTORIA CARIELO ROCHA             R CABREUVA                         JD STA EMILIA            GUARULHOS                SP07134360000000000000000                       
005009390201600047825335        VICTOR HUGO ALACRINO BELIZOTE      R ALFARROBEIRAS                    JD PERI                  SAO PAULO                SP02676010000000000000000                       
005009390201600048555343        MARIA CRISTIANE DE ARAUJO SILVA    R INOCENCIO PEDRO                  PRQ S VICENTE            MAUA                     SP09371064000000000000000                       
005009390201600048715342        RENATA DA SILVA DE OLIVEIRA        R FRIEDRICH V VOITH                JD S JOAO (JARAGUA)      SAO PAULO                SP02995000000000000000000                       
005009390201600049445348        GABRIELA SUZUKI DE GONDRA          R BERTOLINA M ALCOBA               JD DIONISIO              SAO PAULO                SP04935020000000000000000                       
005009390201600050295359        FERNANDA NEVES DA CRUZ RAMOS       AV GETULIO VARGAS                  PIRATININGA              OSASCO                   SP06233020000000000000000                       
005009390201600052155374        GISELE BARBOSA RIBEIRO             R DOS PIRAJIS 116                  BALN S FRANCISCO         SAO PAULO                SP04473130000000000000000                       
005009390201600056305429        NATHALIA RODRIGUES DA SILVA        R ANTONIO BEGLIOMINI               VL IMOS ARNONI           SAO PAULO                SP02374150000000000000000                       
005009390201600058000102        VALDIRENE FERREIRA                 R PARREIRA-BRAVA                   VL CURUCA                SAO PAULO                SP08031450000000000000000                       
005009390201600058195296        RAFAELA CARDOSO MARTINS ALCALDE    R CAMBIRA                          PRQ CISPER               SAO PAULO                SP03818100000000000000000                       
005009390201600058270108        FELIPE ROGENSKI DA SILVA           R FERRABOSCO                       JD SIPRAMAR              SAO PAULO                SP04851350000000000000000                       
00500939020160005916113         JENNIFER MELO DOS SANTOA           R D MANOEL                         JD OBELISCO              POA                      SP08565200000000000000000                       
00500939020160006122123         ISABELLA CHRISTINE VERGILIO SOARES R BALTAZAR BRUM                    VL RE                    SAO PAULO                SP03667000000000000000000                       
00500939020160006220125         LETICIA DO PATROCINIO              R FRANCISCO CORDEIRO               LAJEADO                  SAO PAULO                SP08451170000000000000000                       
00500939020160006254128         KARINA SANTOS                      AV CANDIDO PORTINARI               C ANHANGUERA             SANTANA DE PARNAIBA      SP06537001000000000000000                       
00500939020160006548134         CARLA REGINA ALVES                 R JAIR DE M VIANA                  INTERLAGOS               SAO PAULO                SP04815090000000000000000                       
00500939020160006718135         JOSEANE MICHELE DOS SANTOS DINIZ   AV SETE DE SETEMBRO                CENTRO                   DIADEMA                  SP09912010000000000000000                       
00500939020160007030010         NATACHA BRAZ DO NASCIMENTO         R ITA                              JD ANSALCA               GUARULHOS                SP07241150000000000000000                       
00500939020160007099139         ELIANA OLIVEIRA DOS SANTOS         AV ERNESTO S CRUZ                  CID ANTONIO E CARVALHO   SAO PAULO                SP08225380000000000000000                       
00500939020160007170141         RAUL CORREIA DE OLIVEIRA SOUSA     R PARAMBU                          PRQ VITORIA              SAO PAULO                SP02270070000000000000000                       
00500939020160007188142         HILMA APARECIDA ALVES              R JONAS CARDOSO                    JD PANTANAL              SAO PAULO                SP08180650000000000000000                       
00500939020160007196143         ALBERTO MENDONCA                   R ANGELO F FAGUNDES                JD TRIANON               TABOAO DA SERRA          SP06783320000000000000000                       
00500939020160007200144         MARCELO BENEDITO DOS SANTOS        AV MOINHO FABRINI                  INDEPENDENCIA            SAO BERNARDO DO CAMPO    SP09861160000000000000000                       
00500939020160007293149         SHIRLEI DE PAULA CALAZANS          AV APARECIDA DO RIO NEGRO          JD IRIS                  SAO PAULO                SP05144085000000000000000                       
00500939020160007307150         DEBORA FERNANDA DE OLIVEIRA        R JOAO DAREZZO                     S PEDRO                  OSASCO                   SP06186110000000000000000                       
00500939020160007315151         EDINILSON ALVES DE SOUZA           R SEBASTIAO M DA SILVA             CID LIDER                SAO PAULO                SP08280350000000000000000                       
00500939020160007366153         BRUNA FERREIRA VILELA              AV PRES JUSCELINO                  PIRAPORINHA              DIADEMA                  SP09950370000000000000000                       
00500939020160007404158         TAYANE VALVERDE BERBER             R OSVALDO GUEDES                   PRQ BOTURUSSU            SAO PAULO                SP03805150000000000000000                       
005009390201600084195582        KAIO SILVERIO                      RUA PALMEIRA DE LEQUE              JARDIM PEDRO JOSE NUNES  SAO PAULO                SP08061430000000000000000                       
005009390201600086051740        BRUNA DE OLIVEIRA DA SILVA         IMIRIM 4048                        IMIRIM                   SAO PAULO                SP02464700000000000000000                       
005009390201600088504822        JULIO CESAR CAMPOS DE ALBUQUERQUE  R CDOR CARLO M GARDANO 103 APTO 43 CENTRO                   SAO BERNARDO DO CAMPO    SP09720470000000000000000                       
00500939020160008923889         LARISSA MARCELLI RIBEIRO           FREI GASPAR 397                    PIRATININGA              OSASCO                   SP06230000000000000000000                       
005009390201600092963888        GABRIEL RODRIGUES                  JIRAU 25                           VILA CARMOSINA           SAO PAULO                SP08295160000000000000000                       
005009390201600093421870        ANA PAULA DA SILVA                 AV GUAPIRA 1451 AP 18B             TUCURUVI                 SAO PAULO                SP02265002000000000000000                       
0050093902016000967900184       VANDO COSTA DA SILVA               13 105                             CONJUNTO MARCOS FREIRE   GUARULHOS                SP07263665000000000000000                       
00500939020160009709000185      MARCIO BUENO DA SILVA              PADRE DAMIAO CALIXTO TRAJANO 200   ALVARENGA                SAO BERNARDO DO CAMPO    SP09854390000000000000000                       
0050093902016000974100186       LEONARDO REIS GUEDES               JOAO SCACIOTTI 507                 VILA PROGREDIOR          SAO PAULO                SP05615020000000000000000                       
00500939020160009903187         LUIZ EDUARDO MACHADO ROCHA         JOSE TALIBERTI 145                 CONJUNTO HABITACIONAL PADSAO PAULO                SP03589040000000000000000                       
00500939020160009911188         LETICIA CATHARINA DA SILVA         SARGENTO AGOSTINHO FERREIRA 648    VILA MARIA               SAO PAULO                SP02129001000000000000000                       
005009390201600100900000192     FERNANDA DE SOUZA SILVA            JOSE OLIVEIRA 143                  JARDIM SANTA PAULA       GUARULHOS                SP07179297000000000000000                       
005009390201600101200000194     SILAS LIMA ABADE                   CELSO LAGAR 420 BL 22 AP 14        JARDIM ESTER YOLANDA     SAO PAULO                SP05374040000000000000000                       
00500939020160010219200         THAYNA ANIZIA DAPARECIDA           CARAPICUIBA 1                      JARDIM SANTA FILOMENA    FRANCO DA ROCHA          SP07840180000000000000000                       
00500939020160010227199         CAROLINE DA SILVA                  JUBAIR CELESTINO 1                 PRESIDENTE ALTINO        OSASCO                   SP06216160000000000000000                       
0050093902016001052900202       JORGE WILLIANS RIOS ABDALA         GUAJARAUNA 151                     VILA ANTONIO             SAO PAULO                SP05376070000000000000000                       
0050093902016001059601300       JULIANA PIMENTEL DE OLIVEIRA BRITO R ATUAI 143 AP 62B                 VL ESPERANCA             SAO PAULO                SP03646000000000000000000                       
00500939020160010685000207      ANDRESSA FERREIRA LEITE            LEONOR BARBOSA RODRIGUES 116 CS 1  VILA BARBOSA             SAO PAULO                SP02556040000000000000000                       
00500939020160010693000208      ARIANE BRAGA DE ALMEIDA            5 DE OUTUBRO 29                    CHACARA GAIVOTAS         SAO PAULO                SP04849309000000000000000                       
00500939020160010707000209      BIANCA GOMES SEVERIANO             ASTEROIDE 263                      PARQUE PRIMAVERA         GUARULHOS                SP07145220000000000000000                       
00500939020160010715000205      JOAO EDUARDO NUNES SANTOS          VICENZO CATENA 1                   VILA REMO                SAO PAULO                SP05864230000000000000000                       
00500939020170003530068         LOANNE L FERNANDA FORTUNATO SANTOS R JOSE M M RUBIRA                  ITAUNA                   SAO GONCALO              RJ24474550000000000000000                       
00500939020170010456003         AYENNE COSTA DOS SANTOS GAMA       GUMERCINDO REPIZO 13 QD 7          KM 32                    NOVA IGUACU              RJ26298638000000000000000                       
TRAILLER ENDERECOS  00000459                                                                                                                                                                            
