1FATURA TECNICA                SAO MARTINHO S/A                   5719200074125878MULTI SAUDE EMPRESA                20250720250731FATURAMENTO    00000002                          
2010851SAO MARTINHO S/A                   00000000000000000000000000000000000000000000000000000000000000020250731                                                                   
30851000147300ALVARO DANI                            07121967120TNQ201122015AM07202500000000011248700000000000000008GESTOR QUALIDADE    000011001087163140683049774125001473008     
30851000147301PEDRITA DE LIMA TEIXEIRA DANI          01101985221TNQ201122015AM07202500000000006507100000000000000008                                101212471121774125001473016     
30851000147301F.MODERADORES  PAGOS EM 07/2025        00000000000    00000000RS07202500000000000045000000000000000010                                101212471121774125001473016     
30851000147302EMANUEL TEIXEIRA DANI                  25082016112TNQ225082016AM07202500000000003175100000000000000008                                108639932140774125001473024     
30851000147302F.MODERADORES  PAGOS EM 07/2025        00000000000    00000000RS07202500000000000263000000000000000010                                108639932140774125001473024     
30851000219400JOEL PACHIR                            17031976120TNQ201122018AM07202500000000009519900000000000000008COORDENADOR SEG OCUP1004918     124982047847774125002194009     
30851000219400F.MODERADORES  PAGOS EM 07/2025        00000000000    00000000RS07202500000000000335500000000000000010                                124982047847774125002194009     
30851000219401PATRICIA APARECIDA VENDITTI            11111977221TNQ201122018AM07202500000000007778400000000000000008                                127206228852774125002194017     
30851000219401F.MODERADORES  PAGOS EM 07/2025        00000000000    00000000RS07202500000000000335500000000000000010                                127206228852774125002194017     
30851000219402VINICIUS PACHIR                        24032008112TNQ201122018AM07202500000000003175100000000000000008                                154614029841774125002194025     
30851000219402F.MODERADORES  PAGOS EM 07/2025        00000000000    00000000RS07202500000000000072500000000000000010                                154614029841774125002194025     
30851000264000TIAGO PETRONI TAVEIRA                  26071978120NP0307122020AM07202500000000014946100000000000000008CONSULTOR           1024534     128506351898774125002640001     
30851000264000F.MODERADORES  PAGOS EM 07/2025        00000000000    00000000RS07202500000000003651100000000000000010                                128506351898774125002640001     
30851000264001REGINA HELENA FAGUNDES MATHEUS         12011980221NP0307122020AM07202500000000014136000000000000000008                                129503179874774125002640019     
30851000264001F.MODERADORES  PAGOS EM 07/2025        00000000000    00000000RS07202500000000004702100000000000000010                                129503179874774125002640019     
30851000264002MARIA CLARA MATHEUS TAVEIRA            21062013212NP0307122020AM07202500000000005769700000000000000008                                156885287881774125002640027     
30851000264002F.MODERADORES  PAGOS EM 07/2025        00000000000    00000000RS07202500000000000099600000000000000010                                156885287881774125002640027     
40851(AC)ACERTO DE FATURA(COBRAR)       000000000000000000000000000000000000000000000000000000                                                                                      
40851(RS)RECUPERACAO SINISTRO           000000000000000000000008000000000095043000000000000000                                                                                      
40851(  )VIDAS REMAN. MES ANTERIOR      000000000000000000000000000000000000000000000000000000                                                                                      
40851(IM)INCLUSOES NO MES               000000000000000000000000000000000000000000000000000000                                                                                      
40851(IR)INCLUSOES RETROATIVAS          000000000000000000000000000000000000000000000000000000                                                                                      
40851(RM)REATIVACOES NO MES             000000000000000000000000000000000000000000000000000000                                                                                      
40851(RR)REATIVACOES RETROATIVAS        000000000000000000000000000000000000000000000000000000                                                                                      
40851(TM)TRANSFERENCIAS NO MES          000000000000000000000000000000000000000000000000000000                                                                                      
40851(TR)TRANSFERENCIAS RETROATIVAS     000000000000000000000000000000000000000000000000000000                                                                                      
40851(AM)ALTERACOES NO MES              000003000006000009000009000000000762561000000000000000                                                                                      
40851(AR)ALTERACOES RETROATIVAS         000000000000000000000000000000000000000000000000000000                                                                                      
40851(RE)COBRANCA DE REMIDO             000000000000000000000000000000000000000000000000000000                                                                                      
40851(TC)TOTAIS A COBRAR                000003000006000009000017000000000857604000000000000000                                                                                      
40851(AD)ACERTO DE FATURA(DEVOLVER)     000000000000000000000000000000000000000000000000000000                                                                                      
40851(CM)CANCELAMENTOS NO MES           000000000000000000000000000000000000000000000000000000                                                                                      
40851(CR)CANCELAMENTOS RETROATIVOS      000000000000000000000000000000000000000000000000000000                                                                                      
40851(TM)TRANSFERENCIAS NO MES          000000000000000000000000000000000000000000000000000000                                                                                      
40851(TR)TRANSFERENCIAS RETROATIVAS     000000000000000000000000000000000000000000000000000000                                                                                      
40851(AM)ALTERACOES NO MES              000000000000000000000000000000000000000000000000000000                                                                                      
40851(AR)ALTERACOES RETROATIVAS         000000000000000000000000000000000000000000000000000000                                                                                      
40851(DM)DEVOLUCAO REMIDO NO MES        000000000000000000000000000000000000000000000000000000                                                                                      
40851(DR)DEVOLUCAO REMIDO RETROAT.      000000000000000000000000000000000000000000000000000000                                                                                      
40851(TD)TOTAIS A DEVOLVER              000000000000000000000000000000000000000000000000000000                                                                                      
40851(TS)TOTAIS DA SUBFATURA            000003000006000009000017000000000857604000000000000000                                                                                      
40851   PLANOS CONTRATADOS:                                                                                                                                                         
40851   PLANO   N.TIT   N.DEP N.VIDAS FATOR REEMB.HM HOSPITAL                 PLANO   N.TIT   N.DEP N.VIDAS FATOR REEMB.HM HOSPITAL                                                 
40851   NP03        1       2                   0,00 REFERENCIADO             NP04        0       0                   0,00 REFERENCIADO                                             
40851   NP06        0       0                   0,00 REFERENCIADO             NP36        0       0                   0,00 REFERENCIADO                                             
40851   NP37        0       0                   0,00 REFERENCIADO             QN06        0       0                   0,00 REFERENCIADO                                             
40851   TNQ2        2       4                   0,00 REFERENCIADO                                                                                                                   
2010852SAO MARTINHO S/A                   00000000000000000000000000000000000000000000000000000000000000020250731                                                                   
30852000027200ANTONIO CARLOS PELIZARI PINTO          01081954120NP0301122015AM07202500000000036266100000000000000008ASSESSOR DE TECNOLOG000001013514175458390806774125000272005     
30852000027200F.MODERADORES  PAGOS EM 07/2025        00000000000    00000000RS07202500000000001456200000000000000010                                175458390806774125000272005     
30852000027203ROSANA DO CARMO NOVAES PINTO           10121961221NP0301122015AM07202500000000034618300000000000000008                                107510372810774125000272039     
30852000027203F.MODERADORES  PAGOS EM 07/2025        00000000000    00000000RS07202500000000004772100000000000000010                                107510372810774125000272039     
30852000021300MARIO ORTIZ GANDINI                    22051950120NP0601122015AM07202500000000052061400000000000000008DIRETOR AGROINDUSTRI000001007229159403411872774125000213009     
30852000021301ANGELA MARIA DE AZEVEDO GANDINI        28051954221NP0601122015AM07202500000000049313200000000000000008                                104278218869774125000213017     
30852000021301F.MODERADORES  PAGOS EM 07/2025        00000000000    00000000RS07202500000000000974900000000000000010                                104278218869774125000213017     
30852000021302LUCAS DE AZEVEDO GANDINI               07061986112NP0601122015AM07202500000000016844700000000000000008                                134487461855774125000213025     
30852000157000ROBERTO PUPULIN                        05031952120NP0601122015AM07202500000000054421400000000000000008DIRETOR GERAL       000001200015159522330825774125001570001     
30852000157000ROBERTO PUPULIN                        05031952120NP0601122015AM07202500000000051660500000000000000008DIRETOR GERAL       000001200015159522330825774125001570001     
30852000157001DIOVANDA BRITO PEREIRA PUPULIN         06031959221NP0601122015AM07202500000000049313200000000000000008                                113011386811774125001570019     
30852000157001DIOVANDA BRITO PEREIRA PUPULIN         06031959221NP0601122015AM07202500000000049313200000000000000008                                113011386811774125001570019     
40852(AC)ACERTO DE FATURA(COBRAR)       000000000000000000000000000000000000000000000000000000                                                                                      
40852(RS)RECUPERACAO SINISTRO           000000000000000000000003000000000072032000000000000000                                                                                      
40852(  )VIDAS REMAN. MES ANTERIOR      000000000000000000000000000000000000000000000000000000                                                                                      
40852(IM)INCLUSOES NO MES               000000000000000000000000000000000000000000000000000000                                                                                      
40852(IR)INCLUSOES RETROATIVAS          000000000000000000000000000000000000000000000000000000                                                                                      
40852(RM)REATIVACOES NO MES             000000000000000000000000000000000000000000000000000000                                                                                      
40852(RR)REATIVACOES RETROATIVAS        000000000000000000000000000000000000000000000000000000                                                                                      
40852(TM)TRANSFERENCIAS NO MES          000000000000000000000000000000000000000000000000000000                                                                                      
40852(TR)TRANSFERENCIAS RETROATIVAS     000000000000000000000000000000000000000000000000000000                                                                                      
40852(AM)ALTERACOES NO MES              000003000004000007000009000000003938120000000000000000                                                                                      
40852(AR)ALTERACOES RETROATIVAS         000000000000000000000000000000000000000000000000000000                                                                                      
40852(RE)COBRANCA DE REMIDO             000000000000000000000000000000000000000000000000000000                                                                                      
40852(TC)TOTAIS A COBRAR                000003000004000007000012000000004010152000000000000000                                                                                      
40852(AD)ACERTO DE FATURA(DEVOLVER)     000000000000000000000000000000000000000000000000000000                                                                                      
40852(CM)CANCELAMENTOS NO MES           000000000000000000000000000000000000000000000000000000                                                                                      
40852(CR)CANCELAMENTOS RETROATIVOS      000000000000000000000000000000000000000000000000000000                                                                                      
40852(TM)TRANSFERENCIAS NO MES          000000000000000000000000000000000000000000000000000000                                                                                      
40852(TR)TRANSFERENCIAS RETROATIVAS     000000000000000000000000000000000000000000000000000000                                                                                      
40852(AM)ALTERACOES NO MES              000000000000000000000000000000000000000000000000000000                                                                                      
40852(AR)ALTERACOES RETROATIVAS         000000000000000000000000000000000000000000000000000000                                                                                      
40852(DM)DEVOLUCAO REMIDO NO MES        000000000000000000000000000000000000000000000000000000                                                                                      
40852(DR)DEVOLUCAO REMIDO RETROAT.      000000000000000000000000000000000000000000000000000000                                                                                      
40852(TD)TOTAIS A DEVOLVER              000000000000000000000000000000000000000000000000000000                                                                                      
40852(TS)TOTAIS DA SUBFATURA            000003000004000007000012000000004010152000000000000000                                                                                      
40852   PLANOS CONTRATADOS:                                                                                                                                                         
40852   PLANO   N.TIT   N.DEP N.VIDAS FATOR REEMB.HM HOSPITAL                 PLANO   N.TIT   N.DEP N.VIDAS FATOR REEMB.HM HOSPITAL                                                 
40852   NP03        1       1                   0,00 REFERENCIADO             NP04        0       0                   0,00 REFERENCIADO                                             
40852   NP06        3       4                   0,00 REFERENCIADO             NP36        0       0                   0,00 REFERENCIADO                                             
40852   NP37        0       0                   0,00 REFERENCIADO             QN06        0       0                   0,00 REFERENCIADO                                             
40852   TNQ2        0       0                   0,00 REFERENCIADO                                                                                                                   
49999(AC)ACERTO DE FATURA(COBRAR)       000000000000000000000000000000000000000000000000000000                                                                                      
49999(RS)RECUPERACAO SINISTRO           000000000000000000000011000000000167075000000000000000                                                                                      
49999(  )VIDAS REMAN. MES ANTERIOR      000000000000000000000000000000000000000000000000000000                                                                                      
49999(IM)INCLUSOES NO MES               000000000000000000000000000000000000000000000000000000                                                                                      
49999(IR)INCLUSOES RETROATIVAS          000000000000000000000000000000000000000000000000000000                                                                                      
49999(RM)REATIVACOES NO MES             000000000000000000000000000000000000000000000000000000                                                                                      
49999(RR)REATIVACOES RETROATIVAS        000000000000000000000000000000000000000000000000000000                                                                                      
49999(TM)TRANSFERENCIAS NO MES          000000000000000000000000000000000000000000000000000000                                                                                      
49999(TR)TRANSFERENCIAS RETROATIVAS     000000000000000000000000000000000000000000000000000000                                                                                      
49999(AM)ALTERACOES NO MES              000006000010000016000018000000004700681000000000000000                                                                                      
49999(AR)ALTERACOES RETROATIVAS         000000000000000000000000000000000000000000000000000000                                                                                      
49999(RE)COBRANCA DE REMIDO             000000000000000000000000000000000000000000000000000000                                                                                      
49999(TC)TOTAIS A COBRAR                000006000010000016000029000000004867756000000000000000                                                                                      
49999(AD)ACERTO DE FATURA(DEVOLVER)     000000000000000000000000000000000000000000000000000000                                                                                      
49999(CM)CANCELAMENTOS NO MES           000000000000000000000000000000000000000000000000000000                                                                                      
49999(CR)CANCELAMENTOS RETROATIVOS      000000000000000000000000000000000000000000000000000000                                                                                      
49999(TM)TRANSFERENCIAS NO MES          000000000000000000000000000000000000000000000000000000                                                                                      
49999(TR)TRANSFERENCIAS RETROATIVAS     000000000000000000000000000000000000000000000000000000                                                                                      
49999(AM)ALTERACOES NO MES              000000000000000000000000000000000000000000000000000000                                                                                      
49999(AR)ALTERACOES RETROATIVAS         000000000000000000000000000000000000000000000000000000                                                                                      
49999(DM)DEVOLUCAO REMIDO NO MES        000000000000000000000000000000000000000000000000000000                                                                                      
49999(DR)DEVOLUCAO REMIDO RETROAT.      000000000000000000000000000000000000000000000000000000                                                                                      
49999(TD)TOTAIS A DEVOLVER              000000000000000000000000000000000000000000000000000000                                                                                      
49999(TS)TOTAIS DA SUBFATURA            000006000010000016000029000000004867756000000000000000                                                                                      
49999   PLANOS CONTRATADOS:                                                                                                                                                         
49999   PLANO   N.TIT   N.DEP N.VIDAS FATOR REEMB.HM HOSPITAL                 PLANO   N.TIT   N.DEP N.VIDAS FATOR REEMB.HM HOSPITAL                                                 
49999   NP03        2       3                   0,00 REFERENCIADO             NP04        0       0                   0,00 REFERENCIADO                                             
49999   NP06        3       4                   0,00 REFERENCIADO             NP36        0       0                   0,00 REFERENCIADO                                             
49999   NP37        0       0                   0,00 REFERENCIADO             QN06        0       0                   0,00 REFERENCIADO                                             
49999   TNQ2        2       4                   0,00 REFERENCIADO                                                                                                                   
5TRAILLER FATURA TECNICA                                                                                                                                                            
