1FATURA TECNICA                IRKO ORGANIZACAO CONTABIL LTDA     5719800074675878MULTI SAUDE EMPRESA                20250720250731FATURAMENTO    00000002                          
2010851IRKO ORGANIZACAO CONTABIL LTDA     00000000000000000000000000000000000000000000000000000000000000020250731                                                                   
30851000051500RENATO VILELA RIBEIRO                  20071980120FXE101072019AM07202500000000007545700000000000000008GERENTE PARALEGAL   000000004125129146075801774675000515001     
40851(AC)ACERTO DE FATURA(COBRAR)       000000000000000000000000000000000000000000000000000000                                                                                      
40851(RS)RECUPERACAO SINISTRO           000000000000000000000000000000000000000000000000000000                                                                                      
40851(  )VIDAS REMAN. MES ANTERIOR      000000000000000000000000000000000000000000000000000000                                                                                      
40851(IM)INCLUSOES NO MES               000000000000000000000000000000000000000000000000000000                                                                                      
40851(IR)INCLUSOES RETROATIVAS          000000000000000000000000000000000000000000000000000000                                                                                      
40851(RM)REATIVACOES NO MES             000000000000000000000000000000000000000000000000000000                                                                                      
40851(RR)REATIVACOES RETROATIVAS        000000000000000000000000000000000000000000000000000000                                                                                      
40851(TM)TRANSFERENCIAS NO MES          000000000000000000000000000000000000000000000000000000                                                                                      
40851(TR)TRANSFERENCIAS RETROATIVAS     000000000000000000000000000000000000000000000000000000                                                                                      
40851(AM)ALTERACOES NO MES              000001000000000001000001000000000075457000000000000000                                                                                      
40851(AR)ALTERACOES RETROATIVAS         000000000000000000000000000000000000000000000000000000                                                                                      
40851(RE)COBRANCA DE REMIDO             000000000000000000000000000000000000000000000000000000                                                                                      
40851(TC)TOTAIS A COBRAR                000001000000000001000001000000000075457000000000000000                                                                                      
40851(AD)ACERTO DE FATURA(DEVOLVER)     000000000000000000000000000000000000000000000000000000                                                                                      
40851(CM)CANCELAMENTOS NO MES           000000000000000000000000000000000000000000000000000000                                                                                      
40851(CR)CANCELAMENTOS RETROATIVOS      000000000000000000000000000000000000000000000000000000                                                                                      
40851(TM)TRANSFERENCIAS NO MES          000000000000000000000000000000000000000000000000000000                                                                                      
40851(TR)TRANSFERENCIAS RETROATIVAS     000000000000000000000000000000000000000000000000000000                                                                                      
40851(AM)ALTERACOES NO MES              000000000000000000000000000000000000000000000000000000                                                                                      
40851(AR)ALTERACOES RETROATIVAS         000000000000000000000000000000000000000000000000000000                                                                                      
40851(DM)DEVOLUCAO REMIDO NO MES        000000000000000000000000000000000000000000000000000000                                                                                      
40851(DR)DEVOLUCAO REMIDO RETROAT.      000000000000000000000000000000000000000000000000000000                                                                                      
40851(TD)TOTAIS A DEVOLVER              000000000000000000000000000000000000000000000000000000                                                                                      
40851(TS)TOTAIS DA SUBFATURA            000001000000000001000001000000000075457000000000000000                                                                                      
40851   PLANOS CONTRATADOS:                                                                                                                                                         
40851   PLANO   N.TIT   N.DEP N.VIDAS FATOR REEMB.HM HOSPITAL                 PLANO   N.TIT   N.DEP N.VIDAS FATOR REEMB.HM HOSPITAL                                                 
40851   FXER        0       0                   0,00 REFERENCIADO             FXE1        1       0                   0,00 REFERENCIADO                                             
40851   FXQ2        0       0                   0,00 REFERENCIADO             NP03        0       0                   0,00 REFERENCIADO                                             
40851   TNQ2        0       0                   0,00 REFERENCIADO                                                                                                                   
2010852IRKO ORGANIZACAO CONTABIL LTDA     00000000000000000000000000000000000000000000000000000000000000020250731                                                                   
30852000056600AIRTON BUENO CARNEIRO                  15081965120TNQ201072019AM07202500000000012928600000000000000008COORDENADOR TI      000000004182106300926800774675000566004     
30852000056600F.MODERADORES  PAGOS EM 07/2025        00000000000    00000000RS07202500000000000015600000000000000010                                106300926800774675000566004     
30852000056601FLAVIA CRISTINA RUIVO                  25091972221TNQ201072019AM07202500000000012067100000000000000008                                116479605845774675000566012     
30852000056602YASMIN RUIVO CARNEIRO                  19122011212TNQ201072019AM07202500000000012067100000000000000008                                149491561871774675000566020     
30852000038800EICO SHIRAZAWA                         20101947220TNQ201072019AM07202500000000012641400000000000000008INATIVO             000000003326122305556853774675000388003     
30852000038800F.MODERADORES  PAGOS EM 07/2025        00000000000    00000000RS07202500000000001152100000000000000010                                122305556853774675000388003     
30852000038801ISSAO UGE                              18121955121TNQ201072019AM07202500000000012067100000000000000008                                164287866800774675000388011     
30852000038801F.MODERADORES  PAGOS EM 07/2025        00000000000    00000000RS07202500000000000497900000000000000010                                164287866800774675000388011     
30852000044200ELZA DAS DORES DUARTE                  19121961240FXE101072019AM07202500000000007618200000000000000008INATIVO             000000003970103260179844774675000442008     
30852000076000EMILIA ETSUKO IWASHITA                 21041956210TNQ201072019AM07202500000000014083800000000000000008SOCIO GERENTE       000000004412100115862811774675000760003     
30852000043400MARCIO QUEDAS JENCIUS                  13071968120TNQ201072019AM07202500000000012354200000000000000008GERENTE SR ADM PESSO000000003920107784629869774675000434005     
30852000041800MARIA IVONE RODRIGUES BORGES           13021965220TNQ201072019AM07202500000000012641400000000000000008INATIVO             000000003819110381680827774675000418008     
30852000041800F.MODERADORES  PAGOS EM 07/2025        00000000000    00000000RS07202500000000000107100000000000000010                                110381680827774675000418008     
30852000041801LUIZ CARLOS BORGES                     01071959121TNQ201072019AM07202500000000012067100000000000000008                                101373522801774675000418016     
30852000041801F.MODERADORES  PAGOS EM 07/2025        00000000000    00000000RS07202500000000000263000000000000000010                                101373522801774675000418016     
40852(AC)ACERTO DE FATURA(COBRAR)       000000000000000000000000000000000000000000000000000000                                                                                      
40852(RS)RECUPERACAO SINISTRO           000000000000000000000005000000000020357000000000000000                                                                                      
40852(  )VIDAS REMAN. MES ANTERIOR      000000000000000000000000000000000000000000000000000000                                                                                      
40852(IM)INCLUSOES NO MES               000000000000000000000000000000000000000000000000000000                                                                                      
40852(IR)INCLUSOES RETROATIVAS          000000000000000000000000000000000000000000000000000000                                                                                      
40852(RM)REATIVACOES NO MES             000000000000000000000000000000000000000000000000000000                                                                                      
40852(RR)REATIVACOES RETROATIVAS        000000000000000000000000000000000000000000000000000000                                                                                      
40852(TM)TRANSFERENCIAS NO MES          000000000000000000000000000000000000000000000000000000                                                                                      
40852(TR)TRANSFERENCIAS RETROATIVAS     000000000000000000000000000000000000000000000000000000                                                                                      
40852(AM)ALTERACOES NO MES              000006000004000010000010000000001205360000000000000000                                                                                      
40852(AR)ALTERACOES RETROATIVAS         000000000000000000000000000000000000000000000000000000                                                                                      
40852(RE)COBRANCA DE REMIDO             000000000000000000000000000000000000000000000000000000                                                                                      
40852(TC)TOTAIS A COBRAR                000006000004000010000015000000001225717000000000000000                                                                                      
40852(AD)ACERTO DE FATURA(DEVOLVER)     000000000000000000000000000000000000000000000000000000                                                                                      
40852(CM)CANCELAMENTOS NO MES           000000000000000000000000000000000000000000000000000000                                                                                      
40852(CR)CANCELAMENTOS RETROATIVOS      000000000000000000000000000000000000000000000000000000                                                                                      
40852(TM)TRANSFERENCIAS NO MES          000000000000000000000000000000000000000000000000000000                                                                                      
40852(TR)TRANSFERENCIAS RETROATIVAS     000000000000000000000000000000000000000000000000000000                                                                                      
40852(AM)ALTERACOES NO MES              000000000000000000000000000000000000000000000000000000                                                                                      
40852(AR)ALTERACOES RETROATIVAS         000000000000000000000000000000000000000000000000000000                                                                                      
40852(DM)DEVOLUCAO REMIDO NO MES        000000000000000000000000000000000000000000000000000000                                                                                      
40852(DR)DEVOLUCAO REMIDO RETROAT.      000000000000000000000000000000000000000000000000000000                                                                                      
40852(TD)TOTAIS A DEVOLVER              000000000000000000000000000000000000000000000000000000                                                                                      
40852(TS)TOTAIS DA SUBFATURA            000006000004000010000015000000001225717000000000000000                                                                                      
40852   PLANOS CONTRATADOS:                                                                                                                                                         
40852   PLANO   N.TIT   N.DEP N.VIDAS FATOR REEMB.HM HOSPITAL                 PLANO   N.TIT   N.DEP N.VIDAS FATOR REEMB.HM HOSPITAL                                                 
40852   FXER        0       0                   0,00 REFERENCIADO             FXE1        1       0                   0,00 REFERENCIADO                                             
40852   FXQ2        0       0                   0,00 REFERENCIADO             NP03        0       0                   0,00 REFERENCIADO                                             
40852   TNQ2        5       4                   0,00 REFERENCIADO                                                                                                                   
49999(AC)ACERTO DE FATURA(COBRAR)       000000000000000000000000000000000000000000000000000000                                                                                      
49999(RS)RECUPERACAO SINISTRO           000000000000000000000005000000000020357000000000000000                                                                                      
49999(  )VIDAS REMAN. MES ANTERIOR      000000000000000000000000000000000000000000000000000000                                                                                      
49999(IM)INCLUSOES NO MES               000000000000000000000000000000000000000000000000000000                                                                                      
49999(IR)INCLUSOES RETROATIVAS          000000000000000000000000000000000000000000000000000000                                                                                      
49999(RM)REATIVACOES NO MES             000000000000000000000000000000000000000000000000000000                                                                                      
49999(RR)REATIVACOES RETROATIVAS        000000000000000000000000000000000000000000000000000000                                                                                      
49999(TM)TRANSFERENCIAS NO MES          000000000000000000000000000000000000000000000000000000                                                                                      
49999(TR)TRANSFERENCIAS RETROATIVAS     000000000000000000000000000000000000000000000000000000                                                                                      
49999(AM)ALTERACOES NO MES              000007000004000011000011000000001280817000000000000000                                                                                      
49999(AR)ALTERACOES RETROATIVAS         000000000000000000000000000000000000000000000000000000                                                                                      
49999(RE)COBRANCA DE REMIDO             000000000000000000000000000000000000000000000000000000                                                                                      
49999(TC)TOTAIS A COBRAR                000007000004000011000016000000001301174000000000000000                                                                                      
49999(AD)ACERTO DE FATURA(DEVOLVER)     000000000000000000000000000000000000000000000000000000                                                                                      
49999(CM)CANCELAMENTOS NO MES           000000000000000000000000000000000000000000000000000000                                                                                      
49999(CR)CANCELAMENTOS RETROATIVOS      000000000000000000000000000000000000000000000000000000                                                                                      
49999(TM)TRANSFERENCIAS NO MES          000000000000000000000000000000000000000000000000000000                                                                                      
49999(TR)TRANSFERENCIAS RETROATIVAS     000000000000000000000000000000000000000000000000000000                                                                                      
49999(AM)ALTERACOES NO MES              000000000000000000000000000000000000000000000000000000                                                                                      
49999(AR)ALTERACOES RETROATIVAS         000000000000000000000000000000000000000000000000000000                                                                                      
49999(DM)DEVOLUCAO REMIDO NO MES        000000000000000000000000000000000000000000000000000000                                                                                      
49999(DR)DEVOLUCAO REMIDO RETROAT.      000000000000000000000000000000000000000000000000000000                                                                                      
49999(TD)TOTAIS A DEVOLVER              000000000000000000000000000000000000000000000000000000                                                                                      
49999(TS)TOTAIS DA SUBFATURA            000007000004000011000016000000001301174000000000000000                                                                                      
49999   PLANOS CONTRATADOS:                                                                                                                                                         
49999   PLANO   N.TIT   N.DEP N.VIDAS FATOR REEMB.HM HOSPITAL                 PLANO   N.TIT   N.DEP N.VIDAS FATOR REEMB.HM HOSPITAL                                                 
49999   FXER        0       0                   0,00 REFERENCIADO             FXE1        2       0                   0,00 REFERENCIADO                                             
49999   FXQ2        0       0                   0,00 REFERENCIADO             NP03        0       0                   0,00 REFERENCIADO                                             
49999   TNQ2        5       4                   0,00 REFERENCIADO                                                                                                                   
5TRAILLER FATURA TECNICA                                                                                                                                                            
