1POSICAO CADASTRAL00740222507312507312025073120250731                                                                                                                               
25000023124MARCIA OMINE                       000000000002601026288269590720                    160330160330QN0600000000078A196010262016033020160330        00000000000000000000    
55000023124MARCIA OMINE                       00000000000774022023124005RETSUKO OMINE                      00000000078A    QN0630032016                                             
95000023124MARCIA OMINE                       000000000001040215  00000009606367 00000000078A                                                                                       
40000100001000010000000003                                                                                                                                                          
