1POSICAO CADASTRAL00741252507312507312025073120250731                                                                                                                               
20010000035EDINEI ROBERTO DE CASTRO           000010004801650506205641156817CONSULTOR DE TECNOLO810706151201NP03000001000480196505061981070620151201        00000000000000000000    
50010000035EDINEI ROBERTO DE CASTRO           00001000480774125000035006AMELIA ROSSATO DE CASTRO           000001000480QN06NP0301052022                                             
90010000035EDINEI ROBERTO DE CASTRO           0000100048023716489 00000000025372 000001000480                                                                                       
3001000003503MARIA LOURDES MAGNUSSON CASTRO     6410172211512010000010004801964101720151201            000000000000000005740664896774125000035030CATARINA PIVA MAGNUSSON            
20010000043IDNEI SAMUEL DELA MARTA            000010006471620328204193030814GESTOR SERVICOS AGRI800627151201NP03000001000647196203281980062720151201        00000000000000000000    
50010000043IDNEI SAMUEL DELA MARTA            00001000647774125000043000FLORINDA SDELA MARTA               000001000647QN06NP0301052017                                             
90010000043IDNEI SAMUEL DELA MARTA            0000100064723701856 0000000257702P 000001000647                                                                                       
3001000004301MARLEI AP GUEDES DELA MARTA        6510162211512010000010006471965101620151201            000000000000000008131611850774125000043018MARLEI APARECIDA GUEDES DELA MARTA 
20010000060SIDNEY ROBERTO FERREIRA            000010033701730220213207711812GERENTE SERVICOS E R880804151201NP04000001003370197302201988080420151201        00000000000000000000    
50010000060SIDNEY ROBERTO FERREIRA            00001003370774125000060004LEONTINA DE ALMEIDA FERREIRA       000001003370    NP0401122015                                             
90010000060SIDNEY ROBERTO FERREIRA            0000100337023716489 00000000068578 000001003370                                                                                       
3001000006001MARIA EDUARDA FERREIRA             0409272121512010000010033702004092720151201            000000000000000039167573851774125000060012JAQUELINE MATTOS FERREIRA          
3001000006002MARIA VITORIA FERREIRA             0204052121512010000010033702002040520151201            000000000000000039167575803774125000060020JAQUELINE MATTOS FERREIRA          
3001000006003JESSICA FRANCIELLE PIVA FERREIRA   8805102211611050000010033701988051020161105            000000000000000036342636877774125000060038VERA LUCIA PERDIGAO PIVA           
20010000078AGENOR CUNHA PAVAN                 000010048021620625204156179877DIRETOR SUPERINTENDE970401151201NP06000001004802196206251997040120151201        00000000000000000000    
50010000078AGENOR CUNHA PAVAN                 00001004802774125000078006MARIA THEREZINHA CUNHA PAVAN       000001004802    NP0601122015                                             
90010000078AGENOR CUNHA PAVAN                 0000100480223716489 00000000014141 000001004802                                                                                       
3001000007801FLAVIA DE STEFANI                  6002102211512010000010048021960021020151201            000000000000000010899350801774125000078014MARIA LOURDES RUZZANTE STEFANI     
20010000086ELIAS EDUARDO ROSA GEORGES         000010050221730108214833232855DIRETOR JURIDICO    980216151201NP06000001005022197301081998021620151201        00000000000000000000    
50010000086ELIAS EDUARDO ROSA GEORGES         00001005022774125000086009ARLETE ROSA DA SILVA GEORGES       000001005022    NP0601122015                                             
90010000086ELIAS EDUARDO ROSA GEORGES         0000100502223716489 00000000126225 000001005022                                                                                       
3001000008601ANA LAURA MOYA GEORGES             0307192121512010000010050222003071920151201            000000000000000044512777873774125000086017CARLA MINUTTI MOYA GEORGES         
3001000008602CARLA MINUTTI MOYA GEORGES         7309212211512010000010050221973092120151201            000000000000000019099745877774125000086025DILVA MINUTTI MOYA                 
3001000008603JOAO PEDRO MOYA GEORGES            0111241121512010000010050222001112420151201            000000000000000022852195801774125000086033CARLA MINUTTI MOYA GEORGES         
20010000108ELKE MEIRELLES                     000010054611661223209363818845GERENTE EXECUTIVO   010803151201NP06000001005461196612232001080320151201        00000000000000000000    
50010000108ELKE MEIRELLES                     00001005461774125000108001LUCIA MORGADO MEIRELLES            000001005461NP04NP0601042022                                             
90010000108ELKE MEIRELLES                     0000100546123716489 00000000144568 000001005461                                                                                       
3001000010801BEATRIZ BRAGA MEIRELLES            0110142121512010000010054612001101420151201            000000000000000038628335854774125000108019DENISE DOS SANTOS BRAGA            
3001000010803DENISE DOS SANTOS BRAGA            6612172211512010000010054611966121720151201            000000000000000008290898886774125000108035MARIA TEREZA DOS SANTOS BRAGA      
20010000116VICTOR LEONEL DE CARVALHO FILHO    000010054681650607272064994653GESTOR MANUTENCAO   011001151201NP03000001005468196506072001100120151201        00000000000000000000    
50010000116VICTOR LEONEL DE CARVALHO FILHO    00001005468774125000116004YRE MARQUES DE CARVALHO            000001005468    NP0301122015                                             
90010000116VICTOR LEONEL DE CARVALHO FILHO    0000100546823716489 00000000144630 000001005468                                                                                       
3001000011602ANA CRISTINA NORBERTO DE CARVALHO  6612272211512010000010054681966122720151201            000000000000000067516653691774125000116020RUTH TEREZINHA NORBERTO            
20010000175EDI CLAUDIO FIORI                  000010055501700215210155496832HEAD TEC INFORMACAO 840401151201NP06000001005550197002151984040120151201        00000000000000000000    
50010000175EDI CLAUDIO FIORI                  00001005550774125000175000CECILIA AP MIOTTO FIORI            000001005550NP04NP0601042022                                             
90010000175EDI CLAUDIO FIORI                  0000100555023717019 00000000156051 000001005550                                                                                       
3001000017501HELENA CASSANTI FIORI              0304072121512010000010055502003040720151201            000000000000000043719680827774125000175018SONIA REGINA PERLIS CASSANTI FIORI 
3001000017502JULIA CECILIA CASSANTI FIORI       0109072121512010000010055502001090720151201            000000000000000043719646807774125000175026SONIA REGINA PERLIS CASSANTI FIORI 
3001000017503SONIA REGINA PERLIS CASSANTI FIORI 7009292211512010000010055501970092920151201            000000000000000013420522851774125000175034CELINA PERLIS CASSANTI             
20010000221OSCAR FRANCISCO TRIBST PAULINO     000010087941620620206608087810GERENTE DE QUALIDADE030210151201NP04000001008794196206202003021020151201        00000000000000000000    
50010000221OSCAR FRANCISCO TRIBST PAULINO     00001008794774125000221002SOPHIA TRIBST PAULINO              000001008794NP03NP0401022018                                             
90010000221OSCAR FRANCISCO TRIBST PAULINO     0000100879423716489 00000000166952 000001008794                                                                                       
3001000022102ISABEL CRISTINA CINC PAULINO       6008292211512010000010087941960082920151201            000000000000000006608088892774125000221028AUGUSTA MENDES CINCERRE            
20010000248FERNANDO LIMA PINTO FERRAZ         000010122171770304226121994894GESTOR EXTRACAO E UT060306151201NP03000001012217197703042006030620151201        00000000000000000000    
50010000248FERNANDO LIMA PINTO FERRAZ         00001012217774125000248005VANDA LIMA PINTO FERRAZ            000001012217    NP0301122015                                             
90010000248FERNANDO LIMA PINTO FERRAZ         0000101221723716489 00000000182591 000001012217                                                                                       
3001000024801ARTHUR BRAGA PINTO FERRAZ          0601111121512010000010122172006011120151201            000000000000000049938382800774125000248013MARIA AMELIA BRAGA PINTO FERRAZ    
3001000024802MARIA AMELIA BRAGA PINTO FERRAZ    7909122211512010000010122171979091220151201            000000000000000021434782832774125000248021LAIR PINTOR BRAGA                  
3001000024803PEDRO BRAGA PINTO FERRAZ           0812121121512010000010122172008121220151201            000000000000000049938402844774125000248039MARIA AMELIA BRAGA PINTO FERRAZ    
20010000256FELIPE VICCHIATO                   000010128291760917226059341870DIRETOR FINANCEIRO E060807151201NP06000001012829197609172006080720151201        00000000000000000000    
50010000256FELIPE VICCHIATO                   00001012829774125000256008SUELI DOS REIS VICCHIATO           000001012829    NP0601122015                                             
90010000256FELIPE VICCHIATO                   000010128293413741  00000000345361 000001012829                                                                                       
3001000025601CRISTIANE BARBOSA VICCHIATO        7903272211512010000010128291979032720151201            000000000000000027717239809774125000256016LEILA CHAMA BARBOSA                
3001000025602GIOVANNA BARBOSA VICCHIATO         1502052121512010000010128292015020520151201            000000000000000056868937806774125000256024CRISTIANE BARBOSA                  
3001000025603VALENTINA BARBOSA VICCHIATO        1009292121512010000010128292010092920151201            000000000000000056868998864774125000256032CRISTIANE BARBOSA                  
20010000264ERICA DE CASTRO BRIGNOLI RAMOS     000010128512820219222184390852GERENTE TRANS FINAN 061002151201NP04000001012851198202192006100220151201        00000000000000000000    
50010000264ERICA DE CASTRO BRIGNOLI RAMOS     00001012851774125000264002ELIANE DE CASTRO BRIGNOLI          000001012851NP03NP0401082022                                             
90010000264ERICA DE CASTRO BRIGNOLI RAMOS     000010128512371648  00000000185582 000001012851                                                                                       
3001000026401LAIS BRIGNOLI RAMOS                1011082121711010000010128512010110820171101            000000000000000049154328829774125000264010ERICA DE CASTRO BRIGNOLI RAMOS     
20010000299ALEXANDRE JOSE NEGRINI DE MATTOS   000010137081821218230858442876GERENTE JUR E COMP  070924151201NP04000001013708198212182007092420151201        00000000000000000000    
50010000299ALEXANDRE JOSE NEGRINI DE MATTOS   00001013708774125000299008MARIA AUGUSTA NEGRINI DE MATTOS    000001013708NP03NP0408102018                                             
90010000299ALEXANDRE JOSE NEGRINI DE MATTOS   0000101370823716489 0000000019459P 000001013708                                                                                       
3001000029901ANA LUCIA GIANINNI GOBATO          8212222211512010000010137081982122220151201            000000000000000031005383820774125000299016DIRCE LUZIA GIANINNI               
20010000302LUIS GUSTAVO TEIXEIRA              000010137761850110232431558860DIRETOR AGRICOLA    071213151201NP06000001013776198501102007121320151201        00000000000000000000    
50010000302LUIS GUSTAVO TEIXEIRA              00001013776774125000302000SOLANGE A GONCALVES TEIXEIRA       000001013776NP04NP0601082021                                             
90010000302LUIS GUSTAVO TEIXEIRA              0000101377623716489 00000000192481 000001013776                                                                                       
3001000030201MARISTELA BRAGA MARTINS TEIXEIRA   8410012211512010000010137761984100120151201            000000000000000032434601820774125000302018MARIA DA GRACA BRAGA MARTINS       
3001000030202CATARINA MARTINS TEIXEIRA          2009182122009180000010137762020091820200918            000000000000000058819106809774125000302026MARISTELA BRAGA MARTINS TEIXEIRA   
3001000030203AURORA MARTINS TEIXEIRA            2304222122304280000010137762023042220230428            000000000000000060943430852774125000302034MARISTELA BRAGA MARTINS TEIXEIRA   
20010000353DIEGO PURGATO FURLAN               000010152401850605133705055844GERENTE EXECUTIVO   090126151201NP06000001015240198506052009012620151201        00000000000000000000    
50010000353DIEGO PURGATO FURLAN               00001015240774125000353003JACYRA PURGATO FURLAN              000001015240NP04NP0601042022                                             
90010000353DIEGO PURGATO FURLAN               000010152402600001  00000053832217 000001015240                                                                                       
3001000035302TASSIA GERBASI                     8711232212110220000010152401987112320211022            000000000000000036867774873774125000353029SILVIA HELENA BRENDOLA GERBASI     
3001000035303DANTE GERBASI FURLAN               2205041122205040000010152402022050420220504            000000000000000060250087871774125000353037TASSIA GERBASI                     
20010000370HERNANI CARLOS EUZEBIO             000010159091800506227273092878GERENTE CONT E TRIB 090713151201NP04000001015909198005062009071320151201        00000000000000000000    
50010000370HERNANI CARLOS EUZEBIO             00001015909774125000370007MARIA APARECIDA ALMEIDA EUZEBIO    000001015909NP03NP0401062018                                             
90010000370HERNANI CARLOS EUZEBIO             000010159093419381  00000000014266 000001015909                                                                                       
3001000037001ARTHUR GIOLO EUZEBIO               0801231121512010000010159092008012320151201            000000000000000046231976890774125000370015DAMIANA SALGUEIRO GIOLO EUZEBIO    
3001000037002DAMIANA SALGUEIRO GIOLO EUZEBIO    8202102211512010000010159091982021020151201            000000000000000030341966878774125000370023APARECIDA DE FATIMA SALGUEIRO GIOLO
3001000037003SOFIA GIOLO EUZEBIO                1502252121512010000010159092015022520151201            000000000000000056291773899774125000370031DAMIANA SALGUEIRO GIOLO EUZEBIO    
20010000418GUILHERME DO PRADO RUZZON          000010168541831018132123950874GERENTE JUR REL INST100909151201NP04000001016854198310182010090920151201        00000000000000000000    
50010000418GUILHERME DO PRADO RUZZON          00001016854774125000418004MARIA SHIRLEY DO PRADO RUZZON      000001016854NP03NP0401042019                                             
90010000418GUILHERME DO PRADO RUZZON          000010168543415278  00000000037436 000001016854                                                                                       
20010000426WAGNER DE ABREU MASIERO            000010168571710707209317518885GERENTE DE EXECUTIVO100921151201NP06000001016857197107072010092120151201        00000000000000000000    
50010000426WAGNER DE ABREU MASIERO            00001016857774125000426007NAIR DE ABREU MASIERO              000001016857NP04NP0601042022                                             
90010000426WAGNER DE ABREU MASIERO            000010168570333681  00000010021981 000001016857                                                                                       
3001000042603ZENAIDE GONCALVES SANTANA MASIERO  7005292211512010000010168571970052920151201            000000000000000058076964504774125000426031CARMELITA GONCALVES DE SANTANA     
20010000515ROBERTO BERALDO MELGES             000010188161800313228887361878DIRETOR             130304151201NP06000001018816198003132013030420151201        00000000000000000000    
50010000515ROBERTO BERALDO MELGES             00001018816774125000515007ISABEL CHRISTINA BERALDO MELGES    000001018816NP04NP0625042023                                             
90010000515ROBERTO BERALDO MELGES             000010188163419381  00000000012302 000001018816                                                                                       
3001000051501ERIKA APARECIDA BRISOLARI MELGES   8110112211512010000010188161981101120151201            000000000000000029157564817774125000515015MARTA APARECIDA MOLINA BRISOLARI   
3001000051502HELENA BRISOLARI MELGES            1804102121805010000010188162018041020180501            000000000000000054813690874774125000515023ERIKA APARECIDA BRISOLARI MELGES   
20010000523EDUARDO RODRIGO BONZAKI            000010188511770419225111052844GERENTE MELH CONTI  130304151201NP04000001018851197704192013030420151201        00000000000000000000    
50010000523EDUARDO RODRIGO BONZAKI            00001018851774125000523001MARIA APARECIDA TREVIZO BONZAKI    000001018851NP03NP0401042019                                             
90010000523EDUARDO RODRIGO BONZAKI            000010188510330635  00000010161494 000001018851                                                                                       
3001000052301ANA LAURA BONZAKI                  0611142121512010000010188512006111420151201            000000000000000052479462862774125000523019LEILA REGINA PIRES BONZAKI         
3001000052302LEILA REGINA PIRES BONZAKI         7909082211512010000010188511979090820151201            000000000000000028654332859774125000523027NEUZA MARIA ZANON PIRES            
3001000052303MANUELA BONZAKI                    1306282121512010000010188512013062820151201            000000000000000052479427870774125000523035LEILA REGINA PIRES BONZAKI         
20010000574WALTER MACCHERONI JUNIOR           000010210711650826207167208841ASSESSOR DE TECNOLOG150414151201NP04000001021071196508262015041420151201        00000000000000000000    
50010000574WALTER MACCHERONI JUNIOR           00001021071774125000574004AYDE HELENA LOURENCO MACCHERONI    000001021071    NP0401122015                                             
90010000574WALTER MACCHERONI JUNIOR           0000102107123703948 00000000595926 000001021071                                                                                       
3001000057401MARIA A B NOGUEIRA MACCHERONI      6202222211512010000010210711962022220151201            000000000000000010904422895774125000574012GINA MARLY BELTRAME NOGUEIRA       
20010000760CAIO HENRIQUE URBANO               000010194551880411123002693847ANALISTA GESTAO FINA130606151201NP03000001019455198804112013060620151201        00000000000000000000    
50010000760CAIO HENRIQUE URBANO               00001019455774125000760009ELIZABETH APARECIDA URBANO         000001019455    NP0301122015                                             
90010000760CAIO HENRIQUE URBANO               0000101945526000010 00000224449400 000001019455                                                                                       
20010001155FABIO VENTURELLI                   000032000021651025211425603840DIRETOR PRESIDENTE  071001151201NP37000003200002196510252007100120151201        00000000000000000000    
50010001155FABIO VENTURELLI                   00003200002774125001155001FLORINDA VENTURELLI OLIVEIRA       000003200002NP36NP3701032016                                             
90010001155FABIO VENTURELLI                   0000320000223712335 00000000035327 000003200002                                                                                       
3001000115502DANIELLA BRISOLA RAGAZZO           7203212211512010000032000021972032120151201            000000000000000015362202804774125001155027LYGIA MARIA AIRES BRISOLA          
3001000115503GUILHERME RAGAZZO VENTURELLI       0907071121512010000032000022009070720151201            000000000000000054464279805774125001155035DANIELLA BRISOLA RAGAZZO           
3001000115504SILVIA QUIRINO VENTURELLI          0107202121512010000032000022001072020151201            000000000000000023860739808774125001155043RENATA GORGA QUIRINO VENTURELLI    
20010001163HELDER LUIZ GOSLING                000032000031660819209316488826DIRETOR COMERCIAL EX080701151201NP06000003200003196608192008070120151201        00000000000000000000    
50010001163HELDER LUIZ GOSLING                00003200003774125001163005INAH SCALDAFERRI GOSLING           000003200003    NP0601122015                                             
90010001163HELDER LUIZ GOSLING                000032000033413748  00000000073719 000003200003                                                                                       
3001000116301SIMONE DE FARIA FRANCO GOSLING     7607212211512010000032000031976072120151201            000000000000000024613880831774125001163013MARIA LUZIA DE FARIA FRANCO        
3001000116302GABRIELA FRANCO GOSLING            1702102121702220000032000032017021020170222            000000000000000052439670847774125001163021SIMONE DE FARIA FRANCO GOSLING     
20010001430RICARDO AZEVEDO GONCALVES          000000000001640108208350111860DIRETOR AGROINDUSTRI060701151201NP06000011000002196401082006070120151201        00000000000000000000    
50010001430RICARDO AZEVEDO GONCALVES          00000000000774125001430008ZULMIRA CADELCA GONCALVES          000011000002    NP0601122015                                             
90010001430RICARDO AZEVEDO GONCALVES          0000000000023716489 00000000067768 000011000002                                                                                       
3001000143002LUCIANA AZADINHO LUSTRE GONCALVES  6802022211512010000110000021968020220151201            000000000000000009806104862774125001430024CELESTINA DUARTE AZADINHO LUSTRE   
20010001716JOSE MARCOS TOSTES JUNIOR          000010169451841030232837363839GESTOR DE CANA      110124160701NP031016945     198410302011012420160701        00000000000000000000    
50010001716JOSE MARCOS TOSTES JUNIOR          00001016945774125001716000ROSANGELA NUNES DE TOSTES          1016945         NP0301072016                                             
90010001716JOSE MARCOS TOSTES JUNIOR          0000101694523716489 00000000224839 1016945                                                                                            
3001000171601LAURA FLEURY TOSTES                8608012211607011016945     1986080120160701            000000000000000033403951871774125001716018MARIA C CAMARGO MADEIRA FLEURY     
3001000171602JOAQUIM FLEURY TOSTES              1909161121909191016945     2019091620190919            000000000000000057704413805774125001716026LAURA FLEURY TOSTES                
3001000171603JULIA FLEURY TOSTES                2212222122301031016945     2022122220230103            000000000000000060705987841774125001716034LAURA FLEURY TOSTES                
3001000171604ALICE FLEURY TOSTES                2212222122301031016945     2022122220230103            000000000000000060706000889774125001716042LAURA FLEURY TOSTES                
20010001805EDUARDO CEGLIO BENEDETTI           000010169671841030233592029886GESTOR MANUT. AGRIC 110208170501NP041016967     198410302011020820170501        00000000000000000000    
50010001805EDUARDO CEGLIO BENEDETTI           00001016967774125001805001CRISTINA INES CEGLIO BENEDETTI     1016967     NP03NP0418042023                                             
60010001805EDUARDO CEGLIO BENEDETTI           00001016967IDENTIDADE          442352268                     SSP                           0342504201612868573241                     
90010001805EDUARDO CEGLIO BENEDETTI           0000101696723716489 00000000224987 1016967                                                                                            
3001000180501AMANDA REGINA GARCIA               8712162211705011016967     1987121620170501            000000000000000036883998896774125001805019DIRCE DOS SANTOS GARCIA            
3001000180502PEDRO GARCIA BENEDETTI             1909021121909191016967     2019090220190919            000000000000000057632124870774125001805027AMANDA REGINA GARCIA BENEDETTI     
20010001830FERNANDO CULLEN SAMPAIO            000030433791600811206875198886GERENTE INDUSTRIAL  170717170717NP063043379     196008112017071720170717        00000000000000000000    
50010001830FERNANDO CULLEN SAMPAIO            00003043379774125001830009EFFIE MARY CULLEN SAMPAIO          3043379     NP04NP0601112023                                             
60010001830FERNANDO CULLEN SAMPAIO            00003043379                                                                                0000000000012253019927                     
90010001830FERNANDO CULLEN SAMPAIO            000030433793411565  00000000319769 3043379                                                                                            
3001000183001ANA LUCIA PREZIA SAMPAIO           5909192211707173043379     1959091920170717            000000000000000007472540870774125001830017MARIA TERESA MAIA GOMES PREZIA     
20010001848ANDRE BIGARAN                      000010221891891110236843386806GERENT PLANEJ ESTRAT170719170719NP061022189     198911102017071920170719        00000000000000000000    
50010001848ANDRE BIGARAN                      00001022189774125001848001SILMARA MARIA BISCALCHIN BIGARAN   1022189     NP04NP0601102022                                             
60010001848ANDRE BIGARAN                      00001022189                                                                                0000000000020650321647                     
90010001848ANDRE BIGARAN                      000010221893413767  00000000029311 1022189                                                                                            
3001000184801POLIANA PEREIRA ROMERO             9012112211707191022189     1990121120170719            000000000000000039597789884774125001848019CLARICE PEREIRA ROMERO             
3001000184802HEITOR ROMERO BIGARAN              2010201122010201022189     2020102020201020            000000000000000058888951806774125001848027POLIANA ROMERO BIGARAN             
3001000184803OTAVIO ROMERO BIGARAN              2504021122504021022189     2025040220250402            000000000000000008924390848774125001848035POLIANA PEREIRA BIGARAN            
20010001880LUCIANA CORTES CARVAS              000012000292701125202738835775DIRETOR RH          171023171023NP061200029     197011252017102320171023        00000000000000000000    
50010001880LUCIANA CORTES CARVAS              00001200029774125001880004MARIA LUCIA CORTES CARVAS          1200029         NP0623102017                                             
60010001880LUCIANA CORTES CARVAS              00001200029                                                                                0000000000012514531391                     
90010001880LUCIANA CORTES CARVAS              000012000293419667  00000000010285 1200029                                                                                            
3001000188001CARLOS PERON DE ARAUJO             7002281211710231200029     1970022820171023            000000000000000009031891860774125001880012LOURDES LEITE DE ARAUJO            
3001000188002MATHEUS CARVAS ARAUJO              0811071221710231200029     2008110720171023            000000000000000044191786806774125001880020LUCIANA CORTES CARVAS              
3001000188003LUCAS CARVAS DE ARAUJO             1405271221710231200029     2014052720171023            000000000000000048584308806774125001880038LUCIANA CORTES CARVAS              
20010001910JOSE ROBERTO TARDIVO               000010224321740826213207685803CONSULTOR REL TRAB  180115180115NP031022432     197408262018011520180115        00000000000000000000    
50010001910JOSE ROBERTO TARDIVO               00001022432774125001910009CLARA SANTANA TARDIVO              1022432     QN06NP0301052022                                             
60010001910JOSE ROBERTO TARDIVO               00001022432                                                                                0000000000012391688522                     
90010001910JOSE ROBERTO TARDIVO               0000102243223716489 00000000078506 1022432                                                                                            
3001000191001FERNANDA DE ALMEIDA RAMOS TARDIVO  8010232211808011022432     1980102320180801            000000000000000021312333880774125001910017ALZIRA ORNELLAS DE ALMEIDA RAMOS   
3001000191003LUNNA RAMOS TARDIVO                1206042121808011022432     2012060420180801            000000000000000024175944800774125001910033FERNANDA DE ALMEIDA RAMOS TARDIVO  
20010001937BRUNO CESAR DA SILVA               000010149011840526233011564876GERENTE INDUSTRIAL  180201180201NP041014901     198405262018020120180201        00000000000000000000    
50010001937BRUNO CESAR DA SILVA               00001014901774125001937002ROSEMEIRE MENOSSI DA SILVA         1014901     NP03NP0401112023                                             
60010001937BRUNO CESAR DA SILVA               00001014901                                                                                0000000000020621949293                     
90010001937BRUNO CESAR DA SILVA               0000101490123716489 00000000160849 1014901                                                                                            
3001000193701BIANCA ORNELLAS DE ALMEIDA DA SILVA8511142211802011014901     1985111420180201            000000000000000033011571813774125001937010ELIZABETH GARCIA ORNELLAS ALMEIDA  
3001000193702JOAO GUILHERME ORNELLAS DA SILVA   1311221121802011014901     2013112220180201            000000000000000051237136890774125001937028BIANCA ORNELLAS DE ALMEIDA DA SILVA
3001000193703MARIA JULIA ORNELLAS DA SILVA      2205292122206211014901     2022052920220621            000000000000000060306960842774125001937036BIANCA ORNELLAS DE ALMEIDA DA SILVA
20010001961LUIS RENATO DE PAULA FERREIRA      000010217151830718231164035894ASSESSOR TEC        180301180301NP041021715     198307182018030120180301        00000000000000000000    
50010001961LUIS RENATO DE PAULA FERREIRA      00001021715774125001961002REGINA APARECIDA DE PAULA FERREIRA 1021715     NP03NP0401082021                                             
60010001961LUIS RENATO DE PAULA FERREIRA      00001021715                                                                                0000000000012867296171                     
90010001961LUIS RENATO DE PAULA FERREIRA      0000102171523708257 00000006174825 1021715                                                                                            
3001000196101TANUZA DE CARVALHO FERNANDES       8810142211803011021715     1988101420180301            000000000000000002489960105774125001961010VANDECI RIBEIRO CARVALHO FERNANDES 
3001000196102MARIA LUIZA CARVALHO FERREIRA      1506252121803011021715     2015062520180301            000000000000000024037491842774125001961028TANUZA DE CARVALHO FERNANDES       
20010001996JOAO VITOR BUCK                    000030339151830318231231961864COORD OPERACOES ADM 180501180501NP033033915     198303182018050120180501        00000000000000000000    
50010001996JOAO VITOR BUCK                    00003033915774125001996008FATIMA APARECIDA MAGRIN BUCK       3033915         NP0301052018                                             
60010001996JOAO VITOR BUCK                    00003033915                                                                                0000000000012698180252                     
90010001996JOAO VITOR BUCK                    000030339153413815  00000000052380 3033915                                                                                            
3001000199602JOAO VITOR BUCK FILHO              1908191121908273033915     2019081920190827            000000000000000010287726100774125001996024IORRAINE BARBARA PRISCILA LARA     
3001000199603IORRAINE BARBARA PRICILA LARA BUCK 9103282212105053033915     1991032820210505            000000000000000001422245101774125001996032ROSENI LARA RODRIGUES              
20010002038RONIE EDSON SCHIAVI                000010149571850625232275649808CONSULTOR S&OP      080929180701NP031014957     198506252008092920180701        00000000000000000000    
50010002038RONIE EDSON SCHIAVI                00001014957774125002038008CLEUSA SCHIAVI                     1014957     QN06NP0301052022                                             
60010002038RONIE EDSON SCHIAVI                00001014957                                                                                0000000000012751949152                     
90010002038RONIE EDSON SCHIAVI                000010149572371648  00000000242713 1014957                                                                                            
3001000203802SUELEN MAYARA PIVA SCHIAVI         9511292212112131014957     1995112920211213            000000000000000045133554842774125002038024FATIMA DE LIMA PIVA                
3001000203803OLIVIA PIVA SCHIAVI                2203192122204011014957     2022031920220401            000000000000000060137927800774125002038032SUELEN MAYARA PIVA SCHAVI          
20010002089CRISTIANO DONIZETI DE OLIVEIRA     000010221661780809216610323895COORDENADOR TRIB    180901180901NP031022166     197808092018090120180901        00000000000000000000    
50010002089CRISTIANO DONIZETI DE OLIVEIRA     00001022166774125002089001JESUINA APARECIDA AFFONSO OLIVEIRA 1022166         NP0301092018                                             
60010002089CRISTIANO DONIZETI DE OLIVEIRA     00001022166                                                                                0000000000012490895224                     
90010002089CRISTIANO DONIZETI DE OLIVEIRA     000010221663410276  00000000093747 1022166                                                                                            
3001000208901VALENTINA RIBEIRO DE OLIVEIRA      1103012121809011022166     2011030120180901            000000000000000052166491820774125002089019ANA C CURTOLO RIBEIRO OLIVEIRA     
20010002119CARLOS EDUARDO COELHO FIGUEIREDO   000010229511830725231843605805COORD PROCESSOS CANA180831180831NP031022951     198307252018083120180831        20180901000000000000    
50010002119CARLOS EDUARDO COELHO FIGUEIREDO   00001022951774125002119006MARIA APARECIDA COELHO FIGUEIREDO  1022951         NP0331082018                                             
60010002119CARLOS EDUARDO COELHO FIGUEIREDO   00001022951                                                                                0000000000012752640155                     
90010002119CARLOS EDUARDO COELHO FIGUEIREDO   0000102295123736358 00000000893048 1022951                                                                                            
20010002208JAIME MARCAL JUNIOR                000000197261830424222446376894GERENTE DHO         140220181201NP0419726       198304242014022020181201        00000000000000000000    
50010002208JAIME MARCAL JUNIOR                00000019726774125002208007ROSA MARIA DE OLIVEIRA MARCAL      19726       QN06NP0401042020                                             
60010002208JAIME MARCAL JUNIOR                00000019726                                                                                0000000000012752497255                     
90010002208JAIME MARCAL JUNIOR                0000001972623701511 00000004300416 19726                                                                                              
3001000220801ANIELI PINHEIRO CECCARELLI         84081022118120119726       1984081020181201            000000000000000031030088802774125002208015OLGA DE JESUS PINHEIRO CECCARELLI  
3001000220802JOAO PEDRO CECCARELLI MARCAL       18011111218120119726       2018011120181201            000000000000000054111756824774125002208023ANIELI PINHEIRO CECCARELLI         
20010002305ROBERTA DESTEFANI FONARI           003346269362820303130045027803COORD GESTAO SAUDE  190307190307NP03334626936   198203032019030720190307        00000000000000000000    
50010002305ROBERTA DESTEFANI FONARI           00334626936774125002305001MARCIA REGINA DESTEFANI FONARI     334626936       NP0307032019                                             
60010002305ROBERTA DESTEFANI FONARI           00334626936                                                                                0000000000020386254308                     
90010002305ROBERTA DESTEFANI FONARI           003346269361044236  00005819547167 334626936                                                                                          
20010002356JOSE LEONEL PASQUALINOTTO          000010235331600801203678410880ASSESSOR VARIEDADE  190603190603NP041023533     196008012019060320190603        00000000000000000000    
50010002356JOSE LEONEL PASQUALINOTTO          00001023533774125002356004INES FALCADES                      1023533         NP0403062019                                             
60010002356JOSE LEONEL PASQUALINOTTO          00001023533                                                                                0000000000010863883653                     
90010002356JOSE LEONEL PASQUALINOTTO          000010235333415189  00000000021958 1023533                                                                                            
3001000235601SANDRA E OLIVEIRA PASQUALINOTTO    6705312211906031023533     1967053120190603            000000000000000008507150837774125002356012ABADIA CANDIA DE OLIVEIRA          
20010002445DANIEL BORGHI MENDES               000010176621860422235548392808NAO INFORMADO       110801200210NP031017662     198604222011080120200210        00000000000000000000    
50010002445DANIEL BORGHI MENDES               00001017662774125002445005SILVIA CRISTINA BORGHI MENDES      1017662         NP0310022020                                             
90010002445DANIEL BORGHI MENDES               000010176622371648  00000000222046 1017662                                                                                            
3001000244501MARINA PATEO CULLEN MENDES         8612142212307051017662     1986121420230705            000000000000000035428019840774125002445013MARCIA DUARTE DO PATEO CULLEN      
3001000244502GAEL CULLEN MENDES                 2412051122501011017662     2024120520250101            000000000000000006759200861774125002445021MARINA PATEO CULLEN MENDES         
20010002496ALEXANDRE HENRIQUE FERREIRA VIEIRA 000010241171761220280324274149GERENTE SSO         200316200316NP041024117     197612202020031620200316        00000000000000000000    
50010002496ALEXANDRE HENRIQUE FERREIRA VIEIRA 00001024117774125002496008MARIA APARECIDA FERREIRA VIEIRA    1024117         NP0416032020                                             
90010002496ALEXANDRE HENRIQUE FERREIRA VIEIRA 000010241173416668  00000000259903 1024117                                                                                            
3001000249601KARINA ALVES DE SOUZA VIEIRA       7602132212003161024117     1976021320200316            000000000000000075820820100774125002496016ROSA MARIA ALVES DE SOUZA          
3001000249602GUILHERME DE SOUZA VIEIRA          0604071122003161024117     2006040720200316            000000000000000003075663158774125002496024KARINA ALVES DE SOUZA VIEIRA       
20010002526MARCELO ESKENAZI MAGALHAES         000010243551721013294194300653ASSESSOR  TEC       200720200720NP041024355     197210132020072020200720        00000000000000000000    
50010002526MARCELO ESKENAZI MAGALHAES         00001024355774125002526002GENI ESKENAZI MAGALHAES            1024355         NP0420072020                                             
90010002526MARCELO ESKENAZI MAGALHAES         000010243553414088  00000000772001 1024355                                                                                            
3001000252601ANA PATRICIA ESPALADORI ESKENAZI   7107182212007201024355     1971071820200720            000000000000000079339310659774125002526010TEREZINHA ESPALADORI DE LIMA       
3001000252602LUCAS ESPALADORI ESKENAZI          0504201122007201024355     2005042020200720            000000000000000039499829814774125002526028ANA PATRICIA ESPALADORI ESKENAZI   
3001000252603ANDRE ESPALADORI ESKENAZI          0911231122007201024355     2009112320200720            000000000000000044908906807774125002526036ANA PATRICIA ESPALADORI ESKENAZI   
20010002585CARLOS EDUARDO FARONI              000000000001800318221961821842ASSESSOR            201005201005NP041024466     198003182020100520201005        00000000000000000000    
50010002585CARLOS EDUARDO FARONI              00000000000774125002585008SILVIA MARIA TAVARES FARONI        1024466         NP0405102020                                             
90010002585CARLOS EDUARDO FARONI              000000000003415189  00000000007817 1024466                                                                                            
3001000258501GEORGIA ROCHA VILELA               8106132212010051024466     1981061320201005            000000000000000085438529191774125002585016MIRIAN MATILDE ROCHA VILELA        
3001000258502JULIA VILELA FARONI                1912262122010051024466     2019122620201005            000000000000000058054728808774125002585024GEORGIA ROCHA VILELA               
20010002615LEANDRO AKITA ONO                  000010211121850716233972886810COORDENADOR         150507201001NP031021112     198507162015050720201001        00000000000000000000    
50010002615LEANDRO AKITA ONO                  00001021112774125002615003ANA HISSAE AKITA ONO               1021112         NP0301102020                                             
90010002615LEANDRO AKITA ONO                  0000102111223716489 00000000048895 1021112                                                                                            
3001000261501NABILA LARRUBIA ALVES ONO          8709302212010011021112     1987093020201001            000000000000000036278900866774125002615011MARIA A ZACARELI LARRUBIA ALVES    
20010002674WILLIAN RICARDO DE ARAUJO          000030448681821015230912732881CONSULTOR RH        210104210104NP033044868     198210152021010420210104        00000000000000000000    
50010002674WILLIAN RICARDO DE ARAUJO          00003044868774125002674000ROSEMEIRE A MARCHIZELLI ARAUJO     3044868     QN06NP0301072022                                             
90010002674WILLIAN RICARDO DE ARAUJO          0000304486823731518 00000000178918 3044868                                                                                            
3001000267401NATHALIA TONIN ORTOLANI DE ARAUJO  8406092212101043044868     1984060920210104            000000000000000033046507844774125002674018VILMA TONIN ORTOLANI               
3001000267402MARINA ORTOLANI DE ARAUJO          1611102122101043044868     2016111020210104            000000000000000052000275869774125002674026NATHALIA TONIN ORTOLANI DE ARAUJO  
20010002810ANDRE TEBALDI                      000010251691850101233425819801ASSESSOR            210601210601NP041025169     198501012021060120210601        00000000000000000000    
50010002810ANDRE TEBALDI                      00001025169774125002810000ANA MAURA VALENTE TEBALDI          1025169         NP0401062021                                             
60010002810ANDRE TEBALDI                      00001025169                                                                                0000000000012914403145                     
90010002810ANDRE TEBALDI                      0000102516923728258 00000000364401 1025169                                                                                            
3001000281001PATRICIA ZOTTI TORRES              9007182212106011025169     1990071820210601            000000000000000009242036684774125002810018MARISA ZOTTI TORRES                
3001000281002CAETANO ZOTTI TEBALDI              2210011122210011025169     2022100120221001            000000000000000060561916802774125002810026PATRICIA ZOTTI TORRES              
20010002828PAULO GUILHERME XAVIER             000010197471910525239016445803COORDENACAO         140220210618NP031019747     199105252014022020210618        00000000000000000000    
50010002828PAULO GUILHERME XAVIER             00001019747774125002828002MARIA JOSE DA SILVA XAVIER         1019747         NP0318062021                                             
90010002828PAULO GUILHERME XAVIER             000010197473415278  00000000025050 1019747                                                                                            
3001000282801HAYALA CRISTINA CAVENAGUE DE SOUZA 9002062212106181019747     1990020620210618            000000000000000039552207886774125002828010TELMA CRISTINA CAVENAGUE DE SOUZA  
20010002887CRISTINA DE AZEVEDO NAVARRO VIEIRA 000010252562750224200028625650GERENTE             210803210803NP041025256     197502242021080320210803        00000000000000000000    
50010002887CRISTINA DE AZEVEDO NAVARRO VIEIRA 00001025256774125002887008CLEUZA M A VILELA NAVARRO VIEIRA   1025256         NP0403082021                                             
90010002887CRISTINA DE AZEVEDO NAVARRO VIEIRA 000010252563413755  00000000010307 1025256                                                                                            
3001000288701FERNANDO SABINO RODRIGUES          7803061212108031025256     1978030620210803            000000000000000003965291602774125002887016JUNE SABINO RODRIGUES              
3001000288702BERNARDO NAVARRO SABINO RODRIGUES  1608161122108031025256     2016081620210803            000000000000000051640691804774125002887024CRISTINA DE AZEVEDO NAVARRO VIEIRA 
20010002909VINICIUS ALVES                     000010229551880517108977219698GESTORTRATO         180901210801NP031022955     198805172018090120210801        00000000000000000000    
50010002909VINICIUS ALVES                     00001022955774125002909000NIUZA DIAS DE SOUZA ALVES          1022955         NP0301082021                                             
60010002909VINICIUS ALVES                     00001022955                                                                                0000000000012962328158                     
90010002909VINICIUS ALVES                     000010229553415278  00000000021141 1022955                                                                                            
3001000290901JEANNE CHRISLEY ASSIS OLIVEIRA     8910022212110041022955     1989100220211004            000000000000000002447404107774125002909018DAGMAR DE ASSIS SILVA OLIVEIRA     
20010002917RAFAEL GONCALVES PELUCO            000010169401870612236117256841ASSESSOR            110124210801NP031016940     198706122011012420210801        00000000000000000000    
50010002917RAFAEL GONCALVES PELUCO            00001016940774125002917003MARILZA GONCALVES PELUCO           1016940         NP0301082021                                             
90010002917RAFAEL GONCALVES PELUCO            0000101694023716489 00000000222348 1016940                                                                                            
3001000291701CASSIA RITA ADAME                  8712012212108011016940     1987120120210801            000000000000000023073747877774125002917011ALICE APARECIDA PANSANI ADAME      
20010002925LENISE GONCALVES BARBOSA           000010212162930223141794261885COORDENADOR CONTROL 160125210901NP04102121      199302232016012520210901        00000000000000000000    
50010002925LENISE GONCALVES BARBOSA           00001021216774125002925006SANDRA DE ARRUDA GONCALVES BARBOSA 102121      NP03NP0401082023                                             
90010002925LENISE GONCALVES BARBOSA           000010212162600001  00000026692932 102121                                                                                             
20010003034ROSANA ZAGO SANTOS                 000010255872790105128451434860COORDENADOR         220124220124NP031025587     197901052022012420220124        00000000000000000000    
50010003034ROSANA ZAGO SANTOS                 00001025587774125003034006MARIA ZAGO SANTOS                  1025587         NP0324012022                                             
90010003034ROSANA ZAGO SANTOS                 000010255870331782  00000010014181 1025587                                                                                            
3001000303401MARIA CLARA ZAGO FUNGARO           0809232122201241025587     2008092320220124            000000000000000054915713857774125003034014ROSANA ZAGO SANTOS                 
3001000303402ALICE ZAGO FUNGARO                 1404282122201241025587     2014042820220124            000000000000000054915749886774125003034022ROSANA ZAGO SANTOS                 
20010003042RAFAELA LAPA CARDOSO               000010216802860407135534444878COOR LOG            160901220101NP031021680     198604072016090120220101        00000000000000000000    
50010003042RAFAELA LAPA CARDOSO               00001021680774125003042009ELIANA DE CAMPOS LAPA CARDOSO      1021680         NP0301012022                                             
90010003042RAFAELA LAPA CARDOSO               0000102168023716489 00000000060321 1021680                                                                                            
20010003158GUILHERME HENRIQUE PEREIRA MARTINS 000010247301960330139195351892ESP COMERCIAL       220501220501NP031024730     199603302022050120220501        00000000000000000000    
50010003158GUILHERME HENRIQUE PEREIRA MARTINS 00001024730774125003158003ALESSANDRA APARECIDA MACIEL MARTINS1024730     TNQ2NP0301012025                                             
90010003158GUILHERME HENRIQUE PEREIRA MARTINS 000010247303410731  00000000185773 1024730                                                                                            
20010003166JOSINEIA CARLA DOS REIS            000010259572840210105003295910ESP SUPRIMENTOS     220502220502NP031025957     198402102022050220220502        00000000000000000000    
50010003166JOSINEIA CARLA DOS REIS            00001025957774125003166006MARIA APARECIDA DE LIMA REIS       1025957         NP0302052022                                             
90010003166JOSINEIA CARLA DOS REIS            000010259573415650  00000000291742 1025957                                                                                            
3001000316601HELOISE DOS REIS PESTUN            0912092122205021025957     2009120920220502            000000000000000012831442982774125003166014JOSINEIA CARLA DOS REIS            
3001000316602JORGE EMANUEL PESTUN               1102211122205021025957     2011022120220502            000000000000000012831443954774125003166022JOSINEIA CARLA DOS REIS            
3001000316603ELIZEU PESTUN                      7706071212205021025957     1977060720220502            000000000000000001800578989774125003166030IRACEMA BRAZ PESTUN                
20010003174LUCIANO AUGUSTO GAMA VIANA         000010259731821106205856390601COOR RES SOCIAL     220512220512NP031025973     198211062022051220220512        00000000000000000000    
50010003174LUCIANO AUGUSTO GAMA VIANA         00001025973774125003174000APARECIDA DE FATIMA GAMA VIANA     1025973         NP0312052022                                             
90010003174LUCIANO AUGUSTO GAMA VIANA         000010259733410444  00000000476014 1025973                                                                                            
3001000317401MARILIA DE LIMA BEZERRA            8808042212205121025973     1988080420220512            000000000000000007165282408774125003174018MARIA ALVES DE LIMA BEZERRA        
20010003220LUIS FELIPE DOMINGUES DE ARAUJO    000010260201870108210223486710ESPECIALISTA PCMI   220607220607NP031026020     198701082022060720220607        00000000000000000000    
50010003220LUIS FELIPE DOMINGUES DE ARAUJO    00001026020774125003220001SELMA DOMINGUES DA SILVA ARAUJO    1026020     QN06NP0301082022                                             
90010003220LUIS FELIPE DOMINGUES DE ARAUJO    000010260203418975  00000000342836 1026020                                                                                            
3001000322001ALINE DANTAS ARAUJO                8912132212206071026020     1989121320220607            000000000000000012904515755774125003220019IRINEIDE DA SILVA DANTAS           
20010003239FLAVIO HENRIQUE DA SILVA           000010260271810417229516878857ESP PRO INDUSTRIAIS 220614220614NP031026027     198104172022061420220614        00000000000000000000    
50010003239FLAVIO HENRIQUE DA SILVA           00001026027774125003239001ROSEMEIRE APARECIDA CIOL DA SILVA  1026027         NP0314062022                                             
90010003239FLAVIO HENRIQUE DA SILVA           000010260273410538  00000000175084 1026027                                                                                            
3001000323903SARA DE CAMPOS SALES PIRES DA SILVA1805102122212011026027     2018051020221201            000000000000000055038062806774125003239035GLAUCIA MARIA DE CAMPOS SALES PIRES
3001000323904PRISCILA DE CAMPOS SALES PIRES     7911082212212011026027     1979110820221201            000000000000000087134950115774125003239043GLAUCIA MARIA DE CAMPOS SALES PIRES
20010003271ANDRE TOZO GERALDO                 000010260571821120230833082809GESTOR PLANTIO      220712220712NP031026057     198211202022071220220712        00000000000000000000    
50010003271ANDRE TOZO GERALDO                 00001026057774125003271004VANIA INEZ TOZO GERALDO            1026057         NP0312072022                                             
90010003271ANDRE TOZO GERALDO                 0000102605723708257 00000000212229 1026057                                                                                            
3001000327101CINTIA PIRES DE OLIVEIRA GERALDO   8410312212207121026057     1984103120220712            000000000000000033516981865774125003271012IVETE DE FATIMA PIRES DE OLIVEIRA  
3001000327102ANDRE DE OLIVEIRA GERALDO          1509171222207121026057     2015091720220712            000000000000000050230977812774125003271020CINTIA PIRES DE OLIVEIRA GERALDO   
3001000327103ANTONIO DE OLIVEIRA GERALDO        1704061222207121026057     2017040620220712            000000000000000052780573864774125003271038CINTIA PIRES DE OLIVEIRA GERALDO   
20010003298THIAGO ETTORI DAVANZO              000010212201930607139402863893                    070323220701NP031021220     199306072007032320220701        00000000000000000000    
50010003298THIAGO ETTORI DAVANZO              00001021220774125003298007SILVIA REGINA ETTORI DAVANZO       1021220         NP0301072022                                             
90010003298THIAGO ETTORI DAVANZO              0000102122023716489 00000000017159 1021220                                                                                            
3001000329801LETICIA DE SOUSA MESSIAS           9409192212309121021220     1994091920230912            000000000000000042163330877774125003298015NELI APARECIDA DE SOUSA MESSIAS    
20010003301HENRIQUE FRANKLIN SAMPAIO          000010218101880915136424995897                    170221220701NP031021810     198809152017022120220701        00000000000000000000    
50010003301HENRIQUE FRANKLIN SAMPAIO          00001021810774125003301009MARIA E FRANKLIN SILVA SAMPAIO     1021810     NP04NP0301072022                                             
90010003301HENRIQUE FRANKLIN SAMPAIO          0000102181023716489 00000000185647 1021810                                                                                            
3001000330101NICOLAS VERNILLO SAMPAIO           1005101122207011021810     2010051020220701            000000000000000047049520888774125003301017DANIELE PATRICIA VERNILLO SAMPAIO  
3001000330102RAISSA VERNILLO SAMPAIO            1404162122207011021810     2014041620220701            000000000000000048438968880774125003301025DANIELE PATRICIA VERNILLO SAMPAIO  
3001000330103DANIELE PATRICIA VERNILLO SAMPAIO  8911202212208011021810     1989112020220801            000000000000000039583145890774125003301033MARIA SUELI DA SILVA PEREIRA       
20010003328PAULA LACERDA HOMEM ASSUMPCAO      000010236082851120134671709864CONSULTOR INTERNA   190801220801NP031023608     198511202019080120220801        00000000000000000000    
50010003328PAULA LACERDA HOMEM ASSUMPCAO      00001023608774125003328002MARIA I LACERDA HOMEM ASSUMPCAO    1023608         NP0301082022                                             
90010003328PAULA LACERDA HOMEM ASSUMPCAO      000010236083416212  00000000221888 1023608                                                                                            
20010003336FERNANDA GROBA LOPES DE MENEZES    000010247682910806136573693841COOR SUP DIRETOS    210215220801NP031024768     199108062021021520220801        00000000000000000000    
50010003336FERNANDA GROBA LOPES DE MENEZES    00001024768774125003336005REGINA CELIA GROBA PORTO           1024768         NP0301082022                                             
90010003336FERNANDA GROBA LOPES DE MENEZES    000010247683419366  00000000123249 1024768                                                                                            
20010003450VICTOR MARTINS RICARDO GASPARINI   000010205401910309240600251861CON PLAN ESTRATEGICO150210230101NP031020540     199103092015021020230101        00000000000000000000    
50010003450VICTOR MARTINS RICARDO GASPARINI   00001020540774125003450004SANDRA MARTINS RICARDO             1020540         NP0301012023                                             
90010003450VICTOR MARTINS RICARDO GASPARINI   000010205403417031  00000000406007 1020540                                                                                            
3001000345001VERONICA ANGELICA ALVES FERREIRA   9205272112301011020540     1992052720230101            000000000000000038428399875774125003450012CLEONICE ALVES FERREIRA            
3001000345002ISABELA KOHLER GASPARINI           1602182122311281020540     2016021820231128            000000000000000050896557820774125003450020JACQUELINE WESTRUPP                
20010003565VITOR GREGORIO DE OLIVEIRA         000030397781850618132152362810ESPECI PROCES INDUS 100708230401NP033039778     198506182010070820230401        00000000000000000000    
50010003565VITOR GREGORIO DE OLIVEIRA         00003039778774125003565009MARIA LUCIA JORGE DE OLIVEIRA      3039778         NP0301042023                                             
90010003565VITOR GREGORIO DE OLIVEIRA         0000303977823705673 0000000023656P 3039778                                                                                            
3001000356501VITOR GREGORIO DE OLIVEIRA JUNIOR  1411111122304013039778     2014111120230401            000000000000000055774138852774125003565017THAIS APARECIDA GRANCO DE OLIVEIRA 
20010003603GUILHERME RODRIGUES GOMES DA ROSA  000100001961840702232688013823ESPECIAL PROCESS IN 230425230425NP0310000196    198407022023042520230425        00000000000000000000    
50010003603GUILHERME RODRIGUES GOMES DA ROSA  00010000196774125003603008SANDRA MARIA RODRIGUES DA ROSA     10000196        NP0325042023                                             
90010003603GUILHERME RODRIGUES GOMES DA ROSA  0001000019623700230 00000002396653 10000196                                                                                           
3001000360301DAVI PRATES ROSA                   17050311223042510000196    2017050320230425            000000000000000052922182860774125003603016PRISCILLA PRATES                   
3001000360302PRISCILLA PRATES                   83070622123042510000196    1983070620230425            000000000000000031572036818774125003603024MARIA APARECIDA BASTOS PRATES      
20010003611PAULO SERGIO FONZARE               000010014051620617203587769885                    850502230501NP031001405     196206171985050220230501        00000000000000000000    
50010003611PAULO SERGIO FONZARE               00001001405774125003611001ILDA FERNANDES SARDAO FONZARE      1001405         NP0301052023                                             
90010003611PAULO SERGIO FONZARE               0000100140523716489 00000000033243 1001405                                                                                            
3001000361101NEUSA IGNACIO DE FARIA FONZARE     6310302212305011001405     1963103020230501            000000000000000073098531720774125003611019ELZA DIVINA TEIXEIRA FARIA         
20010003620JOSE BENEDITO DOS REIS FERRACIN    000010128351650102205641157899                    850502230501NP031012835     196501021985050220230501        00000000000000000000    
50010003620JOSE BENEDITO DOS REIS FERRACIN    00001012835774125003620002SANTINA SCARSO FERRACIN            1012835         NP0301052023                                             
90010003620JOSE BENEDITO DOS REIS FERRACIN    0000101283523716489 00000000009431 1012835                                                                                            
3001000362001MARLENE AMBRICO FERRACIN           6712302212305011012835     1967123020230501            000000000000000012733566830774125003620010LUZIA FONZAR AMBRICO               
20010003638GUILHERME FRAGA                    000010212241910819237971648820                    160125230501NP031021224     199108192016012520230501        00000000000000000000    
50010003638GUILHERME FRAGA                    00001021224774125003638004DELIANA PATRICIA DE MELO DOS SANTOS1021224         NP0301052023                                             
90010003638GUILHERME FRAGA                    0000102122423716489 00000000017361 1021224                                                                                            
3001000363801CAMILA DE OLIVEIRA FRAGA           8906102212305111021224     1989061020230511            000000000000000023095568827774125003638012MARIA HELENA GOMES SILVA OLIVEIRA  
20010003646FILIPE LONGATTO MONTEBELLO         000010228751800609222108712801                    180612230501NP031022875     198006092018061220230501        00000000000000000000    
50010003646FILIPE LONGATTO MONTEBELLO         00001022875774125003646007TERESA MARIA LONGATTO MONTEBELLO   1022875         NP0301052023                                             
90010003646FILIPE LONGATTO MONTEBELLO         0000102287523716489 00000000050768 1022875                                                                                            
20010003697MARCELLE G MARTINIANO FIGUEIREDO   000010261592791023228681930800ESPECIALISTA REL    221004230720NP031026159     197910232022100420230720        00000000000000000000    
50010003697MARCELLE G MARTINIANO FIGUEIREDO   00001026159774125003697000CLAUDIA GOULART ANDRADE MARTINIANO 1026159         NP0320072023                                             
90010003697MARCELLE G MARTINIANO FIGUEIREDO   000010261590330009  00000010419804 1026159                                                                                            
3001000369701FABIANO FIGUEIREDO SILVA           7512281212307201026159     1975122820230720            000000000000000024846922855774125003697018EDINA FIGUEIREDO DA SILVA          
3001000369702LAURA GOULART MARTINIANO FIGUEIREDO1611292122307201026159     2016112920230720            000000000000000052077503807774125003697026MARCELLE G MARITINIANO FIGUEIREDO  
3001000369703LIA GOULART MARTINIANO FIGUEIREDO  1109292122307201026159     2011092920230720            000000000000000046644390838774125003697034MARCELLE G MARITINIANO FIGUEIREDO  
20010003735WILLIAM ALVES DA SILVA             000100008991791027227998906871COORDENADOR PCMI    230801230801NP0310000899    197910272023080120230801        00000000000000000000    
50010003735WILLIAM ALVES DA SILVA             00010000899774125003735008FLAVIA MARCELA                     10000899        NP0301082023                                             
90010003735WILLIAM ALVES DA SILVA             000100008993412619  00000000002583 10000899                                                                                           
3001000373501FLAVIA MARCELA PORTO               81112922123080110000899    1981112920230801            000000000000000022484761830774125003735016LURDES APARECIDA VALENTIM PORTO    
3001000373502LIVIA PORTO SILVA                  20121421223080110000899    2020121420230801            000000000000000059013431828774125003735024FLAVIA MARCELA PORTO               
20010003743TAISA PASCHOALIN VENANCIO          000010234792811113228665029818                    190408230801NP031023479     198111132019040820230801        00000000000000000000    
50010003743TAISA PASCHOALIN VENANCIO          00001023479774125003743002LEILA ELIANA PASCHOALIN VENANCI    1023479         NP0301082023                                             
90010003743TAISA PASCHOALIN VENANCIO          000010234790014015  00000000357170 1023479                                                                                            
3001000374301ENRICO PASCHOALIN AVILA            2101091122308011023479     2021010920230801            000000000000000059065895892774125003743010TAISA PASCHOALIN VENANCIO          
20010003751CECILIA GUERINO MIRANDA            000110118422960528175781735100ESPECIALISTA        210126230801NP0311011842    199605282021012620230801        00000000000000000000    
50010003751CECILIA GUERINO MIRANDA            00011011842774125003751005EDNA MARIA GUERINO MIRANDA         11011842        NP0301082023                                             
90010003751CECILIA GUERINO MIRANDA            000110118422373288  00000000496731 11011842                                                                                           
20010003760DANIELA PATRICIA FERRO SILVA       000100009562860110231943940886                    230815230815NP0310000956    198601102023081520230815        00000000000000000000    
50010003760DANIELA PATRICIA FERRO SILVA       00010000956774125003760006SUELY LUCAS FERRO                  10000956        NP0315082023                                             
90010003760DANIELA PATRICIA FERRO SILVA       000100009562371648  00000000234923 10000956                                                                                           
20010003832MARCIO ROGERIO VANALLI             000010205881780831226390528884COOR PATRIMONIAIS   150305231001NP031020588     197808312015030520231001        00000000000000000000    
50010003832MARCIO ROGERIO VANALLI             00001020588774125003832003EMILIA SANCHES VANALLI             1020588         NP0301102023                                             
90010003832MARCIO ROGERIO VANALLI             0000102058823716489 00000000017450 1020588                                                                                            
3001000383201ANA CAROLINA GRAVENA VANALLI       8001172212501131020588     1980011720250113            000000000000000022583979876774125003832011SANDRA REGINA DONNANGELO GRAVENA   
3001000383202MARIA LUISA GRAVENA VANALLI        1311122122501131020588     2013111220250113            000000000000000047770445809774125003832029ANA CAROLINA GRAVENA VANALLI       
3001000383203MARIA ALICE GRAVENA VANALLI        1706172122501131020588     2017061720250113            000000000000000053119036862774125003832037ANA CAROLINA GRAVENA VANALLI       
20010003859PATRICIA FRANULA VIEIRA            000100012322810708130428853803COOR MEL CONT       231016231016NP0310001232    198107082023101620231016        00000000000000000000    
50010003859PATRICIA FRANULA VIEIRA            00010001232774125003859006ANITA FRANULA VIEIRA               10001232        NP0316102023                                             
90010003859PATRICIA FRANULA VIEIRA            000100012323419671  00000000021757 10001232                                                                                           
20010003875MATHEUS DUARTE MORETTO             000010168231860601233425923897GESTOR MANUTENCAO   100810231101NP031016823     198606012010081020231101        00000000000000000000    
50010003875MATHEUS DUARTE MORETTO             00001016823774125003875002MARIA SALETE DUARTE MORETTO        1016823         NP0301112023                                             
90010003875MATHEUS DUARTE MORETTO             0000101682323716489 00000000221937 1016823                                                                                            
3001000387501LIGIA MARIA DE AQUINO              8706052212311011016823     1987060520231101            000000000000000034271591831774125003875010CLEIDE APARECIDA PEREIRA DE AQUINO 
3001000387502LUCAS DE AQUINO MORETTO            2504301122505011016823     2025043020250501            000000000000000009422517842774125003875028LIGIA MARIA DE AQUINO              
20010003883JEFERSON HENRIQUE GASPAR           000010111371840208231764448855GESTOR PRODUCAO     050408231101NP031011137     198402082005040820231101        00000000000000000000    
50010003883JEFERSON HENRIQUE GASPAR           00001011137774125003883006MARIA INEZ MARCARI GASPAR          1011137         NP0301112023                                             
90010003883JEFERSON HENRIQUE GASPAR           0000101113723716489 00000000170844 1011137                                                                                            
3001000388301MAYARA RAMOS COTRIM                8709042212311011011137     1987090420231101            000000000000000035507741840774125003883014MARIA FLORENTINA LIMA RAMOS COTRIM 
3001000388302RAFAEL JOSE COTRIM GASPAR          1601281122311011011137     2016012820231101            000000000000000050871232871774125003883022MAYARA RAMOS COTRIM GASPAR         
3001000388303LAURA COTRIM GASPAR                2502082122502081011137     2025020820250208            000000000000000007904200821774125003883030MAYARA RAMOS COTRIM                
20010003905DANIELA XENOFONTE PEREIRA VALLE    000030427572881002109682763690                    151109231101NP033042757     198810022015110920231101        00000000000000000000    
50010003905DANIELA XENOFONTE PEREIRA VALLE    00003042757774125003905007APARECIDA M X PEREIRA VALLE        3042757         NP0301112023                                             
90010003905DANIELA XENOFONTE PEREIRA VALLE    000030427573418276  00000000204834 3042757                                                                                            
20010003956MARCELO SEBASTIAO RAMOS            000010042111800115221291451838ESPECIALISTA SGI    940801240201NP031004211     198001151994080120240201        00000000000000000000    
50010003956MARCELO SEBASTIAO RAMOS            00001004211774125003956000INES GARCIA RAMOS                  1004211         NP0301022024                                             
90010003956MARCELO SEBASTIAO RAMOS            0000100421123716489 00000000115886 1004211                                                                                            
3001000395601MARIANA RAMOS                      0909012122402011004211     2009090120240201            000000000000000051558366890774125003956018MARCELA GONCALVES RAMOS            
3001000395602MARCELA GONCALVES RAMOS            8110142212402011004211     1981101420240201            000000000000000030907618820774125003956026EDVIRGES APARECIDA CEZANO GONCALVES
20010003964JAVIER CARBAJAL RODRIGUEZ          000100023261840329123539382801ESPECIALISTA SUPRIME240219240219NP0310002326    198403292024021920240219        00000000000000000000    
50010003964JAVIER CARBAJAL RODRIGUEZ          00010002326774125003964004MARIA CARMEN RODRIGUEZ RODRIGUEZ   10002326        NP0319022024                                             
90010003964JAVIER CARBAJAL RODRIGUEZ          000100023262370023  00000002934264 10002326                                                                                           
3001000396401AMANDA DA SILVA DONDA              87122722124092110002326    1987122720240921            000000000000000036774695892774125003964012LUCELIA RIBEIRO DA SILVA DONDA     
3001000396402JOAO PEDRO DONDA LUIZ              07112011224092110002326    2007112020240921            000000000000000049019607847774125003964020AMANDA DA SILVA DONDA              
20010003980GABRIELA APARECIDA DE ANDRADE      000100023252920117240733415881ESP SUPRIMENTOS     240220240220NP0310002325    199201172024022020240220        00000000000000000000    
50010003980GABRIELA APARECIDA DE ANDRADE      00010002325774125003980000ALCEIA APARECIDA RODRIGO DE ANDRADE10002325        NP0320022024                                             
90010003980GABRIELA APARECIDA DE ANDRADE      0001000232523703867 00000000276138 10002325                                                                                           
3001000398001ALAN ZANINELI GOMES AMARAL         89011712124022010002325    1989011720240220            000000000000000002211313108774125003980018MARIA APARECIDA ZANINELI AMARAL    
20010004006RICARDO DE OLIVEIRA ORVATO         000010255291880520236533608894COOR COMPRAS        211221240201NP031025529     198805202021122120240201        00000000000000000000    
50010004006RICARDO DE OLIVEIRA ORVATO         00001025529774125004006003IZILDA FERNANDES DE OLIVEIRA ORVATO1025529         NP0301022024                                             
90010004006RICARDO DE OLIVEIRA ORVATO         0000102552923703948 00000004567390 1025529                                                                                            
3001000400603DAVI ANDRADE ORVATO                1410201122402011025529     2014102020240201            000000000000000049035135806774125004006037DAIANA G OLIVEIRA ANDRADE ORVATO   
20010004014DANILO CARMO COSCRATO              000100026121901023238466568875COORDENADOR SAUDE E 240315240315NP0310002612    199010232024031520240315        00000000000000000000    
50010004014DANILO CARMO COSCRATO              00010002612774125004014007LUCIA DA SILVA CARMO COSCRATO      10002612        NP0315032024                                             
90010004014DANILO CARMO COSCRATO              000100026123415278  00000000036610 10002612                                                                                           
3001000401401TAISE APARECIDA MARTINS            87022822124031510002612    1987022820240315            000000000000000037102884877774125004014015MARIA APARECIDA DE OLIVEIRA MARTINS
20010004057REBECA MANCINI MORAES SOUSA SOARES 000010224682950419136266726890                    180205240401NP031022468     199504192018020520240401        00000000000000000000    
50010004057REBECA MANCINI MORAES SOUSA SOARES 00001022468774125004057006RAQUEL MANCINI DE MORAES SOARES    1022468         NP0301042024                                             
90010004057REBECA MANCINI MORAES SOUSA SOARES 000010224683415278  00000000017479 1022468                                                                                            
20010004065MICHEL MORETTO CIPPICIANI          000010045051810810221389242897ESP ENGENHARIA      960201240524NP031004505     198108101996020120240524        00000000000000000000    
50010004065MICHEL MORETTO CIPPICIANI          00001004505774125004065009APARECIDA A M C DADOS PLAN         1004505         NP0324052024                                             
90010004065MICHEL MORETTO CIPPICIANI          0000100450523716489 00000000125032 1004505                                                                                            
3001000406501TALITA CARLA DOS SANTOS            8403152212405241004505     1984031520240524            000000000000000032379222851774125004065017CRISTINA APARECIDA ZECHIN SANTOS   
3001000406502VINICIUS SANTOS CIPPICIANI         1207061122405241004505     2012070620240524            000000000000000045923707837774125004065025TALITA CARLA DOS SANTOS CIPPICIANI 
20010004073LUCAS ROTELLI DE OLIVEIRA FERREIRA 000010224611930114108010531618ESP CONFIABILIDA    180205240524NP031022461     199301142018020520240524        00000000000000000000    
50010004073LUCAS ROTELLI DE OLIVEIRA FERREIRA 00001022461774125004073003LUCAS ROTELLI DE OLIVEIRA FERREIRA 1022461         NP0324052024                                             
90010004073LUCAS ROTELLI DE OLIVEIRA FERREIRA 0000102246123716489 00000000043249 1022461                                                                                            
20010004081JOSE RODRIGO MARTINS               000010050901761123218725075810ESP ATIVOS E PRO    980423240524NP031005090     197611231998042320240524        00000000000000000000    
50010004081JOSE RODRIGO MARTINS               00001005090774125004081006MARIA FELICIO MARTINS              1005090         NP0324052024                                             
90010004081JOSE RODRIGO MARTINS               0000100509023716489 00000000125792 1005090                                                                                            
3001000408101ROSELI FERREIRA DA SILVA MARTINS   7611162112405241005090     1976111620240524            000000000000000026477021870774125004081014JOANA SILVESTRE DA SILVA           
3001000408102ALICIA MARTINS                     1210112122405241005090     2012101120240524            000000000000000048257628832774125004081022ROSELI FERREIRA DA SILVA MARTINS   
20010004138MARCOS FIORAVANTE                  000010036391701005113571090837ESPECIALISTA NEGOCIO890713240601NP031003639     197010051989071320240601        00000000000000000000    
50010004138MARCOS FIORAVANTE                  00001003639774125004138004ELEUZA LUBAO FIORAVANTE            1003639         NP0301062024                                             
90010004138MARCOS FIORAVANTE                  000010036392371648  00000000185469 1003639                                                                                            
3001000413801FELIPE SANCHES FIORAVANTE          0504141122406011003639     2005041420240601            000000000000000044905922801774125004138012CELIA SUELI SANCHES FIORAVANTE     
20010004146JOSE ROBERTO ZANELATTO             000010011441690718209164825884ESPECIALISTA NEGOCIO830908240601NP031001144     196907181983090820240601        00000000000000000000    
50010004146JOSE ROBERTO ZANELATTO             00001001144774125004146007MARIA APARECIDA DE CASTRO ZANELATTO1001144         NP0301062024                                             
90010004146JOSE ROBERTO ZANELATTO             000010011442371648  00000000029998 1001144                                                                                            
3001000414601MANUELLA ALVES ZANELATTO           1209272122406011001144     2012092720240601            000000000000000056036021801774125004146015ANA CLAUDIA ALVES ZANELATTO        
3001000414602ANA CLAUDIA ALVES ZANELATTO        7301112212406011001144     1973011120240601            000000000000000018125181881774125004146023REMEDIO RODRIGUES ALVES            
20010004162JAIRO LEITE                        000010168241830523222527878806ESP ARQUITETURA     100817240601NP031016824     198305232010081720240601        00000000000000000000    
50010004162JAIRO LEITE                        00001016824774125004162004ELIZETE MARIA SCARDOELLI LEITE     1016824         NP0301062024                                             
90010004162JAIRO LEITE                        0000101682423716489 0000000022197P 1016824                                                                                            
3001000416201JULIANA BORDINASSI BRAGHETTO LEITE 8301062212406011016824     1983010620240601            000000000000000030811515893774125004162012MARIA ZILDA BORDINASSI BRAGHETTO   
3001000416202ISABELLE BRAGHETTO LEITE           1111122122406011016824     2011111220240601            000000000000000049169752869774125004162020JULIANA BORDINASSI BRAGHETTO LEITE 
3001000416203ISADORA BRAGHETTO LEITE            1607152122406011016824     2016071520240601            000000000000000051523956810774125004162038JULIANA BORDINASSI BRAGHETTO LEITE 
20010004197BRENO DE CARVALHO MAXIMO           000010224821890708236833005826ESPECIALISTA EXCELEN180306240701NP031022482     198907082018030620240701        00000000000000000000    
50010004197BRENO DE CARVALHO MAXIMO           00001022482774125004197000IZILDA MARIA DE CARVALHO MAXIMO    1022482         NP0301072024                                             
90010004197BRENO DE CARVALHO MAXIMO           0000102248223716489 00000000044768 1022482                                                                                            
3001000419701LEVI CANALLE MAXIMO                2303061122407011022482     2023030620240701            000000000000000060849246890774125004197018SAMIA ROMA CANALLE                 
3001000419702SAMIA ROMA CANALLE                 9005072212407011022482     1990050720240701            000000000000000038106955800774125004197026MARA CHRISTINA ROMA CANALLE        
20010004200ROBSON SARDELIC                    000010222581810228222075090874ESPECIALISTA EXCELEN171003240701NP031022258     198102282017100320240701        00000000000000000000    
50010004200ROBSON SARDELIC                    00001022258774125004200002MARIA NANCI ARAUJO                 1022258         NP0301072024                                             
90010004200ROBSON SARDELIC                    0000102225823716489 00000000154741 1022258                                                                                            
20010004219EDUARDO LOPES BIAGI                000010196561920824137431207808ESPECIALISTA EXCELEN140102240701NP031019656     199208242014010220240701        00000000000000000000    
50010004219EDUARDO LOPES BIAGI                00001019656774125004219002MARIA SOLANGE LOPES BIAGI          1019656         NP0301072024                                             
90010004219EDUARDO LOPES BIAGI                0000101965623716489 00000000243892 1019656                                                                                            
20010004227BRUNO DE MARCO CAVALCANTE          000100036961860625233624783874COORDENADOR CONTABIL240805240805NP0310003696    198606252024080520240805        00000000000000000000    
50010004227BRUNO DE MARCO CAVALCANTE          00010003696774125004227005ELAINE APARECIDA MARCO CAVALCANTE  10003696        NP0305082024                                             
90010004227BRUNO DE MARCO CAVALCANTE          000100036963414459  00000000495141 10003696                                                                                           
3001000422701PALOMA CRISTINA PADOVAN            86060822124080510003696    1986060820240805            000000000000000022871364877774125004227013SILVIA HELENA PADOVAN              
3001000422702ISABELA PADOVAN CAVALCANTE         25062721225070110003696    2025062720250701            000000000000000010713948868774125004227021PALOMA CRISTINA PADOVAN            
20010004235LAISE RISQUE FERNANDES ABDALA      000010195292890305138370447856ESPECIALISTA GOVERNA130718240801NP031019529     198903052013071820240801        00000000000000000000    
50010004235LAISE RISQUE FERNANDES ABDALA      00001019529774125004235008CLEUSA APARECIDA RISQUE FERNANDES  1019529         NP0301082024                                             
90010004235LAISE RISQUE FERNANDES ABDALA      0000101952923716489 00000000241628 1019529                                                                                            
20010004260ROBINSON JOSE CANDIDO FERRAZ       000010126871651226207452717821ESPECIALISTA CONTROL060502241001NP031012687     196512262006050220241001        00000000000000000000    
50010004260ROBINSON JOSE CANDIDO FERRAZ       00001012687774125004260006AMELIA ALMEIDA FERRAZ              1012687         NP0301102024                                             
90010004260ROBINSON JOSE CANDIDO FERRAZ       0000101268723716489 00000000033820 1012687                                                                                            
3001000426001REGINA PAULA ATIQUE FERRAZ         6410292212410011012687     1964102920241001            000000000000000005904144881774125004260014MIRIAN SOARES ATIQUE               
20010004316ANGELICA SONEGO GIANNINI           000010261482910806139381058873COORDENADOR DESENVOL220906241001NP031026148     199108062022090620241001        00000000000000000000    
50010004316ANGELICA SONEGO GIANNINI           00001026148774125004316006MARIA HELENA SONEGO GIANNINI       1026148         NP0301102024                                             
90010004316ANGELICA SONEGO GIANNINI           000010261483412261  00000000046102 1026148                                                                                            
20010004324MARCELA CADELCA FOSSA SABINO       000010261492881216238096394860BUSINESS PARTNER    220906241001NP031026149     198812162022090620241001        00000000000000000000    
50010004324MARCELA CADELCA FOSSA SABINO       00001026149774125004324000MARIA MADALENA CADELCA FOSSA       1026149         NP0301102024                                             
90010004324MARCELA CADELCA FOSSA SABINO       000010261493419315  00000000261132 1026149                                                                                            
20010004332DANIEL DE CARVALHO FERREIRA        000100030661830919222157321802COORDENADOR ATRACAO 240507241001NP0310003066    198309192024050720241001        00000000000000000000    
50010004332DANIEL DE CARVALHO FERREIRA        00010003066774125004332003MARINA BONIFACIO CARVALHO FERREIRA 10003066        NP0301102024                                             
90010004332DANIEL DE CARVALHO FERREIRA        000100030663418339  00000000016233 10003066                                                                                           
3001000433201DAVI BARUCH SANTOS FERREIRA        14121611224100110003066    2014121620241001            000000000000000054159824854774125004332011ANGELICA CRISTINA SANTOS FERREIRA  
3001000433202ANGELICA CRISTINA SANTOS FERREIRA  81070822124100110003066    1981070820241001            000000000000000033439051862774125004332029MARIA CRISTINA DOS SANTOS          
20010004430RAFAEL MONTEIRO                    000010205811950612142487509880ESPECIALISTA NEGOCIO150217250201NP031020581     199506122015021720250201        00000000000000000000    
50010004430RAFAEL MONTEIRO                    00001020581774125004430005MARIA HELENA MONTEIRO              1020581         NP0301022025                                             
90010004430RAFAEL MONTEIRO                    0000102058123703921 00000000463337 1020581                                                                                            
3001000443001JULIA LEME PIRES                   9710222212507171020581     1997102220250717            000000000000000045172414835774125004430013ELISANGELA LEME PIRES              
20010004510MATEUS VARRIANO                    000100060731841109233444657838GESTOR QUALIDADE    250625250625NP0310006073    198411092025062520250625        00000000000000000000    
50010004510MATEUS VARRIANO                    00010006073774125004510004ORDELINA FRANCISCA SILVA VARRIANO  10006073        NP0325062025                                             
90010004510MATEUS VARRIANO                    0001000607323735319 00000000335215 10006073                                                                                           
3001000451001FERNANDA ROSARIO VARRIANO          93021822125062510006073    1993021820250625            000000000000000042062467850774125004510012ELIANA PEREIRA SANTOS DO ROSARIO   
20010004529ANA PAULA DA SILVA                 000100060702910706138908937838ASSISTENTE GERENCIA 250625250625TNQ210006070    199107062025062520250625        00000000000000000000    
50010004529ANA PAULA DA SILVA                 00010006070774125004529004MARIA APARECIDA DA SILVA           10006070        TNQ225062025                                             
90010004529ANA PAULA DA SILVA                 0001000607023726344 00000000830887 10006070                                                                                           
20020000442JOAO VICTOR ELISEU                 000010176521881117138240279848GERENTE EXECUTIVO   110719151201NP06000001017652198811172011071920151201        00000000000000000000    
50020000442JOAO VICTOR ELISEU                 00001017652774125000442004JANISE DE FATIMA CORNIA            000001017652NP04NP0601042022                                             
90020000442JOAO VICTOR ELISEU                 000010176523413767  00000000028750 000001017652                                                                                       
3002000044202YARIN KURKDJIBACHIAN               8906162212202120000010176521989061620220212            000000000000000039662445862774125000442020LUCIA HELENA SIM ES PEIXEIRO       
20020000450CRISTIANE MENDES PIGATTO           000010186852710904214652886861GERENTE EXECUTIVA   130218151201NP06000001018685197109042013021820151201        00000000000000000000    
50020000450CRISTIANE MENDES PIGATTO           00001018685774125000450007TERESA MENDES PIGATTO              000001018685NP04NP0601042022                                             
90020000450CRISTIANE MENDES PIGATTO           000010186853413789  00000000030230 000001018685                                                                                       
3002000045001LORENZO DURO PIGATTO               1012161121512010000010186852010121620151201            000000000000000054009259876774125000450015CRISTIANE MENDES PIGATTO           
3002000045002MARCO ANTONIO DURO                 6710031211512010000010186851967100320151201            000000000000000009252796843774125000450023DIVINA DE LOURDES OLIVEIRA DURO    
20020000540ALESSANDRO FREITAS SOARES          000010194921820104105430447692GERENTE EXECUTIVO   130625151201NP06000001019492198201042013062520151201        00000000000000000000    
50020000540ALESSANDRO FREITAS SOARES          00001019492774125000540005ANA MARIA FREITAS ALVARENGA SOARES 000001019492NP04NP0601042022                                             
90020000540ALESSANDRO FREITAS SOARES          0000101949223718600 00000001091824 000001019492                                                                                       
3002000054001FABIANE PEREIRA ORTIZ              8105122211901190000010194921981051220190119            000000000000000003379819905774125000540013MARTIA GUILHERMINA PEREIRA ORTIZ   
3002000054002MATHEUS ORTIZ SOARES               2207041122207040000010194922022070420220704            000000000000000060374351899774125000540021FABIANE PEREIRA ORTIZ SOARES       
20020000604SILVIA M S BITTENCOURT RODRIGUES   000010054542661112208682898845ASSISTENTE EXECUTIVO010613151201NP03000001005454196611122001061320151201        00000000000000000000    
50020000604SILVIA M S BITTENCOURT RODRIGUES   00001005454774125000604009MARILDA VILLA DE SOUZA             000001005454    NP0301122015                                             
90020000604SILVIA M S BITTENCOURT RODRIGUES   000010054543413767  00000000028743 000001005454                                                                                       
3002000060401JOSE E SOUZA BITTENCOURT RODRIGUES 6610191211512010000010054541966101920151201            000000000000000010735028800774125000604017MARIA LUCIA DE SOUZA RODRIGUES     
20020000620PEDRO HENRIQUE AP LORENZETTI LIMA  000010128641880427237825405811ANALISTA ADMINISTRAT061023151201NP03000001012864198804272006102320151201        00000000000000000000    
50020000620PEDRO HENRIQUE AP LORENZETTI LIMA  00001012864774125000620005SANDRA REGINA LORENZETTI LIMA      000001012864TNQ2NP0301072023                                             
90020000620PEDRO HENRIQUE AP LORENZETTI LIMA  000010128640334788  00000010372648 000001012864                                                                                       
3002000062001KEILA GONCALVES DE OLIVEIRA BATISTA9003042211607270000010128641990030420160727            000000000000000040282954830774125000620013IVONE SOARES DE OLIVEIRA BATISTA   
20020000647NAIR MARIA DE MIRANDA ABRANCHES    000010159302660311207592201828AUX SERVICOS GERAIS 090730151201TNQ2000001015930196603112009073020151201        00000000000000000000    
50020000647NAIR MARIA DE MIRANDA ABRANCHES    00001015930774125000647008MARIA ANA DE MIRANDA               000001015930    TNQ201122015                                             
90020000647NAIR MARIA DE MIRANDA ABRANCHES    0000101593023778280 00000002343827 000001015930                                                                                       
3002000064701JOAO BATISTA ABRANCHES             6401241211512010000010159301964012420151201            000000000000000006556626856774125000647016NAIR DE LOURDES DAMACENA           
20020000710FERNANDA MACHADO DA SILVA          000010181002900507138631505897ASSISTENTE COMERCIAL120412151201TNQ2000001018100199005072012041220151201        00000000000000000000    
50020000710FERNANDA MACHADO DA SILVA          00001018100774125000710004SOLANGE MACHADO DA SILVA           000001018100    TNQ201122015                                             
90020000710FERNANDA MACHADO DA SILVA          0000101810023724953 00000002370956 000001018100                                                                                       
3002000071001JORGE GOMES DE ANDRADE             7505141211512070000010181001975051420151207            000000000000000066939186468774125000710012MARIA GOMES DE ANDRADE             
3002000071002FERNANDO JORGE MACHADO DE ANDRADE  1604251121605020000010181002016042520160502            000000000000000051219717886774125000710020FERNANDA MACHADO DA SILVA          
20020000779GUSTAVO FERREIRA ASSUMPCAO SILVA   000010195101771024225419573865GERENTE JURIDICO    130702151201NP04000001019510197710242013070220151201        00000000000000000000    
50020000779GUSTAVO FERREIRA ASSUMPCAO SILVA   00001019510774125000779009MARIA I FERREIRA ASSUMPCAO SILVA   000001019510NP03NP0401102017                                             
90020000779GUSTAVO FERREIRA ASSUMPCAO SILVA   000010195103414091  00000000001638 000001019510                                                                                       
3002000077901AMANDA GIOSA ASSUMPCAO SILVA       0705122121512010000010195102007051220151201            000000000000000054478293805774125000779017LUANA POLLO GIOSA ASSUMPCAO SILVA  
3002000077902LEONARDO GIOSA ASSUMPCAO SILVA     0812061121512010000010195102008120620151201            000000000000000054478455805774125000779025LUANA POLLO GIOSA ASSUMPCAO SILVA  
3002000077903LUANA POLLO GIOSA ASSUMPCAO SILVA  7902152211512010000010195101979021520151201            000000000000000029407947823774125000779033TELMA APARECIDA POLLO GIOSA        
20020000787DANIELE REGINA DE OLIVEIRA         000010195202830217222441269860ASSIST DIRETORIA    130704151201TNQ2000001019520198302172013070420151201        00000000000000000000    
50020000787DANIELE REGINA DE OLIVEIRA         00001019520774125000787002ROSELI DA COSTA OLIVEIRA           000001019520    TNQ201122015                                             
90020000787DANIELE REGINA DE OLIVEIRA         000010195200333985  00000010016487 000001019520                                                                                       
3002000078701MAICON D GONCALVES SILVA OLIVEIRA  7711251211512010000010195201977112520151201            000000000000000027121639823774125000787010MARLENE GONCALVES DA SILVA         
3002000078702MELISSA GONCALVES OLIVEIRA         1110122121512010000010195202011101220151201            000000000000000052890294862774125000787028DANIELE REGINA DE OLIVEIRA         
3002000078703TAMIRES GONCALVES OLIVEIRA         0708262121512010000010195202007082620151201            000000000000000047812453820774125000787036DANIELE REGINA DE OLIVEIRA         
20020000876LETICIA OLIVEIRA DE TORRE          000000000002940921141900638860ESTAGIARIA          140701151201TNQ2000500107990199409212014070120151201        00000000000000000000    
50020000876LETICIA OLIVEIRA DE TORRE          00000000000774125000876003MARIA LUIZA DE OLIVEIRA            000500107990    TNQ201122015                                             
90020000876LETICIA OLIVEIRA DE TORRE          0000000000023778280 00000002399040 000500107990                                                                                       
3002000087601GIOVANNI DALLA VECCHIA NETO        9208231212302010005001079901992082320230201            000000000000000034006347863774125000876011MIRENE DALLA VECCHIA               
20020001899JAILSON DE OLIVEIRA LUIZ           000010222761811025230564024848AUXILIAR DE ESCR    171201171201TNQ21022276     198110252017120120171201        00000000000000000000    
50020001899JAILSON DE OLIVEIRA LUIZ           00001022276774125001899004JACINTO SOUTO DE OLIVEIRA LUIZ     1022276         TNQ201122017                                             
60020001899JAILSON DE OLIVEIRA LUIZ           00001022276                                                                                0000000000012850500935                     
90020001899JAILSON DE OLIVEIRA LUIZ           000010222763411681  00000000171235 1022276                                                                                            
3002000189901LUCILEIDE LUZ CAITES               8012092211712011022276     1980120920171201            000000000000000030528474812774125001899012VALDELINE MARIA LUZ CAIRES         
20020002003MARIANE VIDOLIN GALHARDO           000010228072940413139352887867ANALISTA COMERCIAL  180416180501NP031022807     199404132018041620180501        00000000000000000000    
50020002003MARIANE VIDOLIN GALHARDO           00001022807774125002003002SILVIA VIDOLIN GALHARDO            1022807     TNQ2NP0301052022                                             
90020002003MARIANE VIDOLIN GALHARDO           0000102280723702763 00000000054461 1022807                                                                                            
20020002437THIAGO ALVES DA SILVA              000010238871910825139548182807FINANCEIRO          200120200102NP031023887     199108252020012020200102        00000000000000000000    
50020002437THIAGO ALVES DA SILVA              00001023887774125002437002JAILDA ALVES TEIXEIRA DA SILVA     1023887     TNQ2NP0321112022                                             
90020002437THIAGO ALVES DA SILVA              000010238872600001  00000061505559 1023887                                                                                            
20020002631ROBISVALDO LEITE DE QUEIROZ        000010245001690103155369235449MOTORISTA           201103201103TNQ21024500     196901032020110320201103        00000000000000000000    
50020002631ROBISVALDO LEITE DE QUEIROZ        00001024500774125002631000AURINEIDE LEITE DE QUEIROZ         1024500         TNQ203112020                                             
90020002631ROBISVALDO LEITE DE QUEIROZ        0000102450023778280 00000000472158 1024500                                                                                            
20020002658MAISA APARECIDA CAETANO            000010245132990825147780557804ANALISTA COMERCIAL  201201201201TNQ21024513     199908252020120120201201        00000000000000000000    
50020002658MAISA APARECIDA CAETANO            00001024513774125002658003MARIA APARECIDA DA SILVA COSTA     1024513         TNQ201122020                                             
90020002658MAISA APARECIDA CAETANO            000010245133416409  00000000257406 1024513                                                                                            
