1PARTIC.SEGURADO0074675250725073120250720250731                                                                                                       
2007467500200000350000000000RICARDO BANAX JUNQUEIRA            1     00000021040000000000050000000000SOCIO GERENTE                                    
2007467500400000940000000014MARIO HENRIQUE CARLI               1     00000186270000000000140000000000CONSULTOR DE AUDITOR                             
2007467500900002050000000031JOSE LUQUE CHIA                    1     00000557120000000000310000000000SOCIO GERENTE                                    
2007467500300002480000000000MICHELE ANDRADE DO AMARAL LAURIANO 1     000000200000000000003A0000000000ASSIS DEP PESSOAL A                              
2007467500300002990000000000VINICIUS HENRIQUE SANTOS CORREA    1     00000026300000000000450000000000ASSISTENTE FISCAL C                              
2007467500400003610000000020PAMELA DA SILVA                    1     000000545000000000020B0000000000AUDITOR JR                                       
2007467500300003700000000000MARCOS MARQUES DE ARAUJO           1     00000281310000000005000000000000SOCIO GERENTE                                    
2007467501600003960000003512RICARDO ANTONIO DO NASCIMENTO      1     00000078900000000035120000000000ANALISTA CONTABIL PL                             
2007467585200004180000000000MARIA IVONE RODRIGUES BORGES       1     00000150990000000038190000000000INATIVO                                          
2007467585200004340000003920MARCIO QUEDAS JENCIUS              1     00000026300000000039200000000000GERENTE SR ADM PESSO                             
2007467502600005150000004125RENATO VILELA RIBEIRO              1     00000161820000000041250000000000GERENTE PARALEGAL                                
2007467502900005310000004152DOUGLAS DOS SANTOS CESAR           1     00000026300000000041520000000000ANALISTA PROGRAMADOR                             
2007467502500005400000004162WAGNER JACINTO PEREIRA             1     00000052600000000041620000000000GERENTE RET TRIBUTAR                             
2007467585200005660000004182AIRTON BUENO CARNEIRO              1     00000026300000000041820000000000COORDENADOR TI                                   
2007467502700006040000004232CESAR ALMEIDA DE SOUZA             1     00000052600000000042320000000000ANALISTA CONTABIL SR                             
2007467500800006800000004367JOSE ALEXANDRE KIRSTEIN            1     00000099100000000043670000000000GERENTE CONTABIL                                 
2007467500900007010000004381FLAVIO LUQUE BASTOS                1     00000127120000000043810000000000SOCIO GERENTE                                    
2007467501600007950000004415ALESSANDRO DE OLIVEIRA LEME        1     00000105200000000044150000000000SOCIO GERENTE                                    
2007467501600008090000004418TATIANE CRISTINA SILVA DA FREIRIA  1     00000081720000000044180000000000GERENTE CONTABIL                                 
2007467502700008330000004430JULIANA ANDRADE MORAES DA SILVA    1     00000026300000000044300000000000SUPERVISOR FINANCEIR                             
2007467501200008920000004471MARIA APARECIDA TIBURTINO QUEIROZ  1     00000144650000000044710000000000COPEIRA V                                        
2007467501200009060000004472FRANCISCA JOSEFA DA SILVA          1     00000006350000000044720000000000AUXILIAR DE LIMPEZA                              
2007467500100009570000004482THIAGO DE ANDRADE LEDA             1     00000026300000000044820000000000SOCIO GERENTE                                    
2007467501600009650000004494RENATO CARDOSO MARCICANO           1     00000596380000000044940000000000ANALISTA CONTABIL PL                             
2007467502500009810000004503GIOVANNI ENRICO SANTORO            1     00000026300000000045030000000000SUPERVISOR RET TRIBU                             
2007467504500009900000004514ALAN GONCALVES DE OLIVEIRA         1     00000139840000000045140000000000ANALISTA FISCAL SR I                             
2007467500200010400000004529LEANDRO MARTINS DOS SANTOS         1     00000030090000000045290000000000ASSISTENTE FINANCEIR                             
2007467502200010660000004545KESIA PRISCILA DE LIMA LIRA        1     00000026300000000045450000000000ANALISTA ADM PESSOAL                             
2007467501600010740000004547JULIANA DIAS RODRIGUES             1     00000020460000000045470000000000ANALISTA CONTABIL SR                             
2007467501400010820000004549MARIA EUGENIA SLEET                1     00000026300000000045490000000000ANALISTA COMERCIAL S                             
2007467501600010900000004560AROLDO FERREIRA                    1     00000026300000000045600000000000ANALISTA CONTABIL JR                             
2007467500900011120000004572CELSO KOLLER                       1     00000063760000000045720000000000SOCIO GERENTE                                    
2007467501400011200000004573GUSTAVO SILVEIRA MACHADO CAIXETA   1     00000026300000000045730000000000ANALISTA FISCAL SR I                             
2007467502500011980000004621WILLIAM MARINHO ESPINDOLA          1     00000071500000000046210000000000SUPERVISOR RET TRIBU                             
2007467503700012010000004628AGNALDO MEDAS DE CARVALHO          1     00000110640000000046280000000000ANALISTA FINANCEIRO                              
2007467503700012280000004637AMANDA GUIOMAR FELGUEIRAS MORAIS   1     00000030880000000046370000000000ANALISTA ADM PESSOAL                             
2007467502500012950000004655ELAINE CRISTINA DOS SANTOS CURCINO 1     00000112940000000046550000000000ASSISTENTE RET TRIBU                             
2007467502200013680000004678ANDRESSA CAROLINE DE PAULO         1     00000077600000000046780000000000SUPERVISOR ADM PESSO                             
2007467501600014300000004698LUCIANE CRISTINA DE IMAZU          1     00000052600000000046980000000000ANALISTA CONTABIL PL                             
2007467502600014730000004707KEILLA VIVIAN SOUZA SANTOS         1     00000026300000000047070000000000ANALISTA DE PARALEGA                             
2007467502500015030000004721WALLACE CARVALHO GOIS              1     00000044530000000047210000000000ANALISTA RET TRIBUTA                             
2007467501600015890000004748BRENDA GOMES RODRIGUES FIGUEIREDO  1     00000272790000000047480000000000ANALISTA CONTABIL SR                             
2007467502300016350000004760ERIKA MARIAN MARQUES MAHFUZ        1     00000053500000000047600000000000SUPERVISOR FISCAL II                             
2007467504500016940000004794GLEICKA KARINA SANTOS DA SILVA     1     00000078900000000047940000000000ANALISTA CONTABIL PL                             
2007467500900017830000004824EDUARDO ROGATTO LUQUE              1     00000029310000000048240000000000SOCIO GERENTE                                    
2007467502700018130000004827JESSICA DOURADO LINS RODRIGUES     1     00000025000000000048270000000000ASSISTENTE FISCAL I                              
2007467501100018480000004840KELPERSON VEIGA                    1     00000131980000000048400000000000SUPERVISOR DE EXPEDI                             
2007467502300020030000004866TAMIRES CORREIA DOS SANTOS         1     00000026300000000048660000000000ASSISTENTE FISCAL II                             
2007467504500020890000004884MEIRE CORREIA OLIVEIRA             1     00000136360000000048840000000000ANALISTA CONTABIL PL                             
2007467502500021190000004889MARIA ROSANGELA DA SILVA           1     00000069130000000048890000000000SUPERVISOR RET TRIBU                             
2007467502600021350000004896DAISSON MARTINES LEAO              1     00000059800000000048960000000000AUXILIAR PARALEGAL                               
2007467502500021780000004903JULIO CESAR GONCALO DE FARIA       1     00000078900000000049030000000000AUXILIAR ADM FISCAL                              
2007467501900022320000004913SORAYA PAGANATO RODRIGUES          1     00000033350000000049130000000000GERENTE COMUNICACAO                              
2007467504500022910000004924LARISSA DA SILVA PIRES             1     0000002630,           0000000000AUXILIAR FINANCEIRO                              
2007467502800023480000004932VANESSA VIANA DO VALE              1     00000196070000000049320000000000GERENTE FINANCEIRO                               
2007467502800025000000004964ISABELA DE SOUZA FREITAS DE AMOR   1     00000037210000000049640000000000AUXILIAR FINANCEIRO                              
2007467502500025340000004968MARLI CARVALHO DE ALMEIDA          1     00000190550000000049680000000000ASSISTENTE RET TRIBU                             
2007467501000025500000004970ROSELENE NIEUWENHOFFE              1     00000026300000000049700000000000SECRETARIA EXECUTIVA                             
2007467501600026820000004993JAMYLLE LUIZA FIALHO               1     00000033500000000049930000000000AUXILIAR CONTABIL V                              
2007467502900027630000005005LUCAS GABRIEL DE OLIVEIRA FRAZAO   1     00000093930000000050050000000000ASSISTENTE DE PROGRA                             
2007467500200029760000005034FELIPE CYPRIANO DE ALMEIDA ARRUDA  1     00000011540000000050340000000000ANALISTA COMERCIAL S                             
2007467504500031230000005053NATALIA SILVA FRANCO DO BOMFIM     1     00000024540000000050530000000000ANALISTA CONTABIL JR                             
2007467502300032470000005070LUCIANA FERNANDES CORDEIRO         1     00000026300000000050700000000000ASSISTENTE FISCAL I                              
2007467504500032980000005077RENATHO CESARIO DE FRANCA          1     00000052600000000050770000000000ASSISTENTE FISCAL I                              
2007467504500033440000005085MARCIO JUSTO                       1     00000295330000000050850000000000GERENTE CONTABIL                                 
2007467503700033950000004640LEILA RODRIGUES SOARES             1     000000219800000004640B0000000000AUX SERVICOS GERAIS                              
2007467501600034090000004641PAULA DE SOUZA SANTOS              1     000000087700000004641A0000000000ANALISTA CONTABIL JR                             
2007467504500034250000004647FATIMA CRISTINA PAIVA COLLADO      1     000000263000000004647A0000000000ANALISTA FINANCEIRO                              
2007467503700034330000004647JORGE ROBERTO DE SOUSA OLIVEIRA    1     000000263000000004647B0000000000COORDENADOR CONTABIL                             
2007467503700034500000004648KARIME PIERRE DE MOURA ALMEIDA     1     000000234000000004648B0000000000ANALISTA FISCAL PL V                             
2007467501600034840000004654VIVIANE LACERDA DE MELO MAIA       1     000002111000000004654A0000000000ANALISTA CONTABIL SR                             
2007467500500035060000000000PILAR LUQUE BASTOS                 1     0000002630156325897   0000000000                                                 
2007467500300035140000000000ALICE MORET                        1     00000052600000000000330000000000SUPERVISOR FISCAL A                              
2007467500300035220000000000THAYS DA SILVA SANTOS              1     000000263000000000015A0000000000SUPER DEPART P A                                 
2007467502600037600000004632BIANCA MARQUES MADEIRA             1     00000133574632        0000000000                                                 
2007467502300040490000005103ISABELLY DUTRA MEDEIROS            1     00000033505103        0000000000APRENDIZ                                         
2007467502500040570000005159GABRIEL MOURA SILVA                1     00000026305159        0000000000APRENDIZ                                         
2007467502700042270000005113MAYARA GENEROSO BATALHA            1     00000023405113        0000000000ANALISTA FINANCEIRO                              
2007467504500042600000005118THAINA GLUSKOSKI DOS SANTOS        1     00000147115118        0000000000ASSISTENTE FISCAL                                
2007467500300042780000000043DANIELA MEDINA                     1     000000255043          0000000000ASSISTENTE DEPTO P C                             
2007467503300044560000009001GIUSEPPI SOUSA SOARES              1     00000047039001        0000000000SOCIO                                            
2007467504500047660000005142LILIAN ROSANGELA ROMANO            1     00000099935142        0000000000                                                 
2007467503700048390000004667GRAZIELLE SCHIMDT BERNARDINO       1     00000106644667        0000000000ASSITENTE                                        
2007467502900051260000005164ADRIANO FERRARIN                   1     00000531585164        0000000000ESPECIALISTA TI JR                               
2007467500400051500000000004RENATA FREGUGLIA DARE              1     00000026300000000000040000000000DIRETOR TRIBUTARIO E                             
2007467503000051930000000049JOSUE TRINDADE DA SILVA JUNIOR     1     00000109600000000000490000000000AUDITOR SENIOR CONTA                             
2007467500400053200000000011RUY LUIZ DE PAULA                  1     00000073840000000090110000000000DIRETOR DE AUDIENCIA                             
2007467503000053470000000013DENISON SANTOS VIEIRA              1     00000026300000000090130000000000GERENTE AUDITORIA EX                             
2007467500400053550000000014FERNANDO DE SOUSA                  1     00000052600000000090140000000000SUPERVISOR TRABALHIS                             
2007467500400053710000000028CARLOS ALBERTO FARIA               1     00000159610000000090280000000000SUPERVISOR CONTROLES                             
2007467503700054600000004678BRUNA SILVA LOBAO                  1     00000223344678        0000000000ANALISTA CONTABIL                                
2007467500800054950000000039ILLYARIADNY SILVEIRA RUBI          1     0000002620039         0000000000ANALISTA FINANCEIRO                              
2007467500300056490000000059JACKSON DA SILVA SANTOS            1     000000263059          0000000000AUXILIAR CONTABIL D                              
2007467502300057890000005191MILENA SANTOS CIRCELLI             1     00000113925191        0000000000ASSISTENTE FISCAL                                
2007467503700058350000000032SAMIRA FERNANDA DE MOURA COSTA     1     00000051300032        0000000000AUXILIAR CONTABIL                                
2007467504500058510000005194GESSICA ROBERTA DA SILVA ARMINIO   1     00000017795194        0000000000ANALISTA FISCAL                                  
2007467503000058860000000059BRUNO ALEISON ALVES MORAIS         1     0000000859059         0000000000AUDITOR SENIOR                                   
2007467503700059910000000035JOSE CARLOS FREITAS DA SILVA       1     0000002500035         0000000000AUXILIAR CONTABIL                                
2007467500400061060000000080CAMILA SANTANA MARANGONI           1     000003065280          0000000000C TRIBUTARIA                                     
2007467504500061730000005205JESSICA FERNANDES VIEIRA           1     00000021045205        0000000000ASSISTENTE                                       
2007467504500062110000005207WILLIAM CORREIA RODRIGUES          1     00000131565207        0000000000ANALISTA CONTABIL                                
2007467500200062700000000081KETLYN D ARAUJO TEODORO MENESES    1     000002000381          0000000000ASSISTENTE II                                    
2007467503700065050000000044GISELLE OTONI DE OLIVEIRA ASSIS    1     0000002630044         0000000000ASS FINANCEIRO                                   
2007467500800065990000000057JULIANA RUBIA DEMENCIANO           1     0000000223057         0000000000ANALISTA F SENIOR                                
2007467503700066020000000048LEONARDO ARAUJO DA SILVA           1     0000002630048         0000000000ANALISTA FISCAL                                  
2007467504500066450000005235ELEN SOUZA SANTOS                  1     00000052605235        0000000000ANALISTA CONTABIL JR                             
2007467504500067000000005237ALINE STONER LOPES                 1     00000026305237        0000000000ASSISTENTE FISCAL                                
2007467504500067420000005243GUSTAVO ALENCAR LORA               1     00000021045243        0000000000ASSISTENTE FISCAL                                
2007467501600069120000005255PRISCILA MIRANDA DE OLIVEIRA       1     00000048485255        0000000000ANALISTA CON SR                                  
2007467500800070800000000064VIVIANE DA CONCEICAO DIAS          1     00000026300064        0000000000ASSISTENTE FI                                    
2007467504500071370000005271REINALDO DO ROSARIO SOARES         1     00000078905271        0000000000SUPERVISOR CONTABIL                              
2007467501600071530000005272ALYNE VOLPOLINI DE LIMA            1     00000195865272        0000000000ANALISTA CONTABIL JR                             
2007467500800071610000000067ANDREIA ROSA DA SILVA BARROS       1     0000024852067         0000000000ANALISTA FISCAL JR                               
2007467502600072420000005278MICARLY DE PAIVA TRESSINO          1     00000129185278        0000000000PARALEGAL SENIOR                                 
2007467500100073150000000088SOLANGE PATRICIO DOS SANTOS        1     000000473488          0000000000ASSISTENTE I                                     
2007467504500073580000005284LETICIA CUSTODIO FONSECA           1     00000211445284        0000000000ASSISTENTE CONTABIL                              
2007467502300074120000005290LORRAYNE ANDRADE SILVA             1     00000026305290        0000000000JOVEM APRENDIZ                                   
2007467504500074200000005291GUILHERME NIEUWENHOFFE LEAL        1     00000026305291        0000000000JOVEM APRENDIZ                                   
2007467504500075280000005301MARIA L FERNANDES SUBIRES GIMENEZ  1     00000025005301        0000000000SUPERVISORA CONTABIL                             
2007467502300076920000005310CRISTIANE BARBOSA TIENE            1     00000026305310        0000000000ASSISTENTE DE A R                                
2007467502300077140000005312ANA PAULA BORGES                   1     00000025005312        0000000000ASSISTENTE FISCAL                                
2007467504500079510000005321DOUGLAS CARDOSO                    1     00000165195321        0000000000                                                 
2007467504500079780000005323VICTORIA CARIELO ROCHA             1     00000033505323        0000000000ASSISTENTE F                                     
2007467504500081410000005335VICTOR HUGO ALACRINO BELIZOTE      1     00000046765335        0000000000ASSISTENTE FISCAL                                
2007467500800081680000000080ANDRESSA RIBEIRO SILVA ZAMBONI     1     0000002500080         0000000000ANAL DPTO PESSOAL                                
2007467504500082300000005343MARIA CRISTIANE DE ARAUJO SILVA    1     00000026305343        0000000000AUXILIAR FISCAL                                  
2007467504500082570000005345ANDRESSA COSTA BRITO PATO          1     00000243175345        0000000000ASSIS RENT TRIB                                  
2007467504500082650000005342RENATA DA SILVA DE OLIVEIRA        1     00000067235342        0000000000ASSISTENTE FISCAL                                
2007467500800082900000000083CARLOS ROBERTO DOS SANTOS          1     0000012614083         0000000000ASSISTENTE                                       
2007467500800084600000000086MARCELA DE OLIVEIRA MARACCINI      1     0000004209086         0000000000ASSISTENTE FISCAL                                
2007467504500085080000005359FERNANDA NEVES DA CRUZ RAMOS       1     00000153065359        0000000000ANALISTA                                         
2007467504500086480000005369SILVIA MICHIKO OLIVEIRA TSURUTA    1     00000147605369        0000000000CONSULTORA ADM P                                 
2007467504500087290000005374GISELE BARBOSA RIBEIRO             1     00000033505374        0000000000ASSISTENTE                                       
2007467500200087610000005380VIVIANE OLIVEIRA PEREIRA DOS SANTOS1     00000140665380        0000000000                                                 
2007467503000088000000000083HELBERT CARVALHO DOS SANTOS        1     00000026300083        0000000000TRAINEES                                         
2007467500800088500000000092THAIS FERNANDA CUSTODIO DA SILVA   1     000000263092          0000000000                                                 
2007467502600089580000005394PEDRO HENRIQUE AFONSO CAMPAGNOLI   1     00000052605394        0000000000JOVEM APRENDIZ                                   
2007467504500089660000005395SUELI SANTOS SILVA                 1     00000050605395        0000000000ANALISTA CONTABIL                                
2007467501600090910000005404REGINA SILVA BRITO                 1     00000042085404        0000000000ANALISTA CONTABIL PL                             
2007467500200091300000005408NATASHA PINTO VIEIRA               1     00000033505408        0000000000AUXILIAR FINANCEIRO                              
2007467504500092020000005415NIELE ALMEIDA SOARES               1     00000194965415        0000000000ANALISTA DP PLENO                                
2007467500800092530000000099CAROLINE AZEVEDO GRATIVAL          1     0000000425099         0000000000ANALISTA DE RH                                   
2007467501800093340000005422FERNANDA MARQUES FERNANDES         1     00000206355422        0000000000ESPECIALISTA RH                                  
2007467500300093930000000073JULIA MORAES SILVA                 1     00000026300073        0000000000AUXILIAR ADM C                                   
2007467502800094400000005435JULIA VIEIRA DA SILVA              1     00000260235435        0000000000JOVEM APRENDIZ                                   
2007467503700095040000000061DAVI PONTES ARAUJO                 1     000000335000061       0000000000PARALEGAL                                        
2007467502300095550000005442JOAO THIAGO DA SILVA               1     00000026305442        0000000000ASSIS FISCAL                                     
2007467504500096100000000103GISLENE CARLA PATUSSI              1     00000033500103        0000000000ANALISTA CONTABIL                                
2007467504500096280000000108FELIPE ROGENSKI DA SILVA           1     00000003290108        0000000000ASSISTENTE CONTABIL                              
2007467503700097920000000064MARIA C P PIRES FERREIRA MAIA      1     000000263000064       0000000000ESTAGIARIA                                       
2007467500300098060000000075PAULO R PEREIRA CAIXEIRO MONTEIRO  1     00000086100075        0000000000TECNICO SUP TI                                   
2007467502300098810000005462SUZANA TORRES DE ALMEIDA PENTEADO  1     00000052605462        0000000000ANALISTA FISCAL JR                               
2007467504500100730000000123ISABELLA CHRISTINE VERGILIO SOARES 1     0000002104123         0000000000ASSIS FISCAL                                     
2007467500800100900000000105GRACIELLE BAETA CAMARGO            1     00000126400105        0000000000ASSIS FISCAL                                     
2007467501100101380000005477ALDENIZIA ANGELO DA SILVA          1     00000026305477        0000000000ASSISTENTE                                       
2007467502800101540000005480RENATA YURI SANTANA                1     00000020025480        0000000000ASSIS FINANCEIRO                                 
2007467502800101620000005481GABRIELLY PEREIRA DA SILVA         1     00000020465481        0000000000ASSIS FINANCEIRO                                 
2007467504500101890000000125LETICIA DO PATROCINIO              1     0000039356125         0000000000ANAL RETEN                                       
2007467504500102190000000128KARINA SANTOS                      1     0000002630128         0000000000ESTAGIARIO                                       
2007467502200102430000005484ADILSON FERNANDES SANTANA          1     00000003295484        0000000000ANAL DP JR                                       
2007467501800102940000005485RENATA BATISTA DE GUSMAO           1     0000007890005485      0000000000ANALISTA RH JR                                   
2007467502200103240000005488LEA APOLINARIO DA SILVA            1     0000005031005488      0000000000ANALISTA ADM P JR                                
2007467504500103590000000130JULIANA PIMENTEL DE OLIVEIRA BRITO 1     0000006312000130      0000000000AUX ADM FISCAL                                   
2007467503700104560000000040ELISANGELA COSTA DA SILVA          1     000000032900040       0000000000ANALISTA CONTABIL                                
2007467503700104720000000043SHEILA PEREIRA DE SOUZA            1     00000120350043        0000000000ANALISTA FISCAL SR                               
2007467503700104800000000044SUZANA AUGUSTO MARIA               1     00000025000044        0000000000ANALISTA CONTABIL SR                             
2007467503700104990000000045MARILIA RODRIGUES MARQUES          1     0000002630045         0000000000AUXILIAR CONTABIL                                
2007467500300105100000000156LARISSA DOS SANTOS DO NASCIMENTO   1     00000083950156        0000000000AUXILIAR DEPTO P A                               
2007467504500105960000000134CARLA REGINA ALVES                 1     0000003350134         0000000000ANALISTA FISCAL PL                               
2007467503700106340000000530ANDRE AMORIM DOS SANTOS            1     0000007702530         0000000000SUPERVISOR                                       
2007467503700106420000000490ALINE CARDOSO DE PAIVA COIMBRA     1     0000022219490         0000000000ANALISTA                                         
2007467503700108120000000056ADRIELLE ABRAHAO CAETANO           1     0000009865000056      0000000000AUXILIAR CONTABIL                                
2007467501100109280000005504FABRICIO DE SOUSA PRETTI           1     00000026305504        0000000000JOVEM APRENDIZ                                   
2007467503700109600000000050ALEXANDRE JOSE GAVINHO GERALDO     1     000000250200050       0000000000AUXILIAR FISCAL                                  
2007467503700109790000000060FERNANDA GOMES AMANCIO             1     0000002630000060      0000000000ASSIS FISCAL                                     
2007467503700109870000000061FABIO MATHIAS DA SILVA JUNIOR      1     0000005574000061      0000000000SUP CONT                                         
2007467500800110700000000060KEROLYN DOS SANTOS ALVES           1     00000045250000060     0000000000ASSISTENTE                                       
2007467502300111340000005521BEATRIZ XAVIER DOS SANTOS          1     00000197985521        0000000000ASSISTENTE FISCAL                                
2007467500400112820000000106KELLY MENDES RODRIGUES DE CASTRO   1     00000021040106        0000000000SUPERVISOR                                       
2007467504500113390000000143ALBERTO MENDONCA                   1     0000007973143         0000000000ANALISTA FISCAL                                  
2007467503700114100000000055VINICIUS GRAO COUTINHO             1     000001014500055       0000000000ASSISTENTE                                       
2007467504500114870000000149SHIRLEI DE PAULA CALAZANS          1     0000002630149         0000000000ANAL FISCAL PL                                   
2007467504500115090000000151EDINILSON ALVES DE SOUZA           1     0000005684151         0000000000ANAL FISCAL PL                                   
2007467504500115500000000153BRUNA FERREIRA VILELA              1     0000003258153         0000000000ANAL CONT PL                                     
2007467504500115760000000155ALAN BEZERRA DA SILVA              1     0000010030155         0000000000ANAL F PL                                        
2007467504500115920000000156TIAGO APARECIDO GASPAR DE LIMA     1     0000011635000156      0000000000ANAL CONTABIL PL                                 
2007467503700116570000000104AMANDA SALOMAO SANTOS PEREIRA      1     000000798900104       0000000000DEP FISCAL                                       
2007467503700117030000000088EDILAINE REGIS TORRES              1     0000016675000088      0000000000ASSIS FISCAL                                     
2007467503700117460000000082JHESSICA C ANTUNES MENDONCA AGUIAR 1     00000026300000082     0000000000SUPER CONTABIL JR                                
2007467503700117620000000099JOYCE FREITAS E SOUZA              1     000000840300000099    0000000000ANALISTA                                         
2007467503700117700000000037LETICIA PORTAL QUINTANILHA         1     00000052600037        0000000000ANALISTA PLENO                                   
2007467503700118000000000730TAINA CONCEICAO REBOUCAS           1     00000089740730        0000000000ANALISTA                                         
2007467503700121570000000108ANDREIA BENTO                      1     000000200000108       0000000000ANAL FISCAL PL                                   
2007467504500121900000000166WAGNER ROBERTO DOS SANTOS          1     0000000777166         0000000000ANAL FISCAL PL                                   
2007467503700123190000000000NICOLE ARANHA VON PROSCHINGER BELLO1     00000026301110        0000000000                                                 
2007467503700123270000000000ANDREZA ESTEVO GOMES               1     00000052601118        0000000000                                                 
2007467502300123600000000000KAWAN RIBEIRO DA SILVA             1     00000009525567        0000000000                                                 
2007467503000123940000000000ELTON HENRIQUE DUARTE              1     00000026300412        0000000000                                                 
2007467503700124080000000000VALDOMIRO PROPICIO DA SILVA JUNIOR 1     00000021041111        0000000000                                                 
2007467502200124240000005569GABRIELLY SIQUEIRA DE ARAUJO       1     00000030265569        0000000000                                                 
2007467502800124670000005574KEDMA XAVIER TEIXEIRA DUARTE       1     00000021045574        0000000000                                                 
2007467500100125640000000013JOAO BOSCO SOARES JUNIOR           1     00000026301333        0000000000                                                 
2007467500800126020000000078ANDREIA ALVES DA SILVA             1     0000002630788         0000000000                                                 
2007467503700126370000000130LUCIANO COELHO DA SILVA            1     0000019452130         0000000000                                                 
2007467503700126450000000123LIVIA TAVARES DA SILVA             1     00000026301123        0000000000                                                 
2007467503700126610000000129ISABELLE CASTRO SILVEIRA PINHEIRO  1     00000026301129        0000000000                                                 
2007467503700126880000000131MARIANA APARECIDA BARBOSA FERREIRA 1     00000011131131        0000000000                                                 
2007467503700127260000000135VIVIAN MARIA DOS SANTOS PIRES      1     00000026301135        0000000000                                                 
2007467503700127340000000132ROSANA C SALGUEIRO SOUSA RIBEIRO   1     00000025001132        0000000000                                                 
2007467503700127770000000134HULDA PEREIRA DE SOUZA             1     00000109811344        0000000000                                                 
2007467503700128150000000137LORENA LUIZA LEITE DOS SANTOS      1     00000052601370        0000000000ASSI CONTABIL PLENO                              
2007467503700128310000000138PAULA GUIMARAES                    1     00000131631388        0000000000                                                 
2007467504500129200000005582KAIO SILVERIO                      1     00000026305582        0000000000                                                 
2007467502300129470000005584JESSICA ALVES DO NASCIMENTO        1     00000052605584        0000000000                                                 
2007467500800130050000000096THAMIRIS SOUZA DE OLIVEIRA         1     0000004019960         0000000000ANALISTA ADM JR                                  
2007467503700130300000001090MARIA LUIZA MARQUES MONTEIRO       1     00000026301090        0000000000                                                 
2007467503700130480000001480ANDRESSA SILVA DE OLIVEIRA         1     00000073481480        0000000000                                                 
2007467500300131020000000860NATHALIA CAROLINA DA SILVA SOUZA   1     0000002630860         0000000000                                                 
2007467500800131610000098000LILIAN DO CARMO FOGACA             1     000000521898000       0000000000                                                 
2007467500800131700001010000THAIS DOS SANTOS MORAO             1     00000063581010000     0000000000                                                 
2007467503700131880000015500ALEXANDER INACIO MELLO             1     000000380815500       0000000000                                                 
2007467503700132180000001002GIOVANI CARLOS FERREIRA            1     00000029051002        0000000000DIRETOR                                          
2007467503700132260000001010MARCOS PEIXOTO DO NASCIMENT        1     00000217261010        0000000000DIRETOR                                          
2007467501600132340000000400LIGIA BECARE DE ALCANTARA          1     0000008610400         0000000000ANALISTA CONTABIL                                
2007467500800133070000001020LOUSEANE RESENDE DA SILVA          1     000000263001020       0000000000                                                 
2007467501600133230000005594YHANNARA LANNA DA SILVA ALMEIDA    1     00000054135594        0000000000                                                 
2007467502300133400000005593ELIDA LUANA DE SOUSA               1     00000121365593        0000000000                                                 
2007467503700133580000000161BIANCA CRISTINE RODRIGUES ASSUNCAO 1     000000526000161       0000000000                                                 
2007467501600134390000000869AMANDA DE SOUZA CARVALHO LOPES     1     0000002630869         0000000000                                                 
2007467503700134980000000737DERICK DE ALMEIDA OLIVEIRA         1     0000003350737         0000000000                                                 
2007467502800135010000005599DANIELA CAROLINE CAMPOS DE ALMEIDA 1     00000026305599        0000000000                                                 
2007467503700135440000000857RENATA DE JESUS GOMES              1     0000002630857         0000000000                                                 
2007467502300135600000005604NIKE APARECIDO ALENCAR DE QUEIROZ  1     00000122655604        0000000000                                                 
2007467500100135870000005602RENATA EVANGELISTA ROMARIZ         1     00000052605602        0000000000                                                 
2007467500300136410000008800FABIO ALCANTARA SOUSA              1     0000002104008800      0000000000                                                 
2007467502900137060000005609CINTHIA SANTIAGO DE OLIVEIRA       1     00000093305609        0000000000                                                 
2007467501100137140000005614JANAINA DE SOUZA PAES              1     00000011955614        0000000000                                                 
2007467503700138200000006648LARA OLIVEIRA LIMA                 1     00000117446648        0000000000                                                 
2007467503700138380000000711GUSTAVO DE ALMEIDA MIRANDA         1     00000060820711        0000000000                                                 
2007467502300139600000005627ROBERTO RODRIGUES CORTEZ           1     00000130115627        0000000000                                                 
2007467502300139780000005628SAMUEL DE LIMA REIS                1     00000020465628        0000000000                                                 
2007467502200140280000005626GABRIELA MARIA OLIVEIRA PIRES      1     00000105205626        0000000000                                                 
2007467503700141090000001761THAIS NASCIMENTO DOS SANTOS        1     00000026301761        0000000000                                                 
2007467503700141250000002710RAYANE BARBOSA LIMA                1     00000026302710        0000000000                                                 
2007467502500141500000005638NYCOLE ESTEVES PERUZZI             1     00000032125638        0000000000                                                 
2007467503700142140000000177ADRIANO SILVA CANDIDO              1     0000003350000177      0000000000                                                 
2007467502300142220000005642JAQUELINE SIEBRA DE SOUZA          1     00000066855642        0000000000                                                 
2007467501600142490000005645EDNILSON SERAPILHA PEREIRA         1     00000101645645        0000000000                                                 
2007467501600142900000005649PATRICIA F SILVA ROCHA XAVIER      1     00000025005649        0000000000                                                 
2007467502500143030000005650BRENDA PEREIRA DOS SANTOS          1     00000052605650        0000000000                                                 
2007467504500143540000000183PEDRO HENRIQUE PENA DE CARVALHO    1     0000000771183         0000000000                                                 
2007467502300144430000005654LEONARDO NASCIMENTO SANTOS         1     00000026305654        0000000000                                                 
2007467503700144940000000182MARCELA DE SOUZA PAULA             1     000001023800182       0000000000                                                 
2007467504500145080000000186LEONARDO REIS GUEDES               1     000000263000186       0000000000                                                 
2007467502200145240000005657CYNTIA DOS SANTOS BARBOZA          1     00000052605657        0000000000                                                 
2007467502800145400000005656ANA PAULA ALVES DE OLIVEIRA        1     00000106185656        0000000000                                                 
2007467502800145590000005658LUCAS DAMASCENO DANIEL             1     00000014705658        0000000000                                                 
2007467500300145830000000089MATHEUS HENRIQUE MENDES DE SOUZA   1     000000526000089       0000000000                                                 
2007467500300146300000000093GABRIELA TAVARES DA SILVA          1     0000002630000093      0000000000                                                 
2007467501800146560000005661AGATA NIAGLI DE SOUZA OLIVEIRA     1     00000042085661        0000000000                                                 
2007467501600146800000005662JESSICA BAPTISTA VEITA             1     00000023735662        0000000000                                                 
2007467500300147020000000095GABRIELLA LIMA SILVA               1     0000010892000095      0000000000                                                 
2007467500100148770000005672TAMIRES BALANSUELO DOS SANTOS      1     00000117065672        0000000000                                                 
2007467500100148930000005664ERIKA GUIMARAES DA SILVA           1     00000197065664        0000000000                                                 
2007467504500149150000000191FERNANDA REIS DOS SANTOS           1     00000026300191        0000000000                                                 
2007467500100149660000005680RODRIGO BARBOZA DOS SANTO          1     00000052600005680     0000000000                                                 
2007467500100149820000005683HANNA SALES BARBOSA DA SILVA       1     00000026300005683     0000000000                                                 
2007467504500150160000000192FERNANDA DE SOUZA SILVA            1     00000069400000192     0000000000                                                 
2007467504500150320000000194SILAS LIMA ABADE                   1     00000026300000194     0000000000                                                 
2007467500800150590000000135OLIVIA RODRIGUES PORFIRIO          1     000000318200000135    0000000000                                                 
2007467500300150670000045631MARCELO DOS SANTOS MARTINS         1     000001052045631       0000000000                                                 
2007467500100151300000005686NATHAN CAVALCANTE FERREIRA         1     00000026305686        0000000000                                                 
2007467504500151480000000200THAYNA ANIZIA DAPARECIDA           1     0000002630200         0000000000                                                 
2007467503700152100000000197LARISSA LAINO DE BARCELOS          1     0000002340197         0000000000                                                 
2007467500800152450000000138SONIA RAMOS CABRAL DE SA           1     00000078900000138     0000000000                                                 
2007467500100152610000005694BRUNA DE ASSIS OLIVEIRA            1     0000003350005694      0000000000                                                 
2007467500100152700000005695MARIA L FIGUEREDO LEANDRO SANTOS   1     0000003506005695      0000000000                                                 
2007467500100153180000005699ALINE FERNANDES VIANA              1     0000002630005699      0000000000                                                 
300000280000002025115                                                                                                                                 
