1PARTIC.SEGURADO0073885250725073120250720250731                                                                                                       
2007388503700000940000700138ALEXANDRE CARVALHO DE FREITAS      1     0000003946700138      0000000000                                                 
2007388502000002300000700227ADALTON MORAES RODRIGUES           1     0000003237700227      0000000000                                                 
2007388500100007950000700334CAILOMAN AIRES MAIA                1     0000001315700334      0000000000                                                 
2007388504000015110000700524HUMBERTO PAMPLONA MONTEIRO         1     0000001315700524      0000000000                                                 
2007388504200015540000700519JACO DA CONCEICAO SILVA            1     0000002859700519      0000000000                                                 
2007388503800016270000700502JEFFERSON LUIZ SOUSA DE FREITAS    1     0000001315700502      0000000000                                                 
2007388504100016510000700527EVANDRO MARCOS SILVA CONCEICAO     1     0000001315700527      0000000000                                                 
2007388504100016600000700526JOSE LISANDRO PEREIRA DE SIQUEIRA  1     0000002565700526      0000000000                                                 
2007388503800017590000700564JOEL PIMENTEL DO AMARAL LYRIO      1     0000001315700564      0000000000                                                 
2007388503800018050000700567JOSE ANTONIO REGO PINHEIRO         1     0000003945700567      0000000000                                                 
2007388503700021270000700554MARCOS AUGUSTO QUARESMA DIAS       1     0000003945700554      0000000000                                                 
2007388504000021510000700551PEDRO PAULO BARBOSA PAMPLONA       1     0000008901700551      0000000000                                                 
2007388504200021940000700546ARLISON ALTEMIR NASCIMENTO DA SILVA1     0000009231700546      0000000000                                                 
2007388504100022400000700550ODIMAR ALMEIDA LOUREIRO            1     0000001973700550      0000000000                                                 
2007388500100023560000700485IZAILDE PEREIRA DA SILVA           1     0000010686700485      0000000000                                                 
2007388502700023720000700579JOSE HAMILTON DA SILVA OLIVEIRA    1     0000001315700579      0000000000                                                 
2007388502900028600000700296MARCIO ALMEIDA AMORIN COUTO        1     0000002029700296      0000000000                                                 
2007388500400029500000700512MARCELO COSTA ALVES                1     0000001250700512      0000000000                                                 
2007388502000030770000700500POLIANA DE CASSIA SOUZA DA SILVA   1     0000005647700500      0000000000                                                 
2007388502700030850000700149ANTHONY ALBERT MENTORE             1     0000002159700149      0000000000                                                 
2007388502700031740000700124ANTONIO JORGE PADILHA DIAS         1     0000003288700124      0000000000                                                 
2007388502800032040000700208FRANCK NEY DOS SANTOS AMARAL       1     0000018919700208      0000000000                                                 
2007388500300032200000700268BENEDITO DO SOCORRO EVANGELISTA    1     0000002806700268      0000000000                                                 
2007388501800034250000700082WELLINGTON PIERRE LEMOS            1     0000017263700082      0000000000                                                 
2007388501800035570000700605ROBERTO RODRIGUES ALVES JUNIOR     1     0000001118700605      0000000000                                                 
2007388504100039300000700580MARINALDO FERREIRA FURTADO         1     0000005695700580      0000000000                                                 
2007388503800048040000700652WLANDER H SACRAMENTO OLIVEIRA      1     00000018357000652     0000000000AUXILIAR                                         
2007388500300051340000700784GLAUTTON DE SOUSA FERREIRA         1     0000003901700784      0000000000AUXILIAR                                         
2007388503800052660000700823JAX NEI LOPES COELHO               1     0000002630700823      0000000000                                                 
2007388503800052740000700822MAURO SERGIO LOPES PEREIRA         1     0000009029700822      0000000000                                                 
2007388500400058430000700853TARCISIO DA COSTA CORREA           1     00000091827000853     0000000000AUXILIAR                                         
2007388504200064670000700917JURACI GOMES DA SILVA              1     0000015162700917      0000000000                                                 
2007388502500065210000700924GLEICE MELO DA CUNHA               1     0000004683700924      0000000000GERENTE RH                                       
2007388502700065800000700925JORGE EDIMER RIANO MONTANO         1     000000131570092       0000000000                                                 
2007388501800066880000700944DOUGLAS GONCALVES RODRIGUES        1     0000006483700944      0000000000                                                 
2007388502200068900000700974FERNANDO FURTADO DE MELO           1     0000002990700974      0000000000                                                 
2007388502400069390000700978NATANAEL MARTINS DE MORAES         1     0000003092700978      0000000000                                                 
2007388502500071370000700998KATINA REIS SCHARF DA COSTA        1     0000010022700998      0000000000                                                 
2007388502400072000000701005CAROLINA POSTALE SANTANA           1     0000009388701005      0000000000                                                 
2007388500400074040000701034CRISTIANE VASSOLER DALAZOANA       1     0000012825701034      0000000000                                                 
2007388502300074120000701037JEFERSON PINHEIRO DA SILVA         1     0000001315701037      0000000000                                                 
2007388500300077730000701075MAIKON DA MOTA MESQUITA            1     0000005260701075      0000000000                                                 
2007388504100078030000701077RICHARLISON VALADARES FURTADO      1     0000001315701077      0000000000                                                 
2007388500300080360000701106MARCOS COSTA FERREIRA              1     0000011427701106      0000000000                                                 
2007388503700083460000701135ALISON DE SOUZA PINHEIRO           1     0000003913701135      0000000000                                                 
2007388502500084270000701144VERONICA FERREIRA DE AGUIAR        1     0000005410701144      0000000000                                                 
2007388500300084510000701148ELITON RODRIGUES DOS SANTOS        1     0000008706701148      0000000000                                                 
2007388502800085830000701161SEBASTIAO CAETANO PINTO            1     0000001360701161      0000000000                                                 
2007388502800086560000701170GIRLEY BARBOSA VILHENA             1     0000012553701170      0000000000                                                 
2007388501400086800000701174GIOVANNA REGINA CARDOSO SILVA      1     0000005751701174      0000000000                                                 
2007388501800087530000701180LETICIA DOS SANTOS MESSIAS         1     0000005934701180      0000000000                                                 
2007388502400087610000701183FABIO BARRETO FERNANDES            1     0000004767701183      0000000000                                                 
2007388501800087700000701182ADENIS BORGES DE LIMA              1     0000007800701182      0000000000                                                 
2007388502400087960000701184EDILSON ALVES MACEDO               1     0000014961701184      0000000000                                                 
2007388502400088000000701186LUIZ FELIPE SOUZA MULLER CARVALHO  1     0000003647701186      0000000000                                                 
2007388500400088930000701200VICTOR NASCIMENTO DO CARMO         1     0000012661701200      0000000000                                                 
2007388502200089310000701204ARIEL JORGE SAMUT                  1     0000011112701204      0000000000                                                 
2007388500300089820000701208ALRIMAR BOTELHO FILGUEIRA          1     0000002630701208      0000000000                                                 
2007388502200090240000701212THAMIRES MATTOS MARQUES            1     0000002521701212      0000000000                                                 
2007388502200090320000701213MARCELO DE ALMEIDA                 1     0000003275701213      0000000000                                                 
2007388500300090670000701218ELIANNIS SINAR HERNANDEZ JUNOR     1     0000007087701218      0000000000                                                 
2007388503600091050000701223ANTTONY ROBERT OLIVEIRA DE SOUSA   1     0000006344701223      0000000000                                                 
2007388502800091130000701224WERVERSON RODRIGUES LIMA           1     0000006154701224      0000000000                                                 
2007388500300091640000701228KLEYTON WENDERSON BORGES FLORENTINO1     0000020774701228      0000000000                                                 
2007388501400092020000701237JANAINA DE FATIMA ANTUNES MOSQUEIRA1     0000001118701237      0000000000                                                 
2007388503600092100000701238NEILSON PEREIRA DE ARAUJO          1     0000001250701238      0000000000                                                 
2007388500100092450000701240ANDRE SERRANO SANTOS               1     0000003575701240      0000000000FUNCIONARIO                                      
2007388500300092610000701242DAVID WALEX SOUZA COSTA            1     0000020611701242      0000000000                                                 
2007388502700092880000701244AUGUSTO CESAR SANTOS MARIANO       1     0000008214701244      0000000000                                                 
2007388502700092960000701246FERNANDA O G MENEZES CARNEIRO      1     0000001315701246      0000000000                                                 
2007388502700093260000701253FRANCISCO WELLINGTON SOARES SILVA  1     0000007890701253      0000000000                                                 
2007388502700093340000701252DIEGO TAVARES VALOTTA              1     0000006832701252      0000000000                                                 
2007388502500093690000701257ISABELLA CAMARGO MENEZES           1     0000004902701257      0000000000                                                 
2007388501400094150000701258MARIANA RODRIGUES BATALHA ALVES    1     0000001250701258      0000000000                                                 
300000076000000435523                                                                                                                                 
