1007467520250731.POSICAO CADASTRAL CADRET.                                                                                                                                                                                                                                                                                                                                                                                                                                                                                                                                                                                                                                                                                                                                                                                                                                                                                                                                                                                                                                                                                                                                                                                                                                                                                                                                                                                                                                                                                                                                                                                                                                                                                                                                                                                                                                                                                                                                                                                                                                                                                                                                                                                                                                                                                                                                                                                                                                                                                                                                                                                                                                                                                                                                                                                                                                                                                                                                                                                                                                                                              
257100746750001000095700000000004482            774675000957005010720190107202100000000THIAGO DE ANDRADE LEDA                                                020919901200000000                                                                      00000000000PATRICIA DE ANDRADE FERNANDES                                         02562370503                                                                                000010100010000000000070000644940700400000000000                                                                                                                                                                                                                                                                                             00000004482000000000000SOCIO GERENTE       21032011                                                                                                                                                                0000000000                                                                                                    RUA ESTEVAO ANDRADE SILVA 151                                              JD BRASILIA                                                 SAO PAULO                                                               SP028591000000  00000000000000000000000000000000000000                                                                                                                                                                                              34100237  00000000808191 CCI                                                                                                    FXE10000    01072019059000000000000000000000000000000000000000000000000000                                                       00000000N                                                                                                                                                                                                                                                                                                                                                                                                                                                                                                                                                                                                                                                                                                                                                                                                                                                                                                                                                                                                                                                                                                                                                                                                                                                            
257100746750001000095701000000004482            774675000957013010720190107202100000000MONICA ADRIANA DA SILVA                                               270319782210000000                                                                                 DELIA DE OLIVEIRA DA SILVA                                            27958075804                                                                                           0000000000070060196471286500000000000                                                                                                                                                                                                                                                                                                                                                                                                                                                                                                                                                                                                                                                                                                                                                                                                                                                                                                                                                                                                                                                                                                                                                                                                                                                     059000000000000000000000000000000000000000000000000000                                                       00000000N                                                                                                                                                                                                                                                                                                                                                                                                                                                                                                                                                                                                                                                                                                                                                                                                                                                                                                                                                                                                                                                                                                                                                                                                                                                            
25710074675000100073150088                      774675007315009090920210000000000000000SOLANGE PATRICIO DOS SANTOS                                           220719922100000000                                                                      00000000000MARIA DO SOCORRO PATRICIO DOS SANTOS                                  40849914817                                                                                000010100010000000000070600685145184400000000000                                                                                                                                                                                                                                                                                             00000000088000000000000ASSISTENTE I        09092021                                                                                                                                                                0000000000                                                                                                    R BENEDITO A DA SILVA                                                      VL INACIO                                                   SAO PAULO                                                               SP052062900000  00000000000000000000000000000000000000                                                                                                                                                                                              26000001  00000175628720 CPI                                                                                                    FXE10000    09092021051100000000000000000000000000000000000000000000000000                                                       00000000N                                                                                                                                                                                                                                                                                                                                                                                                                                                                                                                                                                                                                                                                                                                                                                                                                                                                                                                                                                                                                                                                                                                                                                                                                                                            
257100746750001001220300167                     774675012203000241020230000000000000000ENZO SILVA MIRANDA                                                    280620051100000000                                                                      00000000000ROSILENE SILVA MIRANDA                                                49326138810                                                                                000010100010000000000070240952353342500000000000                                                                                                                                                                                                                                                                                             00000000167000000000000                    24102023                                                                                                                                                                0000000000                                                                                                    R DETULINA 172                                                             PANORAMA (POLVILHO)                                         CAJAMAR                                                                 SP077923650000  00000000000000000000000000000000000000                                                                                                                                                                                              34100734  00000000313679 CCC                                                                                                    FXE10000    24102023051100000000000000000000000000000000000000000000000000                                                       00000000N                                                                                                                                                                                                                                                                                                                                                                                                                                                                                                                                                                                                                                                                                                                                                                                                                                                                                                                                                                                                                                                                                                                                                                                                                                                            
2571007467500010012564001333                    774675012564005020120240000000000000000JOAO BOSCO SOARES JUNIOR                                              141119891100000000                                                                      00000000000MARIA DE LOURDES DA SILVA SOARES                                      36076168846                                                                                000010100010000000000070400033844896600000000000                                                                                                                                                                                                                                                                                             00000000013000000000000                    02012024                                                                                                                                                                0000000000                                                                                                    CLEMENTE BERNINI 160                                                       JARDIM DO LAGO                                              SAO PAULO                                                               SP053971000000  00000000000000000000000000000000000000                                                                                                                                                                                              34101663  00000000339057 CCC                                                                                                    FXQ20000    02012024051100000000000000000000000000000000000000000000000000                                                       00000000N                                                                                                                                                                                                                                                                                                                                                                                                                                                                                                                                                                                                                                                                                                                                                                                                                                                                                                                                                                                                                                                                                                                                                                                                                                                            
2571007467500010012564011333                    774675012564013020120240000000000000000GABRIELA DE OLIVEIRA SOARES                                           010620172120000000                                                                                 THAIS PANSERA DE OLIVEIRA SOARES                                      53055118871                                                                                           0000000000089800518996826100000000000                                                                                                                                                                                                                                                                                                                                                                                                                                                                                                                                                                                                                                                                                                                                                                                                                                                                                                                                                                                                                                                                                                                                                                                                                                                     051100000000000000000000000000000000000000000000000000                                                       00000000N                                                                                                                                                                                                                                                                                                                                                                                                                                                                                                                                                                                                                                                                                                                                                                                                                                                                                                                                                                                                                                                                                                                                                                                                                                                            
2571007467500010013587005602                    774675013587005010820240000000000000000RENATA EVANGELISTA ROMARIZ                                            030519721100000000                                                                      00000000000MARIA HELENA EVANGELISTA ROMARIZ                                      13710386861                                                                                000010100010000000000070670955927001700000000000                                                                                                                                                                                                                                                                                             00000005602000000000000                    01082024                                                                                                                                                                0000000000                                                                                                    AV HIGIENOPOLIS 235 265                                                    HIGIENOPOLIS                                                SAO PAULO                                                               SP012380010000  00000000000000000000000000000000000000                                                                                                                                                                                              03301755  00000010055782 CCI                                                                                                    TNQ20000FXE127082024055700000000000000000000000000000000000000000000000000                                                       00000000N                                                                                                                                                                                                                                                                                                                                                                                                                                                                                                                                                                                                                                                                                                                                                                                                                                                                                                                                                                                                                                                                                                                                                                                                                                                            
2571007467500010013587015602                    774675013587013270820240000000000000000ENRICO ROMARIZ RECCO                                                  270120051120000000                                                                                 RENATA EVANGELISTA ROMARIZ                                            53385929830                                                                                           0000000000089800580289182500000000000                                                                                                                                                                                                                                                                                                                                                                                                                                                                                                                                                                                                                                                                                                                                                                                                                                                                                                                                                                                                                                                                                                                                                                                                                                                     055700000000000000000000000000000000000000000000000000                                                       00000000N                                                                                                                                                                                                                                                                                                                                                                                                                                                                                                                                                                                                                                                                                                                                                                                                                                                                                                                                                                                                                                                                                                                                                                                                                                                            
2571007467500010013587025602                    774675013587021270820240000000000000000LUCA ROMARIZ RECCO                                                    150720081120000000                                                                                 RENATA EVANGELISTA ROMARIZ                                            54183762847                                                                                           0000000000089800466185267400000000000                                                                                                                                                                                                                                                                                                                                                                                                                                                                                                                                                                                                                                                                                                                                                                                                                                                                                                                                                                                                                                                                                                                                                                                                                                                     055700000000000000000000000000000000000000000000000000                                                       00000000N                                                                                                                                                                                                                                                                                                                                                                                                                                                                                                                                                                                                                                                                                                                                                                                                                                                                                                                                                                                                                                                                                                                                                                                                                                                            
257100746750001001437000414                     774675014370005011120240000000000000000DANILO FELIPE DOS SANTOS FERREIRA                                     230219911200000000                                                                      00000000000ADENISE DOS SANTOS                                                    41450549896                                                                                000010100010000000000070600237969364500000000000                                                                                                                                                                                                                                                                                             00000000004100000000000GERENTE TI          01112024                                                                                                                                                                0000000000                                                                                                    RUA PALMILHEIRA                                                            PARQUE SAVOY CITY                                           SAO PAULO                                                               SP035704900000  00000000000000000000000000000000000000                                                                                                                                                                                              34108573  00000000512640 CCC                                                                                                    FXE10000    01112024051100000000000000000000000000000000000000000000000000                                                       00000000N                                                                                                                                                                                                                                                                                                                                                                                                                                                                                                                                                                                                                                                                                                                                                                                                                                                                                                                                                                                                                                                                                                                                                                                                                                                            
257100746750001001437001414                     774675014370013011120240000000000000000TAMIRES GOMES DOS SANTOS FERREIRA                                     160319942210000000                                                                                 FRANCISCA ELIEUDA GOMES MOTA                                          42718527838                                                                                           0000000000000000000000000000000000000                                                                                                                                                                                                                                                                                                                                                                                                                                                                                                                                                                                                                                                                                                                                                                                                                                                                                                                                                                                                                                                                                                                                                                                                                                                     051100000000000000000000000000000000000000000000000000                                                       00000000N                                                                                                                                                                                                                                                                                                                                                                                                                                                                                                                                                                                                                                                                                                                                                                                                                                                                                                                                                                                                                                                                                                                                                                                                                                                            
2571007467500010014826005668                    774675014826006110320250000000000000000RENAN MORAES MEDEIROS                                                 130619931100000000                                                                      00000000000VALDETE MARIA DE MORAES MEDEIROS                                      41918171831                                                                                000010100010000000000070620650657226600000000000                                                                                                                                                                                                                                                                                             00000005668000000000000                    11032025                                                                                                                                                                0000000000                                                                                                    DOS CARIRIS 96                                                             PIRAPORINHA                                                 DIADEMA                                                                 SP099514200000  00000000000000000000000000000000000000                                                                                                                                                                                              34100559  00000000889886 CCI                                                                                                    FXE10000    11032025051100000000000000000000000000000000000000000000000000                                                       00000000N                                                                                                                                                                                                                                                                                                                                                                                                                                                                                                                                                                                                                                                                                                                                                                                                                                                                                                                                                                                                                                                                                                                                                                                                                                                            
2571007467500010014834005670                    774675014834000180320250000000000000000IZABELLE WANY LIBERATO BARBOSA                                        280520032100000000                                                                      00000000000SANDRYLLA LIBERATO DE SOUZA                                           46873637840                                                                                000010100010000000000070140663291773800000000000                                                                                                                                                                                                                                                                                             00000005670000000000000                    18032025                                                                                                                                                                0000000000                                                                                                    FRANCISCO DA SILVA CASEIRO 153 APARTAMENTO 32                              JARDIM DA MAMAE                                             GUARULHOS                                                               SP071312000000  00000000000000000000000000000000000000                                                                                                                                                                                              34105081  00000000437104 CCI                                                                                                    FXE10000    18032025051100000000000000000000000000000000000000000000000000                                                       00000000N                                                                                                                                                                                                                                                                                                                                                                                                                                                                                                                                                                                                                                                                                                                                                                                                                                                                                                                                                                                                                                                                                                                                                                                                                                                            
2571007467500010014842005675                    774675014842003200320250000000000000000ROBERTO FERREIRA DE JESUS                                             310319831200000000                                                                      00000000000JUDITE FERREIRA DE JESUS                                              34989758897                                                                                000010100010000000000070470670644033800000000000                                                                                                                                                                                                                                                                                             00000005675000000000000                    20032025                                                                                                                                                                0000000000                                                                                                    PARANATINGA 18 BLOCO ROMA APTO 31                                          VILA CONDE DO PINHAL                                        SAO PAULO                                                               SP042540200000  00000000000000000000000000000000000000                                                                                                                                                                                              34100249  00000000279381 CCI                                                                                                    FXE10000    20032025051100000000000000000000000000000000000000000000000000                                                       00000000N                                                                                                                                                                                                                                                                                                                                                                                                                                                                                                                                                                                                                                                                                                                                                                                                                                                                                                                                                                                                                                                                                                                                                                                                                                                            
2571007467500010014869005673                    774675014869006200320250000000000000000KELLI CRISTINA DA SILVA DE PAULA                                      260519802200000000                                                                      00000000000MARIA DO SOCORRO SILVA                                                29163159856                                                                                000010100010000000000070730606769797000000000000                                                                                                                                                                                                                                                                                             00000005673000000000000                    20032025                                                                                                                                                                0000000000                                                                                                    BENEDITO DANIEL DE SOUZA FILHO 13                                          LARANJEIRAS                                                 CAIEIRAS                                                                SP077430200000  00000000000000000000000000000000000000                                                                                                                                                                                              34106200  00000000043765 CCI                                                                                                    FXE10000    20032025051100000000000000000000000000000000000000000000000000                                                       00000000N                                                                                                                                                                                                                                                                                                                                                                                                                                                                                                                                                                                                                                                                                                                                                                                                                                                                                                                                                                                                                                                                                                                                                                                                                                                            
2571007467500010014877005672                    774675014877009200320250000000000000000TAMIRES BALANSUELO DOS SANTOS                                         150319922100000000                                                                      00000000000ONEIDE BALANSUELO DOS SANTOS                                          40672129841                                                                                000010100010000000000070640233383229000000000000                                                                                                                                                                                                                                                                                             00000005672000000000000                    20032025                                                                                                                                                                0000000000                                                                                                    LUTECIA 140 APTO 4                                                         VILA CARRAO                                                 SAO PAULO                                                               SP034230000000  00000000000000000000000000000000000000                                                                                                                                                                                              34108121  00000000104114 CCI                                                                                                    FXE10000    20032025051100000000000000000000000000000000000000000000000000                                                       00000000N                                                                                                                                                                                                                                                                                                                                                                                                                                                                                                                                                                                                                                                                                                                                                                                                                                                                                                                                                                                                                                                                                                                                                                                                                                                            
2571007467500010014893005664                    774675014893006110320250000000000000000ERIKA GUIMARAES DA SILVA                                              211219842100000000                                                                      00000000000NEUZA BATISTA GUIMARAES                                               33066004821                                                                                000010100010000000000070550843541311000000000000                                                                                                                                                                                                                                                                                             00000005664000000000000                    11032025                                                                                                                                                                0000000000                                                                                                    TAPES  634                                                                 JARDIM AEROPORTO                                            SAO PAULO                                                               SP046310110000  00000000000000000000000000000000000000                                                                                                                                                                                              34106368  00000000184971 CCI                                                                                                    FXE10000    11032025051100000000000000000000000000000000000000000000000000                                                       00000000N                                                                                                                                                                                                                                                                                                                                                                                                                                                                                                                                                                                                                                                                                                                                                                                                                                                                                                                                                                                                                                                                                                                                                                                                                                                            
2571007467500010014923005674                    774675014923001200320250000000000000000ISABELA MARIA DE JESUS CARVALHO                                       180119902100000000                                                                      00000000000ISABEL MARIA DE JESUS CARVALHO                                        04342651521                                                                                000010100010000000000070060896180626100000000000                                                                                                                                                                                                                                                                                             00000005674000000000000                    20032025                                                                                                                                                                0000000000                                                                                                    FABIO EDUARDO RAMOS ESQUIVEL 2900                                          CANHEMA                                                     DIADEMA                                                                 SP099412020000  00000000000000000000000000000000000000                                                                                                                                                                                                                                                                                                                              FXE10000    20032025051100000000000000000000000000000000000000000000000000                                                       00000000N                                                                                                                                                                                                                                                                                                                                                                                                                                                                                                                                                                                                                                                                                                                                                                                                                                                                                                                                                                                                                                                                                                                                                                                                                                                            
2571007467500010014931000005676                 774675014931004010420250000000000000000LILIANE BARBOSA DO NASCIMENTO                                         210719882100000000                                                                      00000000000MARIA DO SOCORRO BARBOSA DO NASCIMENTO                                35514224864                                                                                000010100010000000000070240155699442400000000000                                                                                                                                                                                                                                                                                             00000005676000000000000                    01042025                                                                                                                                                                0000000000                                                                                                    CARNEIRO LEAO 395 AP 32 BL 02                                              BRAS                                                        SAO PAULO                                                               SP030400000000  00000000000000000000000000000000000000                                                                                                                                                                                              34100072  00000000210453 CCI                                                                                                    FXE10000    01042025051100000000000000000000000000000000000000000000000000                                                       00000000N                                                                                                                                                                                                                                                                                                                                                                                                                                                                                                                                                                                                                                                                                                                                                                                                                                                                                                                                                                                                                                                                                                                                                                                                                                                            
2571007467500010014940000005677                 774675014940005010420250000000000000000SARAH ALICE LIMA DE ARAUJO                                            290120042100000000                                                                      00000000000GISELLI MANTOVANI LIMA                                                51844754863                                                                                000010100010000000000070480904209304800000000000                                                                                                                                                                                                                                                                                             00000005677000000000000                    01042025                                                                                                                                                                0000000000                                                                                                    EDUARDO PINHEIRO 156                                                       PARQUE CONTINENTAL                                          GUARULHOS                                                               SP070840900000  00000000000000000000000000000000000000                                                                                                                                                                                              34103150  00000000494155 CCI                                                                                                    FXE10000    01042025051100000000000000000000000000000000000000000000000000                                                       00000000N                                                                                                                                                                                                                                                                                                                                                                                                                                                                                                                                                                                                                                                                                                                                                                                                                                                                                                                                                                                                                                                                                                                                                                                                                                                            
2571007467500010014958000005681                 774675014958007030420250000000000000000GABRIELLE CRISTINA DA SILVA                                           060119942100000000                                                                      00000000000SONIA CRISTINA MAFRA DE OLIVEIRA                                      41337582859                                                                                000010100010000000000070870516467079100000000000                                                                                                                                                                                                                                                                                             00000005681000000000000                    03042025                                                                                                                                                                0000000000                                                                                                    MAIACA 94                                                                  JARDIM BRASILIA ZONA LEST                                   SAO PAULO                                                               SP035840100000  00000000000000000000000000000000000000                                                                                                                                                                                              34100764  00000000957890 CCI                                                                                                    FXE10000    03042025051100000000000000000000000000000000000000000000000000                                                       00000000N                                                                                                                                                                                                                                                                                                                                                                                                                                                                                                                                                                                                                                                                                                                                                                                                                                                                                                                                                                                                                                                                                                                                                                                                                                                            
2571007467500010014966000005680                 774675014966000030420250000000000000000RODRIGO BARBOZA DOS SANTO                                             130119871200000000                                                                      00000000000IVETE MARIA ROCHA DOS SANTOS                                          35125387894                                                                                000010100010000000000070860604500678400000000000                                                                                                                                                                                                                                                                                             00000005680000000000000                    03042025                                                                                                                                                                0000000000                                                                                                    EDMUNDO DE PAULA COELHO 295                                                PARQUE GUARANI                                              SAO PAULO                                                               SP082357900000  00000000000000000000000000000000000000                                                                                                                                                                                              34100765  00000000109756 CCI                                                                                                    FXQ20000    03042025051100000000000000000000000000000000000000000000000000                                                       00000000N                                                                                                                                                                                                                                                                                                                                                                                                                                                                                                                                                                                                                                                                                                                                                                                                                                                                                                                                                                                                                                                                                                                                                                                                                                                            
2571007467500010014966010005680                 774675014966018030420250000000000000000THAMIRES PEREIRA SOUZA DOS SANTOS                                     280419942210000000                                                                                 ROSIMERI PEREIRA                                                      43067223845                                                                                           0000000000070620207762546700000000000                                                                                                                                                                                                                                                                                                                                                                                                                                                                                                                                                                                                                                                                                                                                                                                                                                                                                                                                                                                                                                                                                                                                                                                                                                                     051100000000000000000000000000000000000000000000000000                                                       00000000N                                                                                                                                                                                                                                                                                                                                                                                                                                                                                                                                                                                                                                                                                                                                                                                                                                                                                                                                                                                                                                                                                                                                                                                                                                                            
2571007467500010014974000005684                 774675014974004080420250000000000000000DANIELLE VICTORIA CARLOS                                              110119942100000000                                                                      00000000000IRENE CRISTINA CARLOS                                                 42730072829                                                                                000010100010000000000070670459733241000000000000                                                                                                                                                                                                                                                                                             00000005684000000000000                    08042025                                                                                                                                                                0000000000                                                                                                    VITORIA REGIA 310 AP 15                                                    CAMPESTRE                                                   SANTO ANDRE                                                             SP090803200000  00000000000000000000000000000000000000                                                                                                                                                                                              34106680  00000000116883 CCI                                                                                                    FXE10000    08042025051100000000000000000000000000000000000000000000000000                                                       00000000N                                                                                                                                                                                                                                                                                                                                                                                                                                                                                                                                                                                                                                                                                                                                                                                                                                                                                                                                                                                                                                                                                                                                                                                                                                                            
2571007467500010014982000005683                 774675014982007080420250000000000000000HANNA SALES BARBOSA DA SILVA                                          070519962100000000                                                                      00000000000DIVA SALES DE OLIVEIRA SANTOS                                         45441248831                                                                                000010100010000000000070870518860619800000000000                                                                                                                                                                                                                                                                                             00000005683000000000000                    08042025                                                                                                                                                                0000000000                                                                                                    ORIENTE 71                                                                 VILA SUZUKI                                                 RIO GRANDE DA SERRA                                                     SP094500000000  00000000000000000000000000000000000000                                                                                                                                                                                              34102782  00000000280784 CCI                                                                                                    FXE10000    08042025051100000000000000000000000000000000000000000000000000                                                       00000000N                                                                                                                                                                                                                                                                                                                                                                                                                                                                                                                                                                                                                                                                                                                                                                                                                                                                                                                                                                                                                                                                                                                                                                                                                                                            
2571007467500010014990000005682                 774675014990000080420250000000000000000BLENDA EDUARDA DA SILVA RAMOS                                         200220022100000000                                                                      00000000000LIVIA GOMES DA SILVA                                                  36427499840                                                                                000010100010000000000089800007214076500000000000                                                                                                                                                                                                                                                                                             00000005682000000000000                    08042025                                                                                                                                                                0000000000                                                                                                    VAZ MUNIZ 148                                                              JARDIM FRANCA                                               SAO PAULO                                                               SP023370000000  00000000000000000000000000000000000000                                                                                                                                                                                              34108093  00000000499435 CCI                                                                                                    FXE10000    08042025051100000000000000000000000000000000000000000000000000                                                       00000000N                                                                                                                                                                                                                                                                                                                                                                                                                                                                                                                                                                                                                                                                                                                                                                                                                                                                                                                                                                                                                                                                                                                                                                                                                                                            
25710074675000100150080000005                   774675015008000010420250000000000000000SANDRO PEIXOTO LISBOA                                                 171019721200000000                                                                      00000000000MARIA MARGARETE PEIXOTO LISBOA                                        00662222733                                                                                000010100010000000000070050717180945500000000000                                                                                                                                                                                                                                                                                             00000000005000000000000                    01042025                                                                                                                                                                0000000000                                                                                                    CONEGO EUGENIO LEITE 866 AP 92                                             CERQUEIRA CESAR                                             SAO PAULO                                                               SP054140010000  00000000000000000000000000000000000000                                                                                                                                                                                              34103747  00000000071573 CCI                                                                                                    TNQ20000    01042025051100000000000000000000000000000000000000000000000000                                                       00000000N                                                                                                                                                                                                                                                                                                                                                                                                                                                                                                                                                                                                                                                                                                                                                                                                                                                                                                                                                                                                                                                                                                                                                                                                                                                            
25710074675000100150080100005                   774675015008018010420250000000000000000ANA PAULA DO PRADO                                                    161119772210000000                                                                                 MARIA INES SCHMITZ PRADO                                              02448982945                                                                                           0000000000070100785474049900000000000                                                                                                                                                                                                                                                                                                                                                                                                                                                                                                                                                                                                                                                                                                                                                                                                                                                                                                                                                                                                                                                                                                                                                                                                                                                     051100000000000000000000000000000000000000000000000000                                                       00000000N                                                                                                                                                                                                                                                                                                                                                                                                                                                                                                                                                                                                                                                                                                                                                                                                                                                                                                                                                                                                                                                                                                                                                                                                                                                            
2571007467500010015075005690                    774675015075009160420250000000000000000MATHEUS SANTOS PEDROSO                                                260619951100000000                                                                      00000000000MARIA LUCIA DOS SANTOS PEDROSO                                        41332193846                                                                                000010100010000000000070020540863172100000000000                                                                                                                                                                                                                                                                                             00000005690000000000000                    16042025                                                                                                                                                                0000000000                                                                                                    MACEDO 1                                                                   CHACARA MACEDO                                              ITAPECERICA DA SERRA                                                    SP068676810000  00000000000000000000000000000000000000                                                                                                                                                                                                                                                                                                                              FXE10000    16042025051100000000000000000000000000000000000000000000000000                                                       00000000N                                                                                                                                                                                                                                                                                                                                                                                                                                                                                                                                                                                                                                                                                                                                                                                                                                                                                                                                                                                                                                                                                                                                                                                                                                                            
2571007467500010015083005689                    774675015083003160420250000000000000000ALESSANDRA CRISTINA HENRIQUE                                          290519792100000000                                                                      00000000000WANDA LUCIA DE OLIVEIRA SILVA                                         28708530840                                                                                000010100010000000000070340639392730000000000000                                                                                                                                                                                                                                                                                             00000005689000000000000                    16042025                                                                                                                                                                0000000000                                                                                                    BARAO DE LIMEIRA 1                                                         CAMPOS ELISEOS                                              SAO PAULO                                                               SP012020010000  00000000000000000000000000000000000000                                                                                                                                                                                                                                                                                                                              FXE10000    16042025051100000000000000000000000000000000000000000000000000                                                       00000000N                                                                                                                                                                                                                                                                                                                                                                                                                                                                                                                                                                                                                                                                                                                                                                                                                                                                                                                                                                                                                                                                                                                                                                                                                                                            
2571007467500010015091005691                    774675015091006160420250000000000000000ALFREDO WILSON DO CARMO                                               180819651100000000                                                                      00000000000ADALGISA DE CAMPOS CARMO                                              07723414862                                                                                000010100010000000000070500063210305700000000000                                                                                                                                                                                                                                                                                             00000005691000000000000                    16042025                                                                                                                                                                0000000000                                                                                                    SANTO AMARO 1                                                              BELA VISTA                                                  SAO PAULO                                                               SP013150000000  00000000000000000000000000000000000000                                                                                                                                                                                                                                                                                                                              FXE10000    16042025051100000000000000000000000000000000000000000000000000                                                       00000000N                                                                                                                                                                                                                                                                                                                                                                                                                                                                                                                                                                                                                                                                                                                                                                                                                                                                                                                                                                                                                                                                                                                                                                                                                                                            
2571007467500010015113005685                    774675015113008150420250000000000000000DANILO DA SILVA SOUSA                                                 040919871200000000                                                                      00000000000VILMA MARIA DA SILVA DE SOUSA                                         34932393865                                                                                000010100010000000000070360400465063500000000000                                                                                                                                                                                                                                                                                             00000005685000000000000                    15042025                                                                                                                                                                0000000000                                                                                                    NORMANDIA 1                                                                JARDIM PIONEIRA                                             COTIA                                                                   SP067053600000  00000000000000000000000000000000000000                                                                                                                                                                                                                                                                                                                              FXE10000    15042025051100000000000000000000000000000000000000000000000000                                                       00000000N                                                                                                                                                                                                                                                                                                                                                                                                                                                                                                                                                                                                                                                                                                                                                                                                                                                                                                                                                                                                                                                                                                                                                                                                                                                            
