1PARTIC.SEGURADO0074675250625063020250620250630                                                                                                       
2007467500200000350000000000RICARDO BANAX JUNQUEIRA            1     00000051140000000000050000000000SOCIO GERENTE                                    
2007467500400000940000000014MARIO HENRIQUE CARLI               1     00000066910000000000140000000000CONSULTOR DE AUDITOR                             
2007467500300002130000000000JOSE ROBERTO FERNANDES             1     00000052600000000000320000000000CONTADOR B                                       
2007467500400003610000000020PAMELA DA SILVA                    1     000000263000000000020B0000000000AUDITOR JR                                       
2007467500300003700000000000MARCOS MARQUES DE ARAUJO           1     00000132510000000005000000000000SOCIO GERENTE                                    
2007467585200003880000000000EICO SHIRAZAWA                     1     00000064550000000033260000000000INATIVO                                          
2007467585200004180000000000MARIA IVONE RODRIGUES BORGES       1     00000035200000000038190000000000INATIVO                                          
2007467502600005150000004125RENATO VILELA RIBEIRO              1     00000066400000000041250000000000GERENTE PARALEGAL                                
2007467502500005400000004162WAGNER JACINTO PEREIRA             1     00000026300000000041620000000000GERENTE RET TRIBUTAR                             
2007467502300006120000004263RENATA MENEZES DO NASCIMENTO       1     00000220940000000042630000000000SUPERVISOR FISCAL IV                             
2007467502600006710000004338WELLINGTON ALVES DE ALENCAR        1     00000065050000000043380000000000ANALISTA DE PARALEGA                             
2007467500800006800000004367JOSE ALEXANDRE KIRSTEIN            1     00000055470000000043670000000000GERENTE CONTABIL                                 
2007467500900007010000004381FLAVIO LUQUE BASTOS                1     00000599430000000043810000000000SOCIO GERENTE                                    
2007467502300007790000004413ZELIR DE SOUZA                     1     00000059800000000044130000000000SOCIO GERENTE                                    
2007467501600007950000004415ALESSANDRO DE OLIVEIRA LEME        1     00000074070000000044150000000000SOCIO GERENTE                                    
2007467501600008090000004418TATIANE CRISTINA SILVA DA FREIRIA  1     00000052600000000044180000000000GERENTE CONTABIL                                 
2007467502500008250000004427VITORIA SILVA CAVALCANTE           1     00000026300000000044270000000000ANALISTA FISCAL SR I                             
2007467501200009060000004472FRANCISCA JOSEFA DA SILVA          1     00000026300000000044720000000000AUXILIAR DE LIMPEZA                              
2007467500100009570000004482THIAGO DE ANDRADE LEDA             1     00000030040000000044820000000000SOCIO GERENTE                                    
2007467501600009650000004494RENATO CARDOSO MARCICANO           1     00000523520000000044940000000000ANALISTA CONTABIL PL                             
2007467500900011120000004572CELSO KOLLER                       1     00000290210000000045720000000000SOCIO GERENTE                                    
2007467501400011200000004573GUSTAVO SILVEIRA MACHADO CAIXETA   1     00000040920000000045730000000000ANALISTA FISCAL SR I                             
2007467503700012010000004628AGNALDO MEDAS DE CARVALHO          1     00000026300000000046280000000000ANALISTA FINANCEIRO                              
2007467503700012280000004637AMANDA GUIOMAR FELGUEIRAS MORAIS   1     00000026300000000046370000000000ANALISTA ADM PESSOAL                             
2007467502500012950000004655ELAINE CRISTINA DOS SANTOS CURCINO 1     00000157900000000046550000000000ASSISTENTE RET TRIBU                             
2007467501600014300000004698LUCIANE CRISTINA DE IMAZU          1     00000052600000000046980000000000ANALISTA CONTABIL PL                             
2007467502500015030000004721WALLACE CARVALHO GOIS              1     00000030470000000047210000000000ANALISTA RET TRIBUTA                             
2007467501600015890000004748BRENDA GOMES RODRIGUES FIGUEIREDO  1     00000052600000000047480000000000ANALISTA CONTABIL SR                             
2007467501600016860000004789BEATRIZ DE SANTANA OLIVEIRA        1     00000026300000000047890000000000ANALISTA CONTABIL JR                             
2007467500900017830000004824EDUARDO ROGATTO LUQUE              1     00000458130000000048240000000000SOCIO GERENTE                                    
2007467502700018130000004827JESSICA DOURADO LINS RODRIGUES     1     00000011000000000048270000000000ASSISTENTE FISCAL I                              
2007467504500020890000004884MEIRE CORREIA OLIVEIRA             1     00000041530000000048840000000000ANALISTA CONTABIL PL                             
2007467501600021270000004894MARLUCIA MESSIAS DOS SANTOS        1     00000222420000000048940000000000ASSISTENTE CONTABIL                              
2007467502600021350000004896DAISSON MARTINES LEAO              1     00000059800000000048960000000000AUXILIAR PARALEGAL                               
2007467502500021780000004903JULIO CESAR GONCALO DE FARIA       1     00000028520000000049030000000000AUXILIAR ADM FISCAL                              
2007467501900022320000004913SORAYA PAGANATO RODRIGUES          1     00000055080000000049130000000000GERENTE COMUNICACAO                              
2007467502800023800000004942RUBEM SABATINI LAZZURI             1     00000002910000000049420000000000ASSISTENTE FINANCEIR                             
2007467502300024450000005112LUIS HENRIQUE NERI MESQUITA        1     00000148485112        0000000000APRENDIZ                                         
2007467502500025340000004968MARLI CARVALHO DE ALMEIDA          1     00000033500000000049680000000000ASSISTENTE RET TRIBU                             
2007467501600026820000004993JAMYLLE LUIZA FIALHO               1     00000052600000000049930000000000AUXILIAR CONTABIL V                              
2007467502500027200000005000SILVIA DAYANE SILVA BRAGA          1     00000026300000000050000000000000AUXILIAR RET TRIBUTA                             
2007467502300028440000005015VANESSA DOS SANTOS LOPES           1     00000047100000000050150000000000ASSISTENTE FISCAL I                              
2007467502300028600000005018NATACHA DE OLIVEIRA RODRIGUES LI   1     00000026300000000050180000000000ASSISTENTE FISCAL I                              
2007467501700029090000005027RENATTO GOMES LEITE                1     00000017790000000050270000000000AUXILIAR ADMINISTRAT                             
2007467500200029760000005034FELIPE CYPRIANO DE ALMEIDA ARRUDA  1     00000097340000000050340000000000ANALISTA COMERCIAL S                             
2007467503300030770000005046ANDRE ZAPATER LIMA                 1     00000026300000000050460000000000ASSISTENTE DE QUALID                             
2007467504500031230000005053NATALIA SILVA FRANCO DO BOMFIM     1     00000147070000000050530000000000ANALISTA CONTABIL JR                             
2007467502300032470000005070LUCIANA FERNANDES CORDEIRO         1     00000116940000000050700000000000ASSISTENTE FISCAL I                              
2007467504500032980000005077RENATHO CESARIO DE FRANCA          1     00000059800000000050770000000000ASSISTENTE FISCAL I                              
2007467504500033010000005078AMANDA VITAL RAMOS LEITE           1     00000026300000000050780000000000ASSISTENTE FISCAL I                              
2007467504500033440000005085MARCIO JUSTO                       1     00000157800000000050850000000000GERENTE CONTABIL                                 
2007467503700033950000004640LEILA RODRIGUES SOARES             1     000000263000000004640B0000000000AUX SERVICOS GERAIS                              
2007467501600034090000004641PAULA DE SOUZA SANTOS              1     000001520000000004641A0000000000ANALISTA CONTABIL JR                             
2007467504500034250000004647FATIMA CRISTINA PAIVA COLLADO      1     000000114100000004647A0000000000ANALISTA FINANCEIRO                              
2007467503700034500000004648KARIME PIERRE DE MOURA ALMEIDA     1     000001182600000004648B0000000000ANALISTA FISCAL PL V                             
2007467500500035060000000000PILAR LUQUE BASTOS                 1     0000001391156325897   0000000000                                                 
2007467502300035730000004899RENATA DE OLIVEIRA CALASSE         1     00000026300000000048990000000000ASSISTENTE FISCAL II                             
2007467502200036030000004958LILIAN SOARES FELICIANO            1     00000026300000000049580000000000ANALISTA ADM PESSOAL                             
2007467502800036700000005096BIANCA BARRETO DINIZ               1     00000091125096        0000000000                                                 
2007467502600037600000004632BIANCA MARQUES MADEIRA             1     00000026304632        0000000000                                                 
2007467501800037780000004996KELI REGINA CUNHA BATISTA          1     00000051304996        0000000000                                                 
2007467500400038320000000027VANIA PEREIRA MUZEL                1     000000263027          0000000000                                                 
2007467500700038670000000000RENATA ROGATTO LUQUE AUGUSTI       1     000000135100000000022A0000000000                                                 
2007467502500040570000005159GABRIEL MOURA SILVA                1     00000023295159        0000000000APRENDIZ                                         
2007467502700042270000005113MAYARA GENEROSO BATALHA            1     00000028285113        0000000000ANALISTA FINANCEIRO                              
2007467500300042940000000048GABRIEL DE ARAUJO SILVA            1     000000150048          0000000000ASSIS CONTABIL C                                 
2007467503300044300000009002LUCIBERGH JOSE ANTONINHO DE FREITAS1     00000026309002        0000000000SOCIO                                            
2007467503300044480000001000MARCOS CESAR CALEGARI              1     00000032421000        0000000000SOCIO                                            
2007467503300044560000009001GIUSEPPI SOUSA SOARES              1     00000068389001        0000000000SOCIO                                            
2007467500800046770000000027TANIA PIRES DA SILVA               1     0000006746027         0000000000ANALISTA FISCAL                                  
2007467504500047660000005142LILIAN ROSANGELA ROMANO            1     00000016105142        0000000000                                                 
2007467500200048040000005147DAMARYS VICTORIA PAULO DE SOUSA    1     00000033505147        0000000000                                                 
2007467503700048390000004667GRAZIELLE SCHIMDT BERNARDINO       1     00000016764667        0000000000ASSITENTE                                        
2007467502900051260000005164ADRIANO FERRARIN                   1     00000121475164        0000000000ESPECIALISTA TI JR                               
2007467500400051500000000004RENATA FREGUGLIA DARE              1     00000095050000000000040000000000DIRETOR TRIBUTARIO E                             
2007467503000051930000000049JOSUE TRINDADE DA SILVA JUNIOR     1     00000031890000000000490000000000AUDITOR SENIOR CONTA                             
2007467500400053200000000011RUY LUIZ DE PAULA                  1     00000067610000000090110000000000DIRETOR DE AUDIENCIA                             
2007467500400053390000000012RAFAEL SILVA LOBO                  1     00000388240000000090120000000000GERENTE TRIBUTARIO                               
2007467500400053550000000014FERNANDO DE SOUSA                  1     00000026300000000090140000000000SUPERVISOR TRABALHIS                             
2007467500400053710000000028CARLOS ALBERTO FARIA               1     00000226600000000090280000000000SUPERVISOR CONTROLES                             
2007467503700054600000004678BRUNA SILVA LOBAO                  1     00000105204678        0000000000ANALISTA CONTABIL                                
2007467500800054950000000039ILLYARIADNY SILVEIRA RUBI          1     0000004346039         0000000000ANALISTA FINANCEIRO                              
2007467500800055090000000041FERNANDA FERREIRA PINTO            1     000000340241          0000000000ASSISTENTE FISCAL                                
2007467503700058350000000032SAMIRA FERNANDA DE MOURA COSTA     1     00000043020032        0000000000AUXILIAR CONTABIL                                
2007467504500058510000005194GESSICA ROBERTA DA SILVA ARMINIO   1     00000026305194        0000000000ANALISTA FISCAL                                  
2007467504500058600000005197JESSICA DE ALBUQUERQUE FINAMOR     1     00000041085197        0000000000ANALISTA F PLENO                                 
2007467503000058860000000059BRUNO ALEISON ALVES MORAIS         1     0000002630059         0000000000AUDITOR SENIOR                                   
2007467504500061730000005205JESSICA FERNANDES VIEIRA           1     00000148095205        0000000000ASSISTENTE                                       
2007467500200062700000000081KETLYN D ARAUJO TEODORO MENESES    1     000005157981          0000000000ASSISTENTE II                                    
2007467503700065050000000044GISELLE OTONI DE OLIVEIRA ASSIS    1     0000009330044         0000000000ASS FINANCEIRO                                   
2007467500800065990000000057JULIANA RUBIA DEMENCIANO           1     0000006375057         0000000000ANALISTA F SENIOR                                
2007467503700066020000000048LEONARDO ARAUJO DA SILVA           1     0000005156048         0000000000ANALISTA FISCAL                                  
2007467503300066370000000006DANIEL CLAUDIO LEITE               1     0000002104000006      0000000000ASSOCIADO                                        
2007467504500066450000005235ELEN SOUZA SANTOS                  1     00000124425235        0000000000ANALISTA CONTABIL JR                             
2007467504500067000000005237ALINE STONER LOPES                 1     00000049705237        0000000000ASSISTENTE FISCAL                                
2007467502300067260000005240MATHEUS DOURADO DA SILVA           1     00000028925240        0000000000ASSISTENTE FISCAL                                
2007467504500067420000005243GUSTAVO ALENCAR LORA               1     00000021045243        0000000000ASSISTENTE FISCAL                                
2007467502300069550000005259JULIANA BARBETA SOARES             1     00000026305259        0000000000ASSISTENTE FISCAL                                
2007467501600071530000005272ALYNE VOLPOLINI DE LIMA            1     00000026305272        0000000000ANALISTA CONTABIL JR                             
2007467500800071610000000067ANDREIA ROSA DA SILVA BARROS       1     0000004734067         0000000000ANALISTA FISCAL JR                               
2007467501600071960000005274DANIELA NAKAMA                     1     00000086745274        0000000000ANALISTA CONTABIL JR                             
2007467502600072420000005278MICARLY DE PAIVA TRESSINO          1     00000245515278        0000000000PARALEGAL SENIOR                                 
2007467504500073580000005284LETICIA CUSTODIO FONSECA           1     00000212175284        0000000000ASSISTENTE CONTABIL                              
2007467504500074200000005291GUILHERME NIEUWENHOFFE LEAL        1     00000026305291        0000000000JOVEM APRENDIZ                                   
2007467502200074800000005297THAMYRES ALANA NEVES DA SILVA      1     00000020465297        0000000000APRENDIZ                                         
2007467504500075280000005301MARIA L FERNANDES SUBIRES GIMENEZ  1     00000023675301        0000000000SUPERVISORA CONTABIL                             
2007467503700075440000000052LUCAS AMORIM DE MAGALHAES          1     00000189200052        0000000000ASSISTENTE CONTABIL                              
2007467502300076920000005310CRISTIANE BARBOSA TIENE            1     00000026305310        0000000000ASSISTENTE DE A R                                
2007467500800078110000000073REGIANE DOS SANTOS ALVES           1     000000464173          0000000000ANALISTA FISCAL                                  
2007467502800079510000005321DOUGLAS CARDOSO                    1     00000050425321        0000000000                                                 
2007467504500079780000005323VICTORIA CARIELO ROCHA             1     00000055185323        0000000000ASSISTENTE F                                     
2007467500800081680000000080ANDRESSA RIBEIRO SILVA ZAMBONI     1     0000005260080         0000000000ANAL DPTO PESSOAL                                
2007467504500082300000005343MARIA CRISTIANE DE ARAUJO SILVA    1     00000026305343        0000000000AUXILIAR FISCAL                                  
2007467504500082650000005342RENATA DA SILVA DE OLIVEIRA        1     00000031405342        0000000000ASSISTENTE FISCAL                                
2007467500800084600000000086MARCELA DE OLIVEIRA MARACCINI      1     0000005260086         0000000000ASSISTENTE FISCAL                                
2007467504500085160000005360BRUNA RIBEIRO SILVA FRAZAO         1     00000062725360        0000000000ANALISTA                                         
2007467500400085590000000098TIAGO FERREIRA DOS SANTOS ALMANI   1     000000362698          0000000000ANALISTA                                         
2007467504500086480000005369SILVIA MICHIKO OLIVEIRA TSURUTA    1     00000160755369        0000000000CONSULTORA ADM P                                 
2007467504500087290000005374GISELE BARBOSA RIBEIRO             1     00000040915374        0000000000ASSISTENTE                                       
2007467500800088500000000092THAIS FERNANDA CUSTODIO DA SILVA   1     000000526092          0000000000                                                 
2007467502600089580000005394PEDRO HENRIQUE AFONSO CAMPAGNOLI   1     00000026305394        0000000000JOVEM APRENDIZ                                   
2007467504500089660000005395SUELI SANTOS SILVA                 1     00000069245395        0000000000ANALISTA CONTABIL                                
2007467502800092960000005423BRUNA SOUZA GONCALVES              1     00000054115423        0000000000ASSISTENTE F                                     
2007467502200093420000005427ARYANE LOPES DA SILVA              1     00000033505427        0000000000ASSISTENTE DE DP                                 
2007467502800093770000005430VICTORIA AMARAL DE LIMA            1     00000002445430        0000000000AUXILIAR FINANCEIRO                              
2007467502800094400000005435JULIA VIEIRA DA SILVA              1     00000029015435        0000000000JOVEM APRENDIZ                                   
2007467503700095040000000061DAVI PONTES ARAUJO                 1     000000335000061       0000000000PARALEGAL                                        
2007467504500096010000000102VALDIRENE FERREIRA                 1     00000052600102        0000000000ANAL CONTABIL PL                                 
2007467504500096280000000108FELIPE ROGENSKI DA SILVA           1     00000002970108        0000000000ASSISTENTE CONTABIL                              
2007467503700097920000000064MARIA C P PIRES FERREIRA MAIA      1     000000933000064       0000000000ESTAGIARIA                                       
2007467502300098490000005457KAMILA DOS SANTOS BANDEIRA         1     00000081435457        0000000000ASSISTENTE FISCAL                                
2007467502300098810000005462SUZANA TORRES DE ALMEIDA PENTEADO  1     00000078905462        0000000000ANALISTA FISCAL JR                               
2007467501800100490000005473ELIZABETE DE LUNA MARTINS          1     00000052605473        0000000000AUXILIAR RH                                      
2007467504500100730000000123ISABELLA CHRISTINE VERGILIO SOARES 1     0000002104123         0000000000ASSIS FISCAL                                     
2007467500800100900000000105GRACIELLE BAETA CAMARGO            1     00000068850105        0000000000ASSIS FISCAL                                     
2007467502800101540000005480RENATA YURI SANTANA                1     00000026305480        0000000000ASSIS FINANCEIRO                                 
2007467502800101620000005481GABRIELLY PEREIRA DA SILVA         1     00000081805481        0000000000ASSIS FINANCEIRO                                 
2007467504500101890000000125LETICIA DO PATROCINIO              1     0000002630125         0000000000ANAL RETEN                                       
2007467502200102430000005484ADILSON FERNANDES SANTANA          1     00000078265484        0000000000ANAL DP JR                                       
2007467502200103080000005486VINICIUS DE ALMEIDA NOVAES         1     0000003350005486      0000000000ANALISTA ADM P JR                                
2007467504500103590000000130JULIANA PIMENTEL DE OLIVEIRA BRITO 1     0000006265000130      0000000000AUX ADM FISCAL                                   
2007467500300103670000000077JOAO VITOR EDUARDO DE JESUS BORGES 1     00000033500077        0000000000AUXILIAR CONTABIL D                              
2007467503700104560000000040ELISANGELA COSTA DA SILVA          1     000001182600040       0000000000ANALISTA CONTABIL                                
2007467503700104720000000043SHEILA PEREIRA DE SOUZA            1     00000194680043        0000000000ANALISTA FISCAL SR                               
2007467500300105100000000156LARISSA DOS SANTOS DO NASCIMENTO   1     00000138340156        0000000000AUXILIAR DEPTO P A                               
2007467503700106420000000490ALINE CARDOSO DE PAIVA COIMBRA     1     0000009660490         0000000000ANALISTA                                         
2007467503700107400000000640CINTIA PATRICIA CAMPOS CANDIDO     1     0000023909640         0000000000                                                 
2007467504500107820000000135JOSEANE MICHELE DOS SANTOS DINIZ   1     0000002630135         0000000000ASSIS CONTABIL                                   
2007467503700108120000000056ADRIELLE ABRAHAO CAETANO           1     0000002367000056      0000000000AUXILIAR CONTABIL                                
2007467502300108550000005510ELIZAMA DEBORA DOS SANTOS          1     00000067005510        0000000000ASSIS FISCAL                                     
2007467503700109600000000050ALEXANDRE JOSE GAVINHO GERALDO     1     000000526000050       0000000000AUXILIAR FISCAL                                  
2007467503700109870000000061FABIO MATHIAS DA SILVA JUNIOR      1     0000016560000061      0000000000SUP CONT                                         
2007467503700110530000000073DIOGO MONTEIRO BAYEUX GUEDES       1     000000465500073       0000000000AUXILIAR CONTABIL                                
2007467502300111340000005521BEATRIZ XAVIER DOS SANTOS          1     00000033505521        0000000000ASSISTENTE FISCAL                                
2007467500200111930000005525ANA PAULA BRAGA                    1     00000026305525        0000000000CONSULTORA PROJETOS                              
2007467502800112070000005526BEATRIZ GARCIA MEDINA              1     00000053715526        0000000000ASSIS FINANCEIRO                                 
2007467504500113200000000142HILMA APARECIDA ALVES              1     0000014626142         0000000000ASSIS RETENC TRIB                                
2007467503700114100000000055VINICIUS GRAO COUTINHO             1     000000263000055       0000000000ASSISTENTE                                       
2007467504500115090000000151EDINILSON ALVES DE SOUZA           1     0000008043151         0000000000ANAL FISCAL PL                                   
2007467504500115760000000155ALAN BEZERRA DA SILVA              1     0000001617155         0000000000ANAL F PL                                        
2007467503700116570000000104AMANDA SALOMAO SANTOS PEREIRA      1     000000265800104       0000000000DEP FISCAL                                       
2007467503700117030000000088EDILAINE REGIS TORRES              1     0000002630000088      0000000000ASSIS FISCAL                                     
2007467503700117460000000082JHESSICA C ANTUNES MENDONCA AGUIAR 1     00000052600000082     0000000000SUPER CONTABIL JR                                
2007467503700117620000000099JOYCE FREITAS E SOUZA              1     000003707700000099    0000000000ANALISTA                                         
2007467503700117700000000037LETICIA PORTAL QUINTANILHA         1     00000059800037        0000000000ANALISTA PLENO                                   
2007467503700118350000000102TIAGO TRINDADE LIMA                1     0000002630000102      0000000000AUX CONTABIL                                     
2007467504500119590000000160RAQUEL DA SILVA LORONHA            1     0000015556160         0000000000ANAL CONTABIL PL                                 
2007467502300120250000005549NINIVY ANDREZA MIRANDA DA SILVA    1     00000120235549        0000000000ANALISTA FISCAL JR                               
2007467503700121570000000108ANDREIA BENTO                      1     000000526000108       0000000000ANAL FISCAL PL                                   
2007467504500121900000000166WAGNER ROBERTO DOS SANTOS          1     0000004676166         0000000000ANAL FISCAL PL                                   
2007467503700123190000000000NICOLE ARANHA VON PROSCHINGER BELLO1     00000026301110        0000000000                                                 
2007467502300123600000000000KAWAN RIBEIRO DA SILVA             1     00000033505567        0000000000                                                 
2007467502800124670000005574KEDMA XAVIER TEIXEIRA DUARTE       1     00000026305574        0000000000                                                 
2007467503700125050000000121VICTOR AFONSO GOMES DE MORAIS      1     0000002630121         0000000000                                                 
2007467500800126020000000078ANDREIA ALVES DA SILVA             1     0000011856788         0000000000                                                 
2007467500800126290000000077MAYARA DE OLIVEIRA ORTIZ           1     0000010048777         0000000000                                                 
2007467503700126370000000130LUCIANO COELHO DA SILVA            1     0000002500130         0000000000                                                 
2007467503700126880000000131MARIANA APARECIDA BARBOSA FERREIRA 1     00000026301131        0000000000                                                 
2007467503700127340000000132ROSANA C SALGUEIRO SOUSA RIBEIRO   1     00000033501132        0000000000                                                 
2007467500400127500000000108KAROLINE SILVA COSTA               1     00000019451108        0000000000                                                 
2007467503700127770000000134HULDA PEREIRA DE SOUZA             1     00000105491344        0000000000                                                 
2007467503700128150000000137LORENA LUIZA LEITE DOS SANTOS      1     00000133051370        0000000000ASSI CONTABIL PLENO                              
2007467503700128310000000138PAULA GUIMARAES                    1     00000150491388        0000000000                                                 
2007467501100129200000005582KAIO SILVERIO                      1     00000089065582        0000000000                                                 
2007467502300129470000005584JESSICA ALVES DO NASCIMENTO        1     00000078905584        0000000000                                                 
2007467503700129630000000142CAROLINE SILVEIRA BARBOSA          1     00000059801142        0000000000                                                 
2007467500800130050000000096THAMIRIS SOUZA DE OLIVEIRA         1     0000005260960         0000000000ANALISTA ADM JR                                  
2007467503700130130000000143GABRIELLE DE ARAUJO PRINGI         1     00000126021430        0000000000ASSIT FISCAL PL                                  
2007467503700130480000001480ANDRESSA SILVA DE OLIVEIRA         1     00000016001480        0000000000                                                 
2007467503700130720000001500FERNANDO DA FONSECA COSTA E SILVA  1     00000026301500        0000000000                                                 
2007467500300131020000000860NATHALIA CAROLINA DA SILVA SOUZA   1     0000000050860         0000000000                                                 
2007467503700131100000001530JULIANA FERREIRA BRAGA             1     00000033501530        0000000000                                                 
2007467500800131610000098000LILIAN DO CARMO FOGACA             1     000002007198000       0000000000                                                 
2007467500800131700001010000THAIS DOS SANTOS MORAO             1     00000023401010000     0000000000                                                 
2007467503700132180000001002GIOVANI CARLOS FERREIRA            1     00000026301002        0000000000DIRETOR                                          
2007467503700132260000001010MARCOS PEIXOTO DO NASCIMENT        1     00000197931010        0000000000DIRETOR                                          
2007467501600132340000000400LIGIA BECARE DE ALCANTARA          1     0000005260400         0000000000ANALISTA CONTABIL                                
2007467501600132420000000860GUILHERME XAVIER                   1     0000002630403         0000000000ASSISTENTE CONTABIL                              
2007467500800133070000001020LOUSEANE RESENDE DA SILVA          1     000000526001020       0000000000                                                 
2007467503700133580000000161BIANCA CRISTINE RODRIGUES ASSUNCAO 1     000000827400161       0000000000                                                 
2007467503700133740000000162GISELE RIBEIRO DE SOUZA            1     000001216900162       0000000000                                                 
2007467503700134980000000737DERICK DE ALMEIDA OLIVEIRA         1     0000002630737         0000000000                                                 
2007467504500135100000000897NATHALIA MOURA MOREIRA             1     0000002630897         0000000000                                                 
2007467503700135360000000166VIVIAN ALVES VITORINO              1     0000019363728         0000000000                                                 
2007467502300135600000005604NIKE APARECIDO ALENCAR DE QUEIROZ  1     00000021045604        0000000000                                                 
2007467503700136500000008741MARIA G ALVES TRINDADE MOREIRA     1     00000076278741        0000000000                                                 
2007467502400136760000005607BIANCA DE DEUS SILVA               1     00000098075607        0000000000                                                 
2007467502400136840000005615MAYNE OLIVEIRA SANTOS              1     00000052605615        0000000000                                                 
2007467502300136920000005611SOPHIA CARMINATO FERNANDES         1     00000026305611        0000000000                                                 
2007467501100137140000005614JANAINA DE SOUZA PAES              1     00000021045614        0000000000                                                 
2007467502400137650000005605ANDRESSA DE ARAUJO FERREIRA        1     00000052605605        0000000000                                                 
2007467503700138380000000711GUSTAVO DE ALMEIDA MIRANDA         1     00000084120711        0000000000                                                 
2007467503700138460000008706THAYANE MICHELE FRANCISCO CORDEIRO 1     00000026308706        0000000000                                                 
2007467502300139510000005629JESSICA CASSIA FREITAS DOS SANTOS  1     00000026305629        0000000000                                                 
2007467502300139780000005628SAMUEL DE LIMA REIS                1     00000020465628        0000000000                                                 
2007467501600140010000005631MARIA ROSA ROSSI                   1     00000045635631        0000000000                                                 
2007467503700141090000001761THAIS NASCIMENTO DOS SANTOS        1     00000097781761        0000000000                                                 
2007467502300141410000005639MARIA LUANA PASSOS RIOS            1     00000067285639        0000000000                                                 
2007467502500141500000005638NYCOLE ESTEVES PERUZZI             1     00000113265638        0000000000                                                 
2007467502800141680000056351BIANCA SUELI RAMOS PINHO           1     000000263056351       0000000000                                                 
2007467502500142300000005643GRAZIELA PEREIRA CAETANO           1     00000052605643        0000000000                                                 
2007467501600142490000005645EDNILSON SERAPILHA PEREIRA         1     00000155715645        0000000000                                                 
2007467501600142900000005649PATRICIA F SILVA ROCHA XAVIER      1     00000052605649        0000000000                                                 
2007467502500143030000005650BRENDA PEREIRA DOS SANTOS          1     00000078905650        0000000000                                                 
2007467502500143110000005651LETICIA DA SILVA RODRIGUES         1     00000026305651        0000000000                                                 
2007467502300144430000005654LEONARDO NASCIMENTO SANTOS         1     00000054325654        0000000000                                                 
2007467500800144780000000866DANIELE SACCO GOMIERO              1     00000026300866        0000000000                                                 
2007467503700144940000000182MARCELA DE SOUZA PAULA             1     000001124300182       0000000000                                                 
2007467503700145160000000183TASSIA CLARISSE BRANDAO COELHO     1     000000405300183       0000000000                                                 
2007467502200145240000005657CYNTIA DOS SANTOS BARBOZA          1     00000030725657        0000000000                                                 
2007467502800145590000005658LUCAS DAMASCENO DANIEL             1     00000073645658        0000000000                                                 
2007467500300145830000000089MATHEUS HENRIQUE MENDES DE SOUZA   1     000001371400089       0000000000                                                 
2007467501600146800000005662JESSICA BAPTISTA VEITA             1     00000026305662        0000000000                                                 
2007467500300147020000000095GABRIELLA LIMA SILVA               1     0000002104000095      0000000000                                                 
2007467503700147700000000188BRENDA MACHADO FIALHO              1     00000050000188        0000000000                                                 
2007467500300147960000038795DEBORA DE SOUZA SANTOS             1     000000263038795       0000000000                                                 
2007467504500148180000000190NATHALIA CAJA NOGUEIRA MARQUES     1     0000007652190         0000000000                                                 
2007467500100148770000005672TAMIRES BALANSUELO DOS SANTOS      1     00000033505672        0000000000                                                 
2007467500100148850000005669STEPHANY ALVES DOS SANTOS          1     00000026305669        0000000000                                                 
2007467504500149070000000189KAROLINA RODRIGUES VIEIRA          1     00000052600189        0000000000                                                 
2007467500100149660000005680RODRIGO BARBOZA DOS SANTO          1     00000072370005680     0000000000                                                 
2007467500100149740000005684DANIELLE VICTORIA CARLOS           1     00000059800005684     0000000000                                                 
2007467500100150080000000005SANDRO PEIXOTO LISBOA              1     000000263000005       0000000000                                                 
2007467504500150160000000192FERNANDA DE SOUZA SILVA            1     00000021040000192     0000000000                                                 
2007467504500150240000000193TATIANE ALVES PEREIRA DE OLIVEIRA  1     00000033500000193     0000000000                                                 
2007467500800150590000000135OLIVIA RODRIGUES PORFIRIO          1     000000335900000135    0000000000                                                 
2007467500100150830000005689ALESSANDRA CRISTINA HENRIQUE       1     00000026305689        0000000000                                                 
2007467504500151480000000200THAYNA ANIZIA DAPARECIDA           1     0000002630200         0000000000                                                 
2007467503700151640000000193MARIA VITORIA DOS SANTOS ZEFERINO  1     0000002630193         0000000000                                                 
300000251000001792859                                                                                                                                 
