1POSICAO CADASTRAL00746752507312507312025073120250731                                                                                                                               
20010000957THIAGO DE ANDRADE LEDA             000000044821900902202562370503SOCIO GERENTE       110321190701FXE1000000004482199009022011032120190701        20210701000000000000    
50010000957THIAGO DE ANDRADE LEDA             00000004482774675000957005PATRICIA DE ANDRADE FERNANDES      000000004482    FXE101072019                                             
90010000957THIAGO DE ANDRADE LEDA             000000044823410237  00000000808191 000000004482                                                                                       
3001000095701MONICA ADRIANA DA SILVA            7803272211907010000000044821978032720190701            202107010000000027958075804774675000957013DELIA DE OLIVEIRA DA SILVA         
20010007315SOLANGE PATRICIO DOS SANTOS        000000000882920722140849914817ASSISTENTE I        210909210909FXE188          199207222021090920210909        00000000000000000000    
50010007315SOLANGE PATRICIO DOS SANTOS        00000000088774675007315009MARIA SOCORRO PATRICIO SANTOS      88              FXE109092021                                             
90010007315SOLANGE PATRICIO DOS SANTOS        000000000882600001  00000175628720 88                                                                                                 
20010012203ENZO SILVA MIRANDA                 000000001671050628149326138810                    231024231024FXE1167         200506282023102420231024        00000000000000000000    
50010012203ENZO SILVA MIRANDA                 00000000167774675012203000ROSILENE SILVA MIRANDA             167             FXE124102023                                             
90010012203ENZO SILVA MIRANDA                 000000001673410734  00000000313679 167                                                                                                
20010012564JOAO BOSCO SOARES JUNIOR           000000000131891114136076168846                    240102240102FXQ21333        198911142024010220240102        00000000000000000000    
50010012564JOAO BOSCO SOARES JUNIOR           00000000013774675012564005MARIA DE LOURDES DA SILVA SOARES   1333            FXQ202012024                                             
90010012564JOAO BOSCO SOARES JUNIOR           000000000133411663  00000000339057 1333                                                                                               
3001001256401GABRIELA DE OLIVEIRA SOARES        1706012122401021333        2017060120240102            000000000000000053055118871774675012564013THAIS PANSERA DE OLIVEIRA SOARES   
20010013587RENATA EVANGELISTA ROMARIZ         000000056021720503113710386861                    240801240801TNQ25602        197205032024080120240801        00000000000000000000    
50010013587RENATA EVANGELISTA ROMARIZ         00000005602774675013587005MARIA HELENA EVANGELISTA ROMARIZ   5602        FXE1TNQ227082024                                             
90010013587RENATA EVANGELISTA ROMARIZ         000000056020331755  00000010055782 5602                                                                                               
3001001358701ENRICO ROMARIZ RECCO               0501271122408275602        2005012720240827            000000000000000053385929830774675013587013RENATA EVANGELISTA ROMARIZ         
3001001358702LUCA ROMARIZ RECCO                 0807151122408275602        2008071520240827            000000000000000054183762847774675013587021RENATA EVANGELISTA ROMARIZ         
20010014370DANILO FELIPE DOS SANTOS FERREIRA  000000000041910223241450549896GERENTE TI          241101241101FXE1414         199102232024110120241101        00000000000000000000    
50010014370DANILO FELIPE DOS SANTOS FERREIRA  00000000004774675014370005ADENISE DOS SANTOS                 414             FXE101112024                                             
90010014370DANILO FELIPE DOS SANTOS FERREIRA  000000000043418573  00000000512640 414                                                                                                
3001001437001TAMIRES GOMES DOS SANTOS FERREIRA  940316221241101414         1994031620241101            000000000000000042718527838774675014370013FRANCISCA ELIEUDA GOMES MOTA       
20010014826RENAN MORAES MEDEIROS              000000056681930613141918171831                    250311250311FXE15668        199306132025031120250311        00000000000000000000    
50010014826RENAN MORAES MEDEIROS              00000005668774675014826006VALDETE MARIA DE MORAES MEDEIROS   5668            FXE111032025                                             
90010014826RENAN MORAES MEDEIROS              000000056683410559  00000000889886 5668                                                                                               
20010014834IZABELLE WANY LIBERATO BARBOSA     000000056702030528146873637840                    250318250318FXE15670        200305282025031820250318        00000000000000000000    
50010014834IZABELLE WANY LIBERATO BARBOSA     00000005670774675014834000SANDRYLLA LIBERATO DE SOUZA        5670            FXE118032025                                             
90010014834IZABELLE WANY LIBERATO BARBOSA     000000056703415081  00000000437104 5670                                                                                               
20010014842ROBERTO FERREIRA DE JESUS          000000056751830331234989758897                    250320250320FXE15675        198303312025032020250320        00000000000000000000    
50010014842ROBERTO FERREIRA DE JESUS          00000005675774675014842003JUDITE FERREIRA DE JESUS           5675            FXE120032025                                             
90010014842ROBERTO FERREIRA DE JESUS          000000056753410249  00000000279381 5675                                                                                               
20010014869KELLI CRISTINA DA SILVA DE PAULA   000000056732800526229163159856                    250320250320FXE15673        198005262025032020250320        00000000000000000000    
50010014869KELLI CRISTINA DA SILVA DE PAULA   00000005673774675014869006MARIA DO SOCORRO SILVA             5673            FXE120032025                                             
90010014869KELLI CRISTINA DA SILVA DE PAULA   000000056733416200  00000000043765 5673                                                                                               
20010014877TAMIRES BALANSUELO DOS SANTOS      000000056722920315140672129841                    250320250320FXE15672        199203152025032020250320        00000000000000000000    
50010014877TAMIRES BALANSUELO DOS SANTOS      00000005672774675014877009ONEIDE BALANSUELO DOS SANTOS       5672            FXE120032025                                             
90010014877TAMIRES BALANSUELO DOS SANTOS      000000056723418121  00000000104114 5672                                                                                               
20010014893ERIKA GUIMARAES DA SILVA           000000056642841221133066004821                    250311250311FXE15664        198412212025031120250311        00000000000000000000    
50010014893ERIKA GUIMARAES DA SILVA           00000005664774675014893006NEUZA BATISTA GUIMARAES            5664            FXE111032025                                             
90010014893ERIKA GUIMARAES DA SILVA           000000056643416368  00000000184971 5664                                                                                               
20010014923ISABELA MARIA DE JESUS CARVALHO    000000056742900118104342651521                    250320250320FXE15674        199001182025032020250320        00000000000000000000    
50010014923ISABELA MARIA DE JESUS CARVALHO    00000005674774675014923001ISABEL MARIA DE JESUS CARVALHO     5674            FXE120032025                                             
90010014923ISABELA MARIA DE JESUS CARVALHO    00000005674                        5674                                                                                               
20010014931LILIANE BARBOSA DO NASCIMENTO      000000056762880721135514224864                    250401250401FXE10005676     198807212025040120250401        00000000000000000000    
50010014931LILIANE BARBOSA DO NASCIMENTO      00000005676774675014931004MARIA SOCORRO BARBOSA NASCIMENTO   0005676         FXE101042025                                             
90010014931LILIANE BARBOSA DO NASCIMENTO      000000056763410072  00000000210453 0005676                                                                                            
20010014940SARAH ALICE LIMA DE ARAUJO         000000056772040129151844754863                    250401250401FXE10005677     200401292025040120250401        00000000000000000000    
50010014940SARAH ALICE LIMA DE ARAUJO         00000005677774675014940005GISELLI MANTOVANI LIMA             0005677         FXE101042025                                             
90010014940SARAH ALICE LIMA DE ARAUJO         000000056773413150  00000000494155 0005677                                                                                            
20010014958GABRIELLE CRISTINA DA SILVA        000000056812940106141337582859                    250403250403FXE10005681     199401062025040320250403        00000000000000000000    
50010014958GABRIELLE CRISTINA DA SILVA        00000005681774675014958007SONIA CRISTINA MAFRA DE OLIVEIRA   0005681         FXE103042025                                             
90010014958GABRIELLE CRISTINA DA SILVA        000000056813410764  00000000957890 0005681                                                                                            
20010014966RODRIGO BARBOZA DOS SANTO          000000056801870113235125387894                    250403250403FXQ20005680     198701132025040320250403        00000000000000000000    
50010014966RODRIGO BARBOZA DOS SANTO          00000005680774675014966000IVETE MARIA ROCHA DOS SANTOS       0005680         FXQ203042025                                             
90010014966RODRIGO BARBOZA DOS SANTO          000000056803410765  00000000109756 0005680                                                                                            
3001001496601THAMIRES PEREIRA SOUZA DOS SANTOS  9404282212504030005680     1994042820250403            000000000000000043067223845774675014966018ROSIMERI PEREIRA                   
20010014974DANIELLE VICTORIA CARLOS           000000056842940111142730072829                    250408250408FXE10005684     199401112025040820250408        00000000000000000000    
50010014974DANIELLE VICTORIA CARLOS           00000005684774675014974004IRENE CRISTINA CARLOS              0005684         FXE108042025                                             
90010014974DANIELLE VICTORIA CARLOS           000000056843416680  00000000116883 0005684                                                                                            
20010014982HANNA SALES BARBOSA DA SILVA       000000056832960507145441248831                    250408250408FXE10005683     199605072025040820250408        00000000000000000000    
50010014982HANNA SALES BARBOSA DA SILVA       00000005683774675014982007DIVA SALES DE OLIVEIRA SANTOS      0005683         FXE108042025                                             
90010014982HANNA SALES BARBOSA DA SILVA       000000056833412782  00000000280784 0005683                                                                                            
20010014990BLENDA EDUARDA DA SILVA RAMOS      000000056822020220136427499840                    250408250408FXE10005682     200202202025040820250408        00000000000000000000    
50010014990BLENDA EDUARDA DA SILVA RAMOS      00000005682774675014990000LIVIA GOMES DA SILVA               0005682         FXE108042025                                             
90010014990BLENDA EDUARDA DA SILVA RAMOS      000000056823418093  00000000499435 0005682                                                                                            
20010015008SANDRO PEIXOTO LISBOA              000000000051721017200662222733                    250401250401TNQ200005       197210172025040120250401        00000000000000000000    
50010015008SANDRO PEIXOTO LISBOA              00000000005774675015008000MARIA MARGARETE PEIXOTO LISBOA     00005           TNQ201042025                                             
90010015008SANDRO PEIXOTO LISBOA              000000000053413747  00000000071573 00005                                                                                              
3001001500801ANA PAULA DO PRADO                 77111622125040100005       1977111620250401            000000000000000002448982945774675015008018MARIA INES SCHMITZ PRADO           
20010015075MATHEUS SANTOS PEDROSO             000000056901950626141332193846                    250416250416FXE15690        199506262025041620250416        00000000000000000000    
50010015075MATHEUS SANTOS PEDROSO             00000005690774675015075009MARIA LUCIA DOS SANTOS PEDROSO     5690            FXE116042025                                             
90010015075MATHEUS SANTOS PEDROSO             00000005690                        5690                                                                                               
20010015083ALESSANDRA CRISTINA HENRIQUE       000000056892790529128708530840                    250416250416FXE15689        197905292025041620250416        00000000000000000000    
50010015083ALESSANDRA CRISTINA HENRIQUE       00000005689774675015083003WANDA LUCIA DE OLIVEIRA SILVA      5689            FXE116042025                                             
90010015083ALESSANDRA CRISTINA HENRIQUE       00000005689                        5689                                                                                               
20010015091ALFREDO WILSON DO CARMO            000000056911650818107723414862                    250416250416FXE15691        196508182025041620250416        00000000000000000000    
50010015091ALFREDO WILSON DO CARMO            00000005691774675015091006ADALGISA DE CAMPOS CARMO           5691            FXE116042025                                             
90010015091ALFREDO WILSON DO CARMO            00000005691                        5691                                                                                               
20010015113DANILO DA SILVA SOUSA              000000056851870904234932393865                    250415250415FXE15685        198709042025041520250415        00000000000000000000    
50010015113DANILO DA SILVA SOUSA              00000005685774675015113008VILMA MARIA DA SILVA DE SOUSA      5685            FXE115042025                                             
90010015113DANILO DA SILVA SOUSA              00000005685                        5685                                                                                               
20010015121BRENDA CAROLINA DA SILVA           000000056882990521148200827879                    250415250415FXE15688        199905212025041520250415        00000000000000000000    
50010015121BRENDA CAROLINA DA SILVA           00000005688774675015121001ANA CRISTINA DA SILVA              5688            FXE115042025                                             
90010015121BRENDA CAROLINA DA SILVA           00000005688                        5688                                                                                               
20010015130NATHAN CAVALCANTE FERREIRA         000000056861000302146649957844                    250415250415FXE15686        200003022025041520250415        00000000000000000000    
50010015130NATHAN CAVALCANTE FERREIRA         00000005686774675015130002MARIA ANGELICA BATISTA CAVALCANTE  5686            FXE115042025                                             
90010015130NATHAN CAVALCANTE FERREIRA         00000005686                        5686                                                                                               
20010015199JULIA SAMPAIO BAPTISTA             000000001962970506215491328731                    250414250414FXE1196         199705062025041420250414        00000000000000000000    
50010015199JULIA SAMPAIO BAPTISTA             00000000196774675015199007ANDREA VIEIRA SAMPAIO BAPTISTA     196             FXE114042025                                             
90010015199JULIA SAMPAIO BAPTISTA             00000000196                        196                                                                                                
20010015253ANA CECILIA FERNANDES SILVA COSTA  000000056922860123232751646867                    250506250506FXE1005692      198601232025050620250506        00000000000000000000    
50010015253ANA CECILIA FERNANDES SILVA COSTA  00000005692774675015253002MARIA DE FATIMA FERNANDES SILVA    005692          FXE106052025                                             
90010015253ANA CECILIA FERNANDES SILVA COSTA  000000056923416664  00000000291074 005692                                                                                             
20010015261BRUNA DE ASSIS OLIVEIRA            000000056942870422134189287814                    250506250506FXE1005694      198704222025050620250506        00000000000000000000    
50010015261BRUNA DE ASSIS OLIVEIRA            00000005694774675015261005FRANCISCA ASSIS SILVA OLIVEIRA     005694          FXE106052025                                             
90010015261BRUNA DE ASSIS OLIVEIRA            000000056943410237  00000000842109 005694                                                                                             
20010015270MARIA L FIGUEREDO LEANDRO SANTOS   000000056952760106230692650814                    250506250506FXE1005695      197601062025050620250506        00000000000000000000    
50010015270MARIA L FIGUEREDO LEANDRO SANTOS   00000005695774675015270006MARIA CARLOS DE FIGUEREDO          005695          FXE106052025                                             
90010015270MARIA L FIGUEREDO LEANDRO SANTOS   000000056953410152  00000000846473 005695                                                                                             
20010015288ARIANE CRISTINA DE OLIVEIRA ALMEIDA000000056962250506227489634822                    250506250506FXE1005696      202505062025050620250506        00000000000000000000    
50010015288ARIANE CRISTINA DE OLIVEIRA ALMEIDA00000005696774675015288008SUELI MORAES APOLINARIO DE OLIVEIRA005696          FXE106052025                                             
90010015288ARIANE CRISTINA DE OLIVEIRA ALMEIDA000000056963411145  00000000836647 005696                                                                                             
20010015296MARCOS AURELIO OLIVEIRA SANTOS     000000057061970727246425954817                    250506250506FXE1005706      199707272025050620250506        00000000000000000000    
50010015296MARCOS AURELIO OLIVEIRA SANTOS     00000005706774675015296001EDIRLENE OLIVEIRA SANTOS           005706          FXE106052025                                             
90010015296MARCOS AURELIO OLIVEIRA SANTOS     000000057063418774  00000000693637 005706                                                                                             
20010015300MARIA FERNANDA RANGEL SILVA CRUZ   000000056932001107250535658800                    250506250506FXE1005693      200011072025050620250506        00000000000000000000    
50010015300MARIA FERNANDA RANGEL SILVA CRUZ   00000005693774675015300001CRISTINA MORAES SILVA CRUZ         005693          FXE106052025                                             
90010015300MARIA FERNANDA RANGEL SILVA CRUZ   000000056933417585  00000000266278 005693                                                                                             
20010015318ALINE FERNANDES VIANA              000000056992031027257151224818                    250507250507FXE1005699      200310272025050720250507        00000000000000000000    
50010015318ALINE FERNANDES VIANA              00000005699774675015318003KARINA RODRIGUES ALVES VERDUM      005699          FXE107052025                                             
90010015318ALINE FERNANDES VIANA              000000056993410691  00000000946784 005699                                                                                             
20010015326SOPHIA PAULA DE ALMEIDA LIMA       000000056982070203157503698896                    250507250507FXE1005698      200702032025050720250507        00000000000000000000    
50010015326SOPHIA PAULA DE ALMEIDA LIMA       00000005698774675015326006SILMARA APARECIDA DE ALMEIDA PAULA 005698          FXE107052025                                             
90010015326SOPHIA PAULA DE ALMEIDA LIMA       000000056983417171  00000000309813 005698                                                                                             
20010015334AVA TARSILA RODRIGUES              000000057002040615110168863570                    250507250507FXE1005700      200406152025050720250507        00000000000000000000    
50010015334AVA TARSILA RODRIGUES              00000005700774675015334000ADRIANA SOUZA RODRIGUES            005700          FXE107052025                                             
90010015334AVA TARSILA RODRIGUES              000000057003410249  00000000295007 005700                                                                                             
20010015342MARIANNA PIETRA DUTRA DE SALES     000000057012070124154831052817                    250507250507FXE1005701      200701242025050720250507        00000000000000000000    
50010015342MARIANNA PIETRA DUTRA DE SALES     00000005701774675015342003MELISSA FADILA DUTRA               005701          FXE107052025                                             
90010015342MARIANNA PIETRA DUTRA DE SALES     000000057013417880  00000000155176 005701                                                                                             
20010015350MURILLO BORGES DOS SANTOS          000000057021060705154201021882                    250507250507FXE1005702      200607052025050720250507        00000000000000000000    
50010015350MURILLO BORGES DOS SANTOS          00000005702774675015350006MARIA APARECIDA BORGES DE CARVALHO 005702          FXE107052025                                             
90010015350MURILLO BORGES DOS SANTOS          000000057023412647  00000000199302 005702                                                                                             
20010015369ANDREAS SAMPAIO FERREIRA DE SOUSA  000000057031070310152939129843                    250507250507FXE1005703      200703102025050720250507        00000000000000000000    
50010015369ANDREAS SAMPAIO FERREIRA DE SOUSA  00000005703774675015369006EVELIN SAMPAIO BARBOSA             005703          FXE107052025                                             
90010015369ANDREAS SAMPAIO FERREIRA DE SOUSA  000000057033410173  00000000262056 005703                                                                                             
20010015377GABRIELLY JENNIFER FERNANDES ITO   000000057042061222159151343860                    250507250507FXE1005704      200612222025050720250507        00000000000000000000    
50010015377GABRIELLY JENNIFER FERNANDES ITO   00000005704774675015377009PAULA FERNANDES ANTONIO            005704          FXE107052025                                             
90010015377GABRIELLY JENNIFER FERNANDES ITO   000000057043419274  00000000681197 005704                                                                                             
20010015385GABRIELLA FREITAS DE BARROS        000000057052060624144669349830                    250507250507FXE1005705      200606242025050720250507        00000000000000000000    
50010015385GABRIELLA FREITAS DE BARROS        00000005705774675015385002ROSANA TIMOTEO DE FREITAS          005705          FXE107052025                                             
90010015385GABRIELLA FREITAS DE BARROS        000000057053417129  00000000475278 005705                                                                                             
20010015393ISABELLE ZAMPRONI DE FREITAS SANTOS000000056972061001155846534899                    250507250507FXE1005697      200610012025050720250507        00000000000000000000    
50010015393ISABELLE ZAMPRONI DE FREITAS SANTOS00000005697774675015393006ERICA ZAMPRONI DE FREITAS          005697          FXE107052025                                             
90010015393ISABELLE ZAMPRONI DE FREITAS SANTOS000000056973418774  00000000622263 005697                                                                                             
20010015474VINICIUS MONTEIRO DE MORAES        000000057071931220141355986842                    250515250515FXE1005707      199312202025051520250515        00000000000000000000    
50010015474VINICIUS MONTEIRO DE MORAES        00000005707774675015474004ROSALINA M SILVA MONTEIRO MORAES   005707          FXE115052025                                             
90010015474VINICIUS MONTEIRO DE MORAES        000000057073410287  00000000887855 005707                                                                                             
20010015482FABRICIA INACIO COELHO             000000057082930103206653124401                    250515250515FXE1005708      199301032025051520250515        00000000000000000000    
50010015482FABRICIA INACIO COELHO             00000005708774675015482007INACIA ABRANTES LEITE INACIO       005708          FXE115052025                                             
90010015482FABRICIA INACIO COELHO             000000057083410062  00000000354881 005708                                                                                             
20010015490GABRIELLY DUARTE SANTOS            000000057102010815150767795857                    250520250520FXE1005710      200108152025052020250520        00000000000000000000    
50010015490GABRIELLY DUARTE SANTOS            00000005710774675015490000ANAILDES DUARTE MAIA               005710          FXE120052025                                             
90010015490GABRIELLY DUARTE SANTOS            000000057100333103  00000010958325 005710                                                                                             
20010015563CRISTINA C KAPAMADJIAN RODOLPHO    000000057122800122227788969885                    250603250603FXE1005712      198001222025060320250603        00000000000000000000    
50010015563CRISTINA C KAPAMADJIAN RODOLPHO    00000005712774675015563004CONCETTA CIMMINIELLO KAPAMADJIAN   005712          FXE103062025                                             
90010015563CRISTINA C KAPAMADJIAN RODOLPHO    000000057123418170  00000000238169 005712                                                                                             
20010015571DEREK HENRIQUE LINO DA SILVA       000003023201040330149146406867                    250603250603FXE1302320      200403302025060320250603        00000000000000000000    
50010015571DEREK HENRIQUE LINO DA SILVA       00000302320774675015571007OCIANE GOMES DA SILVA              302320          FXE103062025                                             
90010015571DEREK HENRIQUE LINO DA SILVA       000003023202600001  00000176133467 302320                                                                                             
20010015601NOEMI SOARES DOS SANTOS            000000057132790530129657154871                    250603250603FXE1005713      197905302025060320250603        00000000000000000000    
50010015601NOEMI SOARES DOS SANTOS            00000005713774675015601002CLEUSA SOARES DOS SANTOS           005713          FXE103062025                                             
90010015601NOEMI SOARES DOS SANTOS            000000057133410210  00000000052726 005713                                                                                             
20010015717CAMILA DA SILVA IRIAS              000000008762890601137290751876                    250616250616FXE10876        198906012025061620250616        00000000000000000000    
50010015717CAMILA DA SILVA IRIAS              00000000876774675015717006EDLEUZA MARIA DA SILVA IRIAS       0876            FXE116062025                                             
90010015717CAMILA DA SILVA IRIAS              00000000876                        0876                                                                                               
20010015792LUCAS PEREIRA DOS SANTOS           000000058181980709143463171899                    250708250708FXE105818       199807092025070820250708        00000000000000000000    
50010015792LUCAS PEREIRA DOS SANTOS           00000005818774675015792009GILZA MACENA DOS SANTOS            05818           FXE108072025                                             
90010015792LUCAS PEREIRA DOS SANTOS           0000000581823717566 00000000031259 05818                                                                                              
20010015806MICHELLE MARTINS BARBOSA           000000057162870120134072068870                    250701250701FXE105716       198701202025070120250701        00000000000000000000    
50010015806MICHELLE MARTINS BARBOSA           00000005716774675015806007NEULI FERREIRA BARBOSA             05716           FXE101072025                                             
90010015806MICHELLE MARTINS BARBOSA           000000057163412000  00000000568473 05716                                                                                              
20010015814PATRICIA MARQUES NUNES DA SILVA    000000056152880820236485135839                    250701250701FXE105615       198808202025070120250701        00000000000000000000    
50010015814PATRICIA MARQUES NUNES DA SILVA    00000005615774675015814001EDNA MARQUES NUNES DE LIMA         05615           FXE101072025                                             
90010015814PATRICIA MARQUES NUNES DA SILVA    000000056153412395  00000000204973 05615                                                                                              
20010015822ROMULO RIBEIRO SANTOS              000000057171980512248824675859                    250708250708FXE105717       199805122025070820250708        00000000000000000000    
50010015822ROMULO RIBEIRO SANTOS              00000005717774675015822004ELIZABETE MAURICIA DOS SANTOS      05717           FXE108072025                                             
90010015822ROMULO RIBEIRO SANTOS              000000057173410368  00000000905626 05717                                                                                              
20010015920ALINE LOPES FERNANDES              000000050192910222139312732889                    250715250715FXE100005019    199102222025071520250715        00000000000000000000    
50010015920ALINE LOPES FERNANDES              00000005019774675015920006MARGARIDA LOPES FERNANDES          00005019        FXE115072025                                             
90010015920ALINE LOPES FERNANDES              000000050193417451  00000000533165 00005019                                                                                           
20010015989TAYANA SANTOS DE ARAUJO            000000057202021011149688320870                    250717250717FXE1000005720   200210112025071720250717        00000000000000000000    
50010015989TAYANA SANTOS DE ARAUJO            00000005720774675015989001MARIA LOURDES CONCEICAO SANTOS     000005720       FXE117072025                                             
90010015989TAYANA SANTOS DE ARAUJO            000000057203410572  00000000509156 000005720                                                                                          
20010015997NICOLLY COSTA SANTOS DO VALE       000000057232030710151944640886                    250722250722FXE1000005723   200307102025072220250722        00000000000000000000    
50010015997NICOLLY COSTA SANTOS DO VALE       00000005723774675015997004SIMONE COSTA BARREIRO              000005723       FXE122072025                                             
90010015997NICOLLY COSTA SANTOS DO VALE       000000057233416511  00000000591817 000005723                                                                                          
20010016004JESSICA LYBHU WONG                 000000057222900920140443766894                    250722250722FXE1000005722   199009202025072220250722        00000000000000000000    
50010016004JESSICA LYBHU WONG                 00000005722774675016004008LORECI GOMES DE MORAES             000005722       FXE122072025                                             
90010016004JESSICA LYBHU WONG                 000000057223417207  00000000827564 000005722                                                                                          
20020000035RICARDO BANAX JUNQUEIRA            000000000001720430211087022878SOCIO GERENTE       121101190701FXE1000000000005197204302012110120190701        20210701000000000000    
50020000035RICARDO BANAX JUNQUEIRA            00000000000774675000035000IZABEL BANAX JUNQUEIRA             000000000005    FXE101072019                                             
90020000035RICARDO BANAX JUNQUEIRA            000000000003418089  00000000041886 000000000005                                                                                       
3002000003501MARGAREH RODRIGUES BANAX JUNQUEIRA 7209212212307170000000000051972092120230717            000000000000000010426834844774675000035018ADELIA SALGADO BARBOSA             
3002000003502JUAN RODRIGUES BANAX JUNQUEIRA     0309051122307170000000000052003090520230717            000000000000000043914717874774675000035026MARGAREH RODRIGUES BANAX JUNQUEIRA 
3002000003503STHEFANY RODRIGUES BANAX JUNQUEIRA 0804192122307170000000000052008041920230717            000000000000000047939854836774675000035034MARGAREH RODRIGUES BANAX JUNQUEIRA 
20020000620CLAUDIA HONORIO DE MIRA            000000042662750819321633828859GERENTE PROJETOS CON060216190701TNQ2000000004266197508192006021620190701        20210701000000000000    
50020000620CLAUDIA HONORIO DE MIRA            00000004266774675000620009MARIA TOBIAS DE MIRA               000000004266    TNQ201072019                                             
90020000620CLAUDIA HONORIO DE MIRA            0000000426623717434 00000002610787 000000004266                                                                                       
20020001040LEANDRO MARTINS DOS SANTOS         000000045291861126134320428846ASSISTENTE FINANCEIR111205190701FXE1000000004529198611262011120520190701        20210701000000000000    
50020001040LEANDRO MARTINS DOS SANTOS         00000004529774675001040009SEBASTIANA ROSARIO MARTINS SANTOS  000000004529    FXE101072019                                             
90020001040LEANDRO MARTINS DOS SANTOS         000000045293410237  00000000082623 000000004529                                                                                       
20020002976FELIPE CYPRIANO DE ALMEIDA ARRUDA  000000050341850117131636378846ANALISTA COMERCIAL S181101190701FXE1000000005034198501172018110120190701        20210701000000000000    
50020002976FELIPE CYPRIANO DE ALMEIDA ARRUDA  00000005034774675002976003ELIZABETH S C ALMEIDA ARRUDA       000000005034    FXE101072019                                             
90020002976FELIPE CYPRIANO DE ALMEIDA ARRUDA  000000050343410180  00000000554560 000000005034                                                                                       
20020004081ALINE CAMPOS OLIVEIRA DIONATO      000000051202980812145518093810ASSISTENTE          190805190820FXE15120        199808122019080520190820        20210701000000000000    
50020004081ALINE CAMPOS OLIVEIRA DIONATO      00000005120774675004081000MARIA I CAMPOS OLIVEIRA DIONATO    5120            FXE120082019                                             
90020004081ALINE CAMPOS OLIVEIRA DIONATO      000000051203418161  00000000113231 5120                                                                                               
20020004804DAMARYS VICTORIA PAULO DE SOUSA    000000051472020226152559499819                    200122200130FXE15147        200202262020012220200130        20210701000000000000    
50020004804DAMARYS VICTORIA PAULO DE SOUSA    00000005147774675004804005DAMIANA PAULO DOS SANTOS           5147        FXQ2FXE130012020                                             
90020004804DAMARYS VICTORIA PAULO DE SOUSA    000000051473360001  00000016134320 5147                                                                                               
20020006270KETLYN D ARAUJO TEODORO MENESES    000000000812871119236724873843ASSISTENTE II       210211210211FXE181          198711192021021120210211        20210701000000000000    
50020006270KETLYN D ARAUJO TEODORO MENESES    00000000081774675006270007MARISA BATISTA DE ARAUJO           81              FXE111022021                                             
90020006270KETLYN D ARAUJO TEODORO MENESES    000000000813419333  00000000148154 81                                                                                                 
3002000627001ARTHUR TEODORO DE MENESES          83010512123020881          1983010520230208            000000000000000031087910870774675006270015DIVA TEODORO DE MENESES            
20020008761VIVIANE OLIVEIRA PEREIRA DOS SANTOS000000053802930823140986352837                    220316220316FXE15380        199308232022031620220316        00000000000000000000    
50020008761VIVIANE OLIVEIRA PEREIRA DOS SANTOS00000005380774675008761003CLEIDOMAR DAS GRACAS SILVA OLIVEIRA5380            FXE116032022                                             
90020008761VIVIANE OLIVEIRA PEREIRA DOS SANTOS000000053803419892  00000000190910 5380                                                                                               
20020009130NATASHA PINTO VIEIRA               000000054082990812141569168806AUXILIAR FINANCEIRO 220512220512FXE15408        199908122022051220220512        00000000000000000000    
50020009130NATASHA PINTO VIEIRA               00000005408774675009130000VALDERETE RAMOS PINTO              5408            FXE112052022                                             
90020009130NATASHA PINTO VIEIRA               000000054083417283  00000000126022 5408                                                                                               
20020010847SOLANGE FERREIRA DA SILVA          000000001362720205214704707806SUPERVISOR FISCAL   230410230410FXE1136         197202052023041020230410        00000000000000000000    
50020010847SOLANGE FERREIRA DA SILVA          00000000136774675010847006PERPETUA BELARMINA DA SILVA        136             FXE110042023                                             
90020010847SOLANGE FERREIRA DA SILVA          000000001363417471  00000000386628 136                                                                                                
20020011193ANA PAULA BRAGA                    000000055252931117141030875871CONSULTORA PROJETOS 230522230522FXE15525        199311172023052220230522        00000000000000000000    
50020011193ANA PAULA BRAGA                    00000005525774675011193004JOAQUINA BARRETO BRAGA             5525            FXE122052023                                             
90020011193ANA PAULA BRAGA                    000000055253410237  00000000817119 5525                                                                                               
20020015415MARCIA VANIA DE MORAES THOMAZ      000000022002710419280421300906                    250513250513FXE1002200      197104192025051320250513        00000000000000000000    
50020015415MARCIA VANIA DE MORAES THOMAZ      00000002200774675015415007ANTONIA SILVA DE MORAES            002200          FXE113052025                                             
90020015415MARCIA VANIA DE MORAES THOMAZ      000000022003411165  00000000124296 002200                                                                                             
20020015580KARINE DE OLIVEIRA ANDRADE         000000000232941117142872177809                    240604250604FXE1000023      199411172024060420250604        00000000000000000000    
50020015580KARINE DE OLIVEIRA ANDRADE         00000000023774675015580008JOSEFA PRAXEDES DE OLIVEIRA        000023          FXE104062025                                             
90020015580KARINE DE OLIVEIRA ANDRADE         000000000233410551  00000000913676 000023                                                                                             
20020016020MARIA G RODRIGUES SANTOS SILVA     000000000242861110134828667830                    250722250722FXE10000024     198611102025072220250722        00000000000000000000    
50020016020MARIA G RODRIGUES SANTOS SILVA     00000000024774675016020004JOSEFA SANTOS RODRIGUES SILVA      0000024         FXE122072025                                             
90020016020MARIA G RODRIGUES SANTOS SILVA     00000000024                        0000024                                                                                            
20030000213JOSE ROBERTO FERNANDES             000000000001760524215379958800CONTADOR B          160105190701FXE1000000000032197605242016010520190701        20210701000000000000    
50030000213JOSE ROBERTO FERNANDES             00000000000774675000213003AIDE DE MATOS FERNANDES            000000000032    FXE101072019                                             
90030000213JOSE ROBERTO FERNANDES             000000000003418089  00000000044195 000000000032                                                                                       
3003000021301CARMEM MARTINS FERNANDES           8510062211907010000000000321985100620190701            202107010000000033294693826774675000213011VERA LUCIA PEIXOTO DA SILVA        
3003000021302GUILHERME MARTINS FERNANDES        1301261121907010000000000322013012620190701            202107010000000048147987846774675000213029CARMEM DE BETANIA FARIAS DE MARTINS
3003000021303FERNANDO MARTINS FERNANDES         1911181121911180000000000322019111820191118            202107010000000057937679832774675000213037CARMEM B FARIAS MARTINS FERNANDES  
20030000280LUCILENE ANDRADE DOS SANTOS        000000000002810516222002690804ASSISTENTE FISCAL C 190204190701FXE1000000000044198105162019020420190701        20210701000000000000    
50030000280LUCILENE ANDRADE DOS SANTOS        00000000000774675000280002MARIA DALVA DE ANDRADE PEREIRA     000000000044    FXE101072019                                             
90030000280LUCILENE ANDRADE DOS SANTOS        000000000003410237  00000000823513 000000000044                                                                                       
20030000299VINICIUS HENRIQUE SANTOS CORREA    000000000001991111148711465883ASSISTENTE FISCAL C 190408190701FXE1000000000045199911112019040820190701        20210701000000000000    
50030000299VINICIUS HENRIQUE SANTOS CORREA    00000000000774675000299002THAYS DA SILVA SANTOS              000000000045    FXE101072019                                             
90030000299VINICIUS HENRIQUE SANTOS CORREA    000000000003410695  00000000187955 000000000045                                                                                       
20030000370MARCOS MARQUES DE ARAUJO           000000000001711106212677267845SOCIO GERENTE       160201190701TNQ2000000000500197111062016020120190701        20210701000000000000    
50030000370MARCOS MARQUES DE ARAUJO           00000000000774675000370001GERTRUDES RODRIGUES DOS SANTOS     000000000500    TNQ201072019                                             
90030000370MARCOS MARQUES DE ARAUJO           000000000003413763  00000000048323 000000000500                                                                                       
3003000037001ROSANA MORELLI MARQUES DE ARAUJO   6711252211907010000000005001967112520190701            202107010000000010556313801774675000370019ELZA CASAGRANDE MORELLI            
20030003514ALICE MORET                        000000000002691217114860124855SUPERVISOR FISCAL A 160111190701FXE1000000000033196912172016011120190701        20210701000000000000    
50030003514ALICE MORET                        00000000000774675003514001MARIA APARECIDA MORET              000000000033    FXE101072019                                             
90030003514ALICE MORET                        000000000003418089  00000000213089 000000000033                                                                                       
20030003522THAYS DA SILVA SANTOS              000000000002790621128689855807SUPER DEPART P A    130429190701FXE100000000015A197906212013042920190701        20210701000000000000    
50030003522THAYS DA SILVA SANTOS              00000000000774675003522004EDITE GOMES DA SILVA SANTOS        00000000015A    FXE101072019                                             
90030003522THAYS DA SILVA SANTOS              000000000003418089  00000000272556 00000000015A                                                                                       
20030004278DANIELA MEDINA                     000000000432960810123050324805ASSISTENTE DEPTO P C181217190901FXE143          199608102018121720190901        20210701000000000000    
50030004278DANIELA MEDINA                     00000000043774675004278002ELIZABETH APARECIDA RUIZ           43              FXE101092019                                             
90030004278DANIELA MEDINA                     000000000433410551  00000000339062 43                                                                                                 
20030005622GUSTAVO JESUS PALERMO ROSAS        000000000581001122150015716856AUXILIAR DEP FI C   200811200811FXE158          200011222020081120200811        20210701000000000000    
50030005622GUSTAVO JESUS PALERMO ROSAS        00000000058774675005622000LETICIA REGINA PALERMO             58              FXE111082020                                             
90030005622GUSTAVO JESUS PALERMO ROSAS        000000000583410237  00000000868120 58                                                                                                 
20030005649JACKSON DA SILVA SANTOS            000000000591810417130272150860AUXILIAR CONTABIL D 200812200812FXE159          198104172020081220200812        20210701000000000000    
50030005649JACKSON DA SILVA SANTOS            00000000059774675005649003CREUZA DA SILVA SANTOS             59              FXE112082020                                             
90030005649JACKSON DA SILVA SANTOS            000000000593410682  00000000421276 59                                                                                                 
20030005657JEANE PEREIRA SANTOS               000000000602920502142373613816ASSIS CONTABIL C    200812200812FXE160          199205022020081220200812        20210701000000000000    
50030005657JEANE PEREIRA SANTOS               00000000060774675005657006MARIA HELENA PEREIRA               60              FXE112082020                                             
90030005657JEANE PEREIRA SANTOS               000000000603413171  00000000157732 60                                                                                                 
20030007625ERIKA ALESSANDRA KONDOR CLORADO    000000000702870709234722371806AUXILIAR DEP F C    211013211013FXE10070        198707092021101320211013        00000000000000000000    
50030007625ERIKA ALESSANDRA KONDOR CLORADO    00000000070774675007625001MARIA DO SOCORRO DAS DORES KONDOR  0070            FXE113102021                                             
90030007625ERIKA ALESSANDRA KONDOR CLORADO    000000000703410237  00000000896634 0070                                                                                               
20030008281KARINA BELINE MARATAO              000000000722940925140453300898AUXILIAR ADM A      220126220126FXE10072        199409252022012620220126        00000000000000000000    
50030008281KARINA BELINE MARATAO              00000000072774675008281002ANDREA APARECIDA BELINE            0072            FXE126012022                                             
90030008281KARINA BELINE MARATAO              000000000723413145  00000000217455 0072                                                                                               
20030009393JULIA MORAES SILVA                 000000000732040528150864352859AUXILIAR ADM C      220704220704FXE10073        200405282022070420220704        00000000000000000000    
50030009393JULIA MORAES SILVA                 00000000073774675009393004MARIA ILZA DE MORAES               0073            FXE104072022                                             
90030009393JULIA MORAES SILVA                 000000000733410237  00000000921465 0073                                                                                               
20030009407EMILIA PIRES DOS ANJOS             000000000742790814127689903886AUX DEP FISCAL A    220711220711FXE1074         197908142022071120220711        00000000000000000000    
50030009407EMILIA PIRES DOS ANJOS             00000000074774675009407002IARA PIRES DOS ANJOS               074             FXE111072022                                             
90030009407EMILIA PIRES DOS ANJOS             000000000743417908  00000000330181 074                                                                                                
20030009806PAULO R PEREIRA CAIXEIRO MONTEIRO  000000000751870225236463424803TECNICO SUP TI      220905220905FXE10075        198702252022090520220905        00000000000000000000    
50030009806PAULO R PEREIRA CAIXEIRO MONTEIRO  00000000075774675009806005JUREMA A PEREIRA CAIXEIRO MONTEIRO 0075            FXE105092022                                             
90030009806PAULO R PEREIRA CAIXEIRO MONTEIRO  000000000753418089  00000000104361 0075                                                                                               
20030010367JOAO VITOR EDUARDO DE JESUS BORGES 000000000771020327152404008811AUXILIAR CONTABIL D 230103230103FXE10077        200203272023010320230103        00000000000000000000    
50030010367JOAO VITOR EDUARDO DE JESUS BORGES 00000000077774675010367005ELIANE DE JESUS                    0077            FXE103012023                                             
90030010367JOAO VITOR EDUARDO DE JESUS BORGES 000000000773410079  00000000144689 0077                                                                                               
20030010510LARISSA DOS SANTOS DO NASCIMENTO   000000001562991003147576270845AUXILIAR DEPTO P A  221003230201FXE10156        199910032022100320230201        00000000000000000000    
50030010510LARISSA DOS SANTOS DO NASCIMENTO   00000000156774675010510000MARIA APARECIDA DOS SANTOS         0156            FXE101022023                                             
90030010510LARISSA DOS SANTOS DO NASCIMENTO   000000001563410237  00000000906706 0156                                                                                               
20030013099GUSTAVO CARVALHO MERCES PINERES    000000008701010611250098263803                    240401240401FXE1870         200106112024040120240401        00000000000000000000    
50030013099GUSTAVO CARVALHO MERCES PINERES    00000000870774675013099001CASSIA PEREIRA DE CARVALHO PINERES 870             FXE101042024                                             
90030013099GUSTAVO CARVALHO MERCES PINERES    000000008703416404  00000000469402 870                                                                                                
20030013102NATHALIA CAROLINA DA SILVA SOUZA   000000008602990108242487104805                    240401240401FXE1860         199901082024040120240401        00000000000000000000    
50030013102NATHALIA CAROLINA DA SILVA SOUZA   00000000860774675013102003SILVANA DA SILVA SOUZA             860             FXE101042024                                             
90030013102NATHALIA CAROLINA DA SILVA SOUZA   000000008603417207  00000000577169 860                                                                                                
20030013641FABIO ALCANTARA SOUSA              000000088001750214216698499889                    240812240812FXE1008800      197502142024081220240812        00000000000000000000    
50030013641FABIO ALCANTARA SOUSA              00000008800774675013641000ANGELITA ALEXANDRE GOMES DA ROCHA  008800          FXE112082024                                             
90030013641FABIO ALCANTARA SOUSA              000000088003418089  00000000041019 008800                                                                                             
20030014583MATHEUS HENRIQUE MENDES DE SOUZA   000000000891010409236279686892                    250210250210FXE100089       200104092025021020250210        00000000000000000000    
50030014583MATHEUS HENRIQUE MENDES DE SOUZA   00000000089774675014583003ROSANA MENDES DOS SANTOS SOUZA     00089           FXE110022025                                             
90030014583MATHEUS HENRIQUE MENDES DE SOUZA   000000000893416754  00000000022629 00089                                                                                              
20030014621YURI SANCHEZ MAZZA                 000000000941060306154410230824                    250217250217FXE1000094      200603062025021720250217        00000000000000000000    
50030014621YURI SANCHEZ MAZZA                 00000000094774675014621001ALDAISA SANCHEZ MAZZA              000094          FXE117022025                                             
90030014621YURI SANCHEZ MAZZA                 000000000943416748  00000000532980 000094                                                                                             
20030014630GABRIELA TAVARES DA SILVA          000000000932001114148442204890                    250217250217FXE1000093      200011142025021720250217        00000000000000000000    
50030014630GABRIELA TAVARES DA SILVA          00000000093774675014630002ROSEMEIRE TAVARES DA CUNHA         000093          FXE117022025                                             
90030014630GABRIELA TAVARES DA SILVA          000000000933410079  00000000194536 000093                                                                                             
20030014702GABRIELLA LIMA SILVA               000000000952930520142465307860                    250303250303FXE1000095      199305202025030320250303        00000000000000000000    
50030014702GABRIELLA LIMA SILVA               00000000095774675014702009MARIA LUCIA DE LIMA SILVA          000095          FXE103032025                                             
90030014702GABRIELLA LIMA SILVA               000000000953418089  00000000144961 000095                                                                                             
20030014761JULIANA CORREA                     000000330612851107133667622848                    250310250310FXE133061       198511072025031020250310        00000000000000000000    
50030014761JULIANA CORREA                     00000033061774675014761005CREUSA APARECIDA CORREA            33061           FXE110032025                                             
90030014761JULIANA CORREA                     00000033061                        33061                                                                                              
20030014796DEBORA DE SOUZA SANTOS             000000387952980526147562547807                    250401250401FXE138795       199805262025040120250401        00000000000000000000    
50030014796DEBORA DE SOUZA SANTOS             00000038795774675014796001IZANETE FERNANDES DE SOUZA LEMES   38795           FXE101042025                                             
90030014796DEBORA DE SOUZA SANTOS             000000387953411016  00000000779629 38795                                                                                              
20030015458DALVACI DE ANDRADE PEREIRA         000000525792781126127789011839                    250519250519FXE1052579      197811262025051920250519        00000000000000000000    
50030015458DALVACI DE ANDRADE PEREIRA         00000052579774675015458007MARIA DALVA DE ANDRADE PEREIRA     052579          FXE119052025                                             
90030015458DALVACI DE ANDRADE PEREIRA         000000525793417435  00000000364018 052579                                                                                             
20030015547GEOVANA APARECIDA DE ARAUJO        000000527222021215150388787848                    250602250602FXE152722       200212152025060220250602        00000000000000000000    
50030015547GEOVANA APARECIDA DE ARAUJO        00000052722774675015547007ROSANA APARECIDA ROSA              52722           FXE102062025                                             
90030015547GEOVANA APARECIDA DE ARAUJO        000000527223412307  00000000137683 52722                                                                                              
20030015628ANDRESSA QUIRINO DA SILVA          000000548132930723140912569883                    250609250609FXE154813       199307232025060920250609        00000000000000000000    
50030015628ANDRESSA QUIRINO DA SILVA          00000054813774675015628005MIRIAM FERREIRA SILVA              54813           FXE109062025                                             
90030015628ANDRESSA QUIRINO DA SILVA          000000548133417129  00000000154410 54813                                                                                              
20030015687BRUNA CENATTI CHEMELLO             000000583112891107239215818855                    250616250616FXE158311       198911072025061620250616        00000000000000000000    
50030015687BRUNA CENATTI CHEMELLO             00000058311774675015687001CELIA REGINA CENATTI               58311           FXE116062025                                             
90030015687BRUNA CENATTI CHEMELLO             000000583113410764  00000000941233 58311                                                                                              
20030015741IZA C FRANCISCA AMORIM FERNANDES   000000583622940320242542900809                    250623250623FXE158362       199403202025062320250623        00000000000000000000    
50030015741IZA C FRANCISCA AMORIM FERNANDES   00000058362774675015741006VALDIRA FRANCISCA DE AMORIM        58362           FXE123062025                                             
90030015741IZA C FRANCISCA AMORIM FERNANDES   000000583623410211  00000000452404 58362                                                                                              
20030015768LETICIA PATRICIA MELO FONTELES     000000585392010904150286887886                    250701250701FXE158539       200109042025070120250701        00000000000000000000    
50030015768LETICIA PATRICIA MELO FONTELES     00000058539774675015768009JOSYANE KERLA MELO PEREIRA         58539           FXE101072025                                             
90030015768LETICIA PATRICIA MELO FONTELES     000000585393411618  00000000320434 58539                                                                                              
20030015776NOEMI AVELINO DUARTE               000000585472081226145248045878                    250701250701FXE158547       200812262025070120250701        00000000000000000000    
50030015776NOEMI AVELINO DUARTE               00000058547774675015776002MIRIAM AVELINO                     58547           FXE101072025                                             
90030015776NOEMI AVELINO DUARTE               000000585473416754  00000000022496 58547                                                                                              
20030015903ALINE SANTOS MERGULHAO SILVA       000000590062900214238811541832                    250714250714FXE1059006      199002142025071420250714        00000000000000000000    
50030015903ALINE SANTOS MERGULHAO SILVA       00000059006774675015903002JOSELITA TEIXEIRA SANTOS MERGULHAO 059006          FXE114072025                                             
90030015903ALINE SANTOS MERGULHAO SILVA       000000590060330331  00000010921183 059006                                                                                             
20030015954ALANA CAROLINE FIGUEIRA DE SOUZA   000000592072010907103996680201                    250721250721FXE159207       200109072025072120250721        00000000000000000000    
50030015954ALANA CAROLINE FIGUEIRA DE SOUZA   00000059207774675015954005ROSEANE DA SILVA FIGUEIRA          59207           FXE121072025                                             
90030015954ALANA CAROLINE FIGUEIRA DE SOUZA   000000592073417633  00000000260695 59207                                                                                              
20030015962THAINA RAMOS GUERRA                000000594872020326151897078811                    250721250721FXE159487       200203262025072120250721        00000000000000000000    
50030015962THAINA RAMOS GUERRA                00000059487774675015962008SANDRA RAMOS MACIEL                59487           FXE121072025                                             
90030015962THAINA RAMOS GUERRA                000000594873410622  00000000920460 59487                                                                                              
20040000094MARIO HENRIQUE CARLI               000000000141880720122984965876CONSULTOR DE AUDITOR181105190701FXE1000000000014198807202018110520190701        20210701000000000000    
50040000094MARIO HENRIQUE CARLI               00000000014774675000094007GISLENE FERREIRA DE LIMA           000000000014    FXE101072019                                             
90040000094MARIO HENRIQUE CARLI               000000000143410757  00000000779061 000000000014                                                                                       
20040000361PAMELA DA SILVA                    000000000202870321236231650855AUDITOR JR          190211190701FXE100000000020B198703212019021120190701        20210701000000000000    
50040000361PAMELA DA SILVA                    00000000020774675000361000VILMA APARECIDA COSTA DA SILVA     00000000020B    FXE101072019                                             
90040000361PAMELA DA SILVA                    000000000203410237  00000000823398 00000000020B                                                                                       
20040003832VANIA PEREIRA MUZEL                000000000272701208212751008801                    190601190710TNQ227          197012082019060120190710        20210701000000000000    
50040003832VANIA PEREIRA MUZEL                00000000027774675003832007OLIVIA PEREIRA MUZEL               27              TNQ210072019                                             
90040003832VANIA PEREIRA MUZEL                0000000002700103832 00000000418617 27                                                                                                 
20040005150RENATA FREGUGLIA DARE              000000000042790206427795777899DIRETOR TRIBUTARIO E070928200701TNQ2000000000004197902062007092820200701        20210701000000000000    
50040005150RENATA FREGUGLIA DARE              00000000004774675005150002LUIZA HELENA FREGUGLIA DARE        000000000004    TNQ201072020                                             
60040005150RENATA FREGUGLIA DARE              00000000004                                                                                0000000000012857234777                     
90040005150RENATA FREGUGLIA DARE              000000000043417054  00000000184655 000000000004                                                                                       
3004000515001HENRIQUE DARE CUNHA                2106011122106010000000000042021060120210601            202107010000000059400708840774675005150010RENATA FREGUGLIA DARE              
20040005320RUY LUIZ DE PAULA                  000000000111750331226320475870DIRETOR DE AUDIENCIA130318200701TNQ2000000009011197503312013031820200701        20210701000000000000    
50040005320RUY LUIZ DE PAULA                  00000000011774675005320001RUTH DE PAULA                      000000009011    TNQ201072020                                             
60040005320RUY LUIZ DE PAULA                  00000000011                                                                                0000000000012894226812                     
90040005320RUY LUIZ DE PAULA                  000000000113416549  00000000054259 000000009011                                                                                       
3004000532001MAYARA MEDEIROS MIUSSI DE PAULA    8808222212007010000000090111988082220200701            202107010000000036271644821774675005320019MARIA APARECIDA MEDEIROS MIUSSI    
20040005339RAFAEL SILVA LOBO                  000000000121901211236816257863GERENTE TRIBUTARIO  130502200701TNQ2000000009012199012112013050220200701        20210701000000000000    
50040005339RAFAEL SILVA LOBO                  00000000012774675005339001MARIA NEUSA SILVA LOBO             000000009012    TNQ201072020                                             
60040005339RAFAEL SILVA LOBO                  00000000012                                                                                0000000000020790001513                     
90040005339RAFAEL SILVA LOBO                  000000000123418170  00000000155116 000000009012                                                                                       
20040005355FERNANDO DE SOUSA                  000000000141880724436667165806SUPERVISOR TRABALHIS190701200701FXQ2000000009014198807242019070120200701        20210701000000000000    
50040005355FERNANDO DE SOUSA                  00000000014774675005355007ELENITA CONCEICAO DE SOUSA         000000009014    FXQ201072020                                             
60040005355FERNANDO DE SOUSA                  00000000014                                                                                0000000000020346408614                     
90040005355FERNANDO DE SOUSA                  000000000143410073  00000000109662 000000009014                                                                                       
3004000535501JESSICA SILVA DE SOUSA             9506072222102100000000090141995060720210210            202107010000000005307020376774675005355015GRACIOSA HERMINA DA SILVA CARVALHO 
3004000535502VITOR DE SOUSA                     2212111122212110000000090142022121120221211            000000000000000060678910855774675005355023JESSICA SILVA DE SOUSA             
20040005371CARLOS ALBERTO FARIA               000000000281620419203664258894SUPERVISOR CONTROLES160701200701FXQ2000000009028196204192016070120200701        20210701000000000000    
50040005371CARLOS ALBERTO FARIA               00000000028774675005371004EUDOXIA PIETRONI FARIA             000000009028    FXQ201072020                                             
60040005371CARLOS ALBERTO FARIA               00000000028                                                                                0000000000010772097256                     
90040005371CARLOS ALBERTO FARIA               000000000283416956  00000000028937 000000009028                                                                                       
3004000537101FERNANDA DA CRUZ FARIA             0311232122007010000000090282003112320200701            202107010000000052807737862774675005371012SANDRA DA CRUZ FARIA               
3004000537102SANDRA DA CRUZ FARIA               7404192212007010000000090281974041920200701            202107010000000014829935898774675005371020EDITH COSMO DA CRUZ                
20040006106CAMILA SANTANA MARANGONI           000000000802910217138840819851C TRIBUTARIA        210121210121FXE180          199102172021012120210121        20210701000000000000    
50040006106CAMILA SANTANA MARANGONI           00000000080774675006106003MARIA DA GLORIA SANTANA MARANGONI  80              FXE121012021                                             
90040006106CAMILA SANTANA MARANGONI           000000000803410383  00000000265311 80                                                                                                 
20040007897MONISE MENDONCA                    000000000952871109136920168839CONSULTOR SENIOR    211122211122FXE195          198711092021112220211122        00000000000000000000    
50040007897MONISE MENDONCA                    00000000095774675007897006ELAINE APARECIDA MIRANDA MENDONCA  95              FXE122112021                                             
90040007897MONISE MENDONCA                    000000000953411669  00000000433011 95                                                                                                 
20040008559TIAGO FERREIRA DOS SANTOS ALMANI   000000000981790903128126180862ANALISTA            220214220214FXE198          197909032022021420220214        00000000000000000000    
50040008559TIAGO FERREIRA DOS SANTOS ALMANI   00000000098774675008559001AURINDA FERREIRA DOS SANTOS ALMANI 98              FXE114022022                                             
90040008559TIAGO FERREIRA DOS SANTOS ALMANI   000000000983410030  00000000736607 98                                                                                                 
20040011282KELLY MENDES RODRIGUES DE CASTRO   000000001062850523233138735886SUPERVISOR          230601230601FXQ20106        198505232023060120230601        00000000000000000000    
50040011282KELLY MENDES RODRIGUES DE CASTRO   00000000106774675011282005MARY APARECIDA PEREIRA MENDES      0106            FXQ201062023                                             
90040011282KELLY MENDES RODRIGUES DE CASTRO   000000001063414959  00000000022544 0106                                                                                               
20040014745ANDREY CAMPOS MELO                 000000000221030402147430107800                    250312250312FXE122          200304022025031220250312        00000000000000000000    
50040014745ANDREY CAMPOS MELO                 00000000022774675014745008GISELE SOUZA CAMPOS                22              FXE112032025                                             
90040014745ANDREY CAMPOS MELO                 00000000022                        22                                                                                                 
20050003506PILAR LUQUE BASTOS                 000000000002370904301107583829                    771219190701NP03156325897   193709041977121920190701        20210701000000000000    
50050003506PILAR LUQUE BASTOS                 00000000000774675003506007CARMEN CHIA LUQUE                  156325897       NP0301072019                                             
90050003506PILAR LUQUE BASTOS                 000000000003413763  00000000279779 156325897                                                                                          
20050003875DENYSE LUQUE BASTOS                000000000402670307308954376860SOCIA               190701190801NP0340          196703072019070120190801        20210701000000000000    
50050003875DENYSE LUQUE BASTOS                00000000040774675003875006PILAR LUQUE BASTOS                 40              NP0301082019                                             
90050003875DENYSE LUQUE BASTOS                000000000403416307  00000000034808 40                                                                                                 
20070003867RENATA ROGATTO LUQUE AUGUSTI       000000000002750714218797396826                    040730190801TNQ200000000022A197507142004073020190801        20210701000000000000    
50070003867RENATA ROGATTO LUQUE AUGUSTI       00000000000774675003867003DIRCE ROGATTO LUQUE                00000000022A    TNQ201082019                                             
90070003867RENATA ROGATTO LUQUE AUGUSTI       000000000002600001  00000926050706 00000000022A                                                                                       
3007000386701CATARINA LUQUE AUGUSTI             14072321219080100000000022A2014072320190801            202107010000000051878443852774675003867011RENATA ROGATTO LUQUE AUGUSTI       
3007000386702JOSE MIGUEL AUGUSTI NETO           71072412120061800000000022A1971072420200618            202107010000000013939452874774675003867029ODECIA DE BRITO GONDIN AUGUSTI     
20080000680JOSE ALEXANDRE KIRSTEIN            000000043671750715215788723833GERENTE CONTABIL    090129190701FXE1000000004367197507152009012920190701        20210701000000000000    
50080000680JOSE ALEXANDRE KIRSTEIN            00000004367774675000680003ELENA DOMINGUES KIRSTEIN           000000004367    FXE101072019                                             
90080000680JOSE ALEXANDRE KIRSTEIN            000000043673418089  00000000118346 000000004367                                                                                       
3008000068001ANDREIA C OLIVEIRA SEABRA KIRSTEIN 7609262211907300000000043671976092620190730            202107010000000025768777881774675000680011TEREZINHA A OLIVEIRA SEABRA        
3008000068002GABRIEL SEABRA KIRSTEIN            0805091121907300000000043672008050920190730            202107010000000045176692899774675000680029ANDREIA C OLIVEIRA SEABRA KIRSTEIN 
20080003743ANTONIO ROBERTO ZINIDARCIS         000000000001790204404122484685                    190520190701FXE1000000005089197902042019052020190701        20210701000000000000    
50080003743ANTONIO ROBERTO ZINIDARCIS         00000000000774675003743006ESTELLA MARQUES PIZA ZINIDARCIS    000000005089    FXE101072019                                             
90080003743ANTONIO ROBERTO ZINIDARCIS         000000000003415653  00000000280767 000000005089                                                                                       
20080004677TANIA PIRES DA SILVA               000000000272870609135024612876ANALISTA FISCAL     191216191218FXE1027         198706092019121620191218        20210701000000000000    
50080004677TANIA PIRES DA SILVA               00000000027774675004677005MARIA ALVES PIRES DA SILVA         027         FXQ2FXE111092020                                             
90080004677TANIA PIRES DA SILVA               000000000271040598  00000000294820 027                                                                                                
20080005495ILLYARIADNY SILVEIRA RUBI          000000000392830731231801884803ANALISTA FINANCEIRO 200720200720FXE1039         198307312020072020200720        20210701000000000000    
50080005495ILLYARIADNY SILVEIRA RUBI          00000000039774675005495001ROSANGELA A MARTINS SILVEIRA       039         FXQ2FXE126102020                                             
90080005495ILLYARIADNY SILVEIRA RUBI          000000000393417699  00000000253642 039                                                                                                
20080005509FERNANDA FERREIRA PINTO            000000000412890901135161039817ASSISTENTE FISCAL   200720200720FXE141          198909012020072020200720        20210701000000000000    
50080005509FERNANDA FERREIRA PINTO            00000000041774675005509009MARIA HELENA ZANOTTO FERREIRA PINTO41              FXE120072020                                             
90080005509FERNANDA FERREIRA PINTO            000000000413416937  00000000110978 41                                                                                                 
20080006084BARBARA TORELLI GALBIATTI          000000000452930408140696872897ASSISTENTE DE ADM P 210113210113FXE145          199304082021011320210113        20210701000000000000    
50080006084BARBARA TORELLI GALBIATTI          00000000045774675006084002ANA PAULA TORELLI GALBIATTI        45              FXE113012021                                             
90080006084BARBARA TORELLI GALBIATTI          000000000453411652  00000000245299 45                                                                                                 
20080006343FABIANA CRISTINA ALVES SILVA       000000000502880215136479937864ANALISTA F JR       210222210223FXE1050         198802152021022220210223        20210701000000000000    
50080006343FABIANA CRISTINA ALVES SILVA       00000000050774675006343002MARLENE DIAS ALVES SILVA           050             FXE123022021                                             
90080006343FABIANA CRISTINA ALVES SILVA       000000000503414857  00000000213773 050                                                                                                
20080006599JULIANA RUBIA DEMENCIANO           000000000572881111136147432842ANALISTA F SENIOR   210406210406FXE1057         198811112021040620210406        20210701000000000000    
50080006599JULIANA RUBIA DEMENCIANO           00000000057774675006599009MARCIA ROSA BERTONCELLO DEMENCIANO 057             FXE106042021                                             
90080006599JULIANA RUBIA DEMENCIANO           000000000573416514  00000000359626 057                                                                                                
20080007161ANDREIA ROSA DA SILVA BARROS       000000000672821126222053904810ANALISTA FISCAL JR  210809210809FXE1067         198211262021080920210809        00000000000000000000    
50080007161ANDREIA ROSA DA SILVA BARROS       00000000067774675007161007TEREZINHA ROSA DA SILVA            067             FXE109082021                                             
90080007161ANDREIA ROSA DA SILVA BARROS       000000000673416997  00000000399636 067                                                                                                
20080007331NATHALIA FOLLI MARTINS DE SOUZA    000000000692930329241415898880ASSISTENTE F        210913210913FXE10069        199303292021091320210913        00000000000000000000    
50080007331NATHALIA FOLLI MARTINS DE SOUZA    00000000069774675007331006RAQUEL FOLLI MARTINS               0069            FXE113092021                                             
90080007331NATHALIA FOLLI MARTINS DE SOUZA    000000000693412976  00000000295861 0069                                                                                               
20080007609GRACIELA RAIMUNDO RODRIGUES SANTOS 000000000702960226143295133824ASSISTENTE          211004211004FXE170          199602262021100420211004        00000000000000000000    
50080007609GRACIELA RAIMUNDO RODRIGUES SANTOS 00000000070774675007609005MARINEUSA RAIMUNDO                 70              FXE104102021                                             
90080007609GRACIELA RAIMUNDO RODRIGUES SANTOS 000000000703411269  00000000235618 70                                                                                                 
20080007811REGIANE DOS SANTOS ALVES           000000000732900129139545666803ANALISTA FISCAL     211108211108FXE173          199001292021110820211108        00000000000000000000    
50080007811REGIANE DOS SANTOS ALVES           00000000073774675007811007ALCIONE DOS SANTOS ALVES           73              FXE108112021                                             
90080007811REGIANE DOS SANTOS ALVES           000000000733418680  00000000292656 73                                                                                                 
20080007838GISLAINE VIEIRA DA SILVA           000000000742851021231856827852ANALISTA FISCAL     211108211108FXE174          198510212021110820211108        00000000000000000000    
50080007838GISLAINE VIEIRA DA SILVA           00000000074774675007838000ANA MARIA VIEIRA                   74              FXE108112021                                             
90080007838GISLAINE VIEIRA DA SILVA           000000000743417701  00000000287083 74                                                                                                 
20080008168ANDRESSA RIBEIRO SILVA ZAMBONI     000000000802940815242226373861ANAL DPTO PESSOAL   220110220114FXE1080         199408152022011020220114        00000000000000000000    
50080008168ANDRESSA RIBEIRO SILVA ZAMBONI     00000000080774675008168001ILDA RIBEIRO SILVA                 080             FXE114012022                                             
90080008168ANDRESSA RIBEIRO SILVA ZAMBONI     000000000803418544  00000000076212 080                                                                                                
20080008290CARLOS ROBERTO DOS SANTOS          000000000831700407113921648858ASSISTENTE          220127220127FXE1083         197004072022012720220127        00000000000000000000    
50080008290CARLOS ROBERTO DOS SANTOS          00000000083774675008290003NEUSA TAVARES DOS SANTOS           083             FXE127012022                                             
90080008290CARLOS ROBERTO DOS SANTOS          000000000833414833  00000000146915 083                                                                                                
20080008451OSMAR PEREIRA DE SOUZA JUNIOR      000000000871981114148639361843ASSISTENTE FISCAL   220217220217FXE1087         199811142022021720220217        00000000000000000000    
50080008451OSMAR PEREIRA DE SOUZA JUNIOR      00000000087774675008451001ARLINDA PEREIRA DA CRUZ            087             FXE117022022                                             
90080008451OSMAR PEREIRA DE SOUZA JUNIOR      000000000873410666  00000000708557 087                                                                                                
20080008460MARCELA DE OLIVEIRA MARACCINI      000000000862910416139669498813ASSISTENTE FISCAL   220214220214FXE1086         199104162022021420220214        00000000000000000000    
50080008460MARCELA DE OLIVEIRA MARACCINI      00000000086774675008460002MARA LUCIANA DE OLIVEIRA MASI      086             FXE114022022                                             
90080008460MARCELA DE OLIVEIRA MARACCINI      000000000863414518  00000000266129 086                                                                                                
20080008850THAIS FERNANDA CUSTODIO DA SILVA   000000000922911209140465619800                    220323220323FXE192          199112092022032320220323        00000000000000000000    
50080008850THAIS FERNANDA CUSTODIO DA SILVA   00000000092774675008850004MARCIA CRISTINA ZAGO               92              FXE123032022                                             
90080008850THAIS FERNANDA CUSTODIO DA SILVA   000000000923411419  00000000734874 92                                                                                                 
20080009113EVELYN DARLENE DE SOUSA            000000000962900122237083093830ANALISTA FISCAL JR  220509220509FXE1096         199001222022050920220509        00000000000000000000    
50080009113EVELYN DARLENE DE SOUSA            00000000096774675009113006MARIA ISABEL ALFINITI DE SOUSA     096             FXE109052022                                             
90080009113EVELYN DARLENE DE SOUSA            000000000963412078  00000000314396 096                                                                                                
20080009253CAROLINE AZEVEDO GRATIVAL          000000000992920802241022775871ANALISTA DE RH      220601220601FXE1099         199208022022060120220601        00000000000000000000    
50080009253CAROLINE AZEVEDO GRATIVAL          00000000099774675009253000LILIANA DE AZEVEDO GRAVITAL        099             FXE101062022                                             
90080009253CAROLINE AZEVEDO GRATIVAL          000000000993414857  00000000252268 099                                                                                                
20080010006PEDRO HENRIQUE ESTEVES FURTADO     000000009981980922141589231821ADM CONTABIL JR     221003221003FXE10998        199809222022100320221003        00000000000000000000    
50080010006PEDRO HENRIQUE ESTEVES FURTADO     00000000998774675010006009SONIA MELLO ESTEVES FURTADO        0998            FXE103102022                                             
90080010006PEDRO HENRIQUE ESTEVES FURTADO     000000009983410026  00000000468363 0998                                                                                               
20080010090GRACIELLE BAETA CAMARGO            000000001052980531248056061851ASSIS FISCAL        221101221101FXE10105        199805312022110120221101        00000000000000000000    
50080010090GRACIELLE BAETA CAMARGO            00000000105774675010090003VERA LUCIA DA SILVA BAETA          0105            FXE101112022                                             
90080010090GRACIELLE BAETA CAMARGO            000000001053417159  00000000256952 0105                                                                                               
20080011070KEROLYN DOS SANTOS ALVES           000000000602980730246327853854ASSISTENTE          230324230424FXE10000060     199807302023032420230424        00000000000000000000    
50080011070KEROLYN DOS SANTOS ALVES           00000000060774675011070004ROSELAINE DOS SANTOS               0000060         FXE124042023                                             
90080011070KEROLYN DOS SANTOS ALVES           000000000603411269  00000000304042 0000060                                                                                            
20080011274FABIANA VIEIRA DOS REIS MATOS      000000000672891203237990111888ANAL ADM P PL       230605230605FXE100067       198912032023060520230605        00000000000000000000    
50080011274FABIANA VIEIRA DOS REIS MATOS      00000000067774675011274002VERA LUCIA VIEIRA DOS REIS         00067           FXE105062023                                             
90080011274FABIANA VIEIRA DOS REIS MATOS      000000000673410150  00000000433639 00067                                                                                              
20080012114ANGELICA BRACAIOLI DE SOUZA PINTO  000000007502810929422338092899                    230918231013FXE1750         198109292023091820231013        00000000000000000000    
50080012114ANGELICA BRACAIOLI DE SOUZA PINTO  00000000750774675012114009ROSANGELA CRISTINA BRACAIOLI       750             FXE113102023                                             
90080012114ANGELICA BRACAIOLI DE SOUZA PINTO  000000007503412711  00000000338380 750                                                                                                
20080012491DOUGLAS FERNANDO FERREIRA DA SILVA 000000000721941013142749413885                    230828231221FXE1722         199410132023082820231221        00000000000000000000    
50080012491DOUGLAS FERNANDO FERREIRA DA SILVA 00000000072774675012491001EVANIR FERREIRA DA SILVA           722             FXE121122023                                             
90080012491DOUGLAS FERNANDO FERREIRA DA SILVA 000000000723410546  00000000220856 722                                                                                                
20080012513LUIZ HENRIQUE PEREIRA              000000000851040825152411221843                    231220231220FXE1855         200408252023122020231220        00000000000000000000    
50080012513LUIZ HENRIQUE PEREIRA              00000000085774675012513002SILVANIA PEREIRA DA SILVA          855             FXE120122023                                             
90080012513LUIZ HENRIQUE PEREIRA              000000000853417699  00000000359068 855                                                                                                
20080012602ANDREIA ALVES DA SILVA             000000000782840511134829084863                    231101240115FXE1788         198405112023110120240115        00000000000000000000    
50080012602ANDREIA ALVES DA SILVA             00000000078774675012602003MARIA CLEUSA DOS SANTOS            788             FXE115012024                                             
90080012602ANDREIA ALVES DA SILVA             000000000783411269  00000000142327 788                                                                                                
20080012629MAYARA DE OLIVEIRA ORTIZ           000000000772931106206135380567                    231025240115FXE1777         199311062023102520240115        00000000000000000000    
50080012629MAYARA DE OLIVEIRA ORTIZ           00000000077774675012629006MARIA NILZA MENDES DOS SANTOS      777             FXE115012024                                             
90080012629MAYARA DE OLIVEIRA ORTIZ           000000000773410014  00000000641997 777                                                                                                
20080012769BIANCA ALVES FEITOSA DA SILVA      000000000892941029237587796851                    240209240209FXE1899         199410292024020920240209        00000000000000000000    
50080012769BIANCA ALVES FEITOSA DA SILVA      00000000089774675012769000FRANCISCA SILENE ALVES SOUSA       899             FXE109022024                                             
90080012769BIANCA ALVES FEITOSA DA SILVA      000000000893417182  00000000133970 899                                                                                                
20080012807CAMILA BERTOLD                     000000000902950826144230475861ANALISTA CONTABIL JR240219240219FXE1901         199508262024021920240219        00000000000000000000    
50080012807CAMILA BERTOLD                     00000000090774675012807008VERA LUCIA FELIX DA SILVA BERTOLDI 901             FXE119022024                                             
90080012807CAMILA BERTOLD                     000000000903410041  00000000756859 901                                                                                                
20080012912FELIPE ROCHA                       000000000941951221143190637830                    240306240306FXE1944         199512212024030620240306        00000000000000000000    
50080012912FELIPE ROCHA                       00000000094774675012912006SOLANGE PEREIRA MENDES             944             FXE106032024                                             
90080012912FELIPE ROCHA                       000000000943418431  00000000336265 944                                                                                                
20080013005THAMIRIS SOUZA DE OLIVEIRA         000000000962950209142921186802ANALISTA ADM JR     240311240311FXE1960         199502092024031120240311        00000000000000000000    
50080013005THAMIRIS SOUZA DE OLIVEIRA         00000000096774675013005008ROSANGELA DE SOUZA                 960             FXE111032024                                             
90080013005THAMIRIS SOUZA DE OLIVEIRA         000000000963417701  00000000315983 960                                                                                                
20080013153KALYANNE ROCHA DA SILVA COSTA      000000990002040616152218909847                    240401240401FXE199000       200406162024040120240401        00000000000000000000    
50080013153KALYANNE ROCHA DA SILVA COSTA      00000099000774675013153006ANGELA MARIA COSTA                 99000           FXE101042024                                             
90080013153KALYANNE ROCHA DA SILVA COSTA      000000990003412690  00000000101049 99000                                                                                              
20080013161LILIAN DO CARMO FOGACA             000000980002840502231719327840                    240401240401FXQ298000       198405022024040120240401        00000000000000000000    
50080013161LILIAN DO CARMO FOGACA             00000098000774675013161009IRANI BENEDITA DO CARMO            98000       FXE1FXQ201042024                                             
90080013161LILIAN DO CARMO FOGACA             000000980000330935  00000010157184 98000                                                                                              
3008001316101CATARINA DO CARMO FOGACA           18042821224040198000       2018042820240401            000000000000000054967373895774675013161017LILIAN DO CARMO FOGACA             
20080013170THAIS DOS SANTOS MORAO             000010100002911212139949973805                    240424240424FXE11010000     199112122024042420240424        00000000000000000000    
50080013170THAIS DOS SANTOS MORAO             00001010000774675013170000SILVANA GENI DOS SANTOS MORAO      1010000         FXE124042024                                             
90080013170THAIS DOS SANTOS MORAO             000010100003411565  00000000396767 1010000                                                                                            
20080013200MYLENA CARVALHO OLIVEIRA           000000001002020220144483132806                    240408240408FXE1000100      200202202024040820240408        00000000000000000000    
50080013200MYLENA CARVALHO OLIVEIRA           00000000100774675013200005MARIA E APARECIDA OLIVEIRA SOUZA   000100          FXE108042024                                             
90080013200MYLENA CARVALHO OLIVEIRA           000000001003411419  00000000762669 000100                                                                                             
20080013307LOUSEANE RESENDE DA SILVA          000000010202821014231800833873                    240515240515FXE101020       198210142024051520240515        00000000000000000000    
50080013307LOUSEANE RESENDE DA SILVA          00000001020774675013307008FATIMA DO ROCIO CARNEIRO DA SILVA  01020           FXE115052024                                             
90080013307LOUSEANE RESENDE DA SILVA          000000010203412919  00000000115226 01020                                                                                              
20080013420BRYAN SANTIAGO VILLANTOY           000000002871970425254755921287                    240704240704FXE1287         199704252024070420240704        00000000000000000000    
50080013420BRYAN SANTIAGO VILLANTOY           00000000287774675013420009MAXIMILIANA VILLANTOY ALANYA       287             FXE104072024                                             
90080013420BRYAN SANTIAGO VILLANTOY           000000002872600001  00000040968986 287                                                                                                
20080013579BIANCA CAROLINA SOUZA DE OLIVEIRA  000000038172930217141681413817ANALISTA FISCAL JR  240221240301FXE13817        199302172024022120240301        00000000000000000000    
50080013579BIANCA CAROLINA SOUZA DE OLIVEIRA  00000003817774675013579002MARTA ALVES DE SOUZA               3817            FXE101032024                                             
90080013579BIANCA CAROLINA SOUZA DE OLIVEIRA  000000038173410560  00000000822694 3817                                                                                               
20080013595THIAGO DE SOUZA MORAES             000000008801010730139812575880                    240805240805FXE1880         200107302024080520240805        00000000000000000000    
50080013595THIAGO DE SOUZA MORAES             00000000880774675013595008KATINA SIMEIA EUGENIO SOUZA MORAES 880             FXE105082024                                             
90080013595THIAGO DE SOUZA MORAES             000000008803410393  00000000300892 880                                                                                                
20080014060VANESSA DOS SANTOS ALVES QUEIROZ   000000058162900109137619545816                    241001241001FXE15816        199001092024100120241001        00000000000000000000    
50080014060VANESSA DOS SANTOS ALVES QUEIROZ   00000005816774675014060002LOURDES FIRMINO DOS SANTOS         5816            FXE101102024                                             
90080014060VANESSA DOS SANTOS ALVES QUEIROZ   000000058163414458  00000000552686 5816                                                                                               
20080014184ADRIANA DIOGO DA SILVA             000000001222850417234525846828                    241014241014FXE100122       198504172024101420241014        00000000000000000000    
50080014184ADRIANA DIOGO DA SILVA             00000000122774675014184000MARIA NEUSA NETTO DA SILVA         00122           FXE114102024                                             
90080014184ADRIANA DIOGO DA SILVA             000000001223416423  00000000310355 00122                                                                                              
20080014478DANIELE SACCO GOMIERO              000000008662821207230854519866                    250106250106FXE10866        198212072025010620250106        00000000000000000000    
50080014478DANIELE SACCO GOMIERO              00000000866774675014478006VALDELICE CARDOSO SACCO            0866            FXE106012025                                             
90080014478DANIELE SACCO GOMIERO              000000008663413814  00000000075408 0866                                                                                               
20080014486MIRELLA MARQUES ROCHA              000000008272960802244642223827                    250106250106FXE10827        199608022025010620250106        00000000000000000000    
50080014486MIRELLA MARQUES ROCHA              00000000827774675014486009CLEIDE MARQUES SILVA               0827            FXE106012025                                             
90080014486MIRELLA MARQUES ROCHA              000000008273413613  00000000447337 0827                                                                                               
20080014567ROSANGELA TEODORO VICENTE MARTINS  000000008452751226219104408845                    250131250131FXE1845         197512262025013120250131        00000000000000000000    
50080014567ROSANGELA TEODORO VICENTE MARTINS  00000000845774675014567006MARIA DO SOCORRO TEODORO VICENTE   845             FXE131012025                                             
90080014567ROSANGELA TEODORO VICENTE MARTINS  000000008453418690  00000000021681 845                                                                                                
20080014575ANA CLAUDIA AURELIANO NISTA        000000098742810723129899579874                    250205250205FXE19874        198107232025020520250205        00000000000000000000    
50080014575ANA CLAUDIA AURELIANO NISTA        00000009874774675014575009ANGELITA AURELIANO NISTA           9874            FXE105022025                                             
90080014575ANA CLAUDIA AURELIANO NISTA        000000098743415653  00000000374735 9874                                                                                               
20080014788PEDRO LUIZ RODRIGUES               000000001331970317146178227809                    250312250312FXE10133        199703172025031220250312        00000000000000000000    
50080014788PEDRO LUIZ RODRIGUES               00000000133774675014788008ROSANGELA MARIA LUIZ RODRIGUES     0133            FXE112032025                                             
90080014788PEDRO LUIZ RODRIGUES               000000001333411370  00000000114371 0133                                                                                               
20080015040ANA CAROLINE ALVES DA CRUZ         000000001342021206137587795880                    250402250402FXE100000134    200212062025040220250402        00000000000000000000    
50080015040ANA CAROLINE ALVES DA CRUZ         00000000134774675015040003FRANCISCA SILENE ALVES SOUSA       00000134        FXE102042025                                             
90080015040ANA CAROLINE ALVES DA CRUZ         000000001343417182  00000000136684 00000134                                                                                           
20080015059OLIVIA RODRIGUES PORFIRIO          000000001352970510241254133801                    250402250402FXE100000135    199705102025040220250402        00000000000000000000    
