1PARTIC.SEGURADO0073885250625063020250620250630                                                                                                       
2007388503700000940000700138ALEXANDRE CARVALHO DE FREITAS      1     0000001463700138      0000000000                                                 
2007388504000014730000700525ODIR NOGUEIRA PAMPLONA             1     0000008776700525      0000000000                                                 
2007388504200015540000700519JACO DA CONCEICAO SILVA            1     0000003075700519      0000000000                                                 
2007388503800016270000700502JEFFERSON LUIZ SOUSA DE FREITAS    1     0000001315700502      0000000000                                                 
2007388504100016600000700526JOSE LISANDRO PEREIRA DE SIQUEIRA  1     0000001315700526      0000000000                                                 
2007388503600016780000700528SAMUEL MARIA RIBEIRO DE OLIVEIRA   1     0000004127700528      0000000000                                                 
2007388503800017590000700564JOEL PIMENTEL DO AMARAL LYRIO      1     0000002630700564      0000000000                                                 
2007388504000021510000700551PEDRO PAULO BARBOSA PAMPLONA       1     0000014324700551      0000000000                                                 
2007388500100023560000700485IZAILDE PEREIRA DA SILVA           1     0000002630700485      0000000000                                                 
2007388502900028600000700296MARCIO ALMEIDA AMORIN COUTO        1     0000000303700296      0000000000                                                 
2007388502000030770000700500POLIANA DE CASSIA SOUZA DA SILVA   1     0000008503700500      0000000000                                                 
2007388502700030850000700149ANTHONY ALBERT MENTORE             1     0000008348700149      0000000000                                                 
2007388502700031740000700124ANTONIO JORGE PADILHA DIAS         1     0000001315700124      0000000000                                                 
2007388502800032040000700208FRANCK NEY DOS SANTOS AMARAL       1     0000040137700208      0000000000                                                 
2007388501800034250000700082WELLINGTON PIERRE LEMOS            1     0000004174700082      0000000000                                                 
2007388501800035570000700605ROBERTO RODRIGUES ALVES JUNIOR     1     0000000422700605      0000000000                                                 
2007388504100039300000700580MARINALDO FERREIRA FURTADO         1     0000009243700580      0000000000                                                 
2007388504100044050000700622DANIEL PASTANA DA SILVA            1     0000001563700622      0000000000                                                 
2007388500300051340000700784GLAUTTON DE SOUSA FERREIRA         1     0000010284700784      0000000000AUXILIAR                                         
2007388503800052740000700822MAURO SERGIO LOPES PEREIRA         1     0000012192700822      0000000000                                                 
2007388500400058430000700853TARCISIO DA COSTA CORREA           1     00000069747000853     0000000000AUXILIAR                                         
2007388500400058600000700855ROGER SOUZA DA MOTA                1     00000030087000855     0000000000AUXILIAR                                         
2007388504200064670000700917JURACI GOMES DA SILVA              1     0000003623700917      0000000000                                                 
2007388502500065210000700924GLEICE MELO DA CUNHA               1     0000004305700924      0000000000GERENTE RH                                       
2007388502700065800000700925JORGE EDIMER RIANO MONTANO         1     000001249270092       0000000000                                                 
2007388501800066880000700944DOUGLAS GONCALVES RODRIGUES        1     0000006575700944      0000000000                                                 
2007388502900067420000700952BRUNO DE ASSUNCAO BORDALO PEIXOTO  1     0000001315700952      0000000000                                                 
2007388502200068900000700974FERNANDO FURTADO DE MELO           1     0000002925700974      0000000000                                                 
2007388502400069390000700978NATANAEL MARTINS DE MORAES         1     0000022407700978      0000000000                                                 
2007388500200069470000700979ROBERTO RIKER SOARES               1     0000003810700979      0000000000                                                 
2007388503800070210000700987MAYKON JOSE DA SILVA PINHEIRO      1     0000001936700987      0000000000                                                 
2007388502500071370000700998KATINA REIS SCHARF DA COSTA        1     0000001452700998      0000000000                                                 
2007388502400072000000701005CAROLINA POSTALE SANTANA           1     0000005419701005      0000000000                                                 
2007388502300074120000701037JEFERSON PINHEIRO DA SILVA         1     0000004190701037      0000000000                                                 
2007388504100074710000701043EDERSON SILVA DE OLIVEIRA          1     0000000229701043      0000000000                                                 
2007388500300077730000701075MAIKON DA MOTA MESQUITA            1     0000006059701075      0000000000                                                 
2007388504100078030000701077RICHARLISON VALADARES FURTADO      1     0000001875701077      0000000000                                                 
2007388500300080360000701106MARCOS COSTA FERREIRA              1     0000001707701106      0000000000                                                 
2007388504000081330000701108DERICK WELTON GONCALVES CARVALHO   1     0000001655701108      0000000000                                                 
2007388503700083460000701135ALISON DE SOUZA PINHEIRO           1     0000001315701135      0000000000                                                 
2007388502500084270000701144VERONICA FERREIRA DE AGUIAR        1     0000004918701144      0000000000                                                 
2007388502800085830000701161SEBASTIAO CAETANO PINTO            1     0000005463701161      0000000000                                                 
2007388502800086560000701170GIRLEY BARBOSA VILHENA             1     0000022724701170      0000000000                                                 
2007388501400086800000701174GIOVANNA REGINA CARDOSO SILVA      1     0000000864701174      0000000000                                                 
2007388504100087450000701181MARCELO DE OLIVEIRA DIAS JUNIOR    1     0000000412701181      0000000000                                                 
2007388501800087700000701182ADENIS BORGES DE LIMA              1     0000003350701182      0000000000                                                 
2007388502400087960000701184EDILSON ALVES MACEDO               1     0000006693701184      0000000000                                                 
2007388501800088500000701195MADALENA TOLEDO DA SILVA SANCHES   1     0000001778701195      0000000000                                                 
2007388501800088690000701196MARCIO DA SILVA BARROS DE SOUZA    1     0000002630701196      0000000000                                                 
2007388500400088930000701200VICTOR NASCIMENTO DO CARMO         1     0000017451701200      0000000000                                                 
2007388502200089310000701204ARIEL JORGE SAMUT                  1     0000002423701204      0000000000                                                 
2007388500300089820000701208ALRIMAR BOTELHO FILGUEIRA          1     0000005514701208      0000000000                                                 
2007388502200090240000701212THAMIRES MATTOS MARQUES            1     0000005649701212      0000000000                                                 
2007388502200090320000701213MARCELO DE ALMEIDA                 1     0000001675701213      0000000000                                                 
2007388500300090670000701218ELIANNIS SINAR HERNANDEZ JUNOR     1     0000005128701218      0000000000                                                 
2007388502800091130000701224WERVERSON RODRIGUES LIMA           1     0000001052701224      0000000000                                                 
2007388500300091640000701228KLEYTON WENDERSON BORGES FLORENTINO1     0000020981701228      0000000000                                                 
2007388501400092020000701237JANAINA DE FATIMA ANTUNES MOSQUEIRA1     0000035449701237      0000000000                                                 
2007388503600092100000701238NEILSON PEREIRA DE ARAUJO          1     0000001315701238      0000000000                                                 
2007388500300092610000701242DAVID WALEX SOUZA COSTA            1     0000005752701242      0000000000                                                 
2007388502700092880000701244AUGUSTO CESAR SANTOS MARIANO       1     0000018844701244      0000000000                                                 
2007388502700092960000701246FERNANDA O G MENEZES CARNEIRO      1     0000001315701246      0000000000                                                 
2007388502700093180000701251ALEXANDRE RAFAEL DE OLIVEIRA       1     0000010206701251      0000000000                                                 
2007388502700093260000701253FRANCISCO WELLINGTON SOARES SILVA  1     0000002236701253      0000000000                                                 
2007388502700093340000701252DIEGO TAVARES VALOTTA              1     0000005260701252      0000000000                                                 
2007388502500093690000701257ISABELLA CAMARGO MENEZES           1     0000006575701257      0000000000                                                 
2007388501400094150000701258MARIANA RODRIGUES BATALHA ALVES    1     0000001315701258      0000000000                                                 
300000069000000426382                                                                                                                                 
