HEADER ENDERECOS    20250801                                                                                                                                                                            
57100738850010000795700334      CAILOMAN AIRES MAIA                AV. TANCREDO NEVES, 245-A          CENTRO                   LARANJAL DO JARI         AP68920000000000000000000                       
57100738850010002356700485      IZAILDE PEREIRA DA SILVA           RUA G  HELIOLANDIA URBANO 511      CENTRO                   ANANINDEUA               PA67035210000000000000000                       
57100738850010009245701240      ANDRE SERRANO SANTOS               R DR GOUVEIA DE MOURA 260          MANDACARU                JOAO PESSOA              PB58027350000000000000000                       
57100738850020006947700979      ROBERTO RIKER SOARES               AV ELINALDO BARBOSA 361            SANTANA                  SANTAREM                 PA68015190000000000000000                       
57100738850030003220700268      BENEDITO DO SOCORRO EVANGELISTA    AV  05 1570                        CENTRO                   MACAPA                   AP68900012000000000000000                       
57100738850030005134700784      GLAUTTON DE SOUSA FERREIRA         RUA MARIZ E BARRO                  TIJUCA                   RIO DE JANEIRO           RJ20270005000000000000000                       
57100738850030006750700953      FRANCIEUDE NUNES DE SOUZA          R AUREO CRUZ                       BURITIS                  BOA VISTA                RR69309201000000000000000                       
57100738850030007480701044      FABIO PEREIRA GONCALVES DE OLIVEIRAR CC-23 61                         L MOREIRA                BOA VISTA                RR69318110000000000000000                       
57100738850030007773701075      MAIKON DA MOTA MESQUITA            R BETEL 278                        CAMBARA                  BOA VISTA                RR69313442000000000000000                       
57100738850030007811701079      LUIS ALBERTO SMITH ZAMBRANO        R RIO CLARO 669                    B VISTA                  BOA VISTA                RR69316104000000000000000                       
57100738850030008036701106      MARCOS COSTA FERREIRA              R ADEMAR DE BARROS 2               FLORES                   MANAUS                   AM69028347000000000000000                       
57100738850030008230701120      ABIMAEL ASSUNCAO DE BRITO          RAM DA EMBRAPA SN                  MAZAGAO                  MAZAGAO                  AP68940000000000000000000                       
57100738850030008451701148      ELITON RODRIGUES DOS SANTOS        R ECLIPSE 810                      R SOL                    BOA VISTA                RR69316044000000000000000                       
57100738850030008982701208      ALRIMAR BOTELHO FILGUEIRA          R PR DE COPACABANA 225             TARUMA                   MANAUS                   AM69041345000000000000000                       
57100738850030009067701218      ELIANNIS SINAR HERNANDEZ JUNOR     RUA RIO MAU 43                     PRFA ARACELI S MAIOR     BOA VISTA                RR69315042000000000000000                       
57100738850030009091701222      DHEIG SILVA SOUSA                  AV BERTO S DE OLIVEIRA 1121        RES MTE CRISTO           BOA VISTA                RR69311250000000000000000                       
57100738850030009164701228      KLEYTON WENDERSON BORGES FLORENTINOR GOIAS 95                         ESTADOS                  BOA VISTA                RR69305550000000000000000                       
57100738850030009261701242      DAVID WALEX SOUZA COSTA            R FELIPE XAUD 267                  ASA BRANCA               BOA VISTA                RR69312255000000000000000                       
57100738850030009270701243      KEVIN CLEITON DOS SANTOS           R CC-21 21                         LAURA MOREIRA            BOA VISTA                RR69318100000000000000000                       
57100738850030009466701266      THALISON GERMANO FERREIRA DUARTE   R JOSE A SAMPAIO 2825              SEN HELIO CAMPOS         BOA VISTA                RR69316508000000000000000                       
57100738850040000159700209      WANDER PEREIRA PINTO               RUA ABELARDO CARDOSO CHAGAS 1010   CENTRO                   OIAPOQUE                 AP68980000000000000000000                       
57100738850040000973700371      ELIELSO PEREIRA DOS SANTOS         RUA P  70                          CENTRO                   ALMEIRIM                 PA68240000000000000000000                       
57100738850040001350700429      CHARLES LIMA DA SILVA              RUA SANTA MARTA 12 CASA 05         CENTRO                   MANAUS                   AM69093288000000000000000                       
57100738850040002950700512      MARCELO COSTA ALVES                RUA 12 LIRIO DO VALE 35 Q 11       CENTRO                   MANAUS                   AM69030390000000000000000                       
571007388500400058437000853     TARCISIO DA COSTA CORREA           AVENIDA CABRAL                     CENTRO                   OIAPOQUE                 AP68980000000000000000000                       
571007388500400058607000855     ROGER SOUZA DA MOTA                RUA JOAO DE DEUS DIAS DE SOUSA     CENTRO                   MACAPA                   AP68909540000000000000000                       
57100738850040007404701034      CRISTIANE VASSOLER DALAZOANA       RUA HILDEMAR PEREIRA DE FIGUEIREDO PANTANAL                 RORAINOPOLIS             RR69373000000000000000000                       
57100738850040008893701200      VICTOR NASCIMENTO DO CARMO         TV DOS MACUXIS                     ALVORADA                 BOA VISTA                RR69317296000000000000000                       
57100738850040008923701203      FRANCISCO ELOI DA CONCEICAO JUNIOR RUA VASCO DA GAMA SN               CENTRO                   CARACARAI                RR69360000000000000000000                       
57100738850140008680701174      GIOVANNA REGINA CARDOSO SILVA      R PEDRO AMERICO 110 APTO 210       CATETE                   RIO DE JANEIRO           RJ22211200000000000000000                       
57100738850140009202701237      JANAINA DE FATIMA ANTUNES MOSQUEIRAR ROQUE BARBOSA 78                 BANGU                    RIO DE JANEIRO           RJ21863425000000000000000                       
57100738850140009407701259      PEDRO HENRIQUE BRAGA BARRETO       GOIANIA 1 LT 06                    EDEN                     SAO JOAO DE MERITI       RJ25530000000000000000000                       
57100738850140009415701258      MARIANA RODRIGUES BATALHA ALVES    BRAZ DE PINA 1356 APTO 301         VILA DA PENHA            RIO DE JANEIRO           RJ21210675000000000000000                       
57100738850140009440701264      ALEX FABIANO DA FONSECA            AV VER JOSE DINIZ 242 AP 109       STO AMARO                SAO PAULO                SP04604004000000000000000                       
57100738850180003425700082      WELLINGTON PIERRE LEMOS            RUA ALEXANDRE CALAZA 225           CENTRO                   RIO DE JANEIRO           RJ20560110000000000000000                       
57100738850180003557700605      ROBERTO RODRIGUES ALVES JUNIOR     AV D HELDER CAMARA6001             PILARES                  RIO DE JANEIRO           RJ20771002000000000000000                       
57100738850180006688700944      DOUGLAS GONCALVES RODRIGUES        R BOOGI-WOOGI                      PITANGUEIRAS             RIO DE JANEIRO           RJ21930380000000000000000                       
57100738850180008753701180      LETICIA DOS SANTOS MESSIAS         R ANTONIO GUIMARAES 42             ALMERINDA                SAO GONCALO              RJ24742050000000000000000                       
57100738850180008770701182      ADENIS BORGES DE LIMA              RUA RIO CLARO SN LT 17 QD 48       SIT GANSOS               SAO JOAO DE MERITI       RJ25570607000000000000000                       
57100738850180008850701195      MADALENA TOLEDO DA SILVA SANCHES   R BELA VISTA 33 FD                 OLINDA                   NILOPOLIS                RJ26545050000000000000000                       
57100738850180008869701196      MARCIO DA SILVA BARROS DE SOUZA    R BR DE ITAPAGIPE 437 CASA 03      TIJUCA                   RIO DE JANEIRO           RJ20261105000000000000000                       
57100738850200003077700500      POLIANA DE CASSIA SOUZA DA SILVA   RUA BETANIA 4                      CENTRO                   MANAUS                   AM69001009000000000000000                       
57100738850200003239700271      FERNANDO OLIVEIRA EVANGELISTA      RUA ITALBAL 422                    CENTRO                   LARANJAL DO JARI         AP68920000000000000000000                       
57100738850220006890700974      FERNANDO FURTADO DE MELO           R HENRIQUE SCHEID 235 BL 01 APT 100E DENTRO                 RIO DE JANEIRO           RJ20770060000000000000000                       
57100738850220008931701204      ARIEL JORGE SAMUT                  R BICUIBA 1398 ED TERRAZO SALVADOR PATAMARES                SALVADOR                 BA41680050000000000000000                       
57100738850220009024701212      THAMIRES MATTOS MARQUES            R DAS OFICINAS 188 BL 3 APT 1402   ENGENHO DE DENTRO        RIO DE JANEIRO           RJ20770010000000000000000                       
57100738850220009032701213      MARCELO DE ALMEIDA                 R FLORIDA 306 APTO 304             CARMO                    BELO HORIZONTE           MG30310710000000000000000                       
57100738850220009393701256      FERNANDA CORREA GARCIA             ALTINA DA SILVA DIAS ANDRE 1 LT 8 QPACHECO                  SAO GONCALO              RJ24732360000000000000000                       
57100738850230007412701037      JEFERSON PINHEIRO DA SILVA         PSG N SRA APARECIDA 398            CASTANHEIRA              BELEM                    PA66645455000000000000000                       
57100738850230007617701046      MARCOS LISBOA LINHARES             TV NOVE DE JANEIRO 2537            CREMACAO                 BELEM                    PA66060370000000000000000                       
57100738850240006939700978      NATANAEL MARTINS DE MORAES         R ALCINDO PISSINATI 255            CDHU                     MOGI MIRIM               SP13802501000000000000000                       
57100738850240007200701005      CAROLINA POSTALE SANTANA           R BLECAUTE 90                      B VISTA                  PAULINIA                 SP13145024000000000000000                       
57100738850240008761701183      FABIO BARRETO FERNANDES            R ENG OSCAR WEINSCHENK 240 APTO 701BRAZ PINA                RIO DE JANEIRO           RJ21211780000000000000000                       
57100738850240008796701184      EDILSON ALVES MACEDO               R DAS CANOAS 945 APTO 504          CINQUENTENARIO           BELO HORIZONTE           MG30570068000000000000000                       
57100738850240008800701186      LUIZ FELIPE SOUZA MULLER CARVALHO  R VILHENA DE MORAIS 240 BL 2 AP 402BARRA TIJUCA             RIO DE JANEIRO           RJ22793140000000000000000                       
57100738850240009016701211      VITOR DONIZETH DE SIQUEIRA         R ORLANDO MONTANHEIRO 232          RES RES BARRA            JAGUARIUNA               SP13913384000000000000000                       
57100738850240009083701221      POLIANA FLAVIA MONTEDORI           RUA URUANA 268                     JD PLANALTO              PAULINIA                 SP13145133000000000000000                       
57100738850240009474679         ANTONIO RAMOS SPINOZA              RUA EDUARDO DO PRADO FLORENCE BRAGAJD ACAPULCO              GUARUJA                  SP11445870000000000000000                       
57100738850250006521700924      GLEICE MELO DA CUNHA               R DA LIBERDADE 46 CASA 03          S CRISTOVAO              RIO DE JANEIRO           RJ20910070000000000000000                       
57100738850250007137700998      KATINA REIS SCHARF DA COSTA        R JZ DE FORA 15                    GRAJAU                   RIO DE JANEIRO           RJ20561280000000000000000                       
57100738850250008427701144      VERONICA FERREIRA DE AGUIAR        R PATAGONIA 16                     PENHA                    RIO DE JANEIRO           RJ21020320000000000000000                       
57100738850250009172701229      JOANA BARBOSA COSTA JESUALDO       R SILVA GUIMARAES 18 AP 404        TIJUCA                   RIO DE JANEIRO           RJ20521200000000000000000                       
57100738850250009369701257      ISABELLA CAMARGO MENEZES           AFONSO PENA 187 APTO 201           TIJUCA                   RIO DE JANEIRO           RJ20270244000000000000000                       
57100738850270002097700578      GIVANILDO COSTA REBELO             RUA ROCHA NEGRA 301                CENTRO                   SANTAREM                 PA68035190000000000000000                       
57100738850270002372700579      JOSE HAMILTON DA SILVA OLIVEIRA    RUA SERVIDAO 6                     VILA SAO LUIS            CAMPOS DOS GOYTACAZES    RJ25065065000000000000000                       
57100738850270003085700149      ANTHONY ALBERT MENTORE             RUA BILLIE HOLIDAY 36              CENTRO                   MANAUS                   AM69001009000000000000000                       
57100738850270003174700124      ANTONIO JORGE PADILHA DIAS         LOTEAMENTO CAJARI II SNR           CENTRO                   LARANJAL DO JARI         AP68920000000000000000000                       
5710073885027000658070092       JORGE EDIMER RIANO MONTANO         R BAUHINEAS DA PENINSULA           B DA TIJUCA              RIO DE JANEIRO           RJ22776090000000000000000                       
57100738850270008729701177      THAISSA COSTA MONTEIRO             RUA SEGUNDA CJ GUAJARA II KIT NET AMAGUARI                  ANANINDEUA               PA67145280000000000000000                       
57100738850270009148701227      MARCEL LEZIEH MALTEZ HERNANDEZ     R NESTOR TIZON 31                  S BENEDITO               CONSELHEIRO LAFAIETE     MG36408235000000000000000                       
57100738850270009229701236      JOSE ALFREDO ESCOBAR               R CARMELITA S LANA 120 CS 3        SATELITE                 CONSELHEIRO LAFAIETE     MG36408258000000000000000                       
57100738850270009237701239      KATHLEEN CRISTINE BOTELHO SANTOS   Q NOVENTA E CINCO 20 QD 95         MAGUARI                  ANANINDEUA               PA67145031000000000000000                       
57100738850270009288701244      AUGUSTO CESAR SANTOS MARIANO       Q 19 C12                           MELADAO                  FLORIANO                 PI64808652000000000000000                       
57100738850270009296701246      FERNANDA O G MENEZES CARNEIRO      R SITIANTES                        ITABERABA                SAO PAULO                SP02737000000000000000000                       
57100738850270009300701250      ADRYA KEMILLY VIANA ARAUJO         R MARCILIO PINHEIRO 24             MAGUARI                  ANANINDEUA               PA67145150000000000000000                       
57100738850270009326701253      FRANCISCO WELLINGTON SOARES SILVA  R BEM TE VI 87                     MECEJANA                 BOA VISTA                RR69304475000000000000000                       
57100738850270009334701252      DIEGO TAVARES VALOTTA              R RODRIGO MEDEIROS 121 BL 16 AP 22 JD MTE ALTO              CAMPINAS                 SP13064845000000000000000                       
57100738850270009342701254      TOMAS ARRILLAGA                    R CASTRO ALVES 265                 ACLIMACAO                SAO PAULO                SP01532001000000000000000                       
57100738850270009431701263      BRUNO JOSE GOMES DOS SANTOS        R GUAIRACA 1570                    JD MARISTELA             PITANGA                  PR85200306000000000000000                       
57100738850270009458701265      JADER DE MATOS RIVAROLA PEREIRA    R RIO ARACAJU 2027                 PRQ ORESTES ONGARO       HORTOLANDIA              SP13183701000000000000000                       
57100738850280003204700208      FRANCK NEY DOS SANTOS AMARAL       RUA PARANA 1148                    CENTRO                   MACAPA                   AP68901260000000000000000                       
57100738850280007960701093      DEIVISON NUNO FREITAS DOS SANTOS   ALAMEDA RUA 94 161                 FACEL                    ALMEIRIM                 PA68230000000000000000000                       
57100738850280008583701161      SEBASTIAO CAETANO PINTO            RUA OTACILIO BONFIM 1 LADO B       GLORIA                   PITANGA                  PR85200000000000000000000                       
57100738850280008591701162      ADRIANO JULIO NUNES DA SILVA       R GETULINA 132                     C NOVA                   MANAUS                   AM69095295000000000000000                       
57100738850280008605701163      KLEBER MARQUES SERRAO              AV DAS MELANCIAS 806               INFRAERO                 MACAPA                   AP68908831000000000000000                       
57100738850280008621701166      LEANDRO PAULINO CHAGAS             RUA AMETISTA 773                   NOVO HORIZONTE           RORAINOPOLIS             RR69373000000000000000000                       
57100738850280008648701169      ADISON DOS SANTOS SILVA            TRAV JOSE AUGUSTO DA SILVA SN CASA SAO FRANCISCO            JACAREACANGA             PA68195000000000000000000                       
57100738850280008656701170      GIRLEY BARBOSA VILHENA             R ACESIO GUEDES 1018               P SOCORRO                MACAPA                   AP68905711000000000000000                       
57100738850280008664701171      JONIAS MARTINS MELO                AV JUSCELINO K DE OLIVEIRA SN      AVEIRO                   AVEIRO                   PA68515000000000000000000                       
57100738850280008958701206      MARCIO BATISTA TAVARES             R TAILANDIA 35                     FLORES                   MANAUS                   AM69028191000000000000000                       
57100738850280009113701224      WERVERSON RODRIGUES LIMA           R CAUBI B DE MAGALHAES 499         DR SILVIO BOTELHO        BOA VISTA                RR69314487000000000000000                       
57100738850290002860700296      MARCIO ALMEIDA AMORIN COUTO        ANAJAS 264                         CENTRO                   RIO DE JANEIRO           RJ21361200000000000000000                       
57100738850290006742700952      BRUNO DE ASSUNCAO BORDALO PEIXOTO  R FLAVIO J DA COSTA                PITANGUEIRAS             RIO DE JANEIRO           RJ21930290000000000000000                       
57100738850360007323701022      HILTON MAR RIBEIRO LIMA            RUA AMBROSIO ANTERO SANTIAGO 233   SAO FRANCISCO            JACAREACANGA             PA68195000000000000000000                       
57100738850360007757701071      FRANCISCO DAS CHAGAS SILVA         RUA JOAO MOTA DE MIRANDA SN        SAO FRANCISCO            JACAREACANGA             PA68195000000000000000000                       
57100738850360008168701113      LERCY MODESTO MOURA                AVENIDA GETULIO VARGAS 2           SAO PEDRO                JACAREACANGA             PA68195000000000000000000                       
57100738850360009105701223      ANTTONY ROBERT OLIVEIRA DE SOUSA   ALAMEDA SEIS 5                     TAPANA (ICOARACI)        BELEM                    PA66833060000000000000000                       
57100738850360009121701225      JOAO DE SOUZA SANTOS               AV DOS BURITIS SN LT 10 QD 17      JD AMERICA               ITAITUBA                 PA68182502000000000000000                       
57100738850360009156701230      EDIVALDO MACEDO DO NASCIMENTO      AV DR HUGO DE MENDONCA 359         AER VELHO                ITAITUBA                 PA68181000000000000000000                       
57100738850360009210701238      NEILSON PEREIRA DE ARAUJO          RUA JUDITE BARROSO PINHEIRO 315    PALMEIRAS                JURUTI                   PA68170000000000000000000                       
57100738850360009253701241      LUIS IZIDORO NASCIMENTO LEITE      AV CARLETO BEMERGUY 1710           BELA VISTA               ITAITUBA                 PA68180400000000000000000                       
57100738850360009377701260      ANA BEATRIZ CRUZ DE MATOS          AMBROSIO SANTIAGO 1                SAO FRANCISCO            JACAREACANGA             PA68195000000000000000000                       
57100738850360009385701261      ESTIVE PUELE GODOI                 NOVA 115                           SAO FRANCISCO            JACAREACANGA             PA68195000000000000000000                       
57100738850370000094700138      ALEXANDRE CARVALHO DE FREITAS      RUA INCONFIDENCIA 912A             CENTRO                   LARANJAL DO JARI         AP68920000000000000000000                       
57100738850370002127700554      MARCOS AUGUSTO QUARESMA DIAS       RUA RAIMUNDO AMARAL 5              CENTRO                   ANAJAS                   PA68810000000000000000000                       
57100738850370002160700555      ELIAQUIM PINHEIRO DO AMARAL        RUA MAGALHAES BARATO 119           CENTRO                   ANAJAS                   PA68810000000000000000000                       
57100738850370004197700516      ALCIMAR ROBERTO PAZ DA SILVA       RUA MARGEM DA LINHA 12             BARROS FILHO             SAO JOAO DA BARRA        RJ28200000000000000000000                       
57100738850370006726700948      CELSON DE SOUZA PEREIRA            AV RIO BRANCO                      CENTRO                   RIO DE JANEIRO           RJ20040004000000000000000                       
57100738850370007307701020      JOAO PAULO CAMPOS GOMES            AV MAGALHAES BARATA SN             PRAINHA                  ANAJAS                   PA68810000000000000000000                       
57100738850370008346701135      ALISON DE SOUZA PINHEIRO           TRAVESSA MANOEL GONCALVES 51       CENTRO                   ANAJAS                   PA68810000000000000000000                       
57100738850370008842701192      DAVID CORDEIRO DA SILVA FILHO      TRAVESSA VIDA NOVA SN              CIDADE NOVA              ANAJAS                   PA68810000000000000000000                       
57100738850370009180701231      KLEUSON COSTA LOBATO               TV MANOEL GONCALVES 001            PRAINHA                  ANAJAS                   PA68810000000000000000000                       
57100738850370009423701262      JULIANO CORDOVIL PEREIRA           AV MAGALHAES BARARA 78             CENTRO                   ANAJAS                   PA68810000000000000000000                       
57100738850380001627700502      JEFFERSON LUIZ SOUSA DE FREITAS    RUA SAO DOMINGOS 123               CENTRO                   BELEM                    PA66077650000000000000000                       
57100738850380001759700564      JOEL PIMENTEL DO AMARAL LYRIO      RUA PASSAGEM SANTA ROSA 2          CENTRO                   ANANINDEUA               PA67100060000000000000000                       
57100738850380001805700567      JOSE ANTONIO REGO PINHEIRO         AV  BEIRA MAR 43                   CENTRO                   ANAJAS                   PA68810000000000000000000                       
571007388503800048047000652     WLANDER H SACRAMENTO OLIVEIRA      RUA MAGALHAES BARATA               CENTRO                   BELEM                    PA66846001000000000000000                       
57100738850380005266700823      JAX NEI LOPES COELHO               PSG DA PEDREIRINHA                 GUAMA                    BELEM                    PA66075620000000000000000                       
57100738850380005274700822      MAURO SERGIO LOPES PEREIRA         TV BR DO TRIUNFO                   PEDREIRA                 BELEM                    PA66087270000000000000000                       
57100738850380007021700987      MAYKON JOSE DA SILVA PINHEIRO      R JOSE M DE OLIVEIRA 1397 D        CENTRO                   ANANINDEUA               PA67030170000000000000000                       
57100738850380009350701255      SIDICLEY NEVES DA SILVA            VILA NOVA 230 APTO 1108            COQUEIRO                 ANANINDEUA               PA67130600000000000000000                       
57100738850400001511700524      HUMBERTO PAMPLONA MONTEIRO         RUA BENJAMIM GAIOSO IGLESIAS 16    CENTRO                   SANTA CRUZ DO ARARI      PA68850000000000000000000                       
57100738850400002151700551      PEDRO PAULO BARBOSA PAMPLONA       RUA GEMAQUE DE SOUZA 6             CENTRO                   SANTA CRUZ DO ARARI      PA68850000000000000000000                       
57100738850400008133701108      DERICK WELTON GONCALVES CARVALHO   TV WE-59 1032                      CIDADE NOVA              ANANINDEUA               PA67133115000000000000000                       
57100738850410001651700527      EVANDRO MARCOS SILVA CONCEICAO     AV INDEPENDENCIA 550               CENTRO                   CHAVES                   PA68880000000000000000000                       
57100738850410001660700526      JOSE LISANDRO PEREIRA DE SIQUEIRA  AV MIRI 2                          CENTRO                   SAO SEBASTIAO DA BOA VISTPA68820000000000000000000                       
57100738850410002232700549      JILSON MARCUS DA CONCEICAO PALHETA AVENIDA INDEPENDENCIA N 0 6        CENTRO                   CHAVES                   AP68903395000000000000000                       
57100738850410002240700550      ODIMAR ALMEIDA LOUREIRO            AV INDEPENDENCIA , N  132 132      CENTRO                   CHAVES                   PA68880000000000000000000                       
57100738850410003930700580      MARINALDO FERREIRA FURTADO         AV NAZARE 2                        CENTRO                   CHAVES                   PA68880000000000000000000                       
57100738850410004405700622      DANIEL PASTANA DA SILVA            TRAVESSA PRESIDENTE MEDICI         RESTAURATE               CHAVES                   PA68880000000000000000000                       
57100738850410007471701043      EDERSON SILVA DE OLIVEIRA          NOVA II 4082                       CENTRO                   CHAVES                   PA68880000000000000000000                       
57100738850410007803701077      RICHARLISON VALADARES FURTADO      AVENIDA INDEPENDENCIA 234          CHAVES                   CHAVES                   PA68880000000000000000000                       
57100738850410008745701181      MARCELO DE OLIVEIRA DIAS JUNIOR    AV MERI SN                         MERI                     CHAVES                   PA68880000000000000000000                       
57100738850410009199701235      KLEYDSON DOS SANTOS OLIVEIRA       AV MIRI 25                         CENTRO                   CHAVES                   PA68880000000000000000000                       
57100738850420001520700520      ALBERSON HAROLDO DIAS SENA         AV MAGALHAES BARATA 458            CENTRO                   AVEIRO                   PA68150000000000000000000                       
57100738850420001546700521      ANTONIO FRANCISCO SOUZA SANTIAGO   AV ANTONIO FELIPE SANTIAGO 8       CENTRO                   AVEIRO                   PA68150000000000000000000                       
57100738850420001554700519      JACO DA CONCEICAO SILVA            AV MAGALHAES BARATA  735 735       CENTRO                   AVEIRO                   PA68150000000000000000000                       
57100738850420002194700546      ARLISON ALTEMIR NASCIMENTO DA SILVAAV  DR  AURELIO DO CARMO 53        CENTRO                   AVEIRO                   PA68150000000000000000000                       
57100738850420002224700545      ELIELSON MOTA DE OLIVEIRA          RUA CORINA FERREIRA PALMEIRA 239   CENTRO                   AVEIRO                   PA68150000000000000000000                       
57100738850420006467700917      JURACI GOMES DA SILVA              AV DUQUE DE CAXIAS 827             AGRESTE                  LARANJAL DO JARI         AP68920000000000000000000                       
57100738850420008672701173      JERRYSON DE SOUSA VAZ              AV DOS BURITIS SN R D 8 QD 39 LT 38JD AMERICA               ITAITUBA                 PA68182502000000000000000                       
57100738850420009008701210      SARA OLIVEIRA DA LUZ               ROD BR-316 SN QD 8 BL 4 APT 202    CENTRO                   ANANINDEUA               PA67030007000000000000000                       
TRAILLER ENDERECOS  00000144                                                                                                                                                                            
