1FATURA TECNICA                CVC BRASIL OPER E AGEN DE VIAGENS S5719840074022878MULTI SAUDE EMPRESA                20250720250731FATURAMENTO    00000002                          
2010500CVC BRASIL OPER E AGEN DE VIAGENS S00000000000000000000000000000000000000000000000000000000000000020250731                                                                   
30500002312400MARCIA OMINE                           26101960220QN0630032016AM07202500000000011766400000000000000008                    00000000078A188269590720774022023124005     
30500002312400F.MODERADORES  PAGOS EM 07/2025        00000000000    00000000RS07202500000000000966600000000000000010                                188269590720774022023124005     
40500(AC)ACERTO DE FATURA(COBRAR)       000000000000000000000000000000000000000000000000000000                                                                                      
40500(RS)RECUPERACAO SINISTRO           000000000000000000000001000000000009666000000000000000                                                                                      
40500(  )VIDAS REMAN. MES ANTERIOR      000000000000000000000000000000000000000000000000000000                                                                                      
40500(IM)INCLUSOES NO MES               000000000000000000000000000000000000000000000000000000                                                                                      
40500(IR)INCLUSOES RETROATIVAS          000000000000000000000000000000000000000000000000000000                                                                                      
40500(RM)REATIVACOES NO MES             000000000000000000000000000000000000000000000000000000                                                                                      
40500(RR)REATIVACOES RETROATIVAS        000000000000000000000000000000000000000000000000000000                                                                                      
40500(TM)TRANSFERENCIAS NO MES          000000000000000000000000000000000000000000000000000000                                                                                      
40500(TR)TRANSFERENCIAS RETROATIVAS     000000000000000000000000000000000000000000000000000000                                                                                      
40500(AM)ALTERACOES NO MES              000001000000000001000001000000000117664000000000000000                                                                                      
40500(AR)ALTERACOES RETROATIVAS         000000000000000000000000000000000000000000000000000000                                                                                      
40500(RE)COBRANCA DE REMIDO             000000000000000000000000000000000000000000000000000000                                                                                      
40500(TC)TOTAIS A COBRAR                000001000000000001000002000000000127330000000000000000                                                                                      
40500(AD)ACERTO DE FATURA(DEVOLVER)     000000000000000000000000000000000000000000000000000000                                                                                      
40500(CM)CANCELAMENTOS NO MES           000000000000000000000000000000000000000000000000000000                                                                                      
40500(CR)CANCELAMENTOS RETROATIVOS      000000000000000000000000000000000000000000000000000000                                                                                      
40500(TM)TRANSFERENCIAS NO MES          000000000000000000000000000000000000000000000000000000                                                                                      
40500(TR)TRANSFERENCIAS RETROATIVAS     000000000000000000000000000000000000000000000000000000                                                                                      
40500(AM)ALTERACOES NO MES              000000000000000000000000000000000000000000000000000000                                                                                      
40500(AR)ALTERACOES RETROATIVAS         000000000000000000000000000000000000000000000000000000                                                                                      
40500(DM)DEVOLUCAO REMIDO NO MES        000000000000000000000000000000000000000000000000000000                                                                                      
40500(DR)DEVOLUCAO REMIDO RETROAT.      000000000000000000000000000000000000000000000000000000                                                                                      
40500(TD)TOTAIS A DEVOLVER              000000000000000000000000000000000000000000000000000000                                                                                      
40500(TS)TOTAIS DA SUBFATURA            000001000000000001000002000000000127330000000000000000                                                                                      
40500   PLANOS CONTRATADOS:                                                                                                                                                         
40500   PLANO   N.TIT   N.DEP N.VIDAS FATOR REEMB.HM HOSPITAL                 PLANO   N.TIT   N.DEP N.VIDAS FATOR REEMB.HM HOSPITAL                                                 
40500   QN06        1       0                   0,00 REFERENCIADO                                                                                                                   
49999(AC)ACERTO DE FATURA(COBRAR)       000000000000000000000000000000000000000000000000000000                                                                                      
49999(RS)RECUPERACAO SINISTRO           000000000000000000000001000000000009666000000000000000                                                                                      
49999(  )VIDAS REMAN. MES ANTERIOR      000000000000000000000000000000000000000000000000000000                                                                                      
49999(IM)INCLUSOES NO MES               000000000000000000000000000000000000000000000000000000                                                                                      
49999(IR)INCLUSOES RETROATIVAS          000000000000000000000000000000000000000000000000000000                                                                                      
49999(RM)REATIVACOES NO MES             000000000000000000000000000000000000000000000000000000                                                                                      
49999(RR)REATIVACOES RETROATIVAS        000000000000000000000000000000000000000000000000000000                                                                                      
49999(TM)TRANSFERENCIAS NO MES          000000000000000000000000000000000000000000000000000000                                                                                      
49999(TR)TRANSFERENCIAS RETROATIVAS     000000000000000000000000000000000000000000000000000000                                                                                      
49999(AM)ALTERACOES NO MES              000001000000000001000001000000000117664000000000000000                                                                                      
49999(AR)ALTERACOES RETROATIVAS         000000000000000000000000000000000000000000000000000000                                                                                      
49999(RE)COBRANCA DE REMIDO             000000000000000000000000000000000000000000000000000000                                                                                      
49999(TC)TOTAIS A COBRAR                000001000000000001000002000000000127330000000000000000                                                                                      
49999(AD)ACERTO DE FATURA(DEVOLVER)     000000000000000000000000000000000000000000000000000000                                                                                      
49999(CM)CANCELAMENTOS NO MES           000000000000000000000000000000000000000000000000000000                                                                                      
49999(CR)CANCELAMENTOS RETROATIVOS      000000000000000000000000000000000000000000000000000000                                                                                      
49999(TM)TRANSFERENCIAS NO MES          000000000000000000000000000000000000000000000000000000                                                                                      
49999(TR)TRANSFERENCIAS RETROATIVAS     000000000000000000000000000000000000000000000000000000                                                                                      
49999(AM)ALTERACOES NO MES              000000000000000000000000000000000000000000000000000000                                                                                      
49999(AR)ALTERACOES RETROATIVAS         000000000000000000000000000000000000000000000000000000                                                                                      
49999(DM)DEVOLUCAO REMIDO NO MES        000000000000000000000000000000000000000000000000000000                                                                                      
49999(DR)DEVOLUCAO REMIDO RETROAT.      000000000000000000000000000000000000000000000000000000                                                                                      
49999(TD)TOTAIS A DEVOLVER              000000000000000000000000000000000000000000000000000000                                                                                      
49999(TS)TOTAIS DA SUBFATURA            000001000000000001000002000000000127330000000000000000                                                                                      
49999   PLANOS CONTRATADOS:                                                                                                                                                         
49999   PLANO   N.TIT   N.DEP N.VIDAS FATOR REEMB.HM HOSPITAL                 PLANO   N.TIT   N.DEP N.VIDAS FATOR REEMB.HM HOSPITAL                                                 
49999   QN06        1       0                   0,00 REFERENCIADO                                                                                                                   
5TRAILLER FATURA TECNICA                                                                                                                                                            
