1007412520250731.POSICAO CADASTRAL CADRET.                                                                                                                                                                                                                                                                                                                                                                                                                                                                                                                                                                                                                                                                                                                                                                                                                                                                                                                                                                                                                                                                                                                                                                                                                                                                                                                                                                                                                                                                                                                                                                                                                                                                                                                                                                                                                                                                                                                                                                                                                                                                                                                                                                                                                                                                                                                                                                                                                                                                                                                                                                                                                                                                                                                                                                                                                                                                                                                                                                                                                                                                              
257100741250001000003500000001000480            774125000035006011220150000000000000000EDINEI ROBERTO DE CASTRO                                              060519651200000000                                                                      00000000000AMELIA ROSSATO DE CASTRO                                              05641156817                                                                                000010100010000000000070050774191915600000000000                                                                                                                                                                                                                                                                                             00001000480000000000000CONSULTOR DE TECNOLO06071981                                                                                                                                                                0000000000                                                                                                    NOVE DE JULHO 481                                                          CENTRO                                                      PRADOPOLIS                                                              SP148500000000  00000000000000000000000000000000000000                                                                                                                                                                                              237016489 00000000025372 CCI                                                                                                    NP030000QN0601052022059000000000000000000000000000000000000000000000000000                                                       00000000N                                                                                                                                                                                                                                                                                                                                                                                                                                                                                                                                                                                                                                                                                                                                                                                                                                                                                                                                                                                                                                                                                                                                                                                                                                                            
257100741250001000003503000001000480            774125000035030011220150000000000000000MARIA DE LOURDES MAGNUSSON DE CASTRO                                  171019642210000000                                                                                 CATARINA PIVA MAGNUSSON                                               05740664896                                                                                           0000000000070630419712418000000000000                                                                                                                                                                                                                                                                                                                                                                                                                                                                                                                                                                                                                                                                                                                                                                                                                                                                                                                                                                                                                                                                                                                                                                                                                                                     059000000000000000000000000000000000000000000000000000                                                       00000000N                                                                                                                                                                                                                                                                                                                                                                                                                                                                                                                                                                                                                                                                                                                                                                                                                                                                                                                                                                                                                                                                                                                                                                                                                                                            
257100741250001000004300000001000647            774125000043000011220150000000000000000IDNEI SAMUEL DELA MARTA                                               280319621200000000                                                                      00000000000FLORINDA SDELA MARTA                                                  04193030814                                                                                000010100010000000000070580442390873300000000000                                                                                                                                                                                                                                                                                             00001000647000000000000GESTOR SERVICOS AGRI27061980                                                                                                                                                                0000000000                                                                                                    AMELIA ZANINI BOMBONATTI 402                                               CENTRO                                                      BARRINHA                                                                SP148600000000  00000000000000000000000000000000000000                                                                                                                                                                                              237001856 0000000257702P CCI                                                                                                    NP030000QN0601052017055700000000000000000000000000000000000000000000000000                                                       00000000N                                                                                                                                                                                                                                                                                                                                                                                                                                                                                                                                                                                                                                                                                                                                                                                                                                                                                                                                                                                                                                                                                                                                                                                                                                                            
257100741250001000004301000001000647            774125000043018011220150000000000000000MARLEI AP GUEDES DELA MARTA                                           161019652210000000                                                                                 MARLEI APARECIDA GUEDES DELA MARTA                                    08131611850                                                                                           0000000000070280963790146200000000000                                                                                                                                                                                                                                                                                                                                                                                                                                                                                                                                                                                                                                                                                                                                                                                                                                                                                                                                                                                                                                                                                                                                                                                                                                                     055700000000000000000000000000000000000000000000000000                                                       00000000N                                                                                                                                                                                                                                                                                                                                                                                                                                                                                                                                                                                                                                                                                                                                                                                                                                                                                                                                                                                                                                                                                                                                                                                                                                                            
257100741250001000006000000001003370            774125000060004011220150000000000000000SIDNEY ROBERTO FERREIRA                                               200219731200000000                                                                      00000000000LEONTINA DE ALMEIDA FERREIRA                                          13207711812                                                                                000010100010000000000070680278345292400000000000                                                                                                                                                                                                                                                                                             00001003370000000000000GERENTE SERVICOS E R04081988                                                                                                                                                                0000000000                                                                                                    RUA GERALDO FLAUSINO GOMES 61 CONJ 132 13 ANDAR                            BROOKLIN NOVO                                               SAO PAULO                                                               SP045750600000  00000000000000000000000000000000000000                                                                                                                                                                                              237016489 00000000068578 CCI                                                                                                    NP040000    01122015059000000000000000000000000000000000000000000000000000                                                       00000000N                                                                                                                                                                                                                                                                                                                                                                                                                                                                                                                                                                                                                                                                                                                                                                                                                                                                                                                                                                                                                                                                                                                                                                                                                                                            
257100741250001000006001000001003370            774125000060012011220150000000000000000MARIA EDUARDA FERREIRA                                                270920042120000000                                                                                 JAQUELINE MATTOS FERREIRA                                             39167573851                                                                                           0000000000070300884069867000000000000                                                                                                                                                                                                                                                                                                                                                                                                                                                                                                                                                                                                                                                                                                                                                                                                                                                                                                                                                                                                                                                                                                                                                                                                                                                     059000000000000000000000000000000000000000000000000000                                                       00000000N                                                                                                                                                                                                                                                                                                                                                                                                                                                                                                                                                                                                                                                                                                                                                                                                                                                                                                                                                                                                                                                                                                                                                                                                                                                            
257100741250001000006002000001003370            774125000060020011220150000000000000000MARIA VITORIA FERREIRA                                                050420022120000000                                                                                 JAQUELINE MATTOS FERREIRA                                             39167575803                                                                                           0000000000070900881700941300000000000                                                                                                                                                                                                                                                                                                                                                                                                                                                                                                                                                                                                                                                                                                                                                                                                                                                                                                                                                                                                                                                                                                                                                                                                                                                     059000000000000000000000000000000000000000000000000000                                                       00000000N                                                                                                                                                                                                                                                                                                                                                                                                                                                                                                                                                                                                                                                                                                                                                                                                                                                                                                                                                                                                                                                                                                                                                                                                                                                            
257100741250001000006003000001003370            774125000060038051120160000000000000000JESSICA FRANCIELLE PIVA FERREIRA                                      100519882210000000                                                                                 VERA LUCIA PERDIGAO PIVA                                              36342636877                                                                                           0000000000070750629350039000000000000                                                                                                                                                                                                                                                                                                                                                                                                                                                                                                                                                                                                                                                                                                                                                                                                                                                                                                                                                                                                                                                                                                                                                                                                                                                     059000000000000000000000000000000000000000000000000000                                                       00000000N                                                                                                                                                                                                                                                                                                                                                                                                                                                                                                                                                                                                                                                                                                                                                                                                                                                                                                                                                                                                                                                                                                                                                                                                                                                            
257100741250001000007800000001004802            774125000078006011220150000000000000000AGENOR CUNHA PAVAN                                                    250619621200000000                                                                      00000000000MARIA THEREZINHA CUNHA PAVAN                                          04156179877                                                                                000010100010000000000070180522429977800000000000                                                                                                                                                                                                                                                                                             00001004802000000000000DIRETOR SUPERINTENDE01041997                                                                                                                                                                0000000000                                                                                                    RUA GERALDO FLAUSINO GOMES 61 CONJ 132 13 ANDAR                            BROOKLIN NOVO                                               SAO PAULO                                                               SP045759020000  00000000000000000000000000000000000000                                                                                                                                                                                              237016489 00000000014141 CCI                                                                                                    NP060000    01122015059000000000000000000000000000000000000000000000000000                                                       00000000N                                                                                                                                                                                                                                                                                                                                                                                                                                                                                                                                                                                                                                                                                                                                                                                                                                                                                                                                                                                                                                                                                                                                                                                                                                                            
257100741250001000007801000001004802            774125000078014011220150000000000000000FLAVIA DE STEFANI                                                     100219602210000000                                                                                 MARIA DE LOURDES RUZZANTE DE STEFANI                                  10899350801                                                                                           0000000000070830524299596000000000000                                                                                                                                                                                                                                                                                                                                                                                                                                                                                                                                                                                                                                                                                                                                                                                                                                                                                                                                                                                                                                                                                                                                                                                                                                                     059000000000000000000000000000000000000000000000000000                                                       00000000N                                                                                                                                                                                                                                                                                                                                                                                                                                                                                                                                                                                                                                                                                                                                                                                                                                                                                                                                                                                                                                                                                                                                                                                                                                                            
257100741250001000008600000001005022            774125000086009011220150000000000000000ELIAS EDUARDO ROSA GEORGES                                            080119731200000000                                                                      00000000000ARLETE ROSA DA SILVA GEORGES                                          14833232855                                                                                000010100010000000000070000287373680600000000000                                                                                                                                                                                                                                                                                             00001005022000000000000DIRETOR JURIDICO    16021998                                                                                                                                                                0000000000                                                                                                    RUA GERALDO FLAUSINO GOMES 61 CONJ 132 13 ANDAR                            BROOKLIN NOVO                                               SAO PAULO                                                               SP045750600000  00000000000000000000000000000000000000                                                                                                                                                                                              237016489 00000000126225 CCI                                                                                                    NP060000    01122015059000000000000000000000000000000000000000000000000000                                                       00000000N                                                                                                                                                                                                                                                                                                                                                                                                                                                                                                                                                                                                                                                                                                                                                                                                                                                                                                                                                                                                                                                                                                                                                                                                                                                            
257100741250001000008601000001005022            774125000086017011220150000000000000000ANA LAURA MOYA GEORGES                                                190720032120000000                                                                                 CARLA MINUTTI MOYA GEORGES                                            44512777873                                                                                           0000000000070010786686189000000000000                                                                                                                                                                                                                                                                                                                                                                                                                                                                                                                                                                                                                                                                                                                                                                                                                                                                                                                                                                                                                                                                                                                                                                                                                                                     059000000000000000000000000000000000000000000000000000                                                       00000000N                                                                                                                                                                                                                                                                                                                                                                                                                                                                                                                                                                                                                                                                                                                                                                                                                                                                                                                                                                                                                                                                                                                                                                                                                                                            
257100741250001000008602000001005022            774125000086025011220150000000000000000CARLA MINUTTI MOYA GEORGES                                            210919732210000000                                                                                 DILVA MINUTTI MOYA                                                    19099745877                                                                                           0000000000070800981673692600000000000                                                                                                                                                                                                                                                                                                                                                                                                                                                                                                                                                                                                                                                                                                                                                                                                                                                                                                                                                                                                                                                                                                                                                                                                                                                     059000000000000000000000000000000000000000000000000000                                                       00000000N                                                                                                                                                                                                                                                                                                                                                                                                                                                                                                                                                                                                                                                                                                                                                                                                                                                                                                                                                                                                                                                                                                                                                                                                                                                            
257100741250001000008603000001005022            774125000086033011220150000000000000000JOAO PEDRO MOYA GEORGES                                               241120011120000000                                                                                 CARLA MINUTTI MOYA GEORGES                                            22852195801                                                                                           0000000000070000135324010400000000000                                                                                                                                                                                                                                                                                                                                                                                                                                                                                                                                                                                                                                                                                                                                                                                                                                                                                                                                                                                                                                                                                                                                                                                                                                                     059000000000000000000000000000000000000000000000000000                                                       00000000N                                                                                                                                                                                                                                                                                                                                                                                                                                                                                                                                                                                                                                                                                                                                                                                                                                                                                                                                                                                                                                                                                                                                                                                                                                                            
257100741250001000010800000001005461            774125000108001011220150000000000000000ELKE MEIRELLES                                                        231219661200000000                                                                      00000000000LUCIA MORGADO MEIRELLES                                               09363818845                                                                                000010100010000000000070000385461230800000000000                                                                                                                                                                                                                                                                                             00001005461000000000000GERENTE EXECUTIVO   03082001                                                                                                                                                                0000000000                                                                                                    RUA GERALDO FLAUSINO GOMES 61 CONJ 132 13 ANDAR                            BROOKLIN NOVO                                               SAO PAULO                                                               SP045750600000  00000000000000000000000000000000000000                                                                                                                                                                                              237016489 00000000144568 CCI                                                                                                    NP060000NP0401042022059000000000000000000000000000000000000000000000000000                                                       00000000N                                                                                                                                                                                                                                                                                                                                                                                                                                                                                                                                                                                                                                                                                                                                                                                                                                                                                                                                                                                                                                                                                                                                                                                                                                                            
257100741250001000010801000001005461            774125000108019011220150000000000000000BEATRIZ BRAGA MEIRELLES                                               141020012120000000                                                                                 DENISE DOS SANTOS BRAGA                                               38628335854                                                                                           0000000000070050091335955600000000000                                                                                                                                                                                                                                                                                                                                                                                                                                                                                                                                                                                                                                                                                                                                                                                                                                                                                                                                                                                                                                                                                                                                                                                                                                                     059000000000000000000000000000000000000000000000000000                                                       00000000N                                                                                                                                                                                                                                                                                                                                                                                                                                                                                                                                                                                                                                                                                                                                                                                                                                                                                                                                                                                                                                                                                                                                                                                                                                                            
257100741250001000010803000001005461            774125000108035011220150000000000000000DENISE DOS SANTOS BRAGA                                               171219662210000000                                                                                 MARIA TEREZA DOS SANTOS BRAGA                                         08290898886                                                                                           0000000000070890976554691400000000000                                                                                                                                                                                                                                                                                                                                                                                                                                                                                                                                                                                                                                                                                                                                                                                                                                                                                                                                                                                                                                                                                                                                                                                                                                                     059000000000000000000000000000000000000000000000000000                                                       00000000N                                                                                                                                                                                                                                                                                                                                                                                                                                                                                                                                                                                                                                                                                                                                                                                                                                                                                                                                                                                                                                                                                                                                                                                                                                                            
257100741250001000011600000001005468            774125000116004011220150000000000000000VICTOR LEONEL DE CARVALHO FILHO                                       070619651200000000                                                                      00000000000YRE MARQUES DE CARVALHO                                               72064994653                                                                                000010100010000000000070500005265355800000000000                                                                                                                                                                                                                                                                                             00001005468000000000000GESTOR MANUTENCAO   01102001                                                                                                                                                                0000000000                                                                                                    RUA GERALDO FLAUSINO GOMES 61 CONJ 132 13 ANDAR                            BROOKLIN NOVO                                               SAO PAULO                                                               SP045750600000  00000000000000000000000000000000000000                                                                                                                                                                                              237016489 00000000144630 CCI                                                                                                    NP030000    01122015059000000000000000000000000000000000000000000000000000                                                       00000000N                                                                                                                                                                                                                                                                                                                                                                                                                                                                                                                                                                                                                                                                                                                                                                                                                                                                                                                                                                                                                                                                                                                                                                                                                                                            
257100741250001000011602000001005468            774125000116020011220150000000000000000ANA CRISTINA NORBERTO DE CARVALHO                                     271219662210000000                                                                                 RUTH TEREZINHA NORBERTO                                               67516653691                                                                                           0000000000070360900276773400000000000                                                                                                                                                                                                                                                                                                                                                                                                                                                                                                                                                                                                                                                                                                                                                                                                                                                                                                                                                                                                                                                                                                                                                                                                                                                     059000000000000000000000000000000000000000000000000000                                                       00000000N                                                                                                                                                                                                                                                                                                                                                                                                                                                                                                                                                                                                                                                                                                                                                                                                                                                                                                                                                                                                                                                                                                                                                                                                                                                            
257100741250001000017500000001005550            774125000175000011220150000000000000000EDI CLAUDIO FIORI                                                     150219701200000000                                                                      00000000000CECILIA AP MIOTTO FIORI                                               10155496832                                                                                000010100010000000000070310366817689000000000000                                                                                                                                                                                                                                                                                             00001005550000000000000HEAD TEC INFORMACAO 01041984                                                                                                                                                                0000000000                                                                                                    RUA GERALDO FLAUSINO GOMES 61 CONJ 132 13 ANDAR                            BROOKLIN NOVO                                               SAO PAULO                                                               SP045750600000  00000000000000000000000000000000000000                                                                                                                                                                                              237017019 00000000156051 CCI                                                                                                    NP060000NP0401042022059000000000000000000000000000000000000000000000000000                                                       00000000N                                                                                                                                                                                                                                                                                                                                                                                                                                                                                                                                                                                                                                                                                                                                                                                                                                                                                                                                                                                                                                                                                                                                                                                                                                                            
257100741250001000017501000001005550            774125000175018011220150000000000000000HELENA CASSANTI FIORI                                                 070420032120000000                                                                                 SONIA REGINA PERLIS CASSANTI FIORI                                    43719680827                                                                                           0000000000070050478273385200000000000                                                                                                                                                                                                                                                                                                                                                                                                                                                                                                                                                                                                                                                                                                                                                                                                                                                                                                                                                                                                                                                                                                                                                                                                                                                     059000000000000000000000000000000000000000000000000000                                                       00000000N                                                                                                                                                                                                                                                                                                                                                                                                                                                                                                                                                                                                                                                                                                                                                                                                                                                                                                                                                                                                                                                                                                                                                                                                                                                            
257100741250001000017502000001005550            774125000175026011220150000000000000000JULIA CECILIA CASSANTI FIORI                                          070920012120000000                                                                                 SONIA REGINA PERLIS CASSANTI FIORI                                    43719646807                                                                                           0000000000070840474537776900000000000                                                                                                                                                                                                                                                                                                                                                                                                                                                                                                                                                                                                                                                                                                                                                                                                                                                                                                                                                                                                                                                                                                                                                                                                                                                     059000000000000000000000000000000000000000000000000000                                                       00000000N                                                                                                                                                                                                                                                                                                                                                                                                                                                                                                                                                                                                                                                                                                                                                                                                                                                                                                                                                                                                                                                                                                                                                                                                                                                            
257100741250001000017503000001005550            774125000175034011220150000000000000000SONIA REGINA PERLIS CASSANTI FIORI                                    290919702210000000                                                                                 CELINA PERLIS CASSANTI                                                13420522851                                                                                           0000000000070100685776579300000000000                                                                                                                                                                                                                                                                                                                                                                                                                                                                                                                                                                                                                                                                                                                                                                                                                                                                                                                                                                                                                                                                                                                                                                                                                                                     059000000000000000000000000000000000000000000000000000                                                       00000000N                                                                                                                                                                                                                                                                                                                                                                                                                                                                                                                                                                                                                                                                                                                                                                                                                                                                                                                                                                                                                                                                                                                                                                                                                                                            
257100741250001000022100000001008794            774125000221002011220150000000000000000OSCAR FRANCISCO TRIBST PAULINO                                        200619621200000000                                                                      00000000000SOPHIA TRIBST PAULINO                                                 06608087810                                                                                000010100010000000000070840828596486400000000000                                                                                                                                                                                                                                                                                             00001008794000000000000GERENTE DE QUALIDADE10022003                                                                                                                                                                0000000000                                                                                                    RUA GERALDO FLAUSINO GOMES 61 CONJ 132 13 ANDAR                            BROOKLIN NOVO                                               SAO PAULO                                                               SP045750600000  00000000000000000000000000000000000000                                                                                                                                                                                              237016489 00000000166952 CCI                                                                                                    NP040000NP0301022018055700000000000000000000000000000000000000000000000000                                                       00000000N                                                                                                                                                                                                                                                                                                                                                                                                                                                                                                                                                                                                                                                                                                                                                                                                                                                                                                                                                                                                                                                                                                                                                                                                                                                            
257100741250001000022102000001008794            774125000221028011220150000000000000000ISABEL CRISTINA CINC PAULINO                                          290819602210000000                                                                                 AUGUSTA MENDES CINCERRE                                               06608088892                                                                                           0000000000070920823662023500000000000                                                                                                                                                                                                                                                                                                                                                                                                                                                                                                                                                                                                                                                                                                                                                                                                                                                                                                                                                                                                                                                                                                                                                                                                                                                     055700000000000000000000000000000000000000000000000000                                                       00000000N                                                                                                                                                                                                                                                                                                                                                                                                                                                                                                                                                                                                                                                                                                                                                                                                                                                                                                                                                                                                                                                                                                                                                                                                                                                            
257100741250001000024800000001012217            774125000248005011220150000000000000000FERNANDO LIMA PINTO FERRAZ                                            040319771200000000                                                                      00000000000VANDA LIMA PINTO FERRAZ                                               26121994894                                                                                000010100010000000000070780065221941600000000000                                                                                                                                                                                                                                                                                             00001012217000000000000GESTOR EXTRACAO E UT06032006                                                                                                                                                                0000000000                                                                                                    RUA GERALDO FLAUSINO GOMES 61 CONJ 132 13 ANDAR                            BROOKLIN NOVO                                               SAO PAULO                                                               SP045750600000  00000000000000000000000000000000000000                                                                                                                                                                                              237016489 00000000182591 CCI                                                                                                    NP030000    01122015059000000000000000000000000000000000000000000000000000                                                       00000000N                                                                                                                                                                                                                                                                                                                                                                                                                                                                                                                                                                                                                                                                                                                                                                                                                                                                                                                                                                                                                                                                                                                                                                                                                                                            
257100741250001000024801000001012217            774125000248013011220150000000000000000ARTHUR BRAGA PINTO FERRAZ                                             110120061120000000                                                                                 MARIA AMELIA BRAGA PINTO FERRAZ                                       49938382800                                                                                           0000000000070620150229006700000000000                                                                                                                                                                                                                                                                                                                                                                                                                                                                                                                                                                                                                                                                                                                                                                                                                                                                                                                                                                                                                                                                                                                                                                                                                                                     059000000000000000000000000000000000000000000000000000                                                       00000000N                                                                                                                                                                                                                                                                                                                                                                                                                                                                                                                                                                                                                                                                                                                                                                                                                                                                                                                                                                                                                                                                                                                                                                                                                                                            
257100741250001000024802000001012217            774125000248021011220150000000000000000MARIA AMELIA BRAGA PINTO FERRAZ                                       120919792210000000                                                                                 LAIR PINTOR BRAGA                                                     21434782832                                                                                           0000000000070050273599915700000000000                                                                                                                                                                                                                                                                                                                                                                                                                                                                                                                                                                                                                                                                                                                                                                                                                                                                                                                                                                                                                                                                                                                                                                                                                                                     059000000000000000000000000000000000000000000000000000                                                       00000000N                                                                                                                                                                                                                                                                                                                                                                                                                                                                                                                                                                                                                                                                                                                                                                                                                                                                                                                                                                                                                                                                                                                                                                                                                                                            
257100741250001000024803000001012217            774125000248039011220150000000000000000PEDRO BRAGA PINTO FERRAZ                                              121220081120000000                                                                                 MARIA AMELIA BRAGA PINTO FERRAZ                                       49938402844                                                                                           0000000000070030497206833900000000000                                                                                                                                                                                                                                                                                                                                                                                                                                                                                                                                                                                                                                                                                                                                                                                                                                                                                                                                                                                                                                                                                                                                                                                                                                                     059000000000000000000000000000000000000000000000000000                                                       00000000N                                                                                                                                                                                                                                                                                                                                                                                                                                                                                                                                                                                                                                                                                                                                                                                                                                                                                                                                                                                                                                                                                                                                                                                                                                                            
257100741250001000025600000001012829            774125000256008011220150000000000000000FELIPE VICCHIATO                                                      170919761200000000                                                                      00000000000SUELI DOS REIS VICCHIATO                                              26059341870                                                                                000010100010000000000070840624493806900000000000                                                                                                                                                                                                                                                                                             00001012829000000000000DIRETOR FINANCEIRO E07082006                                                                                                                                                                0000000000                                                                                                    RUA TEIXEIRA DA SILVA 515 APT 161                                          PARAISO                                                     SAO PAULO                                                               SP040020320000  00000000000000000000000000000000000000                                                                                                                                                                                              34103741  00000000345361 CCC                                                                                                    NP060000    01122015059000000000000000000000000000000000000000000000000000                                                       00000000N                                                                                                                                                                                                                                                                                                                                                                                                                                                                                                                                                                                                                                                                                                                                                                                                                                                                                                                                                                                                                                                                                                                                                                                                                                                            
257100741250001000025601000001012829            774125000256016011220150000000000000000CRISTIANE BARBOSA VICCHIATO                                           270319792210000000                                                                                 LEILA CHAMA BARBOSA                                                   27717239809                                                                                           0000000000070110700345641000000000000                                                                                                                                                                                                                                                                                                                                                                                                                                                                                                                                                                                                                                                                                                                                                                                                                                                                                                                                                                                                                                                                                                                                                                                                                                                     059000000000000000000000000000000000000000000000000000                                                       00000000N                                                                                                                                                                                                                                                                                                                                                                                                                                                                                                                                                                                                                                                                                                                                                                                                                                                                                                                                                                                                                                                                                                                                                                                                                                                            
257100741250001000025602000001012829            774125000256024011220150000000000000000GIOVANNA BARBOSA VICCHIATO                                            050220152120000000                                                                                 CRISTIANE BARBOSA                                                     56868937806                                                                                           0000000000089800463607829400000000000                                                                                                                                                                                                                                                                                                                                                                                                                                                                                                                                                                                                                                                                                                                                                                                                                                                                                                                                                                                                                                                                                                                                                                                                                                                     059000000000000000000000000000000000000000000000000000                                                       00000000N                                                                                                                                                                                                                                                                                                                                                                                                                                                                                                                                                                                                                                                                                                                                                                                                                                                                                                                                                                                                                                                                                                                                                                                                                                                            
