1007402220250731.POSICAO CADASTRAL CADRET.                                                                                                                                                                                                                                                                                                                                                                                                                                                                                                                                                                                                                                                                                                                                                                                                                                                                                                                                                                                                                                                                                                                                                                                                                                                                                                                                                                                                                                                                                                                                                                                                                                                                                                                                                                                                                                                                                                                                                                                                                                                                                                                                                                                                                                                                                                                                                                                                                                                                                                                                                                                                                                                                                                                                                                                                                                                                                                                                                                                                                                                                              
25710074022050000231240000000000078A            774022023124005300320160000000000000000MARCIA OMINE                                                          261019602200000000                                                                      00000000000RETSUKO OMINE                                                         88269590720                                                                                000010100010000000000070120007553171300000000000                                                                                                                                                                                                                                                                                             00000000000000000000000                    30032016                                                                                                                                                                0000000000                                                                                                    ESTRADA DO DENDE N 1877 APTO 101                                           MONERO                                                      RIO DE JANEIRO                                                          RJ219200010000  00000000000000000000000000000000000000                                                                                                                                                                                              10400215  00000009606367 CCI                                                                                                    QN060000    30032016059000000000000000000000000000000000000000000000000000                                                       00000000N                                                                                                                                                                                                                                                                                                                                                                                                                                                                                                                                                                                                                                                                                                                                                                                                                                                                                                                                                                                                                                                                                                                                                                                                                                                            
3000001000001000000                                                                                                                                                                                                                                                                                                                                                                                                                                                                                                                                                                                                                                                                                                                                                                                                                                                                                                                                                                                                                                                                                                                                                                                                                                                                                                                                                                                                                                                                                                                                                                                                                                                                                                                                                                                                                                                                                                                                                                                                                                                                                                                                                                                                                                                                                                                                                                                                                                                                                                                                                                                                                                                                                                                                                                                                                                                                                                                                                                                                                                                                                                     
